{
  "_format": "hh-sol-artifact-1",
  "contractName": "QuantumProvider",
  "sourceName": "contracts/QuantumProviderContract.sol",
  "abi": [
    {
      "inputs": [],
      "stateMutability": "nonpayable",
      "type": "constructor"
    },
    {
      "anonymous": false,
      "inputs": [
        {
          "indexed": false,
          "internalType": "address",
          "name": "backend",
          "type": "address"
        }
      ],
      "name": "LogBackendRegistered",
      "type": "event"
    },
    {
      "anonymous": false,
      "inputs": [
        {
          "indexed": false,
          "internalType": "address",
          "name": "backend",
          "type": "address"
        }
      ],
      "name": "LogBackendUnregistered",
      "type": "event"
    },
    {
      "inputs": [
        {
          "internalType": "address",
          "name": "backend",
          "type": "address"
        }
      ],
      "name": "addBackend",
      "outputs": [],
      "stateMutability": "nonpayable",
      "type": "function"
    },
    {
      "inputs": [
        {
          "internalType": "uint256",
          "name": "",
          "type": "uint256"
        }
      ],
      "name": "backends",
      "outputs": [
        {
          "internalType": "address",
          "name": "",
          "type": "address"
        }
      ],
      "stateMutability": "view",
      "type": "function"
    },
    {
      "inputs": [
        {
          "internalType": "address",
          "name": "backend",
          "type": "address"
        }
      ],
      "name": "deleteBackend",
      "outputs": [],
      "stateMutability": "nonpayable",
      "type": "function"
    },
    {
      "inputs": [],
      "name": "getBackends",
      "outputs": [
        {
          "internalType": "address[]",
          "name": "",
          "type": "address[]"
        }
      ],
      "stateMutability": "view",
      "type": "function"
    },
    {
      "inputs": [],
      "name": "owner",
      "outputs": [
        {
          "internalType": "address",
          "name": "",
          "type": "address"
        }
      ],
      "stateMutability": "view",
      "type": "function"
    }
  ],
  "bytecode": "0x608060405234801561001057600080fd5b50336000806101000a81548173ffffffffffffffffffffffffffffffffffffffff021916908373ffffffffffffffffffffffffffffffffffffffff1602179055506109e6806100606000396000f3fe608060405234801561001057600080fd5b50600436106100575760003560e01c806324b469651461005c5780632ac016ad1461007857806363be8571146100945780638da5cb5b146100c4578063e1683e2d146100e2575b600080fd5b61007660048036038101906100719190610661565b610100565b005b610092600480360381019061008d9190610661565b610353565b005b6100ae60048036038101906100a991906106c4565b610490565b6040516100bb9190610700565b60405180910390f35b6100cc6104cf565b6040516100d99190610700565b60405180910390f35b6100ea6104f3565b6040516100f791906107d9565b60405180910390f35b60008054906101000a900473ffffffffffffffffffffffffffffffffffffffff1673ffffffffffffffffffffffffffffffffffffffff163373ffffffffffffffffffffffffffffffffffffffff161461018e576040517f08c379a000000000000000000000000000000000000000000000000000000000815260040161018590610858565b60405180910390fd5b60005b60018054905081101561034f578173ffffffffffffffffffffffffffffffffffffffff16600182815481106101c9576101c8610878565b5b9060005260206000200160009054906101000a900473ffffffffffffffffffffffffffffffffffffffff1673ffffffffffffffffffffffffffffffffffffffff160361033c57600180808054905061022191906108d6565b8154811061023257610231610878565b5b9060005260206000200160009054906101000a900473ffffffffffffffffffffffffffffffffffffffff166001828154811061027157610270610878565b5b9060005260206000200160006101000a81548173ffffffffffffffffffffffffffffffffffffffff021916908373ffffffffffffffffffffffffffffffffffffffff16021790555060018054806102cb576102ca61090a565b5b6001900381819060005260206000200160006101000a81549073ffffffffffffffffffffffffffffffffffffffff021916905590557f69bd7a4eb820daa730b2162483ac2eb9de192f550b037fb22181b7ecede3899c8260405161032f9190610700565b60405180910390a161034f565b808061034790610939565b915050610191565b5050565b60008054906101000a900473ffffffffffffffffffffffffffffffffffffffff1673ffffffffffffffffffffffffffffffffffffffff163373ffffffffffffffffffffffffffffffffffffffff16146103e1576040517f08c379a00000000000000000000000000000000000000000000000000000000081526004016103d890610858565b60405180910390fd5b601060ff16600180549050101561048d576001819080600181540180825580915050600190039060005260206000200160009091909190916101000a81548173ffffffffffffffffffffffffffffffffffffffff021916908373ffffffffffffffffffffffffffffffffffffffff1602179055507f3aadd1d4bb6434721330382d73476e77ba610de425ec37eeeb76a74922beada3816040516104849190610700565b60405180910390a15b50565b600181815481106104a057600080fd5b906000526020600020016000915054906101000a900473ffffffffffffffffffffffffffffffffffffffff1681565b60008054906101000a900473ffffffffffffffffffffffffffffffffffffffff1681565b6060600060018054905067ffffffffffffffff81111561051657610515610981565b5b6040519080825280602002602001820160405280156105445781602001602082028036833780820191505090505b50905060005b6001805490508110156105f6576001818154811061056b5761056a610878565b5b9060005260206000200160009054906101000a900473ffffffffffffffffffffffffffffffffffffffff168282815181106105a9576105a8610878565b5b602002602001019073ffffffffffffffffffffffffffffffffffffffff16908173ffffffffffffffffffffffffffffffffffffffff168152505080806105ee90610939565b91505061054a565b508091505090565b600080fd5b600073ffffffffffffffffffffffffffffffffffffffff82169050919050565b600061062e82610603565b9050919050565b61063e81610623565b811461064957600080fd5b50565b60008135905061065b81610635565b92915050565b600060208284031215610677576106766105fe565b5b60006106858482850161064c565b91505092915050565b6000819050919050565b6106a18161068e565b81146106ac57600080fd5b50565b6000813590506106be81610698565b92915050565b6000602082840312156106da576106d96105fe565b5b60006106e8848285016106af565b91505092915050565b6106fa81610623565b82525050565b600060208201905061071560008301846106f1565b92915050565b600081519050919050565b600082825260208201905092915050565b6000819050602082019050919050565b61075081610623565b82525050565b60006107628383610747565b60208301905092915050565b6000602082019050919050565b60006107868261071b565b6107908185610726565b935061079b83610737565b8060005b838110156107cc5781516107b38882610756565b97506107be8361076e565b92505060018101905061079f565b5085935050505092915050565b600060208201905081810360008301526107f3818461077b565b905092915050565b600082825260208201905092915050565b7f4f776e6572206f6e6c7900000000000000000000000000000000000000000000600082015250565b6000610842600a836107fb565b915061084d8261080c565b602082019050919050565b6000602082019050818103600083015261087181610835565b9050919050565b7f4e487b7100000000000000000000000000000000000000000000000000000000600052603260045260246000fd5b7f4e487b7100000000000000000000000000000000000000000000000000000000600052601160045260246000fd5b60006108e18261068e565b91506108ec8361068e565b9250828203905081811115610904576109036108a7565b5b92915050565b7f4e487b7100000000000000000000000000000000000000000000000000000000600052603160045260246000fd5b60006109448261068e565b91507fffffffffffffffffffffffffffffffffffffffffffffffffffffffffffffffff8203610976576109756108a7565b5b600182019050919050565b7f4e487b7100000000000000000000000000000000000000000000000000000000600052604160045260246000fdfea2646970667358221220577ffa0e38a42f66c87169d0c1edbb8369ade6e93dbc4df9f5819f38659ec08664736f6c63430008110033",
  "linkReferences": {},
  "deployedLinkReferences": {}
}