{"contracts/QuantumBackendContract.sol":{"QuantumBackendContract":{"abi":[{"inputs":[],"stateMutability":"nonpayable","type":"constructor"},{"inputs":[{"internalType":"uint256","name":"","type":"uint256"}],"name":"gatesNames","outputs":[{"internalType":"string","name":"","type":"string"}],"stateMutability":"view","type":"function"},{"inputs":[],"name":"getGatesNames","outputs":[{"internalType":"string[]","name":"","type":"string[]"}],"stateMutability":"view","type":"function"},{"inputs":[],"name":"getName","outputs":[{"internalType":"string","name":"","type":"string"}],"stateMutability":"pure","type":"function"},{"inputs":[],"name":"getNumberOfQubits","outputs":[{"internalType":"uint8","name":"","type":"uint8"}],"stateMutability":"pure","type":"function"},{"inputs":[],"name":"isQPU","outputs":[{"internalType":"bool","name":"","type":"bool"}],"stateMutability":"pure","type":"function"},{"inputs":[],"name":"isSimulator","outputs":[{"internalType":"bool","name":"","type":"bool"}],"stateMutability":"pure","type":"function"},{"inputs":[],"name":"owner","outputs":[{"internalType":"address","name":"","type":"address"}],"stateMutability":"view","type":"function"},{"inputs":[{"internalType":"uint8","name":"numQubits","type":"uint8"},{"internalType":"string","name":"s","type":"string"},{"internalType":"uint256","name":"randomSeed","type":"uint256"}],"name":"runQScript","outputs":[{"internalType":"uint256","name":"","type":"uint256"}],"stateMutability":"view","type":"function"}],"evm":{"bytecode":{"linkReferences":{},"object":"60806040526040518061020001604052806040518060400160405280600181526020017f480000000000000000000000000000000000000000000000000000000000000081525081526020016040518060400160405280600181526020017f490000000000000000000000000000000000000000000000000000000000000081525081526020016040518060400160405280600281526020017f434e00000000000000000000000000000000000000000000000000000000000081525081526020016040518060400160405280600381526020017f43434e000000000000000000000000000000000000000000000000000000000081525081526020016040518060400160405280600181526020017f580000000000000000000000000000000000000000000000000000000000000081525081526020016040518060400160405280600181526020017f590000000000000000000000000000000000000000000000000000000000000081525081526020016040518060400160405280600181526020017f5a0000000000000000000000000000000000000000000000000000000000000081525081526020016040518060400160405280600381526020017f503435000000000000000000000000000000000000000000000000000000000081525081526020016040518060400160405280600381526020017f703435000000000000000000000000000000000000000000000000000000000081525081526020016040518060400160405280600181526020017f540000000000000000000000000000000000000000000000000000000000000081525081526020016040518060400160405280600181526020017f740000000000000000000000000000000000000000000000000000000000000081525081526020016040518060400160405280600481526020017f435034350000000000000000000000000000000000000000000000000000000081525081526020016040518060400160405280600481526020017f437034350000000000000000000000000000000000000000000000000000000081525081526020016040518060400160405280600281526020017f435400000000000000000000000000000000000000000000000000000000000081525081526020016040518060400160405280600281526020017f437400000000000000000000000000000000000000000000000000000000000081525081526020016040518060400160405280600181526020017f6d000000000000000000000000000000000000000000000000000000000000008152508152506001906010620003d092919062000425565b50348015620003de57600080fd5b50336000806101000a81548173ffffffffffffffffffffffffffffffffffffffff021916908373ffffffffffffffffffffffffffffffffffffffff16021790555062000873565b82805482825590600052602060002090810192821562000472579160200282015b82811115620004715782518290816200046091906200078c565b509160200191906001019062000446565b5b50905062000481919062000485565b5090565b5b80821115620004a957600081816200049f9190620004ad565b5060010162000486565b5090565b508054620004bb906200057b565b6000825580601f10620004cf5750620004f0565b601f016020900490600052602060002090810190620004ef9190620004f3565b5b50565b5b808211156200050e576000816000905550600101620004f4565b5090565b600081519050919050565b7f4e487b7100000000000000000000000000000000000000000000000000000000600052604160045260246000fd5b7f4e487b7100000000000000000000000000000000000000000000000000000000600052602260045260246000fd5b600060028204905060018216806200059457607f821691505b602082108103620005aa57620005a96200054c565b5b50919050565b60008190508160005260206000209050919050565b60006020601f8301049050919050565b600082821b905092915050565b600060088302620006147fffffffffffffffffffffffffffffffffffffffffffffffffffffffffffffffff82620005d5565b620006208683620005d5565b95508019841693508086168417925050509392505050565b6000819050919050565b6000819050919050565b60006200066d62000667620006618462000638565b62000642565b62000638565b9050919050565b6000819050919050565b62000689836200064c565b620006a1620006988262000674565b848454620005e2565b825550505050565b600090565b620006b8620006a9565b620006c58184846200067e565b505050565b5b81811015620006ed57620006e1600082620006ae565b600181019050620006cb565b5050565b601f8211156200073c576200070681620005b0565b6200071184620005c5565b8101602085101562000721578190505b620007396200073085620005c5565b830182620006ca565b50505b505050565b600082821c905092915050565b6000620007616000198460080262000741565b1980831691505092915050565b60006200077c83836200074e565b9150826002028217905092915050565b620007978262000512565b67ffffffffffffffff811115620007b357620007b26200051d565b5b620007bf82546200057b565b620007cc828285620006f1565b600060209050601f831160018114620008045760008415620007ef578287015190505b620007fb85826200076e565b8655506200086b565b601f1984166200081486620005b0565b60005b828110156200083e5784890151825560018201915060208501945060208101905062000817565b868310156200085e57848901516200085a601f8916826200074e565b8355505b6001600288020188555050505b505050505050565b61513d80620008836000396000f3fe608060405234801561001057600080fd5b50600436106100885760003560e01c80634b50623c1161005b5780634b50623c1461012957806355c1e9531461014757806361c0fae8146101655780638da5cb5b1461018357610088565b806316a832bf1461008d57806317d2a5f2146100bd57806317d7de7c146100db57806348e20f0b146100f9575b600080fd5b6100a760048036038101906100a2919061481d565b6101a1565b6040516100b4919061489b565b60405180910390f35b6100c56107f2565b6040516100d291906149f7565b60405180910390f35b6100e36108cb565b6040516100f09190614a63565b60405180910390f35b610113600480360381019061010e9190614a85565b610908565b6040516101209190614a63565b60405180910390f35b6101316109b4565b60405161013e9190614ac1565b60405180910390f35b61014f6109bd565b60405161015c9190614af7565b60405180910390f35b61016d6109c6565b60405161017a9190614af7565b60405180910390f35b61018b6109cb565b6040516101989190614b53565b60405180910390f35b60006101ab6145b9565b606060008060008080895190506101c18b6109ef565b50600092505b8a60026101d49190614cd0565b8310156102d157600087602001518461010081106101f5576101f4614d1b565b5b602002015160016002811061020d5761020c614d1b565b5b6020020181815250876020015184610100811061022d5761022c614d1b565b5b602002015160006002811061024557610244614d1b565b5b6020020181815250876000015184610100811061026557610264614d1b565b5b602002015160016002811061027d5761027c614d1b565b5b6020020181815250876000015184610100811061029d5761029c614d1b565b5b60200201516000600281106102b5576102b4614d1b565b5b60200201818152505082806102c990614d4a565b9350506101c7565b60018760000151600061010081106102ec576102eb614d1b565b5b602002015160006002811061030457610303614d1b565b5b6020020181815250508a60ff1667ffffffffffffffff81111561032a576103296146bc565b5b6040519080825280602002602001820160405280156103585781602001602082028036833780820191505090505b509550600092505b8361058e57808b60ff16846103759190614d92565b1115610416577f2e000000000000000000000000000000000000000000000000000000000000007effffffffffffffffffffffffffffffffffffffffffffffffffffffffffffff19168a84815181106103d1576103d0614d1b565b5b602001015160f81c60f81b7effffffffffffffffffffffffffffffffffffffffffffffffffffffffffffff19160361040c5760019350610411565b600193505b610589565b600091505b8a60ff168210156104c85789838061043290614d4a565b94508151811061044557610444614d1b565b5b602001015160f81c60f81b86838151811061046357610462614d1b565b5b60200260200101907effffffffffffffffffffffffffffffffffffffffffffffffffffffffffffff191690817effffffffffffffffffffffffffffffffffffffffffffffffffffffffffffff19168152505081806104c090614d4a565b92505061041b565b6104d48b87898c610a44565b9a5080831015610583577f2e000000000000000000000000000000000000000000000000000000000000007effffffffffffffffffffffffffffffffffffffffffffffffffffffffffffff19168a848151811061053457610533614d1b565b5b602001015160f81c60f81b7effffffffffffffffffffffffffffffffffffffffffffffffffffffffffffff19160361056f576001935061057e565b828061057a90614d4a565b9350505b610588565b600193505b5b610360565b60009250600091505b8a60026105a49190614cd0565b8210156107355786602001518261010081106105c3576105c2614d1b565b5b60200201516000600281106105db576105da614d1b565b5b602002015187600001518361010081106105f8576105f7614d1b565b5b60200201516000600281106106105761060f614d1b565b5b602002018181516106219190614dd0565b915081815250506000876000015183610100811061064257610641614d1b565b5b602002015160006002811061065a57610659614d1b565b5b602002015112156106e057866000015182610100811061067d5761067c614d1b565b5b602002015160006002811061069557610694614d1b565b5b602002015160006106a69190614e14565b87600001518361010081106106be576106bd614d1b565b5b60200201516000600281106106d6576106d5614d1b565b5b6020020181815250505b86600001518261010081106106f8576106f7614d1b565b5b60200201516000600281106107105761070f614d1b565b5b6020020151836107209190614d92565b9250818061072d90614d4a565b925050610597565b6001610741848b612493565b61074b9190614d92565b9150600094505b866000015185610100811061076a57610769614d1b565b5b602002015160006002811061078257610781614d1b565b5b60200201518211156107e1578660000151858061079e90614d4a565b965061010081106107b2576107b1614d1b565b5b60200201516000600281106107ca576107c9614d1b565b5b6020020151826107da9190614e57565b9150610752565b849750505050505050509392505050565b60606001805480602002602001604051908101604052809291908181526020016000905b828210156108c257838290600052602060002001805461083590614eba565b80601f016020809104026020016040519081016040528092919081815260200182805461086190614eba565b80156108ae5780601f10610883576101008083540402835291602001916108ae565b820191906000526020600020905b81548152906001019060200180831161089157829003601f168201915b505050505081526020019060010190610816565b50505050905090565b60606040518060400160405280600f81526020017f70716365655f73696d756c61746f720000000000000000000000000000000000815250905090565b6001818154811061091857600080fd5b90600052602060002001600091509050805461093390614eba565b80601f016020809104026020016040519081016040528092919081815260200182805461095f90614eba565b80156109ac5780601f10610981576101008083540402835291602001916109ac565b820191906000526020600020905b81548152906001019060200180831161098f57829003601f168201915b505050505081565b60006008905090565b60006001905090565b600090565b60008054906101000a900473ffffffffffffffffffffffffffffffffffffffff1681565b6000600860ff168260ff161115610a3b576040517f08c379a0000000000000000000000000000000000000000000000000000000008152600401610a3290614f37565b60405180910390fd5b60009050919050565b600080600080600080896002610a5a9190614cd0565b90506001945060018a610a6d9190614f57565b60ff1685901b9450600093505b8960ff1684101561236f576000808360ff1614610a98576000610a9b565b60015b9050600093505b81841015610b345760008960200151856101008110610ac457610ac3614d1b565b5b60200201518260ff1660028110610ade57610add614d1b565b5b60200201818152508960000151856101008110610afe57610afd614d1b565b5b60200201518260ff1660028110610b1857610b17614d1b565b5b6020020181815250508380610b2c90614d4a565b945050610aa2565b7f48000000000000000000000000000000000000000000000000000000000000007effffffffffffffffffffffffffffffffffffffffffffffffffffffffffffff19168a8681518110610b8a57610b89614d1b565b5b60200260200101517effffffffffffffffffffffffffffffffffffffffffffffffffffffffffffff191603610c6d57600093505b81841015610c685760008960000151856101008110610be057610bdf614d1b565b5b60200201518460ff1660028110610bfa57610bf9614d1b565b5b6020020151141580610c43575060008960200151856101008110610c2157610c20614d1b565b5b60200201518460ff1660028110610c3b57610c3a614d1b565b5b602002015114155b15610c5557610c5486858b866124db565b5b8380610c6090614d4a565b945050610bbe565b612351565b7f49000000000000000000000000000000000000000000000000000000000000007effffffffffffffffffffffffffffffffffffffffffffffffffffffffffffff19168a8681518110610cc357610cc2614d1b565b5b60200260200101517effffffffffffffffffffffffffffffffffffffffffffffffffffffffffffff19161480610d7657507f43000000000000000000000000000000000000000000000000000000000000007effffffffffffffffffffffffffffffffffffffffffffffffffffffffffffff19168a8681518110610d4a57610d49614d1b565b5b60200260200101517effffffffffffffffffffffffffffffffffffffffffffffffffffffffffffff1916145b15610e2e57600093505b81841015610e295760008960000151856101008110610da257610da1614d1b565b5b60200201518460ff1660028110610dbc57610dbb614d1b565b5b6020020151141580610e05575060008960200151856101008110610de357610de2614d1b565b5b60200201518460ff1660028110610dfd57610dfc614d1b565b5b602002015114155b15610e1657610e15848a8561294a565b5b8380610e2190614d4a565b945050610d80565b612350565b7f58000000000000000000000000000000000000000000000000000000000000007effffffffffffffffffffffffffffffffffffffffffffffffffffffffffffff19168a8681518110610e8457610e83614d1b565b5b60200260200101517effffffffffffffffffffffffffffffffffffffffffffffffffffffffffffff191603610f6757600093505b81841015610f625760008960000151856101008110610eda57610ed9614d1b565b5b60200201518460ff1660028110610ef457610ef3614d1b565b5b6020020151141580610f3d575060008960200151856101008110610f1b57610f1a614d1b565b5b60200201518460ff1660028110610f3557610f34614d1b565b5b602002015114155b15610f4f57610f4e86858b86612a6a565b5b8380610f5a90614d4a565b945050610eb8565b61234f565b7f59000000000000000000000000000000000000000000000000000000000000007effffffffffffffffffffffffffffffffffffffffffffffffffffffffffffff19168a8681518110610fbd57610fbc614d1b565b5b60200260200101517effffffffffffffffffffffffffffffffffffffffffffffffffffffffffffff1916036110a057600093505b8184101561109b576000896000015185610100811061101357611012614d1b565b5b60200201518460ff166002811061102d5761102c614d1b565b5b602002015114158061107657506000896020015185610100811061105457611053614d1b565b5b60200201518460ff166002811061106e5761106d614d1b565b5b602002015114155b156110885761108786858b86612cc9565b5b838061109390614d4a565b945050610ff1565b61234e565b7f5a000000000000000000000000000000000000000000000000000000000000007effffffffffffffffffffffffffffffffffffffffffffffffffffffffffffff19168a86815181106110f6576110f5614d1b565b5b60200260200101517effffffffffffffffffffffffffffffffffffffffffffffffffffffffffffff1916036111d957600093505b818410156111d4576000896000015185610100811061114c5761114b614d1b565b5b60200201518460ff166002811061116657611165614d1b565b5b60200201511415806111af57506000896020015185610100811061118d5761118c614d1b565b5b60200201518460ff16600281106111a7576111a6614d1b565b5b602002015114155b156111c1576111c086858b86612f40565b5b83806111cc90614d4a565b94505061112a565b61234d565b7f6d000000000000000000000000000000000000000000000000000000000000007effffffffffffffffffffffffffffffffffffffffffffffffffffffffffffff19168a868151811061122f5761122e614d1b565b5b60200260200101517effffffffffffffffffffffffffffffffffffffffffffffffffffffffffffff19160361185f5760008094505b828510156115a457896000015185610100811061128457611283614d1b565b5b60200201518460ff166002811061129e5761129d614d1b565b5b60200201518a600001518661010081106112bb576112ba614d1b565b5b60200201518360ff16600281106112d5576112d4614d1b565b5b60200201818152505060008a600001518661010081106112f8576112f7614d1b565b5b60200201518360ff166002811061131257611311614d1b565b5b6020020151121561139c57896000015185610100811061133557611334614d1b565b5b60200201518260ff166002811061134f5761134e614d1b565b5b602002015160006113609190614e14565b8a6000015186610100811061137857611377614d1b565b5b60200201518360ff166002811061139257611391614d1b565b5b6020020181815250505b89602001518561010081106113b4576113b3614d1b565b5b60200201518460ff16600281106113ce576113cd614d1b565b5b60200201518a602001518661010081106113eb576113ea614d1b565b5b60200201518360ff166002811061140557611404614d1b565b5b60200201818152505060008a6020015186610100811061142857611427614d1b565b5b60200201518360ff166002811061144257611441614d1b565b5b602002015112156114cc57896020015185610100811061146557611464614d1b565b5b60200201518260ff166002811061147f5761147e614d1b565b5b602002015160006114909190614e14565b8a602001518661010081106114a8576114a7614d1b565b5b60200201518360ff16600281106114c2576114c1614d1b565b5b6020020181815250505b89602001518561010081106114e4576114e3614d1b565b5b60200201518260ff16600281106114fe576114fd614d1b565b5b60200201518a6000015186610100811061151b5761151a614d1b565b5b60200201518360ff166002811061153557611534614d1b565b5b602002018181516115469190614dd0565b91508181525050896000015185610100811061156557611564614d1b565b5b60200201518260ff166002811061157f5761157e614d1b565b5b60200201518161158f9190614d92565b9050848061159c90614d4a565b955050611264565b60016115b0828b612493565b6115ba9190614d92565b9450600090505b89600001518161010081106115d9576115d8614d1b565b5b60200201518260ff16600281106115f3576115f2614d1b565b5b6020020151851115611654578960000151818061160f90614d4a565b9250610100811061162357611622614d1b565b5b60200201518260ff166002811061163d5761163c614d1b565b5b60200201518561164d9190614e57565b94506115c1565b600094505b828510156116eb5760008a6020015186610100811061167b5761167a614d1b565b5b60200201518360ff166002811061169557611694614d1b565b5b60200201818152508a600001518661010081106116b5576116b4614d1b565b5b60200201518360ff16600281106116cf576116ce614d1b565b5b60200201818152505084806116e390614d4a565b955050611659565b6000878216036117a957600094505b828510156117a45760008a6000015186610100811061171c5761171b614d1b565b5b60200201518560ff166002811061173657611735614d1b565b5b602002015114158061177f575060008a6020015186610100811061175d5761175c614d1b565b5b60200201518560ff166002811061177757611776614d1b565b5b602002015114155b156117915761179087868c8761318b565b5b848061179c90614d4a565b9550506116fa565b611859565b600094505b828510156118585760008a600001518661010081106117d0576117cf614d1b565b5b60200201518560ff16600281106117ea576117e9614d1b565b5b6020020151141580611833575060008a6020015186610100811061181157611810614d1b565b5b60200201518560ff166002811061182b5761182a614d1b565b5b602002015114155b156118455761184487868c876132b7565b5b848061185090614d4a565b9550506117ae565b5b5061234c565b7f4e000000000000000000000000000000000000000000000000000000000000007effffffffffffffffffffffffffffffffffffffffffffffffffffffffffffff19168a86815181106118b5576118b4614d1b565b5b60200260200101517effffffffffffffffffffffffffffffffffffffffffffffffffffffffffffff191603611a755760006001905060018c6118f79190614f57565b60ff1681901b905060008095505b8c60ff168610156119be577f43000000000000000000000000000000000000000000000000000000000000007effffffffffffffffffffffffffffffffffffffffffffffffffffffffffffff19168c878151811061196657611965614d1b565b5b60200260200101517effffffffffffffffffffffffffffffffffffffffffffffffffffffffffffff1916036119a45781816119a19190614d92565b90505b600182901c915085806119b690614d4a565b965050611905565b600095505b83861015611a6e5760008b600001518761010081106119e5576119e4614d1b565b5b60200201518660ff16600281106119ff576119fe614d1b565b5b6020020151141580611a48575060008b60200151876101008110611a2657611a25614d1b565b5b60200201518660ff1660028110611a4057611a3f614d1b565b5b602002015114155b15611a5b57611a5a8189888e896133e2565b5b8580611a6690614d4a565b9650506119c3565b505061234b565b7f50000000000000000000000000000000000000000000000000000000000000007effffffffffffffffffffffffffffffffffffffffffffffffffffffffffffff19168a8681518110611acb57611aca614d1b565b5b60200260200101517effffffffffffffffffffffffffffffffffffffffffffffffffffffffffffff19161480611b7e57507f70000000000000000000000000000000000000000000000000000000000000007effffffffffffffffffffffffffffffffffffffffffffffffffffffffffffff19168a8681518110611b5257611b51614d1b565b5b60200260200101517effffffffffffffffffffffffffffffffffffffffffffffffffffffffffffff1916145b15611dac5760006001905060018c611b969190614f57565b60ff1681901b905060008095505b8c60ff16861015611c5d577f43000000000000000000000000000000000000000000000000000000000000007effffffffffffffffffffffffffffffffffffffffffffffffffffffffffffff19168c8781518110611c0557611c04614d1b565b5b60200260200101517effffffffffffffffffffffffffffffffffffffffffffffffffffffffffffff191603611c43578181611c409190614d92565b90505b600182901c91508580611c5590614d4a565b965050611ba4565b600095505b83861015611da55760008b60000151876101008110611c8457611c83614d1b565b5b60200201518660ff1660028110611c9e57611c9d614d1b565b5b6020020151141580611ce7575060008b60200151876101008110611cc557611cc4614d1b565b5b60200201518660ff1660028110611cdf57611cde614d1b565b5b602002015114155b15611d92577f50000000000000000000000000000000000000000000000000000000000000007effffffffffffffffffffffffffffffffffffffffffffffffffffffffffffff19168c8881518110611d4257611d41614d1b565b5b60200260200101517effffffffffffffffffffffffffffffffffffffffffffffffffffffffffffff191603611d8357611d7e8189888e89613761565b611d91565b611d908189888e89613ab2565b5b5b8580611d9d90614d4a565b965050611c62565b505061234a565b7f54000000000000000000000000000000000000000000000000000000000000007effffffffffffffffffffffffffffffffffffffffffffffffffffffffffffff19168a8681518110611e0257611e01614d1b565b5b60200260200101517effffffffffffffffffffffffffffffffffffffffffffffffffffffffffffff19161480611eb557507f74000000000000000000000000000000000000000000000000000000000000007effffffffffffffffffffffffffffffffffffffffffffffffffffffffffffff19168a8681518110611e8957611e88614d1b565b5b60200260200101517effffffffffffffffffffffffffffffffffffffffffffffffffffffffffffff1916145b1561230e5760006001905060018c611ecd9190614f57565b60ff1681901b90506000611edf6145df565b600096505b8d60ff16871015611f9d577f43000000000000000000000000000000000000000000000000000000000000007effffffffffffffffffffffffffffffffffffffffffffffffffffffffffffff19168d8881518110611f4557611f44614d1b565b5b60200260200101517effffffffffffffffffffffffffffffffffffffffffffffffffffffffffffff191603611f83578282611f809190614d92565b91505b600183901c92508680611f9590614d4a565b975050611ee4565b60009250600096505b8487101561218357600081886101008110611fc457611fc3614d1b565b5b602002019060ff16908160ff168152505060008c60000151886101008110611fef57611fee614d1b565b5b60200201518760ff166002811061200957612008614d1b565b5b6020020151141580612052575060008c602001518861010081106120305761202f614d1b565b5b60200201518760ff166002811061204a57612049614d1b565b5b602002015114155b15612170577f54000000000000000000000000000000000000000000000000000000000000007effffffffffffffffffffffffffffffffffffffffffffffffffffffffffffff19168d89815181106120ad576120ac614d1b565b5b60200260200101517effffffffffffffffffffffffffffffffffffffffffffffffffffffffffffff191603612113576120e9828a898f8a613e03565b818861010081106120fd576120fc614d1b565b5b602002019060ff16908160ff1681525050612146565b612120828a898f8a6141d8565b8188610100811061213457612133614d1b565b5b602002019060ff16908160ff16815250505b60008188610100811061215c5761215b614d1b565b5b602002015160ff16111561216f57600192505b5b868061217b90614d4a565b975050611fa6565b600083111561230657600096505b84871015612305576000818861010081106121af576121ae614d1b565b5b602002015160ff160361225957600a8c600001518861010081106121d6576121d5614d1b565b5b60200201518560ff16600281106121f0576121ef614d1b565b5b602002018181516122019190614f8c565b91508181525050600a8c6020015188610100811061222257612221614d1b565b5b60200201518560ff166002811061223c5761223b614d1b565b5b6020020181815161224d9190614f8c565b915081815250506122f2565b60078c6000015188610100811061227357612272614d1b565b5b60200201518560ff166002811061228d5761228c614d1b565b5b6020020181815161229e9190614f8c565b9150818152505060078c602001518861010081106122bf576122be614d1b565b5b60200201518560ff16600281106122d9576122d8614d1b565b5b602002018181516122ea9190614f8c565b915081815250505b86806122fd90614d4a565b975050612191565b5b505050612349565b6040517f08c379a000000000000000000000000000000000000000000000000000000000815260040161234090615050565b60405180910390fd5b5b5b5b5b5b5b5b5b600186901c955080925050838061236790614d4a565b945050610a7a565b60018260ff160361248357600092505b89600261238c9190614cd0565b8310156124825787600001518361010081106123ab576123aa614d1b565b5b60200201516001600281106123c3576123c2614d1b565b5b602002015188600001518461010081106123e0576123df614d1b565b5b60200201516000600281106123f8576123f7614d1b565b5b602002018181525050876020015183610100811061241957612418614d1b565b5b602002015160016002811061243157612430614d1b565b5b6020020151886020015184610100811061244e5761244d614d1b565b5b602002015160006002811061246657612465614d1b565b5b602002018181525050828061247a90614d4a565b93505061237f565b5b8995505050505050949350505050565b6000804342846040516020016124ab93929190615070565b6040516020818303038152906040528051906020012060001c905083816124d291906150d6565b91505092915050565b6000808260ff16146124ee5760006124f1565b60015b905060008486161461272857826000015184610100811061251557612514614d1b565b5b60200201518260ff166002811061252f5761252e614d1b565b5b6020020151836000015186866125459190614e57565b610100811061255757612556614d1b565b5b60200201518260ff166002811061257157612570614d1b565b5b602002018181516125829190614dd0565b9150818152505082602001518461010081106125a1576125a0614d1b565b5b60200201518260ff16600281106125bb576125ba614d1b565b5b6020020151836020015186866125d19190614e57565b61010081106125e3576125e2614d1b565b5b60200201518260ff16600281106125fd576125fc614d1b565b5b6020020181815161260e9190614dd0565b91508181525050826000015184610100811061262d5761262c614d1b565b5b60200201518260ff166002811061264757612646614d1b565b5b602002015160006126589190614e14565b83600001518561010081106126705761266f614d1b565b5b60200201518260ff166002811061268a57612689614d1b565b5b6020020181815161269b9190614dd0565b9150818152505082602001518461010081106126ba576126b9614d1b565b5b60200201518260ff16600281106126d4576126d3614d1b565b5b602002015183602001518561010081106126f1576126f0614d1b565b5b60200201518260ff166002811061270b5761270a614d1b565b5b6020020181815161271c9190614dd0565b91508181525050612943565b82600001518461010081106127405761273f614d1b565b5b60200201518260ff166002811061275a57612759614d1b565b5b6020020151836000015186866127709190614d92565b610100811061278257612781614d1b565b5b60200201518260ff166002811061279c5761279b614d1b565b5b602002018181516127ad9190614dd0565b9150818152505082602001518461010081106127cc576127cb614d1b565b5b60200201518260ff16600281106127e6576127e5614d1b565b5b6020020151836020015186866127fc9190614d92565b610100811061280e5761280d614d1b565b5b60200201518260ff166002811061282857612827614d1b565b5b602002018181516128399190614dd0565b91508181525050826000015184610100811061285857612857614d1b565b5b60200201518260ff166002811061287257612871614d1b565b5b6020020151836000015185610100811061288f5761288e614d1b565b5b60200201518260ff16600281106128a9576128a8614d1b565b5b602002018181516128ba9190614dd0565b9150818152505082602001518461010081106128d9576128d8614d1b565b5b60200201518260ff16600281106128f3576128f2614d1b565b5b602002015183602001518561010081106129105761290f614d1b565b5b60200201518260ff166002811061292a57612929614d1b565b5b6020020181815161293b9190614dd0565b915081815250505b5050505050565b6000808260ff161461295d576000612960565b60015b9050826000015184610100811061297a57612979614d1b565b5b60200201518260ff166002811061299457612993614d1b565b5b602002015183600001518561010081106129b1576129b0614d1b565b5b60200201518260ff16600281106129cb576129ca614d1b565b5b602002018181516129dc9190614dd0565b9150818152505082602001518461010081106129fb576129fa614d1b565b5b60200201518260ff1660028110612a1557612a14614d1b565b5b60200201518360200151856101008110612a3257612a31614d1b565b5b60200201518260ff1660028110612a4c57612a4b614d1b565b5b60200201818151612a5d9190614dd0565b9150818152505050505050565b6000808260ff1614612a7d576000612a80565b60015b9050600084861614612ba9578260000151846101008110612aa457612aa3614d1b565b5b60200201518260ff1660028110612abe57612abd614d1b565b5b602002015183600001518686612ad49190614e57565b6101008110612ae657612ae5614d1b565b5b60200201518260ff1660028110612b0057612aff614d1b565b5b60200201818151612b119190614dd0565b915081815250508260200151846101008110612b3057612b2f614d1b565b5b60200201518260ff1660028110612b4a57612b49614d1b565b5b602002015183602001518686612b609190614e57565b6101008110612b7257612b71614d1b565b5b60200201518260ff1660028110612b8c57612b8b614d1b565b5b60200201818151612b9d9190614dd0565b91508181525050612cc2565b8260000151846101008110612bc157612bc0614d1b565b5b60200201518260ff1660028110612bdb57612bda614d1b565b5b602002015183600001518686612bf19190614d92565b6101008110612c0357612c02614d1b565b5b60200201518260ff1660028110612c1d57612c1c614d1b565b5b60200201818151612c2e9190614dd0565b915081815250508260200151846101008110612c4d57612c4c614d1b565b5b60200201518260ff1660028110612c6757612c66614d1b565b5b602002015183602001518686612c7d9190614d92565b6101008110612c8f57612c8e614d1b565b5b60200201518260ff1660028110612ca957612ca8614d1b565b5b60200201818151612cba9190614dd0565b915081815250505b5050505050565b6000808260ff1614612cdc576000612cdf565b60015b9050600084861614612e14578260200151846101008110612d0357612d02614d1b565b5b60200201518260ff1660028110612d1d57612d1c614d1b565b5b602002015183600001518686612d339190614e57565b6101008110612d4557612d44614d1b565b5b60200201518260ff1660028110612d5f57612d5e614d1b565b5b60200201818151612d709190614dd0565b915081815250508260000151846101008110612d8f57612d8e614d1b565b5b60200201518260ff1660028110612da957612da8614d1b565b5b60200201516000612dba9190614e14565b83602001518686612dcb9190614e57565b6101008110612ddd57612ddc614d1b565b5b60200201518260ff1660028110612df757612df6614d1b565b5b60200201818151612e089190614dd0565b91508181525050612f39565b8260200151846101008110612e2c57612e2b614d1b565b5b60200201518260ff1660028110612e4657612e45614d1b565b5b60200201516000612e579190614e14565b83600001518686612e689190614d92565b6101008110612e7a57612e79614d1b565b5b60200201518260ff1660028110612e9457612e93614d1b565b5b60200201818151612ea59190614dd0565b915081815250508260000151846101008110612ec457612ec3614d1b565b5b60200201518260ff1660028110612ede57612edd614d1b565b5b602002015183602001518686612ef49190614d92565b6101008110612f0657612f05614d1b565b5b60200201518260ff1660028110612f2057612f1f614d1b565b5b60200201818151612f319190614dd0565b915081815250505b5050505050565b6000808260ff1614612f53576000612f56565b60015b9050600084861614613081578260000151846101008110612f7a57612f79614d1b565b5b60200201518260ff1660028110612f9457612f93614d1b565b5b60200201516000612fa59190614e14565b8360000151856101008110612fbd57612fbc614d1b565b5b60200201518260ff1660028110612fd757612fd6614d1b565b5b60200201818151612fe89190614dd0565b91508181525050826020015184610100811061300757613006614d1b565b5b60200201518260ff166002811061302157613020614d1b565b5b602002015160006130329190614e14565b836020015185610100811061304a57613049614d1b565b5b60200201518260ff166002811061306457613063614d1b565b5b602002018181516130759190614dd0565b91508181525050613184565b826000015184610100811061309957613098614d1b565b5b60200201518260ff16600281106130b3576130b2614d1b565b5b602002015183600001518561010081106130d0576130cf614d1b565b5b60200201518260ff16600281106130ea576130e9614d1b565b5b602002018181516130fb9190614dd0565b91508181525050826020015184610100811061311a57613119614d1b565b5b60200201518260ff166002811061313457613133614d1b565b5b6020020151836020015185610100811061315157613150614d1b565b5b60200201518260ff166002811061316b5761316a614d1b565b5b6020020181815161317c9190614dd0565b915081815250505b5050505050565b6000808260ff161461319e5760006131a1565b60015b90506000848616036132b05782600001518461010081106131c5576131c4614d1b565b5b60200201518260ff16600281106131df576131de614d1b565b5b602002015183600001518561010081106131fc576131fb614d1b565b5b60200201518260ff166002811061321657613215614d1b565b5b602002018181516132279190614dd0565b91508181525050826020015184610100811061324657613245614d1b565b5b60200201518260ff16600281106132605761325f614d1b565b5b6020020151836020015185610100811061327d5761327c614d1b565b5b60200201518260ff166002811061329757613296614d1b565b5b602002018181516132a89190614dd0565b915081815250505b5050505050565b6000808260ff16146132ca5760006132cd565b60015b905084848616036133db5782600001518461010081106132f0576132ef614d1b565b5b60200201518260ff166002811061330a57613309614d1b565b5b6020020151836000015185610100811061332757613326614d1b565b5b60200201518260ff166002811061334157613340614d1b565b5b602002018181516133529190614dd0565b91508181525050826020015184610100811061337157613370614d1b565b5b60200201518260ff166002811061338b5761338a614d1b565b5b602002015183602001518561010081106133a8576133a7614d1b565b5b60200201518260ff16600281106133c2576133c1614d1b565b5b602002018181516133d39190614dd0565b915081815250505b5050505050565b6000808260ff16146133f55760006133f8565b60015b90508584871614801561340c575060008614155b156136565760008486161461353857826000015184610100811061343357613432614d1b565b5b60200201518260ff166002811061344d5761344c614d1b565b5b6020020151836000015186866134639190614e57565b610100811061347557613474614d1b565b5b60200201518260ff166002811061348f5761348e614d1b565b5b602002018181516134a09190614dd0565b9150818152505082602001518461010081106134bf576134be614d1b565b5b60200201518260ff16600281106134d9576134d8614d1b565b5b6020020151836020015186866134ef9190614e57565b610100811061350157613500614d1b565b5b60200201518260ff166002811061351b5761351a614d1b565b5b6020020181815161352c9190614dd0565b91508181525050613651565b82600001518461010081106135505761354f614d1b565b5b60200201518260ff166002811061356a57613569614d1b565b5b6020020151836000015186866135809190614d92565b610100811061359257613591614d1b565b5b60200201518260ff16600281106135ac576135ab614d1b565b5b602002018181516135bd9190614dd0565b9150818152505082602001518461010081106135dc576135db614d1b565b5b60200201518260ff16600281106135f6576135f5614d1b565b5b60200201518360200151868661360c9190614d92565b610100811061361e5761361d614d1b565b5b60200201518260ff166002811061363857613637614d1b565b5b602002018181516136499190614dd0565b915081815250505b613759565b826000015184610100811061366e5761366d614d1b565b5b60200201518260ff166002811061368857613687614d1b565b5b602002015183600001518561010081106136a5576136a4614d1b565b5b60200201518260ff16600281106136bf576136be614d1b565b5b602002018181516136d09190614dd0565b9150818152505082602001518461010081106136ef576136ee614d1b565b5b60200201518260ff166002811061370957613708614d1b565b5b6020020151836020015185610100811061372657613725614d1b565b5b60200201518260ff16600281106137405761373f614d1b565b5b602002018181516137519190614dd0565b915081815250505b505050505050565b6000808260ff1614613774576000613777565b60015b905085848716036139a75760008486161461389f5782602001518461010081106137a4576137a3614d1b565b5b60200201518260ff16600281106137be576137bd614d1b565b5b602002015160006137cf9190614e14565b83600001518561010081106137e7576137e6614d1b565b5b60200201518260ff166002811061380157613800614d1b565b5b602002018181516138129190614dd0565b91508181525050826000015184610100811061383157613830614d1b565b5b60200201518260ff166002811061384b5761384a614d1b565b5b6020020151836020015185610100811061386857613867614d1b565b5b60200201518260ff166002811061388257613881614d1b565b5b602002018181516138939190614dd0565b915081815250506139a2565b82600001518461010081106138b7576138b6614d1b565b5b60200201518260ff16600281106138d1576138d0614d1b565b5b602002015183600001518561010081106138ee576138ed614d1b565b5b60200201518260ff166002811061390857613907614d1b565b5b602002018181516139199190614dd0565b91508181525050826020015184610100811061393857613937614d1b565b5b60200201518260ff166002811061395257613951614d1b565b5b6020020151836020015185610100811061396f5761396e614d1b565b5b60200201518260ff166002811061398957613988614d1b565b5b6020020181815161399a9190614dd0565b915081815250505b613aaa565b82600001518461010081106139bf576139be614d1b565b5b60200201518260ff16600281106139d9576139d8614d1b565b5b602002015183600001518561010081106139f6576139f5614d1b565b5b60200201518260ff1660028110613a1057613a0f614d1b565b5b60200201818151613a219190614dd0565b915081815250508260200151846101008110613a4057613a3f614d1b565b5b60200201518260ff1660028110613a5a57613a59614d1b565b5b60200201518360200151856101008110613a7757613a76614d1b565b5b60200201518260ff1660028110613a9157613a90614d1b565b5b60200201818151613aa29190614dd0565b915081815250505b505050505050565b6000808260ff1614613ac5576000613ac8565b60015b90508584871603613cf857600084861614613bf0578260200151846101008110613af557613af4614d1b565b5b60200201518260ff1660028110613b0f57613b0e614d1b565b5b60200201518360000151856101008110613b2c57613b2b614d1b565b5b60200201518260ff1660028110613b4657613b45614d1b565b5b60200201818151613b579190614dd0565b915081815250508260000151846101008110613b7657613b75614d1b565b5b60200201518260ff1660028110613b9057613b8f614d1b565b5b60200201516000613ba19190614e14565b8360200151856101008110613bb957613bb8614d1b565b5b60200201518260ff1660028110613bd357613bd2614d1b565b5b60200201818151613be49190614dd0565b91508181525050613cf3565b8260000151846101008110613c0857613c07614d1b565b5b60200201518260ff1660028110613c2257613c21614d1b565b5b60200201518360000151856101008110613c3f57613c3e614d1b565b5b60200201518260ff1660028110613c5957613c58614d1b565b5b60200201818151613c6a9190614dd0565b915081815250508260200151846101008110613c8957613c88614d1b565b5b60200201518260ff1660028110613ca357613ca2614d1b565b5b60200201518360200151856101008110613cc057613cbf614d1b565b5b60200201518260ff1660028110613cda57613cd9614d1b565b5b60200201818151613ceb9190614dd0565b915081815250505b613dfb565b8260000151846101008110613d1057613d0f614d1b565b5b60200201518260ff1660028110613d2a57613d29614d1b565b5b60200201518360000151856101008110613d4757613d46614d1b565b5b60200201518260ff1660028110613d6157613d60614d1b565b5b60200201818151613d729190614dd0565b915081815250508260200151846101008110613d9157613d90614d1b565b5b60200201518260ff1660028110613dab57613daa614d1b565b5b60200201518360200151856101008110613dc857613dc7614d1b565b5b60200201518260ff1660028110613de257613de1614d1b565b5b60200201818151613df39190614dd0565b915081815250505b505050505050565b60008060008360ff1614613e18576000613e1b565b60015b9050600087868916036140c757600086881614613fbf578460200151866101008110613e4a57613e49614d1b565b5b60200201518460ff1660028110613e6457613e63614d1b565b5b60200201518560000151876101008110613e8157613e80614d1b565b5b60200201518560ff1660028110613e9b57613e9a614d1b565b5b6020020151613eaa9190614e14565b8560000151876101008110613ec257613ec1614d1b565b5b60200201518360ff1660028110613edc57613edb614d1b565b5b60200201818151613eed9190614dd0565b915081815250508460200151866101008110613f0c57613f0b614d1b565b5b60200201518460ff1660028110613f2657613f25614d1b565b5b60200201518560000151876101008110613f4357613f42614d1b565b5b60200201518560ff1660028110613f5d57613f5c614d1b565b5b6020020151613f6c9190614dd0565b8560200151876101008110613f8457613f83614d1b565b5b60200201518360ff1660028110613f9e57613f9d614d1b565b5b60200201818151613faf9190614dd0565b91508181525050600190506140c2565b8460000151866101008110613fd757613fd6614d1b565b5b60200201518460ff1660028110613ff157613ff0614d1b565b5b6020020151856000015187610100811061400e5761400d614d1b565b5b60200201518360ff166002811061402857614027614d1b565b5b602002018181516140399190614dd0565b91508181525050846020015186610100811061405857614057614d1b565b5b60200201518460ff166002811061407257614071614d1b565b5b6020020151856020015187610100811061408f5761408e614d1b565b5b60200201518360ff16600281106140a9576140a8614d1b565b5b602002018181516140ba9190614dd0565b915081815250505b6141ca565b84600001518661010081106140df576140de614d1b565b5b60200201518460ff16600281106140f9576140f8614d1b565b5b6020020151856000015187610100811061411657614115614d1b565b5b60200201518360ff16600281106141305761412f614d1b565b5b602002018181516141419190614dd0565b9150818152505084602001518661010081106141605761415f614d1b565b5b60200201518460ff166002811061417a57614179614d1b565b5b6020020151856020015187610100811061419757614196614d1b565b5b60200201518360ff16600281106141b1576141b0614d1b565b5b602002018181516141c29190614dd0565b915081815250505b809250505095945050505050565b60008060008360ff16146141ed5760006141f0565b60015b9050600087868916036144a8576000868816146143a057846020015186610100811061421f5761421e614d1b565b5b60200201518460ff166002811061423957614238614d1b565b5b6020020151856000015187610100811061425657614255614d1b565b5b60200201518560ff16600281106142705761426f614d1b565b5b602002015161427f9190614dd0565b856000015187610100811061429757614296614d1b565b5b60200201518360ff16600281106142b1576142b0614d1b565b5b602002018181516142c29190614dd0565b9150818152505084602001518661010081106142e1576142e0614d1b565b5b60200201518460ff16600281106142fb576142fa614d1b565b5b6020020151856000015187610100811061431857614317614d1b565b5b60200201518560ff166002811061433257614331614d1b565b5b602002015160006143439190614e14565b61434d9190614dd0565b856020015187610100811061436557614364614d1b565b5b60200201518360ff166002811061437f5761437e614d1b565b5b602002018181516143909190614dd0565b91508181525050600190506144a3565b84600001518661010081106143b8576143b7614d1b565b5b60200201518460ff16600281106143d2576143d1614d1b565b5b602002015185600001518761010081106143ef576143ee614d1b565b5b60200201518360ff166002811061440957614408614d1b565b5b6020020181815161441a9190614dd0565b91508181525050846020015186610100811061443957614438614d1b565b5b60200201518460ff166002811061445357614452614d1b565b5b602002015185602001518761010081106144705761446f614d1b565b5b60200201518360ff166002811061448a57614489614d1b565b5b6020020181815161449b9190614dd0565b915081815250505b6145ab565b84600001518661010081106144c0576144bf614d1b565b5b60200201518460ff16600281106144da576144d9614d1b565b5b602002015185600001518761010081106144f7576144f6614d1b565b5b60200201518360ff166002811061451157614510614d1b565b5b602002018181516145229190614dd0565b91508181525050846020015186610100811061454157614540614d1b565b5b60200201518460ff166002811061455b5761455a614d1b565b5b6020020151856020015187610100811061457857614577614d1b565b5b60200201518360ff166002811061459257614591614d1b565b5b602002018181516145a39190614dd0565b915081815250505b809250505095945050505050565b60405180604001604052806145cc614603565b81526020016145d9614603565b81525090565b60405180612000016040528061010090602082028036833780820191505090505090565b604051806120000160405280610100905b61461c614632565b8152602001906001900390816146145790505090565b6040518060400160405280600290602082028036833780820191505090505090565b6000604051905090565b600080fd5b600080fd5b600060ff82169050919050565b61467e81614668565b811461468957600080fd5b50565b60008135905061469b81614675565b92915050565b600080fd5b600080fd5b6000601f19601f8301169050919050565b7f4e487b7100000000000000000000000000000000000000000000000000000000600052604160045260246000fd5b6146f4826146ab565b810181811067ffffffffffffffff82111715614713576147126146bc565b5b80604052505050565b6000614726614654565b905061473282826146eb565b919050565b600067ffffffffffffffff821115614752576147516146bc565b5b61475b826146ab565b9050602081019050919050565b82818337600083830152505050565b600061478a61478584614737565b61471c565b9050828152602081018484840111156147a6576147a56146a6565b5b6147b1848285614768565b509392505050565b600082601f8301126147ce576147cd6146a1565b5b81356147de848260208601614777565b91505092915050565b6000819050919050565b6147fa816147e7565b811461480557600080fd5b50565b600081359050614817816147f1565b92915050565b6000806000606084860312156148365761483561465e565b5b60006148448682870161468c565b935050602084013567ffffffffffffffff81111561486557614864614663565b5b614871868287016147b9565b925050604061488286828701614808565b9150509250925092565b614895816147e7565b82525050565b60006020820190506148b0600083018461488c565b92915050565b600081519050919050565b600082825260208201905092915050565b6000819050602082019050919050565b600081519050919050565b600082825260208201905092915050565b60005b8381101561491c578082015181840152602081019050614901565b60008484015250505050565b6000614933826148e2565b61493d81856148ed565b935061494d8185602086016148fe565b614956816146ab565b840191505092915050565b600061496d8383614928565b905092915050565b6000602082019050919050565b600061498d826148b6565b61499781856148c1565b9350836020820285016149a9856148d2565b8060005b858110156149e557848403895281516149c68582614961565b94506149d183614975565b925060208a019950506001810190506149ad565b50829750879550505050505092915050565b60006020820190508181036000830152614a118184614982565b905092915050565b600082825260208201905092915050565b6000614a35826148e2565b614a3f8185614a19565b9350614a4f8185602086016148fe565b614a58816146ab565b840191505092915050565b60006020820190508181036000830152614a7d8184614a2a565b905092915050565b600060208284031215614a9b57614a9a61465e565b5b6000614aa984828501614808565b91505092915050565b614abb81614668565b82525050565b6000602082019050614ad66000830184614ab2565b92915050565b60008115159050919050565b614af181614adc565b82525050565b6000602082019050614b0c6000830184614ae8565b92915050565b600073ffffffffffffffffffffffffffffffffffffffff82169050919050565b6000614b3d82614b12565b9050919050565b614b4d81614b32565b82525050565b6000602082019050614b686000830184614b44565b92915050565b7f4e487b7100000000000000000000000000000000000000000000000000000000600052601160045260246000fd5b60008160011c9050919050565b6000808291508390505b6001851115614bf457808604811115614bd057614bcf614b6e565b5b6001851615614bdf5780820291505b8081029050614bed85614b9d565b9450614bb4565b94509492505050565b600082614c0d5760019050614cc9565b81614c1b5760009050614cc9565b8160018114614c315760028114614c3b57614c6a565b6001915050614cc9565b60ff841115614c4d57614c4c614b6e565b5b8360020a915084821115614c6457614c63614b6e565b5b50614cc9565b5060208310610133831016604e8410600b8410161715614c9f5782820a905083811115614c9a57614c99614b6e565b5b614cc9565b614cac8484846001614baa565b92509050818404811115614cc357614cc2614b6e565b5b81810290505b9392505050565b6000614cdb826147e7565b9150614ce683614668565b9250614d137fffffffffffffffffffffffffffffffffffffffffffffffffffffffffffffffff8484614bfd565b905092915050565b7f4e487b7100000000000000000000000000000000000000000000000000000000600052603260045260246000fd5b6000614d55826147e7565b91507fffffffffffffffffffffffffffffffffffffffffffffffffffffffffffffffff8203614d8757614d86614b6e565b5b600182019050919050565b6000614d9d826147e7565b9150614da8836147e7565b9250828201905080821115614dc057614dbf614b6e565b5b92915050565b6000819050919050565b6000614ddb82614dc6565b9150614de683614dc6565b925082820190508281121560008312168382126000841215161715614e0e57614e0d614b6e565b5b92915050565b6000614e1f82614dc6565b9150614e2a83614dc6565b9250828203905081811260008412168282136000851215161715614e5157614e50614b6e565b5b92915050565b6000614e62826147e7565b9150614e6d836147e7565b9250828203905081811115614e8557614e84614b6e565b5b92915050565b7f4e487b7100000000000000000000000000000000000000000000000000000000600052602260045260246000fd5b60006002820490506001821680614ed257607f821691505b602082108103614ee557614ee4614e8b565b5b50919050565b7f436865636b20737562736372697074696f6e0000000000000000000000000000600082015250565b6000614f21601283614a19565b9150614f2c82614eeb565b602082019050919050565b60006020820190508181036000830152614f5081614f14565b9050919050565b6000614f6282614668565b9150614f6d83614668565b9250828203905060ff811115614f8657614f85614b6e565b5b92915050565b6000614f9782614dc6565b9150614fa283614dc6565b9250828202614fb081614dc6565b91507f80000000000000000000000000000000000000000000000000000000000000008414600084121615614fe857614fe7614b6e565b5b8282058414831517614ffd57614ffc614b6e565b5b5092915050565b7f556e6b6e6f776e206f7220756e737570706f7274656420676174650000000000600082015250565b600061503a601b83614a19565b915061504582615004565b602082019050919050565b600060208201905081810360008301526150698161502d565b9050919050565b6000606082019050615085600083018661488c565b615092602083018561488c565b61509f604083018461488c565b949350505050565b7f4e487b7100000000000000000000000000000000000000000000000000000000600052601260045260246000fd5b60006150e1826147e7565b91506150ec836147e7565b9250826150fc576150fb6150a7565b5b82820690509291505056fea2646970667358221220104f99d498870bc7e2551f9ec2c9352a84c2388dfc7c6910f2ea707a2f3c989864736f6c63430008110033","opcodes":"PUSH1 0x80 PUSH1 0x40 MSTORE PUSH1 0x40 MLOAD DUP1 PUSH2 0x200 ADD PUSH1 0x40 MSTORE DUP1 PUSH1 0x40 MLOAD DUP1 PUSH1 0x40 ADD PUSH1 0x40 MSTORE DUP1 PUSH1 0x1 DUP2 MSTORE PUSH1 0x20 ADD PUSH32 0x4800000000000000000000000000000000000000000000000000000000000000 DUP2 MSTORE POP DUP2 MSTORE PUSH1 0x20 ADD PUSH1 0x40 MLOAD DUP1 PUSH1 0x40 ADD PUSH1 0x40 MSTORE DUP1 PUSH1 0x1 DUP2 MSTORE PUSH1 0x20 ADD PUSH32 0x4900000000000000000000000000000000000000000000000000000000000000 DUP2 MSTORE POP DUP2 MSTORE PUSH1 0x20 ADD PUSH1 0x40 MLOAD DUP1 PUSH1 0x40 ADD PUSH1 0x40 MSTORE DUP1 PUSH1 0x2 DUP2 MSTORE PUSH1 0x20 ADD PUSH32 0x434E000000000000000000000000000000000000000000000000000000000000 DUP2 MSTORE POP DUP2 MSTORE PUSH1 0x20 ADD PUSH1 0x40 MLOAD DUP1 PUSH1 0x40 ADD PUSH1 0x40 MSTORE DUP1 PUSH1 0x3 DUP2 MSTORE PUSH1 0x20 ADD PUSH32 0x43434E0000000000000000000000000000000000000000000000000000000000 DUP2 MSTORE POP DUP2 MSTORE PUSH1 0x20 ADD PUSH1 0x40 MLOAD DUP1 PUSH1 0x40 ADD PUSH1 0x40 MSTORE DUP1 PUSH1 0x1 DUP2 MSTORE PUSH1 0x20 ADD PUSH32 0x5800000000000000000000000000000000000000000000000000000000000000 DUP2 MSTORE POP DUP2 MSTORE PUSH1 0x20 ADD PUSH1 0x40 MLOAD DUP1 PUSH1 0x40 ADD PUSH1 0x40 MSTORE DUP1 PUSH1 0x1 DUP2 MSTORE PUSH1 0x20 ADD PUSH32 0x5900000000000000000000000000000000000000000000000000000000000000 DUP2 MSTORE POP DUP2 MSTORE PUSH1 0x20 ADD PUSH1 0x40 MLOAD DUP1 PUSH1 0x40 ADD PUSH1 0x40 MSTORE DUP1 PUSH1 0x1 DUP2 MSTORE PUSH1 0x20 ADD PUSH32 0x5A00000000000000000000000000000000000000000000000000000000000000 DUP2 MSTORE POP DUP2 MSTORE PUSH1 0x20 ADD PUSH1 0x40 MLOAD DUP1 PUSH1 0x40 ADD PUSH1 0x40 MSTORE DUP1 PUSH1 0x3 DUP2 MSTORE PUSH1 0x20 ADD PUSH32 0x5034350000000000000000000000000000000000000000000000000000000000 DUP2 MSTORE POP DUP2 MSTORE PUSH1 0x20 ADD PUSH1 0x40 MLOAD DUP1 PUSH1 0x40 ADD PUSH1 0x40 MSTORE DUP1 PUSH1 0x3 DUP2 MSTORE PUSH1 0x20 ADD PUSH32 0x7034350000000000000000000000000000000000000000000000000000000000 DUP2 MSTORE POP DUP2 MSTORE PUSH1 0x20 ADD PUSH1 0x40 MLOAD DUP1 PUSH1 0x40 ADD PUSH1 0x40 MSTORE DUP1 PUSH1 0x1 DUP2 MSTORE PUSH1 0x20 ADD PUSH32 0x5400000000000000000000000000000000000000000000000000000000000000 DUP2 MSTORE POP DUP2 MSTORE PUSH1 0x20 ADD PUSH1 0x40 MLOAD DUP1 PUSH1 0x40 ADD PUSH1 0x40 MSTORE DUP1 PUSH1 0x1 DUP2 MSTORE PUSH1 0x20 ADD PUSH32 0x7400000000000000000000000000000000000000000000000000000000000000 DUP2 MSTORE POP DUP2 MSTORE PUSH1 0x20 ADD PUSH1 0x40 MLOAD DUP1 PUSH1 0x40 ADD PUSH1 0x40 MSTORE DUP1 PUSH1 0x4 DUP2 MSTORE PUSH1 0x20 ADD PUSH32 0x4350343500000000000000000000000000000000000000000000000000000000 DUP2 MSTORE POP DUP2 MSTORE PUSH1 0x20 ADD PUSH1 0x40 MLOAD DUP1 PUSH1 0x40 ADD PUSH1 0x40 MSTORE DUP1 PUSH1 0x4 DUP2 MSTORE PUSH1 0x20 ADD PUSH32 0x4370343500000000000000000000000000000000000000000000000000000000 DUP2 MSTORE POP DUP2 MSTORE PUSH1 0x20 ADD PUSH1 0x40 MLOAD DUP1 PUSH1 0x40 ADD PUSH1 0x40 MSTORE DUP1 PUSH1 0x2 DUP2 MSTORE PUSH1 0x20 ADD PUSH32 0x4354000000000000000000000000000000000000000000000000000000000000 DUP2 MSTORE POP DUP2 MSTORE PUSH1 0x20 ADD PUSH1 0x40 MLOAD DUP1 PUSH1 0x40 ADD PUSH1 0x40 MSTORE DUP1 PUSH1 0x2 DUP2 MSTORE PUSH1 0x20 ADD PUSH32 0x4374000000000000000000000000000000000000000000000000000000000000 DUP2 MSTORE POP DUP2 MSTORE PUSH1 0x20 ADD PUSH1 0x40 MLOAD DUP1 PUSH1 0x40 ADD PUSH1 0x40 MSTORE DUP1 PUSH1 0x1 DUP2 MSTORE PUSH1 0x20 ADD PUSH32 0x6D00000000000000000000000000000000000000000000000000000000000000 DUP2 MSTORE POP DUP2 MSTORE POP PUSH1 0x1 SWAP1 PUSH1 0x10 PUSH3 0x3D0 SWAP3 SWAP2 SWAP1 PUSH3 0x425 JUMP JUMPDEST POP CALLVALUE DUP1 ISZERO PUSH3 0x3DE JUMPI PUSH1 0x0 DUP1 REVERT JUMPDEST POP CALLER PUSH1 0x0 DUP1 PUSH2 0x100 EXP DUP2 SLOAD DUP2 PUSH20 0xFFFFFFFFFFFFFFFFFFFFFFFFFFFFFFFFFFFFFFFF MUL NOT AND SWAP1 DUP4 PUSH20 0xFFFFFFFFFFFFFFFFFFFFFFFFFFFFFFFFFFFFFFFF AND MUL OR SWAP1 SSTORE POP PUSH3 0x873 JUMP JUMPDEST DUP3 DUP1 SLOAD DUP3 DUP3 SSTORE SWAP1 PUSH1 0x0 MSTORE PUSH1 0x20 PUSH1 0x0 KECCAK256 SWAP1 DUP2 ADD SWAP3 DUP3 ISZERO PUSH3 0x472 JUMPI SWAP2 PUSH1 0x20 MUL DUP3 ADD JUMPDEST DUP3 DUP2 GT ISZERO PUSH3 0x471 JUMPI DUP3 MLOAD DUP3 SWAP1 DUP2 PUSH3 0x460 SWAP2 SWAP1 PUSH3 0x78C JUMP JUMPDEST POP SWAP2 PUSH1 0x20 ADD SWAP2 SWAP1 PUSH1 0x1 ADD SWAP1 PUSH3 0x446 JUMP JUMPDEST JUMPDEST POP SWAP1 POP PUSH3 0x481 SWAP2 SWAP1 PUSH3 0x485 JUMP JUMPDEST POP SWAP1 JUMP JUMPDEST JUMPDEST DUP1 DUP3 GT ISZERO PUSH3 0x4A9 JUMPI PUSH1 0x0 DUP2 DUP2 PUSH3 0x49F SWAP2 SWAP1 PUSH3 0x4AD JUMP JUMPDEST POP PUSH1 0x1 ADD PUSH3 0x486 JUMP JUMPDEST POP SWAP1 JUMP JUMPDEST POP DUP1 SLOAD PUSH3 0x4BB SWAP1 PUSH3 0x57B JUMP JUMPDEST PUSH1 0x0 DUP3 SSTORE DUP1 PUSH1 0x1F LT PUSH3 0x4CF JUMPI POP PUSH3 0x4F0 JUMP JUMPDEST PUSH1 0x1F ADD PUSH1 0x20 SWAP1 DIV SWAP1 PUSH1 0x0 MSTORE PUSH1 0x20 PUSH1 0x0 KECCAK256 SWAP1 DUP2 ADD SWAP1 PUSH3 0x4EF SWAP2 SWAP1 PUSH3 0x4F3 JUMP JUMPDEST JUMPDEST POP JUMP JUMPDEST JUMPDEST DUP1 DUP3 GT ISZERO PUSH3 0x50E JUMPI PUSH1 0x0 DUP2 PUSH1 0x0 SWAP1 SSTORE POP PUSH1 0x1 ADD PUSH3 0x4F4 JUMP JUMPDEST POP SWAP1 JUMP JUMPDEST PUSH1 0x0 DUP2 MLOAD SWAP1 POP SWAP2 SWAP1 POP JUMP JUMPDEST PUSH32 0x4E487B7100000000000000000000000000000000000000000000000000000000 PUSH1 0x0 MSTORE PUSH1 0x41 PUSH1 0x4 MSTORE PUSH1 0x24 PUSH1 0x0 REVERT JUMPDEST PUSH32 0x4E487B7100000000000000000000000000000000000000000000000000000000 PUSH1 0x0 MSTORE PUSH1 0x22 PUSH1 0x4 MSTORE PUSH1 0x24 PUSH1 0x0 REVERT JUMPDEST PUSH1 0x0 PUSH1 0x2 DUP3 DIV SWAP1 POP PUSH1 0x1 DUP3 AND DUP1 PUSH3 0x594 JUMPI PUSH1 0x7F DUP3 AND SWAP2 POP JUMPDEST PUSH1 0x20 DUP3 LT DUP2 SUB PUSH3 0x5AA JUMPI PUSH3 0x5A9 PUSH3 0x54C JUMP JUMPDEST JUMPDEST POP SWAP2 SWAP1 POP JUMP JUMPDEST PUSH1 0x0 DUP2 SWAP1 POP DUP2 PUSH1 0x0 MSTORE PUSH1 0x20 PUSH1 0x0 KECCAK256 SWAP1 POP SWAP2 SWAP1 POP JUMP JUMPDEST PUSH1 0x0 PUSH1 0x20 PUSH1 0x1F DUP4 ADD DIV SWAP1 POP SWAP2 SWAP1 POP JUMP JUMPDEST PUSH1 0x0 DUP3 DUP3 SHL SWAP1 POP SWAP3 SWAP2 POP POP JUMP JUMPDEST PUSH1 0x0 PUSH1 0x8 DUP4 MUL PUSH3 0x614 PUSH32 0xFFFFFFFFFFFFFFFFFFFFFFFFFFFFFFFFFFFFFFFFFFFFFFFFFFFFFFFFFFFFFFFF DUP3 PUSH3 0x5D5 JUMP JUMPDEST PUSH3 0x620 DUP7 DUP4 PUSH3 0x5D5 JUMP JUMPDEST SWAP6 POP DUP1 NOT DUP5 AND SWAP4 POP DUP1 DUP7 AND DUP5 OR SWAP3 POP POP POP SWAP4 SWAP3 POP POP POP JUMP JUMPDEST PUSH1 0x0 DUP2 SWAP1 POP SWAP2 SWAP1 POP JUMP JUMPDEST PUSH1 0x0 DUP2 SWAP1 POP SWAP2 SWAP1 POP JUMP JUMPDEST PUSH1 0x0 PUSH3 0x66D PUSH3 0x667 PUSH3 0x661 DUP5 PUSH3 0x638 JUMP JUMPDEST PUSH3 0x642 JUMP JUMPDEST PUSH3 0x638 JUMP JUMPDEST SWAP1 POP SWAP2 SWAP1 POP JUMP JUMPDEST PUSH1 0x0 DUP2 SWAP1 POP SWAP2 SWAP1 POP JUMP JUMPDEST PUSH3 0x689 DUP4 PUSH3 0x64C JUMP JUMPDEST PUSH3 0x6A1 PUSH3 0x698 DUP3 PUSH3 0x674 JUMP JUMPDEST DUP5 DUP5 SLOAD PUSH3 0x5E2 JUMP JUMPDEST DUP3 SSTORE POP POP POP POP JUMP JUMPDEST PUSH1 0x0 SWAP1 JUMP JUMPDEST PUSH3 0x6B8 PUSH3 0x6A9 JUMP JUMPDEST PUSH3 0x6C5 DUP2 DUP5 DUP5 PUSH3 0x67E JUMP JUMPDEST POP POP POP JUMP JUMPDEST JUMPDEST DUP2 DUP2 LT ISZERO PUSH3 0x6ED JUMPI PUSH3 0x6E1 PUSH1 0x0 DUP3 PUSH3 0x6AE JUMP JUMPDEST PUSH1 0x1 DUP2 ADD SWAP1 POP PUSH3 0x6CB JUMP JUMPDEST POP POP JUMP JUMPDEST PUSH1 0x1F DUP3 GT ISZERO PUSH3 0x73C JUMPI PUSH3 0x706 DUP2 PUSH3 0x5B0 JUMP JUMPDEST PUSH3 0x711 DUP5 PUSH3 0x5C5 JUMP JUMPDEST DUP2 ADD PUSH1 0x20 DUP6 LT ISZERO PUSH3 0x721 JUMPI DUP2 SWAP1 POP JUMPDEST PUSH3 0x739 PUSH3 0x730 DUP6 PUSH3 0x5C5 JUMP JUMPDEST DUP4 ADD DUP3 PUSH3 0x6CA JUMP JUMPDEST POP POP JUMPDEST POP POP POP JUMP JUMPDEST PUSH1 0x0 DUP3 DUP3 SHR SWAP1 POP SWAP3 SWAP2 POP POP JUMP JUMPDEST PUSH1 0x0 PUSH3 0x761 PUSH1 0x0 NOT DUP5 PUSH1 0x8 MUL PUSH3 0x741 JUMP JUMPDEST NOT DUP1 DUP4 AND SWAP2 POP POP SWAP3 SWAP2 POP POP JUMP JUMPDEST PUSH1 0x0 PUSH3 0x77C DUP4 DUP4 PUSH3 0x74E JUMP JUMPDEST SWAP2 POP DUP3 PUSH1 0x2 MUL DUP3 OR SWAP1 POP SWAP3 SWAP2 POP POP JUMP JUMPDEST PUSH3 0x797 DUP3 PUSH3 0x512 JUMP JUMPDEST PUSH8 0xFFFFFFFFFFFFFFFF DUP2 GT ISZERO PUSH3 0x7B3 JUMPI PUSH3 0x7B2 PUSH3 0x51D JUMP JUMPDEST JUMPDEST PUSH3 0x7BF DUP3 SLOAD PUSH3 0x57B JUMP JUMPDEST PUSH3 0x7CC DUP3 DUP3 DUP6 PUSH3 0x6F1 JUMP JUMPDEST PUSH1 0x0 PUSH1 0x20 SWAP1 POP PUSH1 0x1F DUP4 GT PUSH1 0x1 DUP2 EQ PUSH3 0x804 JUMPI PUSH1 0x0 DUP5 ISZERO PUSH3 0x7EF JUMPI DUP3 DUP8 ADD MLOAD SWAP1 POP JUMPDEST PUSH3 0x7FB DUP6 DUP3 PUSH3 0x76E JUMP JUMPDEST DUP7 SSTORE POP PUSH3 0x86B JUMP JUMPDEST PUSH1 0x1F NOT DUP5 AND PUSH3 0x814 DUP7 PUSH3 0x5B0 JUMP JUMPDEST PUSH1 0x0 JUMPDEST DUP3 DUP2 LT ISZERO PUSH3 0x83E JUMPI DUP5 DUP10 ADD MLOAD DUP3 SSTORE PUSH1 0x1 DUP3 ADD SWAP2 POP PUSH1 0x20 DUP6 ADD SWAP5 POP PUSH1 0x20 DUP2 ADD SWAP1 POP PUSH3 0x817 JUMP JUMPDEST DUP7 DUP4 LT ISZERO PUSH3 0x85E JUMPI DUP5 DUP10 ADD MLOAD PUSH3 0x85A PUSH1 0x1F DUP10 AND DUP3 PUSH3 0x74E JUMP JUMPDEST DUP4 SSTORE POP JUMPDEST PUSH1 0x1 PUSH1 0x2 DUP9 MUL ADD DUP9 SSTORE POP POP POP JUMPDEST POP POP POP POP POP POP JUMP JUMPDEST PUSH2 0x513D DUP1 PUSH3 0x883 PUSH1 0x0 CODECOPY PUSH1 0x0 RETURN INVALID PUSH1 0x80 PUSH1 0x40 MSTORE CALLVALUE DUP1 ISZERO PUSH2 0x10 JUMPI PUSH1 0x0 DUP1 REVERT JUMPDEST POP PUSH1 0x4 CALLDATASIZE LT PUSH2 0x88 JUMPI PUSH1 0x0 CALLDATALOAD PUSH1 0xE0 SHR DUP1 PUSH4 0x4B50623C GT PUSH2 0x5B JUMPI DUP1 PUSH4 0x4B50623C EQ PUSH2 0x129 JUMPI DUP1 PUSH4 0x55C1E953 EQ PUSH2 0x147 JUMPI DUP1 PUSH4 0x61C0FAE8 EQ PUSH2 0x165 JUMPI DUP1 PUSH4 0x8DA5CB5B EQ PUSH2 0x183 JUMPI PUSH2 0x88 JUMP JUMPDEST DUP1 PUSH4 0x16A832BF EQ PUSH2 0x8D JUMPI DUP1 PUSH4 0x17D2A5F2 EQ PUSH2 0xBD JUMPI DUP1 PUSH4 0x17D7DE7C EQ PUSH2 0xDB JUMPI DUP1 PUSH4 0x48E20F0B EQ PUSH2 0xF9 JUMPI JUMPDEST PUSH1 0x0 DUP1 REVERT JUMPDEST PUSH2 0xA7 PUSH1 0x4 DUP1 CALLDATASIZE SUB DUP2 ADD SWAP1 PUSH2 0xA2 SWAP2 SWAP1 PUSH2 0x481D JUMP JUMPDEST PUSH2 0x1A1 JUMP JUMPDEST PUSH1 0x40 MLOAD PUSH2 0xB4 SWAP2 SWAP1 PUSH2 0x489B JUMP JUMPDEST PUSH1 0x40 MLOAD DUP1 SWAP2 SUB SWAP1 RETURN JUMPDEST PUSH2 0xC5 PUSH2 0x7F2 JUMP JUMPDEST PUSH1 0x40 MLOAD PUSH2 0xD2 SWAP2 SWAP1 PUSH2 0x49F7 JUMP JUMPDEST PUSH1 0x40 MLOAD DUP1 SWAP2 SUB SWAP1 RETURN JUMPDEST PUSH2 0xE3 PUSH2 0x8CB JUMP JUMPDEST PUSH1 0x40 MLOAD PUSH2 0xF0 SWAP2 SWAP1 PUSH2 0x4A63 JUMP JUMPDEST PUSH1 0x40 MLOAD DUP1 SWAP2 SUB SWAP1 RETURN JUMPDEST PUSH2 0x113 PUSH1 0x4 DUP1 CALLDATASIZE SUB DUP2 ADD SWAP1 PUSH2 0x10E SWAP2 SWAP1 PUSH2 0x4A85 JUMP JUMPDEST PUSH2 0x908 JUMP JUMPDEST PUSH1 0x40 MLOAD PUSH2 0x120 SWAP2 SWAP1 PUSH2 0x4A63 JUMP JUMPDEST PUSH1 0x40 MLOAD DUP1 SWAP2 SUB SWAP1 RETURN JUMPDEST PUSH2 0x131 PUSH2 0x9B4 JUMP JUMPDEST PUSH1 0x40 MLOAD PUSH2 0x13E SWAP2 SWAP1 PUSH2 0x4AC1 JUMP JUMPDEST PUSH1 0x40 MLOAD DUP1 SWAP2 SUB SWAP1 RETURN JUMPDEST PUSH2 0x14F PUSH2 0x9BD JUMP JUMPDEST PUSH1 0x40 MLOAD PUSH2 0x15C SWAP2 SWAP1 PUSH2 0x4AF7 JUMP JUMPDEST PUSH1 0x40 MLOAD DUP1 SWAP2 SUB SWAP1 RETURN JUMPDEST PUSH2 0x16D PUSH2 0x9C6 JUMP JUMPDEST PUSH1 0x40 MLOAD PUSH2 0x17A SWAP2 SWAP1 PUSH2 0x4AF7 JUMP JUMPDEST PUSH1 0x40 MLOAD DUP1 SWAP2 SUB SWAP1 RETURN JUMPDEST PUSH2 0x18B PUSH2 0x9CB JUMP JUMPDEST PUSH1 0x40 MLOAD PUSH2 0x198 SWAP2 SWAP1 PUSH2 0x4B53 JUMP JUMPDEST PUSH1 0x40 MLOAD DUP1 SWAP2 SUB SWAP1 RETURN JUMPDEST PUSH1 0x0 PUSH2 0x1AB PUSH2 0x45B9 JUMP JUMPDEST PUSH1 0x60 PUSH1 0x0 DUP1 PUSH1 0x0 DUP1 DUP1 DUP10 MLOAD SWAP1 POP PUSH2 0x1C1 DUP12 PUSH2 0x9EF JUMP JUMPDEST POP PUSH1 0x0 SWAP3 POP JUMPDEST DUP11 PUSH1 0x2 PUSH2 0x1D4 SWAP2 SWAP1 PUSH2 0x4CD0 JUMP JUMPDEST DUP4 LT ISZERO PUSH2 0x2D1 JUMPI PUSH1 0x0 DUP8 PUSH1 0x20 ADD MLOAD DUP5 PUSH2 0x100 DUP2 LT PUSH2 0x1F5 JUMPI PUSH2 0x1F4 PUSH2 0x4D1B JUMP JUMPDEST JUMPDEST PUSH1 0x20 MUL ADD MLOAD PUSH1 0x1 PUSH1 0x2 DUP2 LT PUSH2 0x20D JUMPI PUSH2 0x20C PUSH2 0x4D1B JUMP JUMPDEST JUMPDEST PUSH1 0x20 MUL ADD DUP2 DUP2 MSTORE POP DUP8 PUSH1 0x20 ADD MLOAD DUP5 PUSH2 0x100 DUP2 LT PUSH2 0x22D JUMPI PUSH2 0x22C PUSH2 0x4D1B JUMP JUMPDEST JUMPDEST PUSH1 0x20 MUL ADD MLOAD PUSH1 0x0 PUSH1 0x2 DUP2 LT PUSH2 0x245 JUMPI PUSH2 0x244 PUSH2 0x4D1B JUMP JUMPDEST JUMPDEST PUSH1 0x20 MUL ADD DUP2 DUP2 MSTORE POP DUP8 PUSH1 0x0 ADD MLOAD DUP5 PUSH2 0x100 DUP2 LT PUSH2 0x265 JUMPI PUSH2 0x264 PUSH2 0x4D1B JUMP JUMPDEST JUMPDEST PUSH1 0x20 MUL ADD MLOAD PUSH1 0x1 PUSH1 0x2 DUP2 LT PUSH2 0x27D JUMPI PUSH2 0x27C PUSH2 0x4D1B JUMP JUMPDEST JUMPDEST PUSH1 0x20 MUL ADD DUP2 DUP2 MSTORE POP DUP8 PUSH1 0x0 ADD MLOAD DUP5 PUSH2 0x100 DUP2 LT PUSH2 0x29D JUMPI PUSH2 0x29C PUSH2 0x4D1B JUMP JUMPDEST JUMPDEST PUSH1 0x20 MUL ADD MLOAD PUSH1 0x0 PUSH1 0x2 DUP2 LT PUSH2 0x2B5 JUMPI PUSH2 0x2B4 PUSH2 0x4D1B JUMP JUMPDEST JUMPDEST PUSH1 0x20 MUL ADD DUP2 DUP2 MSTORE POP POP DUP3 DUP1 PUSH2 0x2C9 SWAP1 PUSH2 0x4D4A JUMP JUMPDEST SWAP4 POP POP PUSH2 0x1C7 JUMP JUMPDEST PUSH1 0x1 DUP8 PUSH1 0x0 ADD MLOAD PUSH1 0x0 PUSH2 0x100 DUP2 LT PUSH2 0x2EC JUMPI PUSH2 0x2EB PUSH2 0x4D1B JUMP JUMPDEST JUMPDEST PUSH1 0x20 MUL ADD MLOAD PUSH1 0x0 PUSH1 0x2 DUP2 LT PUSH2 0x304 JUMPI PUSH2 0x303 PUSH2 0x4D1B JUMP JUMPDEST JUMPDEST PUSH1 0x20 MUL ADD DUP2 DUP2 MSTORE POP POP DUP11 PUSH1 0xFF AND PUSH8 0xFFFFFFFFFFFFFFFF DUP2 GT ISZERO PUSH2 0x32A JUMPI PUSH2 0x329 PUSH2 0x46BC JUMP JUMPDEST JUMPDEST PUSH1 0x40 MLOAD SWAP1 DUP1 DUP3 MSTORE DUP1 PUSH1 0x20 MUL PUSH1 0x20 ADD DUP3 ADD PUSH1 0x40 MSTORE DUP1 ISZERO PUSH2 0x358 JUMPI DUP2 PUSH1 0x20 ADD PUSH1 0x20 DUP3 MUL DUP1 CALLDATASIZE DUP4 CALLDATACOPY DUP1 DUP3 ADD SWAP2 POP POP SWAP1 POP JUMPDEST POP SWAP6 POP PUSH1 0x0 SWAP3 POP JUMPDEST DUP4 PUSH2 0x58E JUMPI DUP1 DUP12 PUSH1 0xFF AND DUP5 PUSH2 0x375 SWAP2 SWAP1 PUSH2 0x4D92 JUMP JUMPDEST GT ISZERO PUSH2 0x416 JUMPI PUSH32 0x2E00000000000000000000000000000000000000000000000000000000000000 PUSH31 0xFFFFFFFFFFFFFFFFFFFFFFFFFFFFFFFFFFFFFFFFFFFFFFFFFFFFFFFFFFFFFF NOT AND DUP11 DUP5 DUP2 MLOAD DUP2 LT PUSH2 0x3D1 JUMPI PUSH2 0x3D0 PUSH2 0x4D1B JUMP JUMPDEST JUMPDEST PUSH1 0x20 ADD ADD MLOAD PUSH1 0xF8 SHR PUSH1 0xF8 SHL PUSH31 0xFFFFFFFFFFFFFFFFFFFFFFFFFFFFFFFFFFFFFFFFFFFFFFFFFFFFFFFFFFFFFF NOT AND SUB PUSH2 0x40C JUMPI PUSH1 0x1 SWAP4 POP PUSH2 0x411 JUMP JUMPDEST PUSH1 0x1 SWAP4 POP JUMPDEST PUSH2 0x589 JUMP JUMPDEST PUSH1 0x0 SWAP2 POP JUMPDEST DUP11 PUSH1 0xFF AND DUP3 LT ISZERO PUSH2 0x4C8 JUMPI DUP10 DUP4 DUP1 PUSH2 0x432 SWAP1 PUSH2 0x4D4A JUMP JUMPDEST SWAP5 POP DUP2 MLOAD DUP2 LT PUSH2 0x445 JUMPI PUSH2 0x444 PUSH2 0x4D1B JUMP JUMPDEST JUMPDEST PUSH1 0x20 ADD ADD MLOAD PUSH1 0xF8 SHR PUSH1 0xF8 SHL DUP7 DUP4 DUP2 MLOAD DUP2 LT PUSH2 0x463 JUMPI PUSH2 0x462 PUSH2 0x4D1B JUMP JUMPDEST JUMPDEST PUSH1 0x20 MUL PUSH1 0x20 ADD ADD SWAP1 PUSH31 0xFFFFFFFFFFFFFFFFFFFFFFFFFFFFFFFFFFFFFFFFFFFFFFFFFFFFFFFFFFFFFF NOT AND SWAP1 DUP2 PUSH31 0xFFFFFFFFFFFFFFFFFFFFFFFFFFFFFFFFFFFFFFFFFFFFFFFFFFFFFFFFFFFFFF NOT AND DUP2 MSTORE POP POP DUP2 DUP1 PUSH2 0x4C0 SWAP1 PUSH2 0x4D4A JUMP JUMPDEST SWAP3 POP POP PUSH2 0x41B JUMP JUMPDEST PUSH2 0x4D4 DUP12 DUP8 DUP10 DUP13 PUSH2 0xA44 JUMP JUMPDEST SWAP11 POP DUP1 DUP4 LT ISZERO PUSH2 0x583 JUMPI PUSH32 0x2E00000000000000000000000000000000000000000000000000000000000000 PUSH31 0xFFFFFFFFFFFFFFFFFFFFFFFFFFFFFFFFFFFFFFFFFFFFFFFFFFFFFFFFFFFFFF NOT AND DUP11 DUP5 DUP2 MLOAD DUP2 LT PUSH2 0x534 JUMPI PUSH2 0x533 PUSH2 0x4D1B JUMP JUMPDEST JUMPDEST PUSH1 0x20 ADD ADD MLOAD PUSH1 0xF8 SHR PUSH1 0xF8 SHL PUSH31 0xFFFFFFFFFFFFFFFFFFFFFFFFFFFFFFFFFFFFFFFFFFFFFFFFFFFFFFFFFFFFFF NOT AND SUB PUSH2 0x56F JUMPI PUSH1 0x1 SWAP4 POP PUSH2 0x57E JUMP JUMPDEST DUP3 DUP1 PUSH2 0x57A SWAP1 PUSH2 0x4D4A JUMP JUMPDEST SWAP4 POP POP JUMPDEST PUSH2 0x588 JUMP JUMPDEST PUSH1 0x1 SWAP4 POP JUMPDEST JUMPDEST PUSH2 0x360 JUMP JUMPDEST PUSH1 0x0 SWAP3 POP PUSH1 0x0 SWAP2 POP JUMPDEST DUP11 PUSH1 0x2 PUSH2 0x5A4 SWAP2 SWAP1 PUSH2 0x4CD0 JUMP JUMPDEST DUP3 LT ISZERO PUSH2 0x735 JUMPI DUP7 PUSH1 0x20 ADD MLOAD DUP3 PUSH2 0x100 DUP2 LT PUSH2 0x5C3 JUMPI PUSH2 0x5C2 PUSH2 0x4D1B JUMP JUMPDEST JUMPDEST PUSH1 0x20 MUL ADD MLOAD PUSH1 0x0 PUSH1 0x2 DUP2 LT PUSH2 0x5DB JUMPI PUSH2 0x5DA PUSH2 0x4D1B JUMP JUMPDEST JUMPDEST PUSH1 0x20 MUL ADD MLOAD DUP8 PUSH1 0x0 ADD MLOAD DUP4 PUSH2 0x100 DUP2 LT PUSH2 0x5F8 JUMPI PUSH2 0x5F7 PUSH2 0x4D1B JUMP JUMPDEST JUMPDEST PUSH1 0x20 MUL ADD MLOAD PUSH1 0x0 PUSH1 0x2 DUP2 LT PUSH2 0x610 JUMPI PUSH2 0x60F PUSH2 0x4D1B JUMP JUMPDEST JUMPDEST PUSH1 0x20 MUL ADD DUP2 DUP2 MLOAD PUSH2 0x621 SWAP2 SWAP1 PUSH2 0x4DD0 JUMP JUMPDEST SWAP2 POP DUP2 DUP2 MSTORE POP POP PUSH1 0x0 DUP8 PUSH1 0x0 ADD MLOAD DUP4 PUSH2 0x100 DUP2 LT PUSH2 0x642 JUMPI PUSH2 0x641 PUSH2 0x4D1B JUMP JUMPDEST JUMPDEST PUSH1 0x20 MUL ADD MLOAD PUSH1 0x0 PUSH1 0x2 DUP2 LT PUSH2 0x65A JUMPI PUSH2 0x659 PUSH2 0x4D1B JUMP JUMPDEST JUMPDEST PUSH1 0x20 MUL ADD MLOAD SLT ISZERO PUSH2 0x6E0 JUMPI DUP7 PUSH1 0x0 ADD MLOAD DUP3 PUSH2 0x100 DUP2 LT PUSH2 0x67D JUMPI PUSH2 0x67C PUSH2 0x4D1B JUMP JUMPDEST JUMPDEST PUSH1 0x20 MUL ADD MLOAD PUSH1 0x0 PUSH1 0x2 DUP2 LT PUSH2 0x695 JUMPI PUSH2 0x694 PUSH2 0x4D1B JUMP JUMPDEST JUMPDEST PUSH1 0x20 MUL ADD MLOAD PUSH1 0x0 PUSH2 0x6A6 SWAP2 SWAP1 PUSH2 0x4E14 JUMP JUMPDEST DUP8 PUSH1 0x0 ADD MLOAD DUP4 PUSH2 0x100 DUP2 LT PUSH2 0x6BE JUMPI PUSH2 0x6BD PUSH2 0x4D1B JUMP JUMPDEST JUMPDEST PUSH1 0x20 MUL ADD MLOAD PUSH1 0x0 PUSH1 0x2 DUP2 LT PUSH2 0x6D6 JUMPI PUSH2 0x6D5 PUSH2 0x4D1B JUMP JUMPDEST JUMPDEST PUSH1 0x20 MUL ADD DUP2 DUP2 MSTORE POP POP JUMPDEST DUP7 PUSH1 0x0 ADD MLOAD DUP3 PUSH2 0x100 DUP2 LT PUSH2 0x6F8 JUMPI PUSH2 0x6F7 PUSH2 0x4D1B JUMP JUMPDEST JUMPDEST PUSH1 0x20 MUL ADD MLOAD PUSH1 0x0 PUSH1 0x2 DUP2 LT PUSH2 0x710 JUMPI PUSH2 0x70F PUSH2 0x4D1B JUMP JUMPDEST JUMPDEST PUSH1 0x20 MUL ADD MLOAD DUP4 PUSH2 0x720 SWAP2 SWAP1 PUSH2 0x4D92 JUMP JUMPDEST SWAP3 POP DUP2 DUP1 PUSH2 0x72D SWAP1 PUSH2 0x4D4A JUMP JUMPDEST SWAP3 POP POP PUSH2 0x597 JUMP JUMPDEST PUSH1 0x1 PUSH2 0x741 DUP5 DUP12 PUSH2 0x2493 JUMP JUMPDEST PUSH2 0x74B SWAP2 SWAP1 PUSH2 0x4D92 JUMP JUMPDEST SWAP2 POP PUSH1 0x0 SWAP5 POP JUMPDEST DUP7 PUSH1 0x0 ADD MLOAD DUP6 PUSH2 0x100 DUP2 LT PUSH2 0x76A JUMPI PUSH2 0x769 PUSH2 0x4D1B JUMP JUMPDEST JUMPDEST PUSH1 0x20 MUL ADD MLOAD PUSH1 0x0 PUSH1 0x2 DUP2 LT PUSH2 0x782 JUMPI PUSH2 0x781 PUSH2 0x4D1B JUMP JUMPDEST JUMPDEST PUSH1 0x20 MUL ADD MLOAD DUP3 GT ISZERO PUSH2 0x7E1 JUMPI DUP7 PUSH1 0x0 ADD MLOAD DUP6 DUP1 PUSH2 0x79E SWAP1 PUSH2 0x4D4A JUMP JUMPDEST SWAP7 POP PUSH2 0x100 DUP2 LT PUSH2 0x7B2 JUMPI PUSH2 0x7B1 PUSH2 0x4D1B JUMP JUMPDEST JUMPDEST PUSH1 0x20 MUL ADD MLOAD PUSH1 0x0 PUSH1 0x2 DUP2 LT PUSH2 0x7CA JUMPI PUSH2 0x7C9 PUSH2 0x4D1B JUMP JUMPDEST JUMPDEST PUSH1 0x20 MUL ADD MLOAD DUP3 PUSH2 0x7DA SWAP2 SWAP1 PUSH2 0x4E57 JUMP JUMPDEST SWAP2 POP PUSH2 0x752 JUMP JUMPDEST DUP5 SWAP8 POP POP POP POP POP POP POP POP SWAP4 SWAP3 POP POP POP JUMP JUMPDEST PUSH1 0x60 PUSH1 0x1 DUP1 SLOAD DUP1 PUSH1 0x20 MUL PUSH1 0x20 ADD PUSH1 0x40 MLOAD SWAP1 DUP2 ADD PUSH1 0x40 MSTORE DUP1 SWAP3 SWAP2 SWAP1 DUP2 DUP2 MSTORE PUSH1 0x20 ADD PUSH1 0x0 SWAP1 JUMPDEST DUP3 DUP3 LT ISZERO PUSH2 0x8C2 JUMPI DUP4 DUP3 SWAP1 PUSH1 0x0 MSTORE PUSH1 0x20 PUSH1 0x0 KECCAK256 ADD DUP1 SLOAD PUSH2 0x835 SWAP1 PUSH2 0x4EBA JUMP JUMPDEST DUP1 PUSH1 0x1F ADD PUSH1 0x20 DUP1 SWAP2 DIV MUL PUSH1 0x20 ADD PUSH1 0x40 MLOAD SWAP1 DUP2 ADD PUSH1 0x40 MSTORE DUP1 SWAP3 SWAP2 SWAP1 DUP2 DUP2 MSTORE PUSH1 0x20 ADD DUP3 DUP1 SLOAD PUSH2 0x861 SWAP1 PUSH2 0x4EBA JUMP JUMPDEST DUP1 ISZERO PUSH2 0x8AE JUMPI DUP1 PUSH1 0x1F LT PUSH2 0x883 JUMPI PUSH2 0x100 DUP1 DUP4 SLOAD DIV MUL DUP4 MSTORE SWAP2 PUSH1 0x20 ADD SWAP2 PUSH2 0x8AE JUMP JUMPDEST DUP3 ADD SWAP2 SWAP1 PUSH1 0x0 MSTORE PUSH1 0x20 PUSH1 0x0 KECCAK256 SWAP1 JUMPDEST DUP2 SLOAD DUP2 MSTORE SWAP1 PUSH1 0x1 ADD SWAP1 PUSH1 0x20 ADD DUP1 DUP4 GT PUSH2 0x891 JUMPI DUP3 SWAP1 SUB PUSH1 0x1F AND DUP3 ADD SWAP2 JUMPDEST POP POP POP POP POP DUP2 MSTORE PUSH1 0x20 ADD SWAP1 PUSH1 0x1 ADD SWAP1 PUSH2 0x816 JUMP JUMPDEST POP POP POP POP SWAP1 POP SWAP1 JUMP JUMPDEST PUSH1 0x60 PUSH1 0x40 MLOAD DUP1 PUSH1 0x40 ADD PUSH1 0x40 MSTORE DUP1 PUSH1 0xF DUP2 MSTORE PUSH1 0x20 ADD PUSH32 0x70716365655F73696D756C61746F720000000000000000000000000000000000 DUP2 MSTORE POP SWAP1 POP SWAP1 JUMP JUMPDEST PUSH1 0x1 DUP2 DUP2 SLOAD DUP2 LT PUSH2 0x918 JUMPI PUSH1 0x0 DUP1 REVERT JUMPDEST SWAP1 PUSH1 0x0 MSTORE PUSH1 0x20 PUSH1 0x0 KECCAK256 ADD PUSH1 0x0 SWAP2 POP SWAP1 POP DUP1 SLOAD PUSH2 0x933 SWAP1 PUSH2 0x4EBA JUMP JUMPDEST DUP1 PUSH1 0x1F ADD PUSH1 0x20 DUP1 SWAP2 DIV MUL PUSH1 0x20 ADD PUSH1 0x40 MLOAD SWAP1 DUP2 ADD PUSH1 0x40 MSTORE DUP1 SWAP3 SWAP2 SWAP1 DUP2 DUP2 MSTORE PUSH1 0x20 ADD DUP3 DUP1 SLOAD PUSH2 0x95F SWAP1 PUSH2 0x4EBA JUMP JUMPDEST DUP1 ISZERO PUSH2 0x9AC JUMPI DUP1 PUSH1 0x1F LT PUSH2 0x981 JUMPI PUSH2 0x100 DUP1 DUP4 SLOAD DIV MUL DUP4 MSTORE SWAP2 PUSH1 0x20 ADD SWAP2 PUSH2 0x9AC JUMP JUMPDEST DUP3 ADD SWAP2 SWAP1 PUSH1 0x0 MSTORE PUSH1 0x20 PUSH1 0x0 KECCAK256 SWAP1 JUMPDEST DUP2 SLOAD DUP2 MSTORE SWAP1 PUSH1 0x1 ADD SWAP1 PUSH1 0x20 ADD DUP1 DUP4 GT PUSH2 0x98F JUMPI DUP3 SWAP1 SUB PUSH1 0x1F AND DUP3 ADD SWAP2 JUMPDEST POP POP POP POP POP DUP2 JUMP JUMPDEST PUSH1 0x0 PUSH1 0x8 SWAP1 POP SWAP1 JUMP JUMPDEST PUSH1 0x0 PUSH1 0x1 SWAP1 POP SWAP1 JUMP JUMPDEST PUSH1 0x0 SWAP1 JUMP JUMPDEST PUSH1 0x0 DUP1 SLOAD SWAP1 PUSH2 0x100 EXP SWAP1 DIV PUSH20 0xFFFFFFFFFFFFFFFFFFFFFFFFFFFFFFFFFFFFFFFF AND DUP2 JUMP JUMPDEST PUSH1 0x0 PUSH1 0x8 PUSH1 0xFF AND DUP3 PUSH1 0xFF AND GT ISZERO PUSH2 0xA3B JUMPI PUSH1 0x40 MLOAD PUSH32 0x8C379A000000000000000000000000000000000000000000000000000000000 DUP2 MSTORE PUSH1 0x4 ADD PUSH2 0xA32 SWAP1 PUSH2 0x4F37 JUMP JUMPDEST PUSH1 0x40 MLOAD DUP1 SWAP2 SUB SWAP1 REVERT JUMPDEST PUSH1 0x0 SWAP1 POP SWAP2 SWAP1 POP JUMP JUMPDEST PUSH1 0x0 DUP1 PUSH1 0x0 DUP1 PUSH1 0x0 DUP1 DUP10 PUSH1 0x2 PUSH2 0xA5A SWAP2 SWAP1 PUSH2 0x4CD0 JUMP JUMPDEST SWAP1 POP PUSH1 0x1 SWAP5 POP PUSH1 0x1 DUP11 PUSH2 0xA6D SWAP2 SWAP1 PUSH2 0x4F57 JUMP JUMPDEST PUSH1 0xFF AND DUP6 SWAP1 SHL SWAP5 POP PUSH1 0x0 SWAP4 POP JUMPDEST DUP10 PUSH1 0xFF AND DUP5 LT ISZERO PUSH2 0x236F JUMPI PUSH1 0x0 DUP1 DUP4 PUSH1 0xFF AND EQ PUSH2 0xA98 JUMPI PUSH1 0x0 PUSH2 0xA9B JUMP JUMPDEST PUSH1 0x1 JUMPDEST SWAP1 POP PUSH1 0x0 SWAP4 POP JUMPDEST DUP2 DUP5 LT ISZERO PUSH2 0xB34 JUMPI PUSH1 0x0 DUP10 PUSH1 0x20 ADD MLOAD DUP6 PUSH2 0x100 DUP2 LT PUSH2 0xAC4 JUMPI PUSH2 0xAC3 PUSH2 0x4D1B JUMP JUMPDEST JUMPDEST PUSH1 0x20 MUL ADD MLOAD DUP3 PUSH1 0xFF AND PUSH1 0x2 DUP2 LT PUSH2 0xADE JUMPI PUSH2 0xADD PUSH2 0x4D1B JUMP JUMPDEST JUMPDEST PUSH1 0x20 MUL ADD DUP2 DUP2 MSTORE POP DUP10 PUSH1 0x0 ADD MLOAD DUP6 PUSH2 0x100 DUP2 LT PUSH2 0xAFE JUMPI PUSH2 0xAFD PUSH2 0x4D1B JUMP JUMPDEST JUMPDEST PUSH1 0x20 MUL ADD MLOAD DUP3 PUSH1 0xFF AND PUSH1 0x2 DUP2 LT PUSH2 0xB18 JUMPI PUSH2 0xB17 PUSH2 0x4D1B JUMP JUMPDEST JUMPDEST PUSH1 0x20 MUL ADD DUP2 DUP2 MSTORE POP POP DUP4 DUP1 PUSH2 0xB2C SWAP1 PUSH2 0x4D4A JUMP JUMPDEST SWAP5 POP POP PUSH2 0xAA2 JUMP JUMPDEST PUSH32 0x4800000000000000000000000000000000000000000000000000000000000000 PUSH31 0xFFFFFFFFFFFFFFFFFFFFFFFFFFFFFFFFFFFFFFFFFFFFFFFFFFFFFFFFFFFFFF NOT AND DUP11 DUP7 DUP2 MLOAD DUP2 LT PUSH2 0xB8A JUMPI PUSH2 0xB89 PUSH2 0x4D1B JUMP JUMPDEST JUMPDEST PUSH1 0x20 MUL PUSH1 0x20 ADD ADD MLOAD PUSH31 0xFFFFFFFFFFFFFFFFFFFFFFFFFFFFFFFFFFFFFFFFFFFFFFFFFFFFFFFFFFFFFF NOT AND SUB PUSH2 0xC6D JUMPI PUSH1 0x0 SWAP4 POP JUMPDEST DUP2 DUP5 LT ISZERO PUSH2 0xC68 JUMPI PUSH1 0x0 DUP10 PUSH1 0x0 ADD MLOAD DUP6 PUSH2 0x100 DUP2 LT PUSH2 0xBE0 JUMPI PUSH2 0xBDF PUSH2 0x4D1B JUMP JUMPDEST JUMPDEST PUSH1 0x20 MUL ADD MLOAD DUP5 PUSH1 0xFF AND PUSH1 0x2 DUP2 LT PUSH2 0xBFA JUMPI PUSH2 0xBF9 PUSH2 0x4D1B JUMP JUMPDEST JUMPDEST PUSH1 0x20 MUL ADD MLOAD EQ ISZERO DUP1 PUSH2 0xC43 JUMPI POP PUSH1 0x0 DUP10 PUSH1 0x20 ADD MLOAD DUP6 PUSH2 0x100 DUP2 LT PUSH2 0xC21 JUMPI PUSH2 0xC20 PUSH2 0x4D1B JUMP JUMPDEST JUMPDEST PUSH1 0x20 MUL ADD MLOAD DUP5 PUSH1 0xFF AND PUSH1 0x2 DUP2 LT PUSH2 0xC3B JUMPI PUSH2 0xC3A PUSH2 0x4D1B JUMP JUMPDEST JUMPDEST PUSH1 0x20 MUL ADD MLOAD EQ ISZERO JUMPDEST ISZERO PUSH2 0xC55 JUMPI PUSH2 0xC54 DUP7 DUP6 DUP12 DUP7 PUSH2 0x24DB JUMP JUMPDEST JUMPDEST DUP4 DUP1 PUSH2 0xC60 SWAP1 PUSH2 0x4D4A JUMP JUMPDEST SWAP5 POP POP PUSH2 0xBBE JUMP JUMPDEST PUSH2 0x2351 JUMP JUMPDEST PUSH32 0x4900000000000000000000000000000000000000000000000000000000000000 PUSH31 0xFFFFFFFFFFFFFFFFFFFFFFFFFFFFFFFFFFFFFFFFFFFFFFFFFFFFFFFFFFFFFF NOT AND DUP11 DUP7 DUP2 MLOAD DUP2 LT PUSH2 0xCC3 JUMPI PUSH2 0xCC2 PUSH2 0x4D1B JUMP JUMPDEST JUMPDEST PUSH1 0x20 MUL PUSH1 0x20 ADD ADD MLOAD PUSH31 0xFFFFFFFFFFFFFFFFFFFFFFFFFFFFFFFFFFFFFFFFFFFFFFFFFFFFFFFFFFFFFF NOT AND EQ DUP1 PUSH2 0xD76 JUMPI POP PUSH32 0x4300000000000000000000000000000000000000000000000000000000000000 PUSH31 0xFFFFFFFFFFFFFFFFFFFFFFFFFFFFFFFFFFFFFFFFFFFFFFFFFFFFFFFFFFFFFF NOT AND DUP11 DUP7 DUP2 MLOAD DUP2 LT PUSH2 0xD4A JUMPI PUSH2 0xD49 PUSH2 0x4D1B JUMP JUMPDEST JUMPDEST PUSH1 0x20 MUL PUSH1 0x20 ADD ADD MLOAD PUSH31 0xFFFFFFFFFFFFFFFFFFFFFFFFFFFFFFFFFFFFFFFFFFFFFFFFFFFFFFFFFFFFFF NOT AND EQ JUMPDEST ISZERO PUSH2 0xE2E JUMPI PUSH1 0x0 SWAP4 POP JUMPDEST DUP2 DUP5 LT ISZERO PUSH2 0xE29 JUMPI PUSH1 0x0 DUP10 PUSH1 0x0 ADD MLOAD DUP6 PUSH2 0x100 DUP2 LT PUSH2 0xDA2 JUMPI PUSH2 0xDA1 PUSH2 0x4D1B JUMP JUMPDEST JUMPDEST PUSH1 0x20 MUL ADD MLOAD DUP5 PUSH1 0xFF AND PUSH1 0x2 DUP2 LT PUSH2 0xDBC JUMPI PUSH2 0xDBB PUSH2 0x4D1B JUMP JUMPDEST JUMPDEST PUSH1 0x20 MUL ADD MLOAD EQ ISZERO DUP1 PUSH2 0xE05 JUMPI POP PUSH1 0x0 DUP10 PUSH1 0x20 ADD MLOAD DUP6 PUSH2 0x100 DUP2 LT PUSH2 0xDE3 JUMPI PUSH2 0xDE2 PUSH2 0x4D1B JUMP JUMPDEST JUMPDEST PUSH1 0x20 MUL ADD MLOAD DUP5 PUSH1 0xFF AND PUSH1 0x2 DUP2 LT PUSH2 0xDFD JUMPI PUSH2 0xDFC PUSH2 0x4D1B JUMP JUMPDEST JUMPDEST PUSH1 0x20 MUL ADD MLOAD EQ ISZERO JUMPDEST ISZERO PUSH2 0xE16 JUMPI PUSH2 0xE15 DUP5 DUP11 DUP6 PUSH2 0x294A JUMP JUMPDEST JUMPDEST DUP4 DUP1 PUSH2 0xE21 SWAP1 PUSH2 0x4D4A JUMP JUMPDEST SWAP5 POP POP PUSH2 0xD80 JUMP JUMPDEST PUSH2 0x2350 JUMP JUMPDEST PUSH32 0x5800000000000000000000000000000000000000000000000000000000000000 PUSH31 0xFFFFFFFFFFFFFFFFFFFFFFFFFFFFFFFFFFFFFFFFFFFFFFFFFFFFFFFFFFFFFF NOT AND DUP11 DUP7 DUP2 MLOAD DUP2 LT PUSH2 0xE84 JUMPI PUSH2 0xE83 PUSH2 0x4D1B JUMP JUMPDEST JUMPDEST PUSH1 0x20 MUL PUSH1 0x20 ADD ADD MLOAD PUSH31 0xFFFFFFFFFFFFFFFFFFFFFFFFFFFFFFFFFFFFFFFFFFFFFFFFFFFFFFFFFFFFFF NOT AND SUB PUSH2 0xF67 JUMPI PUSH1 0x0 SWAP4 POP JUMPDEST DUP2 DUP5 LT ISZERO PUSH2 0xF62 JUMPI PUSH1 0x0 DUP10 PUSH1 0x0 ADD MLOAD DUP6 PUSH2 0x100 DUP2 LT PUSH2 0xEDA JUMPI PUSH2 0xED9 PUSH2 0x4D1B JUMP JUMPDEST JUMPDEST PUSH1 0x20 MUL ADD MLOAD DUP5 PUSH1 0xFF AND PUSH1 0x2 DUP2 LT PUSH2 0xEF4 JUMPI PUSH2 0xEF3 PUSH2 0x4D1B JUMP JUMPDEST JUMPDEST PUSH1 0x20 MUL ADD MLOAD EQ ISZERO DUP1 PUSH2 0xF3D JUMPI POP PUSH1 0x0 DUP10 PUSH1 0x20 ADD MLOAD DUP6 PUSH2 0x100 DUP2 LT PUSH2 0xF1B JUMPI PUSH2 0xF1A PUSH2 0x4D1B JUMP JUMPDEST JUMPDEST PUSH1 0x20 MUL ADD MLOAD DUP5 PUSH1 0xFF AND PUSH1 0x2 DUP2 LT PUSH2 0xF35 JUMPI PUSH2 0xF34 PUSH2 0x4D1B JUMP JUMPDEST JUMPDEST PUSH1 0x20 MUL ADD MLOAD EQ ISZERO JUMPDEST ISZERO PUSH2 0xF4F JUMPI PUSH2 0xF4E DUP7 DUP6 DUP12 DUP7 PUSH2 0x2A6A JUMP JUMPDEST JUMPDEST DUP4 DUP1 PUSH2 0xF5A SWAP1 PUSH2 0x4D4A JUMP JUMPDEST SWAP5 POP POP PUSH2 0xEB8 JUMP JUMPDEST PUSH2 0x234F JUMP JUMPDEST PUSH32 0x5900000000000000000000000000000000000000000000000000000000000000 PUSH31 0xFFFFFFFFFFFFFFFFFFFFFFFFFFFFFFFFFFFFFFFFFFFFFFFFFFFFFFFFFFFFFF NOT AND DUP11 DUP7 DUP2 MLOAD DUP2 LT PUSH2 0xFBD JUMPI PUSH2 0xFBC PUSH2 0x4D1B JUMP JUMPDEST JUMPDEST PUSH1 0x20 MUL PUSH1 0x20 ADD ADD MLOAD PUSH31 0xFFFFFFFFFFFFFFFFFFFFFFFFFFFFFFFFFFFFFFFFFFFFFFFFFFFFFFFFFFFFFF NOT AND SUB PUSH2 0x10A0 JUMPI PUSH1 0x0 SWAP4 POP JUMPDEST DUP2 DUP5 LT ISZERO PUSH2 0x109B JUMPI PUSH1 0x0 DUP10 PUSH1 0x0 ADD MLOAD DUP6 PUSH2 0x100 DUP2 LT PUSH2 0x1013 JUMPI PUSH2 0x1012 PUSH2 0x4D1B JUMP JUMPDEST JUMPDEST PUSH1 0x20 MUL ADD MLOAD DUP5 PUSH1 0xFF AND PUSH1 0x2 DUP2 LT PUSH2 0x102D JUMPI PUSH2 0x102C PUSH2 0x4D1B JUMP JUMPDEST JUMPDEST PUSH1 0x20 MUL ADD MLOAD EQ ISZERO DUP1 PUSH2 0x1076 JUMPI POP PUSH1 0x0 DUP10 PUSH1 0x20 ADD MLOAD DUP6 PUSH2 0x100 DUP2 LT PUSH2 0x1054 JUMPI PUSH2 0x1053 PUSH2 0x4D1B JUMP JUMPDEST JUMPDEST PUSH1 0x20 MUL ADD MLOAD DUP5 PUSH1 0xFF AND PUSH1 0x2 DUP2 LT PUSH2 0x106E JUMPI PUSH2 0x106D PUSH2 0x4D1B JUMP JUMPDEST JUMPDEST PUSH1 0x20 MUL ADD MLOAD EQ ISZERO JUMPDEST ISZERO PUSH2 0x1088 JUMPI PUSH2 0x1087 DUP7 DUP6 DUP12 DUP7 PUSH2 0x2CC9 JUMP JUMPDEST JUMPDEST DUP4 DUP1 PUSH2 0x1093 SWAP1 PUSH2 0x4D4A JUMP JUMPDEST SWAP5 POP POP PUSH2 0xFF1 JUMP JUMPDEST PUSH2 0x234E JUMP JUMPDEST PUSH32 0x5A00000000000000000000000000000000000000000000000000000000000000 PUSH31 0xFFFFFFFFFFFFFFFFFFFFFFFFFFFFFFFFFFFFFFFFFFFFFFFFFFFFFFFFFFFFFF NOT AND DUP11 DUP7 DUP2 MLOAD DUP2 LT PUSH2 0x10F6 JUMPI PUSH2 0x10F5 PUSH2 0x4D1B JUMP JUMPDEST JUMPDEST PUSH1 0x20 MUL PUSH1 0x20 ADD ADD MLOAD PUSH31 0xFFFFFFFFFFFFFFFFFFFFFFFFFFFFFFFFFFFFFFFFFFFFFFFFFFFFFFFFFFFFFF NOT AND SUB PUSH2 0x11D9 JUMPI PUSH1 0x0 SWAP4 POP JUMPDEST DUP2 DUP5 LT ISZERO PUSH2 0x11D4 JUMPI PUSH1 0x0 DUP10 PUSH1 0x0 ADD MLOAD DUP6 PUSH2 0x100 DUP2 LT PUSH2 0x114C JUMPI PUSH2 0x114B PUSH2 0x4D1B JUMP JUMPDEST JUMPDEST PUSH1 0x20 MUL ADD MLOAD DUP5 PUSH1 0xFF AND PUSH1 0x2 DUP2 LT PUSH2 0x1166 JUMPI PUSH2 0x1165 PUSH2 0x4D1B JUMP JUMPDEST JUMPDEST PUSH1 0x20 MUL ADD MLOAD EQ ISZERO DUP1 PUSH2 0x11AF JUMPI POP PUSH1 0x0 DUP10 PUSH1 0x20 ADD MLOAD DUP6 PUSH2 0x100 DUP2 LT PUSH2 0x118D JUMPI PUSH2 0x118C PUSH2 0x4D1B JUMP JUMPDEST JUMPDEST PUSH1 0x20 MUL ADD MLOAD DUP5 PUSH1 0xFF AND PUSH1 0x2 DUP2 LT PUSH2 0x11A7 JUMPI PUSH2 0x11A6 PUSH2 0x4D1B JUMP JUMPDEST JUMPDEST PUSH1 0x20 MUL ADD MLOAD EQ ISZERO JUMPDEST ISZERO PUSH2 0x11C1 JUMPI PUSH2 0x11C0 DUP7 DUP6 DUP12 DUP7 PUSH2 0x2F40 JUMP JUMPDEST JUMPDEST DUP4 DUP1 PUSH2 0x11CC SWAP1 PUSH2 0x4D4A JUMP JUMPDEST SWAP5 POP POP PUSH2 0x112A JUMP JUMPDEST PUSH2 0x234D JUMP JUMPDEST PUSH32 0x6D00000000000000000000000000000000000000000000000000000000000000 PUSH31 0xFFFFFFFFFFFFFFFFFFFFFFFFFFFFFFFFFFFFFFFFFFFFFFFFFFFFFFFFFFFFFF NOT AND DUP11 DUP7 DUP2 MLOAD DUP2 LT PUSH2 0x122F JUMPI PUSH2 0x122E PUSH2 0x4D1B JUMP JUMPDEST JUMPDEST PUSH1 0x20 MUL PUSH1 0x20 ADD ADD MLOAD PUSH31 0xFFFFFFFFFFFFFFFFFFFFFFFFFFFFFFFFFFFFFFFFFFFFFFFFFFFFFFFFFFFFFF NOT AND SUB PUSH2 0x185F JUMPI PUSH1 0x0 DUP1 SWAP5 POP JUMPDEST DUP3 DUP6 LT ISZERO PUSH2 0x15A4 JUMPI DUP10 PUSH1 0x0 ADD MLOAD DUP6 PUSH2 0x100 DUP2 LT PUSH2 0x1284 JUMPI PUSH2 0x1283 PUSH2 0x4D1B JUMP JUMPDEST JUMPDEST PUSH1 0x20 MUL ADD MLOAD DUP5 PUSH1 0xFF AND PUSH1 0x2 DUP2 LT PUSH2 0x129E JUMPI PUSH2 0x129D PUSH2 0x4D1B JUMP JUMPDEST JUMPDEST PUSH1 0x20 MUL ADD MLOAD DUP11 PUSH1 0x0 ADD MLOAD DUP7 PUSH2 0x100 DUP2 LT PUSH2 0x12BB JUMPI PUSH2 0x12BA PUSH2 0x4D1B JUMP JUMPDEST JUMPDEST PUSH1 0x20 MUL ADD MLOAD DUP4 PUSH1 0xFF AND PUSH1 0x2 DUP2 LT PUSH2 0x12D5 JUMPI PUSH2 0x12D4 PUSH2 0x4D1B JUMP JUMPDEST JUMPDEST PUSH1 0x20 MUL ADD DUP2 DUP2 MSTORE POP POP PUSH1 0x0 DUP11 PUSH1 0x0 ADD MLOAD DUP7 PUSH2 0x100 DUP2 LT PUSH2 0x12F8 JUMPI PUSH2 0x12F7 PUSH2 0x4D1B JUMP JUMPDEST JUMPDEST PUSH1 0x20 MUL ADD MLOAD DUP4 PUSH1 0xFF AND PUSH1 0x2 DUP2 LT PUSH2 0x1312 JUMPI PUSH2 0x1311 PUSH2 0x4D1B JUMP JUMPDEST JUMPDEST PUSH1 0x20 MUL ADD MLOAD SLT ISZERO PUSH2 0x139C JUMPI DUP10 PUSH1 0x0 ADD MLOAD DUP6 PUSH2 0x100 DUP2 LT PUSH2 0x1335 JUMPI PUSH2 0x1334 PUSH2 0x4D1B JUMP JUMPDEST JUMPDEST PUSH1 0x20 MUL ADD MLOAD DUP3 PUSH1 0xFF AND PUSH1 0x2 DUP2 LT PUSH2 0x134F JUMPI PUSH2 0x134E PUSH2 0x4D1B JUMP JUMPDEST JUMPDEST PUSH1 0x20 MUL ADD MLOAD PUSH1 0x0 PUSH2 0x1360 SWAP2 SWAP1 PUSH2 0x4E14 JUMP JUMPDEST DUP11 PUSH1 0x0 ADD MLOAD DUP7 PUSH2 0x100 DUP2 LT PUSH2 0x1378 JUMPI PUSH2 0x1377 PUSH2 0x4D1B JUMP JUMPDEST JUMPDEST PUSH1 0x20 MUL ADD MLOAD DUP4 PUSH1 0xFF AND PUSH1 0x2 DUP2 LT PUSH2 0x1392 JUMPI PUSH2 0x1391 PUSH2 0x4D1B JUMP JUMPDEST JUMPDEST PUSH1 0x20 MUL ADD DUP2 DUP2 MSTORE POP POP JUMPDEST DUP10 PUSH1 0x20 ADD MLOAD DUP6 PUSH2 0x100 DUP2 LT PUSH2 0x13B4 JUMPI PUSH2 0x13B3 PUSH2 0x4D1B JUMP JUMPDEST JUMPDEST PUSH1 0x20 MUL ADD MLOAD DUP5 PUSH1 0xFF AND PUSH1 0x2 DUP2 LT PUSH2 0x13CE JUMPI PUSH2 0x13CD PUSH2 0x4D1B JUMP JUMPDEST JUMPDEST PUSH1 0x20 MUL ADD MLOAD DUP11 PUSH1 0x20 ADD MLOAD DUP7 PUSH2 0x100 DUP2 LT PUSH2 0x13EB JUMPI PUSH2 0x13EA PUSH2 0x4D1B JUMP JUMPDEST JUMPDEST PUSH1 0x20 MUL ADD MLOAD DUP4 PUSH1 0xFF AND PUSH1 0x2 DUP2 LT PUSH2 0x1405 JUMPI PUSH2 0x1404 PUSH2 0x4D1B JUMP JUMPDEST JUMPDEST PUSH1 0x20 MUL ADD DUP2 DUP2 MSTORE POP POP PUSH1 0x0 DUP11 PUSH1 0x20 ADD MLOAD DUP7 PUSH2 0x100 DUP2 LT PUSH2 0x1428 JUMPI PUSH2 0x1427 PUSH2 0x4D1B JUMP JUMPDEST JUMPDEST PUSH1 0x20 MUL ADD MLOAD DUP4 PUSH1 0xFF AND PUSH1 0x2 DUP2 LT PUSH2 0x1442 JUMPI PUSH2 0x1441 PUSH2 0x4D1B JUMP JUMPDEST JUMPDEST PUSH1 0x20 MUL ADD MLOAD SLT ISZERO PUSH2 0x14CC JUMPI DUP10 PUSH1 0x20 ADD MLOAD DUP6 PUSH2 0x100 DUP2 LT PUSH2 0x1465 JUMPI PUSH2 0x1464 PUSH2 0x4D1B JUMP JUMPDEST JUMPDEST PUSH1 0x20 MUL ADD MLOAD DUP3 PUSH1 0xFF AND PUSH1 0x2 DUP2 LT PUSH2 0x147F JUMPI PUSH2 0x147E PUSH2 0x4D1B JUMP JUMPDEST JUMPDEST PUSH1 0x20 MUL ADD MLOAD PUSH1 0x0 PUSH2 0x1490 SWAP2 SWAP1 PUSH2 0x4E14 JUMP JUMPDEST DUP11 PUSH1 0x20 ADD MLOAD DUP7 PUSH2 0x100 DUP2 LT PUSH2 0x14A8 JUMPI PUSH2 0x14A7 PUSH2 0x4D1B JUMP JUMPDEST JUMPDEST PUSH1 0x20 MUL ADD MLOAD DUP4 PUSH1 0xFF AND PUSH1 0x2 DUP2 LT PUSH2 0x14C2 JUMPI PUSH2 0x14C1 PUSH2 0x4D1B JUMP JUMPDEST JUMPDEST PUSH1 0x20 MUL ADD DUP2 DUP2 MSTORE POP POP JUMPDEST DUP10 PUSH1 0x20 ADD MLOAD DUP6 PUSH2 0x100 DUP2 LT PUSH2 0x14E4 JUMPI PUSH2 0x14E3 PUSH2 0x4D1B JUMP JUMPDEST JUMPDEST PUSH1 0x20 MUL ADD MLOAD DUP3 PUSH1 0xFF AND PUSH1 0x2 DUP2 LT PUSH2 0x14FE JUMPI PUSH2 0x14FD PUSH2 0x4D1B JUMP JUMPDEST JUMPDEST PUSH1 0x20 MUL ADD MLOAD DUP11 PUSH1 0x0 ADD MLOAD DUP7 PUSH2 0x100 DUP2 LT PUSH2 0x151B JUMPI PUSH2 0x151A PUSH2 0x4D1B JUMP JUMPDEST JUMPDEST PUSH1 0x20 MUL ADD MLOAD DUP4 PUSH1 0xFF AND PUSH1 0x2 DUP2 LT PUSH2 0x1535 JUMPI PUSH2 0x1534 PUSH2 0x4D1B JUMP JUMPDEST JUMPDEST PUSH1 0x20 MUL ADD DUP2 DUP2 MLOAD PUSH2 0x1546 SWAP2 SWAP1 PUSH2 0x4DD0 JUMP JUMPDEST SWAP2 POP DUP2 DUP2 MSTORE POP POP DUP10 PUSH1 0x0 ADD MLOAD DUP6 PUSH2 0x100 DUP2 LT PUSH2 0x1565 JUMPI PUSH2 0x1564 PUSH2 0x4D1B JUMP JUMPDEST JUMPDEST PUSH1 0x20 MUL ADD MLOAD DUP3 PUSH1 0xFF AND PUSH1 0x2 DUP2 LT PUSH2 0x157F JUMPI PUSH2 0x157E PUSH2 0x4D1B JUMP JUMPDEST JUMPDEST PUSH1 0x20 MUL ADD MLOAD DUP2 PUSH2 0x158F SWAP2 SWAP1 PUSH2 0x4D92 JUMP JUMPDEST SWAP1 POP DUP5 DUP1 PUSH2 0x159C SWAP1 PUSH2 0x4D4A JUMP JUMPDEST SWAP6 POP POP PUSH2 0x1264 JUMP JUMPDEST PUSH1 0x1 PUSH2 0x15B0 DUP3 DUP12 PUSH2 0x2493 JUMP JUMPDEST PUSH2 0x15BA SWAP2 SWAP1 PUSH2 0x4D92 JUMP JUMPDEST SWAP5 POP PUSH1 0x0 SWAP1 POP JUMPDEST DUP10 PUSH1 0x0 ADD MLOAD DUP2 PUSH2 0x100 DUP2 LT PUSH2 0x15D9 JUMPI PUSH2 0x15D8 PUSH2 0x4D1B JUMP JUMPDEST JUMPDEST PUSH1 0x20 MUL ADD MLOAD DUP3 PUSH1 0xFF AND PUSH1 0x2 DUP2 LT PUSH2 0x15F3 JUMPI PUSH2 0x15F2 PUSH2 0x4D1B JUMP JUMPDEST JUMPDEST PUSH1 0x20 MUL ADD MLOAD DUP6 GT ISZERO PUSH2 0x1654 JUMPI DUP10 PUSH1 0x0 ADD MLOAD DUP2 DUP1 PUSH2 0x160F SWAP1 PUSH2 0x4D4A JUMP JUMPDEST SWAP3 POP PUSH2 0x100 DUP2 LT PUSH2 0x1623 JUMPI PUSH2 0x1622 PUSH2 0x4D1B JUMP JUMPDEST JUMPDEST PUSH1 0x20 MUL ADD MLOAD DUP3 PUSH1 0xFF AND PUSH1 0x2 DUP2 LT PUSH2 0x163D JUMPI PUSH2 0x163C PUSH2 0x4D1B JUMP JUMPDEST JUMPDEST PUSH1 0x20 MUL ADD MLOAD DUP6 PUSH2 0x164D SWAP2 SWAP1 PUSH2 0x4E57 JUMP JUMPDEST SWAP5 POP PUSH2 0x15C1 JUMP JUMPDEST PUSH1 0x0 SWAP5 POP JUMPDEST DUP3 DUP6 LT ISZERO PUSH2 0x16EB JUMPI PUSH1 0x0 DUP11 PUSH1 0x20 ADD MLOAD DUP7 PUSH2 0x100 DUP2 LT PUSH2 0x167B JUMPI PUSH2 0x167A PUSH2 0x4D1B JUMP JUMPDEST JUMPDEST PUSH1 0x20 MUL ADD MLOAD DUP4 PUSH1 0xFF AND PUSH1 0x2 DUP2 LT PUSH2 0x1695 JUMPI PUSH2 0x1694 PUSH2 0x4D1B JUMP JUMPDEST JUMPDEST PUSH1 0x20 MUL ADD DUP2 DUP2 MSTORE POP DUP11 PUSH1 0x0 ADD MLOAD DUP7 PUSH2 0x100 DUP2 LT PUSH2 0x16B5 JUMPI PUSH2 0x16B4 PUSH2 0x4D1B JUMP JUMPDEST JUMPDEST PUSH1 0x20 MUL ADD MLOAD DUP4 PUSH1 0xFF AND PUSH1 0x2 DUP2 LT PUSH2 0x16CF JUMPI PUSH2 0x16CE PUSH2 0x4D1B JUMP JUMPDEST JUMPDEST PUSH1 0x20 MUL ADD DUP2 DUP2 MSTORE POP POP DUP5 DUP1 PUSH2 0x16E3 SWAP1 PUSH2 0x4D4A JUMP JUMPDEST SWAP6 POP POP PUSH2 0x1659 JUMP JUMPDEST PUSH1 0x0 DUP8 DUP3 AND SUB PUSH2 0x17A9 JUMPI PUSH1 0x0 SWAP5 POP JUMPDEST DUP3 DUP6 LT ISZERO PUSH2 0x17A4 JUMPI PUSH1 0x0 DUP11 PUSH1 0x0 ADD MLOAD DUP7 PUSH2 0x100 DUP2 LT PUSH2 0x171C JUMPI PUSH2 0x171B PUSH2 0x4D1B JUMP JUMPDEST JUMPDEST PUSH1 0x20 MUL ADD MLOAD DUP6 PUSH1 0xFF AND PUSH1 0x2 DUP2 LT PUSH2 0x1736 JUMPI PUSH2 0x1735 PUSH2 0x4D1B JUMP JUMPDEST JUMPDEST PUSH1 0x20 MUL ADD MLOAD EQ ISZERO DUP1 PUSH2 0x177F JUMPI POP PUSH1 0x0 DUP11 PUSH1 0x20 ADD MLOAD DUP7 PUSH2 0x100 DUP2 LT PUSH2 0x175D JUMPI PUSH2 0x175C PUSH2 0x4D1B JUMP JUMPDEST JUMPDEST PUSH1 0x20 MUL ADD MLOAD DUP6 PUSH1 0xFF AND PUSH1 0x2 DUP2 LT PUSH2 0x1777 JUMPI PUSH2 0x1776 PUSH2 0x4D1B JUMP JUMPDEST JUMPDEST PUSH1 0x20 MUL ADD MLOAD EQ ISZERO JUMPDEST ISZERO PUSH2 0x1791 JUMPI PUSH2 0x1790 DUP8 DUP7 DUP13 DUP8 PUSH2 0x318B JUMP JUMPDEST JUMPDEST DUP5 DUP1 PUSH2 0x179C SWAP1 PUSH2 0x4D4A JUMP JUMPDEST SWAP6 POP POP PUSH2 0x16FA JUMP JUMPDEST PUSH2 0x1859 JUMP JUMPDEST PUSH1 0x0 SWAP5 POP JUMPDEST DUP3 DUP6 LT ISZERO PUSH2 0x1858 JUMPI PUSH1 0x0 DUP11 PUSH1 0x0 ADD MLOAD DUP7 PUSH2 0x100 DUP2 LT PUSH2 0x17D0 JUMPI PUSH2 0x17CF PUSH2 0x4D1B JUMP JUMPDEST JUMPDEST PUSH1 0x20 MUL ADD MLOAD DUP6 PUSH1 0xFF AND PUSH1 0x2 DUP2 LT PUSH2 0x17EA JUMPI PUSH2 0x17E9 PUSH2 0x4D1B JUMP JUMPDEST JUMPDEST PUSH1 0x20 MUL ADD MLOAD EQ ISZERO DUP1 PUSH2 0x1833 JUMPI POP PUSH1 0x0 DUP11 PUSH1 0x20 ADD MLOAD DUP7 PUSH2 0x100 DUP2 LT PUSH2 0x1811 JUMPI PUSH2 0x1810 PUSH2 0x4D1B JUMP JUMPDEST JUMPDEST PUSH1 0x20 MUL ADD MLOAD DUP6 PUSH1 0xFF AND PUSH1 0x2 DUP2 LT PUSH2 0x182B JUMPI PUSH2 0x182A PUSH2 0x4D1B JUMP JUMPDEST JUMPDEST PUSH1 0x20 MUL ADD MLOAD EQ ISZERO JUMPDEST ISZERO PUSH2 0x1845 JUMPI PUSH2 0x1844 DUP8 DUP7 DUP13 DUP8 PUSH2 0x32B7 JUMP JUMPDEST JUMPDEST DUP5 DUP1 PUSH2 0x1850 SWAP1 PUSH2 0x4D4A JUMP JUMPDEST SWAP6 POP POP PUSH2 0x17AE JUMP JUMPDEST JUMPDEST POP PUSH2 0x234C JUMP JUMPDEST PUSH32 0x4E00000000000000000000000000000000000000000000000000000000000000 PUSH31 0xFFFFFFFFFFFFFFFFFFFFFFFFFFFFFFFFFFFFFFFFFFFFFFFFFFFFFFFFFFFFFF NOT AND DUP11 DUP7 DUP2 MLOAD DUP2 LT PUSH2 0x18B5 JUMPI PUSH2 0x18B4 PUSH2 0x4D1B JUMP JUMPDEST JUMPDEST PUSH1 0x20 MUL PUSH1 0x20 ADD ADD MLOAD PUSH31 0xFFFFFFFFFFFFFFFFFFFFFFFFFFFFFFFFFFFFFFFFFFFFFFFFFFFFFFFFFFFFFF NOT AND SUB PUSH2 0x1A75 JUMPI PUSH1 0x0 PUSH1 0x1 SWAP1 POP PUSH1 0x1 DUP13 PUSH2 0x18F7 SWAP2 SWAP1 PUSH2 0x4F57 JUMP JUMPDEST PUSH1 0xFF AND DUP2 SWAP1 SHL SWAP1 POP PUSH1 0x0 DUP1 SWAP6 POP JUMPDEST DUP13 PUSH1 0xFF AND DUP7 LT ISZERO PUSH2 0x19BE JUMPI PUSH32 0x4300000000000000000000000000000000000000000000000000000000000000 PUSH31 0xFFFFFFFFFFFFFFFFFFFFFFFFFFFFFFFFFFFFFFFFFFFFFFFFFFFFFFFFFFFFFF NOT AND DUP13 DUP8 DUP2 MLOAD DUP2 LT PUSH2 0x1966 JUMPI PUSH2 0x1965 PUSH2 0x4D1B JUMP JUMPDEST JUMPDEST PUSH1 0x20 MUL PUSH1 0x20 ADD ADD MLOAD PUSH31 0xFFFFFFFFFFFFFFFFFFFFFFFFFFFFFFFFFFFFFFFFFFFFFFFFFFFFFFFFFFFFFF NOT AND SUB PUSH2 0x19A4 JUMPI DUP2 DUP2 PUSH2 0x19A1 SWAP2 SWAP1 PUSH2 0x4D92 JUMP JUMPDEST SWAP1 POP JUMPDEST PUSH1 0x1 DUP3 SWAP1 SHR SWAP2 POP DUP6 DUP1 PUSH2 0x19B6 SWAP1 PUSH2 0x4D4A JUMP JUMPDEST SWAP7 POP POP PUSH2 0x1905 JUMP JUMPDEST PUSH1 0x0 SWAP6 POP JUMPDEST DUP4 DUP7 LT ISZERO PUSH2 0x1A6E JUMPI PUSH1 0x0 DUP12 PUSH1 0x0 ADD MLOAD DUP8 PUSH2 0x100 DUP2 LT PUSH2 0x19E5 JUMPI PUSH2 0x19E4 PUSH2 0x4D1B JUMP JUMPDEST JUMPDEST PUSH1 0x20 MUL ADD MLOAD DUP7 PUSH1 0xFF AND PUSH1 0x2 DUP2 LT PUSH2 0x19FF JUMPI PUSH2 0x19FE PUSH2 0x4D1B JUMP JUMPDEST JUMPDEST PUSH1 0x20 MUL ADD MLOAD EQ ISZERO DUP1 PUSH2 0x1A48 JUMPI POP PUSH1 0x0 DUP12 PUSH1 0x20 ADD MLOAD DUP8 PUSH2 0x100 DUP2 LT PUSH2 0x1A26 JUMPI PUSH2 0x1A25 PUSH2 0x4D1B JUMP JUMPDEST JUMPDEST PUSH1 0x20 MUL ADD MLOAD DUP7 PUSH1 0xFF AND PUSH1 0x2 DUP2 LT PUSH2 0x1A40 JUMPI PUSH2 0x1A3F PUSH2 0x4D1B JUMP JUMPDEST JUMPDEST PUSH1 0x20 MUL ADD MLOAD EQ ISZERO JUMPDEST ISZERO PUSH2 0x1A5B JUMPI PUSH2 0x1A5A DUP2 DUP10 DUP9 DUP15 DUP10 PUSH2 0x33E2 JUMP JUMPDEST JUMPDEST DUP6 DUP1 PUSH2 0x1A66 SWAP1 PUSH2 0x4D4A JUMP JUMPDEST SWAP7 POP POP PUSH2 0x19C3 JUMP JUMPDEST POP POP PUSH2 0x234B JUMP JUMPDEST PUSH32 0x5000000000000000000000000000000000000000000000000000000000000000 PUSH31 0xFFFFFFFFFFFFFFFFFFFFFFFFFFFFFFFFFFFFFFFFFFFFFFFFFFFFFFFFFFFFFF NOT AND DUP11 DUP7 DUP2 MLOAD DUP2 LT PUSH2 0x1ACB JUMPI PUSH2 0x1ACA PUSH2 0x4D1B JUMP JUMPDEST JUMPDEST PUSH1 0x20 MUL PUSH1 0x20 ADD ADD MLOAD PUSH31 0xFFFFFFFFFFFFFFFFFFFFFFFFFFFFFFFFFFFFFFFFFFFFFFFFFFFFFFFFFFFFFF NOT AND EQ DUP1 PUSH2 0x1B7E JUMPI POP PUSH32 0x7000000000000000000000000000000000000000000000000000000000000000 PUSH31 0xFFFFFFFFFFFFFFFFFFFFFFFFFFFFFFFFFFFFFFFFFFFFFFFFFFFFFFFFFFFFFF NOT AND DUP11 DUP7 DUP2 MLOAD DUP2 LT PUSH2 0x1B52 JUMPI PUSH2 0x1B51 PUSH2 0x4D1B JUMP JUMPDEST JUMPDEST PUSH1 0x20 MUL PUSH1 0x20 ADD ADD MLOAD PUSH31 0xFFFFFFFFFFFFFFFFFFFFFFFFFFFFFFFFFFFFFFFFFFFFFFFFFFFFFFFFFFFFFF NOT AND EQ JUMPDEST ISZERO PUSH2 0x1DAC JUMPI PUSH1 0x0 PUSH1 0x1 SWAP1 POP PUSH1 0x1 DUP13 PUSH2 0x1B96 SWAP2 SWAP1 PUSH2 0x4F57 JUMP JUMPDEST PUSH1 0xFF AND DUP2 SWAP1 SHL SWAP1 POP PUSH1 0x0 DUP1 SWAP6 POP JUMPDEST DUP13 PUSH1 0xFF AND DUP7 LT ISZERO PUSH2 0x1C5D JUMPI PUSH32 0x4300000000000000000000000000000000000000000000000000000000000000 PUSH31 0xFFFFFFFFFFFFFFFFFFFFFFFFFFFFFFFFFFFFFFFFFFFFFFFFFFFFFFFFFFFFFF NOT AND DUP13 DUP8 DUP2 MLOAD DUP2 LT PUSH2 0x1C05 JUMPI PUSH2 0x1C04 PUSH2 0x4D1B JUMP JUMPDEST JUMPDEST PUSH1 0x20 MUL PUSH1 0x20 ADD ADD MLOAD PUSH31 0xFFFFFFFFFFFFFFFFFFFFFFFFFFFFFFFFFFFFFFFFFFFFFFFFFFFFFFFFFFFFFF NOT AND SUB PUSH2 0x1C43 JUMPI DUP2 DUP2 PUSH2 0x1C40 SWAP2 SWAP1 PUSH2 0x4D92 JUMP JUMPDEST SWAP1 POP JUMPDEST PUSH1 0x1 DUP3 SWAP1 SHR SWAP2 POP DUP6 DUP1 PUSH2 0x1C55 SWAP1 PUSH2 0x4D4A JUMP JUMPDEST SWAP7 POP POP PUSH2 0x1BA4 JUMP JUMPDEST PUSH1 0x0 SWAP6 POP JUMPDEST DUP4 DUP7 LT ISZERO PUSH2 0x1DA5 JUMPI PUSH1 0x0 DUP12 PUSH1 0x0 ADD MLOAD DUP8 PUSH2 0x100 DUP2 LT PUSH2 0x1C84 JUMPI PUSH2 0x1C83 PUSH2 0x4D1B JUMP JUMPDEST JUMPDEST PUSH1 0x20 MUL ADD MLOAD DUP7 PUSH1 0xFF AND PUSH1 0x2 DUP2 LT PUSH2 0x1C9E JUMPI PUSH2 0x1C9D PUSH2 0x4D1B JUMP JUMPDEST JUMPDEST PUSH1 0x20 MUL ADD MLOAD EQ ISZERO DUP1 PUSH2 0x1CE7 JUMPI POP PUSH1 0x0 DUP12 PUSH1 0x20 ADD MLOAD DUP8 PUSH2 0x100 DUP2 LT PUSH2 0x1CC5 JUMPI PUSH2 0x1CC4 PUSH2 0x4D1B JUMP JUMPDEST JUMPDEST PUSH1 0x20 MUL ADD MLOAD DUP7 PUSH1 0xFF AND PUSH1 0x2 DUP2 LT PUSH2 0x1CDF JUMPI PUSH2 0x1CDE PUSH2 0x4D1B JUMP JUMPDEST JUMPDEST PUSH1 0x20 MUL ADD MLOAD EQ ISZERO JUMPDEST ISZERO PUSH2 0x1D92 JUMPI PUSH32 0x5000000000000000000000000000000000000000000000000000000000000000 PUSH31 0xFFFFFFFFFFFFFFFFFFFFFFFFFFFFFFFFFFFFFFFFFFFFFFFFFFFFFFFFFFFFFF NOT AND DUP13 DUP9 DUP2 MLOAD DUP2 LT PUSH2 0x1D42 JUMPI PUSH2 0x1D41 PUSH2 0x4D1B JUMP JUMPDEST JUMPDEST PUSH1 0x20 MUL PUSH1 0x20 ADD ADD MLOAD PUSH31 0xFFFFFFFFFFFFFFFFFFFFFFFFFFFFFFFFFFFFFFFFFFFFFFFFFFFFFFFFFFFFFF NOT AND SUB PUSH2 0x1D83 JUMPI PUSH2 0x1D7E DUP2 DUP10 DUP9 DUP15 DUP10 PUSH2 0x3761 JUMP JUMPDEST PUSH2 0x1D91 JUMP JUMPDEST PUSH2 0x1D90 DUP2 DUP10 DUP9 DUP15 DUP10 PUSH2 0x3AB2 JUMP JUMPDEST JUMPDEST JUMPDEST DUP6 DUP1 PUSH2 0x1D9D SWAP1 PUSH2 0x4D4A JUMP JUMPDEST SWAP7 POP POP PUSH2 0x1C62 JUMP JUMPDEST POP POP PUSH2 0x234A JUMP JUMPDEST PUSH32 0x5400000000000000000000000000000000000000000000000000000000000000 PUSH31 0xFFFFFFFFFFFFFFFFFFFFFFFFFFFFFFFFFFFFFFFFFFFFFFFFFFFFFFFFFFFFFF NOT AND DUP11 DUP7 DUP2 MLOAD DUP2 LT PUSH2 0x1E02 JUMPI PUSH2 0x1E01 PUSH2 0x4D1B JUMP JUMPDEST JUMPDEST PUSH1 0x20 MUL PUSH1 0x20 ADD ADD MLOAD PUSH31 0xFFFFFFFFFFFFFFFFFFFFFFFFFFFFFFFFFFFFFFFFFFFFFFFFFFFFFFFFFFFFFF NOT AND EQ DUP1 PUSH2 0x1EB5 JUMPI POP PUSH32 0x7400000000000000000000000000000000000000000000000000000000000000 PUSH31 0xFFFFFFFFFFFFFFFFFFFFFFFFFFFFFFFFFFFFFFFFFFFFFFFFFFFFFFFFFFFFFF NOT AND DUP11 DUP7 DUP2 MLOAD DUP2 LT PUSH2 0x1E89 JUMPI PUSH2 0x1E88 PUSH2 0x4D1B JUMP JUMPDEST JUMPDEST PUSH1 0x20 MUL PUSH1 0x20 ADD ADD MLOAD PUSH31 0xFFFFFFFFFFFFFFFFFFFFFFFFFFFFFFFFFFFFFFFFFFFFFFFFFFFFFFFFFFFFFF NOT AND EQ JUMPDEST ISZERO PUSH2 0x230E JUMPI PUSH1 0x0 PUSH1 0x1 SWAP1 POP PUSH1 0x1 DUP13 PUSH2 0x1ECD SWAP2 SWAP1 PUSH2 0x4F57 JUMP JUMPDEST PUSH1 0xFF AND DUP2 SWAP1 SHL SWAP1 POP PUSH1 0x0 PUSH2 0x1EDF PUSH2 0x45DF JUMP JUMPDEST PUSH1 0x0 SWAP7 POP JUMPDEST DUP14 PUSH1 0xFF AND DUP8 LT ISZERO PUSH2 0x1F9D JUMPI PUSH32 0x4300000000000000000000000000000000000000000000000000000000000000 PUSH31 0xFFFFFFFFFFFFFFFFFFFFFFFFFFFFFFFFFFFFFFFFFFFFFFFFFFFFFFFFFFFFFF NOT AND DUP14 DUP9 DUP2 MLOAD DUP2 LT PUSH2 0x1F45 JUMPI PUSH2 0x1F44 PUSH2 0x4D1B JUMP JUMPDEST JUMPDEST PUSH1 0x20 MUL PUSH1 0x20 ADD ADD MLOAD PUSH31 0xFFFFFFFFFFFFFFFFFFFFFFFFFFFFFFFFFFFFFFFFFFFFFFFFFFFFFFFFFFFFFF NOT AND SUB PUSH2 0x1F83 JUMPI DUP3 DUP3 PUSH2 0x1F80 SWAP2 SWAP1 PUSH2 0x4D92 JUMP JUMPDEST SWAP2 POP JUMPDEST PUSH1 0x1 DUP4 SWAP1 SHR SWAP3 POP DUP7 DUP1 PUSH2 0x1F95 SWAP1 PUSH2 0x4D4A JUMP JUMPDEST SWAP8 POP POP PUSH2 0x1EE4 JUMP JUMPDEST PUSH1 0x0 SWAP3 POP PUSH1 0x0 SWAP7 POP JUMPDEST DUP5 DUP8 LT ISZERO PUSH2 0x2183 JUMPI PUSH1 0x0 DUP2 DUP9 PUSH2 0x100 DUP2 LT PUSH2 0x1FC4 JUMPI PUSH2 0x1FC3 PUSH2 0x4D1B JUMP JUMPDEST JUMPDEST PUSH1 0x20 MUL ADD SWAP1 PUSH1 0xFF AND SWAP1 DUP2 PUSH1 0xFF AND DUP2 MSTORE POP POP PUSH1 0x0 DUP13 PUSH1 0x0 ADD MLOAD DUP9 PUSH2 0x100 DUP2 LT PUSH2 0x1FEF JUMPI PUSH2 0x1FEE PUSH2 0x4D1B JUMP JUMPDEST JUMPDEST PUSH1 0x20 MUL ADD MLOAD DUP8 PUSH1 0xFF AND PUSH1 0x2 DUP2 LT PUSH2 0x2009 JUMPI PUSH2 0x2008 PUSH2 0x4D1B JUMP JUMPDEST JUMPDEST PUSH1 0x20 MUL ADD MLOAD EQ ISZERO DUP1 PUSH2 0x2052 JUMPI POP PUSH1 0x0 DUP13 PUSH1 0x20 ADD MLOAD DUP9 PUSH2 0x100 DUP2 LT PUSH2 0x2030 JUMPI PUSH2 0x202F PUSH2 0x4D1B JUMP JUMPDEST JUMPDEST PUSH1 0x20 MUL ADD MLOAD DUP8 PUSH1 0xFF AND PUSH1 0x2 DUP2 LT PUSH2 0x204A JUMPI PUSH2 0x2049 PUSH2 0x4D1B JUMP JUMPDEST JUMPDEST PUSH1 0x20 MUL ADD MLOAD EQ ISZERO JUMPDEST ISZERO PUSH2 0x2170 JUMPI PUSH32 0x5400000000000000000000000000000000000000000000000000000000000000 PUSH31 0xFFFFFFFFFFFFFFFFFFFFFFFFFFFFFFFFFFFFFFFFFFFFFFFFFFFFFFFFFFFFFF NOT AND DUP14 DUP10 DUP2 MLOAD DUP2 LT PUSH2 0x20AD JUMPI PUSH2 0x20AC PUSH2 0x4D1B JUMP JUMPDEST JUMPDEST PUSH1 0x20 MUL PUSH1 0x20 ADD ADD MLOAD PUSH31 0xFFFFFFFFFFFFFFFFFFFFFFFFFFFFFFFFFFFFFFFFFFFFFFFFFFFFFFFFFFFFFF NOT AND SUB PUSH2 0x2113 JUMPI PUSH2 0x20E9 DUP3 DUP11 DUP10 DUP16 DUP11 PUSH2 0x3E03 JUMP JUMPDEST DUP2 DUP9 PUSH2 0x100 DUP2 LT PUSH2 0x20FD JUMPI PUSH2 0x20FC PUSH2 0x4D1B JUMP JUMPDEST JUMPDEST PUSH1 0x20 MUL ADD SWAP1 PUSH1 0xFF AND SWAP1 DUP2 PUSH1 0xFF AND DUP2 MSTORE POP POP PUSH2 0x2146 JUMP JUMPDEST PUSH2 0x2120 DUP3 DUP11 DUP10 DUP16 DUP11 PUSH2 0x41D8 JUMP JUMPDEST DUP2 DUP9 PUSH2 0x100 DUP2 LT PUSH2 0x2134 JUMPI PUSH2 0x2133 PUSH2 0x4D1B JUMP JUMPDEST JUMPDEST PUSH1 0x20 MUL ADD SWAP1 PUSH1 0xFF AND SWAP1 DUP2 PUSH1 0xFF AND DUP2 MSTORE POP POP JUMPDEST PUSH1 0x0 DUP2 DUP9 PUSH2 0x100 DUP2 LT PUSH2 0x215C JUMPI PUSH2 0x215B PUSH2 0x4D1B JUMP JUMPDEST JUMPDEST PUSH1 0x20 MUL ADD MLOAD PUSH1 0xFF AND GT ISZERO PUSH2 0x216F JUMPI PUSH1 0x1 SWAP3 POP JUMPDEST JUMPDEST DUP7 DUP1 PUSH2 0x217B SWAP1 PUSH2 0x4D4A JUMP JUMPDEST SWAP8 POP POP PUSH2 0x1FA6 JUMP JUMPDEST PUSH1 0x0 DUP4 GT ISZERO PUSH2 0x2306 JUMPI PUSH1 0x0 SWAP7 POP JUMPDEST DUP5 DUP8 LT ISZERO PUSH2 0x2305 JUMPI PUSH1 0x0 DUP2 DUP9 PUSH2 0x100 DUP2 LT PUSH2 0x21AF JUMPI PUSH2 0x21AE PUSH2 0x4D1B JUMP JUMPDEST JUMPDEST PUSH1 0x20 MUL ADD MLOAD PUSH1 0xFF AND SUB PUSH2 0x2259 JUMPI PUSH1 0xA DUP13 PUSH1 0x0 ADD MLOAD DUP9 PUSH2 0x100 DUP2 LT PUSH2 0x21D6 JUMPI PUSH2 0x21D5 PUSH2 0x4D1B JUMP JUMPDEST JUMPDEST PUSH1 0x20 MUL ADD MLOAD DUP6 PUSH1 0xFF AND PUSH1 0x2 DUP2 LT PUSH2 0x21F0 JUMPI PUSH2 0x21EF PUSH2 0x4D1B JUMP JUMPDEST JUMPDEST PUSH1 0x20 MUL ADD DUP2 DUP2 MLOAD PUSH2 0x2201 SWAP2 SWAP1 PUSH2 0x4F8C JUMP JUMPDEST SWAP2 POP DUP2 DUP2 MSTORE POP POP PUSH1 0xA DUP13 PUSH1 0x20 ADD MLOAD DUP9 PUSH2 0x100 DUP2 LT PUSH2 0x2222 JUMPI PUSH2 0x2221 PUSH2 0x4D1B JUMP JUMPDEST JUMPDEST PUSH1 0x20 MUL ADD MLOAD DUP6 PUSH1 0xFF AND PUSH1 0x2 DUP2 LT PUSH2 0x223C JUMPI PUSH2 0x223B PUSH2 0x4D1B JUMP JUMPDEST JUMPDEST PUSH1 0x20 MUL ADD DUP2 DUP2 MLOAD PUSH2 0x224D SWAP2 SWAP1 PUSH2 0x4F8C JUMP JUMPDEST SWAP2 POP DUP2 DUP2 MSTORE POP POP PUSH2 0x22F2 JUMP JUMPDEST PUSH1 0x7 DUP13 PUSH1 0x0 ADD MLOAD DUP9 PUSH2 0x100 DUP2 LT PUSH2 0x2273 JUMPI PUSH2 0x2272 PUSH2 0x4D1B JUMP JUMPDEST JUMPDEST PUSH1 0x20 MUL ADD MLOAD DUP6 PUSH1 0xFF AND PUSH1 0x2 DUP2 LT PUSH2 0x228D JUMPI PUSH2 0x228C PUSH2 0x4D1B JUMP JUMPDEST JUMPDEST PUSH1 0x20 MUL ADD DUP2 DUP2 MLOAD PUSH2 0x229E SWAP2 SWAP1 PUSH2 0x4F8C JUMP JUMPDEST SWAP2 POP DUP2 DUP2 MSTORE POP POP PUSH1 0x7 DUP13 PUSH1 0x20 ADD MLOAD DUP9 PUSH2 0x100 DUP2 LT PUSH2 0x22BF JUMPI PUSH2 0x22BE PUSH2 0x4D1B JUMP JUMPDEST JUMPDEST PUSH1 0x20 MUL ADD MLOAD DUP6 PUSH1 0xFF AND PUSH1 0x2 DUP2 LT PUSH2 0x22D9 JUMPI PUSH2 0x22D8 PUSH2 0x4D1B JUMP JUMPDEST JUMPDEST PUSH1 0x20 MUL ADD DUP2 DUP2 MLOAD PUSH2 0x22EA SWAP2 SWAP1 PUSH2 0x4F8C JUMP JUMPDEST SWAP2 POP DUP2 DUP2 MSTORE POP POP JUMPDEST DUP7 DUP1 PUSH2 0x22FD SWAP1 PUSH2 0x4D4A JUMP JUMPDEST SWAP8 POP POP PUSH2 0x2191 JUMP JUMPDEST JUMPDEST POP POP POP PUSH2 0x2349 JUMP JUMPDEST PUSH1 0x40 MLOAD PUSH32 0x8C379A000000000000000000000000000000000000000000000000000000000 DUP2 MSTORE PUSH1 0x4 ADD PUSH2 0x2340 SWAP1 PUSH2 0x5050 JUMP JUMPDEST PUSH1 0x40 MLOAD DUP1 SWAP2 SUB SWAP1 REVERT JUMPDEST JUMPDEST JUMPDEST JUMPDEST JUMPDEST JUMPDEST JUMPDEST JUMPDEST JUMPDEST PUSH1 0x1 DUP7 SWAP1 SHR SWAP6 POP DUP1 SWAP3 POP POP DUP4 DUP1 PUSH2 0x2367 SWAP1 PUSH2 0x4D4A JUMP JUMPDEST SWAP5 POP POP PUSH2 0xA7A JUMP JUMPDEST PUSH1 0x1 DUP3 PUSH1 0xFF AND SUB PUSH2 0x2483 JUMPI PUSH1 0x0 SWAP3 POP JUMPDEST DUP10 PUSH1 0x2 PUSH2 0x238C SWAP2 SWAP1 PUSH2 0x4CD0 JUMP JUMPDEST DUP4 LT ISZERO PUSH2 0x2482 JUMPI DUP8 PUSH1 0x0 ADD MLOAD DUP4 PUSH2 0x100 DUP2 LT PUSH2 0x23AB JUMPI PUSH2 0x23AA PUSH2 0x4D1B JUMP JUMPDEST JUMPDEST PUSH1 0x20 MUL ADD MLOAD PUSH1 0x1 PUSH1 0x2 DUP2 LT PUSH2 0x23C3 JUMPI PUSH2 0x23C2 PUSH2 0x4D1B JUMP JUMPDEST JUMPDEST PUSH1 0x20 MUL ADD MLOAD DUP9 PUSH1 0x0 ADD MLOAD DUP5 PUSH2 0x100 DUP2 LT PUSH2 0x23E0 JUMPI PUSH2 0x23DF PUSH2 0x4D1B JUMP JUMPDEST JUMPDEST PUSH1 0x20 MUL ADD MLOAD PUSH1 0x0 PUSH1 0x2 DUP2 LT PUSH2 0x23F8 JUMPI PUSH2 0x23F7 PUSH2 0x4D1B JUMP JUMPDEST JUMPDEST PUSH1 0x20 MUL ADD DUP2 DUP2 MSTORE POP POP DUP8 PUSH1 0x20 ADD MLOAD DUP4 PUSH2 0x100 DUP2 LT PUSH2 0x2419 JUMPI PUSH2 0x2418 PUSH2 0x4D1B JUMP JUMPDEST JUMPDEST PUSH1 0x20 MUL ADD MLOAD PUSH1 0x1 PUSH1 0x2 DUP2 LT PUSH2 0x2431 JUMPI PUSH2 0x2430 PUSH2 0x4D1B JUMP JUMPDEST JUMPDEST PUSH1 0x20 MUL ADD MLOAD DUP9 PUSH1 0x20 ADD MLOAD DUP5 PUSH2 0x100 DUP2 LT PUSH2 0x244E JUMPI PUSH2 0x244D PUSH2 0x4D1B JUMP JUMPDEST JUMPDEST PUSH1 0x20 MUL ADD MLOAD PUSH1 0x0 PUSH1 0x2 DUP2 LT PUSH2 0x2466 JUMPI PUSH2 0x2465 PUSH2 0x4D1B JUMP JUMPDEST JUMPDEST PUSH1 0x20 MUL ADD DUP2 DUP2 MSTORE POP POP DUP3 DUP1 PUSH2 0x247A SWAP1 PUSH2 0x4D4A JUMP JUMPDEST SWAP4 POP POP PUSH2 0x237F JUMP JUMPDEST JUMPDEST DUP10 SWAP6 POP POP POP POP POP POP SWAP5 SWAP4 POP POP POP POP JUMP JUMPDEST PUSH1 0x0 DUP1 NUMBER TIMESTAMP DUP5 PUSH1 0x40 MLOAD PUSH1 0x20 ADD PUSH2 0x24AB SWAP4 SWAP3 SWAP2 SWAP1 PUSH2 0x5070 JUMP JUMPDEST PUSH1 0x40 MLOAD PUSH1 0x20 DUP2 DUP4 SUB SUB DUP2 MSTORE SWAP1 PUSH1 0x40 MSTORE DUP1 MLOAD SWAP1 PUSH1 0x20 ADD KECCAK256 PUSH1 0x0 SHR SWAP1 POP DUP4 DUP2 PUSH2 0x24D2 SWAP2 SWAP1 PUSH2 0x50D6 JUMP JUMPDEST SWAP2 POP POP SWAP3 SWAP2 POP POP JUMP JUMPDEST PUSH1 0x0 DUP1 DUP3 PUSH1 0xFF AND EQ PUSH2 0x24EE JUMPI PUSH1 0x0 PUSH2 0x24F1 JUMP JUMPDEST PUSH1 0x1 JUMPDEST SWAP1 POP PUSH1 0x0 DUP5 DUP7 AND EQ PUSH2 0x2728 JUMPI DUP3 PUSH1 0x0 ADD MLOAD DUP5 PUSH2 0x100 DUP2 LT PUSH2 0x2515 JUMPI PUSH2 0x2514 PUSH2 0x4D1B JUMP JUMPDEST JUMPDEST PUSH1 0x20 MUL ADD MLOAD DUP3 PUSH1 0xFF AND PUSH1 0x2 DUP2 LT PUSH2 0x252F JUMPI PUSH2 0x252E PUSH2 0x4D1B JUMP JUMPDEST JUMPDEST PUSH1 0x20 MUL ADD MLOAD DUP4 PUSH1 0x0 ADD MLOAD DUP7 DUP7 PUSH2 0x2545 SWAP2 SWAP1 PUSH2 0x4E57 JUMP JUMPDEST PUSH2 0x100 DUP2 LT PUSH2 0x2557 JUMPI PUSH2 0x2556 PUSH2 0x4D1B JUMP JUMPDEST JUMPDEST PUSH1 0x20 MUL ADD MLOAD DUP3 PUSH1 0xFF AND PUSH1 0x2 DUP2 LT PUSH2 0x2571 JUMPI PUSH2 0x2570 PUSH2 0x4D1B JUMP JUMPDEST JUMPDEST PUSH1 0x20 MUL ADD DUP2 DUP2 MLOAD PUSH2 0x2582 SWAP2 SWAP1 PUSH2 0x4DD0 JUMP JUMPDEST SWAP2 POP DUP2 DUP2 MSTORE POP POP DUP3 PUSH1 0x20 ADD MLOAD DUP5 PUSH2 0x100 DUP2 LT PUSH2 0x25A1 JUMPI PUSH2 0x25A0 PUSH2 0x4D1B JUMP JUMPDEST JUMPDEST PUSH1 0x20 MUL ADD MLOAD DUP3 PUSH1 0xFF AND PUSH1 0x2 DUP2 LT PUSH2 0x25BB JUMPI PUSH2 0x25BA PUSH2 0x4D1B JUMP JUMPDEST JUMPDEST PUSH1 0x20 MUL ADD MLOAD DUP4 PUSH1 0x20 ADD MLOAD DUP7 DUP7 PUSH2 0x25D1 SWAP2 SWAP1 PUSH2 0x4E57 JUMP JUMPDEST PUSH2 0x100 DUP2 LT PUSH2 0x25E3 JUMPI PUSH2 0x25E2 PUSH2 0x4D1B JUMP JUMPDEST JUMPDEST PUSH1 0x20 MUL ADD MLOAD DUP3 PUSH1 0xFF AND PUSH1 0x2 DUP2 LT PUSH2 0x25FD JUMPI PUSH2 0x25FC PUSH2 0x4D1B JUMP JUMPDEST JUMPDEST PUSH1 0x20 MUL ADD DUP2 DUP2 MLOAD PUSH2 0x260E SWAP2 SWAP1 PUSH2 0x4DD0 JUMP JUMPDEST SWAP2 POP DUP2 DUP2 MSTORE POP POP DUP3 PUSH1 0x0 ADD MLOAD DUP5 PUSH2 0x100 DUP2 LT PUSH2 0x262D JUMPI PUSH2 0x262C PUSH2 0x4D1B JUMP JUMPDEST JUMPDEST PUSH1 0x20 MUL ADD MLOAD DUP3 PUSH1 0xFF AND PUSH1 0x2 DUP2 LT PUSH2 0x2647 JUMPI PUSH2 0x2646 PUSH2 0x4D1B JUMP JUMPDEST JUMPDEST PUSH1 0x20 MUL ADD MLOAD PUSH1 0x0 PUSH2 0x2658 SWAP2 SWAP1 PUSH2 0x4E14 JUMP JUMPDEST DUP4 PUSH1 0x0 ADD MLOAD DUP6 PUSH2 0x100 DUP2 LT PUSH2 0x2670 JUMPI PUSH2 0x266F PUSH2 0x4D1B JUMP JUMPDEST JUMPDEST PUSH1 0x20 MUL ADD MLOAD DUP3 PUSH1 0xFF AND PUSH1 0x2 DUP2 LT PUSH2 0x268A JUMPI PUSH2 0x2689 PUSH2 0x4D1B JUMP JUMPDEST JUMPDEST PUSH1 0x20 MUL ADD DUP2 DUP2 MLOAD PUSH2 0x269B SWAP2 SWAP1 PUSH2 0x4DD0 JUMP JUMPDEST SWAP2 POP DUP2 DUP2 MSTORE POP POP DUP3 PUSH1 0x20 ADD MLOAD DUP5 PUSH2 0x100 DUP2 LT PUSH2 0x26BA JUMPI PUSH2 0x26B9 PUSH2 0x4D1B JUMP JUMPDEST JUMPDEST PUSH1 0x20 MUL ADD MLOAD DUP3 PUSH1 0xFF AND PUSH1 0x2 DUP2 LT PUSH2 0x26D4 JUMPI PUSH2 0x26D3 PUSH2 0x4D1B JUMP JUMPDEST JUMPDEST PUSH1 0x20 MUL ADD MLOAD DUP4 PUSH1 0x20 ADD MLOAD DUP6 PUSH2 0x100 DUP2 LT PUSH2 0x26F1 JUMPI PUSH2 0x26F0 PUSH2 0x4D1B JUMP JUMPDEST JUMPDEST PUSH1 0x20 MUL ADD MLOAD DUP3 PUSH1 0xFF AND PUSH1 0x2 DUP2 LT PUSH2 0x270B JUMPI PUSH2 0x270A PUSH2 0x4D1B JUMP JUMPDEST JUMPDEST PUSH1 0x20 MUL ADD DUP2 DUP2 MLOAD PUSH2 0x271C SWAP2 SWAP1 PUSH2 0x4DD0 JUMP JUMPDEST SWAP2 POP DUP2 DUP2 MSTORE POP POP PUSH2 0x2943 JUMP JUMPDEST DUP3 PUSH1 0x0 ADD MLOAD DUP5 PUSH2 0x100 DUP2 LT PUSH2 0x2740 JUMPI PUSH2 0x273F PUSH2 0x4D1B JUMP JUMPDEST JUMPDEST PUSH1 0x20 MUL ADD MLOAD DUP3 PUSH1 0xFF AND PUSH1 0x2 DUP2 LT PUSH2 0x275A JUMPI PUSH2 0x2759 PUSH2 0x4D1B JUMP JUMPDEST JUMPDEST PUSH1 0x20 MUL ADD MLOAD DUP4 PUSH1 0x0 ADD MLOAD DUP7 DUP7 PUSH2 0x2770 SWAP2 SWAP1 PUSH2 0x4D92 JUMP JUMPDEST PUSH2 0x100 DUP2 LT PUSH2 0x2782 JUMPI PUSH2 0x2781 PUSH2 0x4D1B JUMP JUMPDEST JUMPDEST PUSH1 0x20 MUL ADD MLOAD DUP3 PUSH1 0xFF AND PUSH1 0x2 DUP2 LT PUSH2 0x279C JUMPI PUSH2 0x279B PUSH2 0x4D1B JUMP JUMPDEST JUMPDEST PUSH1 0x20 MUL ADD DUP2 DUP2 MLOAD PUSH2 0x27AD SWAP2 SWAP1 PUSH2 0x4DD0 JUMP JUMPDEST SWAP2 POP DUP2 DUP2 MSTORE POP POP DUP3 PUSH1 0x20 ADD MLOAD DUP5 PUSH2 0x100 DUP2 LT PUSH2 0x27CC JUMPI PUSH2 0x27CB PUSH2 0x4D1B JUMP JUMPDEST JUMPDEST PUSH1 0x20 MUL ADD MLOAD DUP3 PUSH1 0xFF AND PUSH1 0x2 DUP2 LT PUSH2 0x27E6 JUMPI PUSH2 0x27E5 PUSH2 0x4D1B JUMP JUMPDEST JUMPDEST PUSH1 0x20 MUL ADD MLOAD DUP4 PUSH1 0x20 ADD MLOAD DUP7 DUP7 PUSH2 0x27FC SWAP2 SWAP1 PUSH2 0x4D92 JUMP JUMPDEST PUSH2 0x100 DUP2 LT PUSH2 0x280E JUMPI PUSH2 0x280D PUSH2 0x4D1B JUMP JUMPDEST JUMPDEST PUSH1 0x20 MUL ADD MLOAD DUP3 PUSH1 0xFF AND PUSH1 0x2 DUP2 LT PUSH2 0x2828 JUMPI PUSH2 0x2827 PUSH2 0x4D1B JUMP JUMPDEST JUMPDEST PUSH1 0x20 MUL ADD DUP2 DUP2 MLOAD PUSH2 0x2839 SWAP2 SWAP1 PUSH2 0x4DD0 JUMP JUMPDEST SWAP2 POP DUP2 DUP2 MSTORE POP POP DUP3 PUSH1 0x0 ADD MLOAD DUP5 PUSH2 0x100 DUP2 LT PUSH2 0x2858 JUMPI PUSH2 0x2857 PUSH2 0x4D1B JUMP JUMPDEST JUMPDEST PUSH1 0x20 MUL ADD MLOAD DUP3 PUSH1 0xFF AND PUSH1 0x2 DUP2 LT PUSH2 0x2872 JUMPI PUSH2 0x2871 PUSH2 0x4D1B JUMP JUMPDEST JUMPDEST PUSH1 0x20 MUL ADD MLOAD DUP4 PUSH1 0x0 ADD MLOAD DUP6 PUSH2 0x100 DUP2 LT PUSH2 0x288F JUMPI PUSH2 0x288E PUSH2 0x4D1B JUMP JUMPDEST JUMPDEST PUSH1 0x20 MUL ADD MLOAD DUP3 PUSH1 0xFF AND PUSH1 0x2 DUP2 LT PUSH2 0x28A9 JUMPI PUSH2 0x28A8 PUSH2 0x4D1B JUMP JUMPDEST JUMPDEST PUSH1 0x20 MUL ADD DUP2 DUP2 MLOAD PUSH2 0x28BA SWAP2 SWAP1 PUSH2 0x4DD0 JUMP JUMPDEST SWAP2 POP DUP2 DUP2 MSTORE POP POP DUP3 PUSH1 0x20 ADD MLOAD DUP5 PUSH2 0x100 DUP2 LT PUSH2 0x28D9 JUMPI PUSH2 0x28D8 PUSH2 0x4D1B JUMP JUMPDEST JUMPDEST PUSH1 0x20 MUL ADD MLOAD DUP3 PUSH1 0xFF AND PUSH1 0x2 DUP2 LT PUSH2 0x28F3 JUMPI PUSH2 0x28F2 PUSH2 0x4D1B JUMP JUMPDEST JUMPDEST PUSH1 0x20 MUL ADD MLOAD DUP4 PUSH1 0x20 ADD MLOAD DUP6 PUSH2 0x100 DUP2 LT PUSH2 0x2910 JUMPI PUSH2 0x290F PUSH2 0x4D1B JUMP JUMPDEST JUMPDEST PUSH1 0x20 MUL ADD MLOAD DUP3 PUSH1 0xFF AND PUSH1 0x2 DUP2 LT PUSH2 0x292A JUMPI PUSH2 0x2929 PUSH2 0x4D1B JUMP JUMPDEST JUMPDEST PUSH1 0x20 MUL ADD DUP2 DUP2 MLOAD PUSH2 0x293B SWAP2 SWAP1 PUSH2 0x4DD0 JUMP JUMPDEST SWAP2 POP DUP2 DUP2 MSTORE POP POP JUMPDEST POP POP POP POP POP JUMP JUMPDEST PUSH1 0x0 DUP1 DUP3 PUSH1 0xFF AND EQ PUSH2 0x295D JUMPI PUSH1 0x0 PUSH2 0x2960 JUMP JUMPDEST PUSH1 0x1 JUMPDEST SWAP1 POP DUP3 PUSH1 0x0 ADD MLOAD DUP5 PUSH2 0x100 DUP2 LT PUSH2 0x297A JUMPI PUSH2 0x2979 PUSH2 0x4D1B JUMP JUMPDEST JUMPDEST PUSH1 0x20 MUL ADD MLOAD DUP3 PUSH1 0xFF AND PUSH1 0x2 DUP2 LT PUSH2 0x2994 JUMPI PUSH2 0x2993 PUSH2 0x4D1B JUMP JUMPDEST JUMPDEST PUSH1 0x20 MUL ADD MLOAD DUP4 PUSH1 0x0 ADD MLOAD DUP6 PUSH2 0x100 DUP2 LT PUSH2 0x29B1 JUMPI PUSH2 0x29B0 PUSH2 0x4D1B JUMP JUMPDEST JUMPDEST PUSH1 0x20 MUL ADD MLOAD DUP3 PUSH1 0xFF AND PUSH1 0x2 DUP2 LT PUSH2 0x29CB JUMPI PUSH2 0x29CA PUSH2 0x4D1B JUMP JUMPDEST JUMPDEST PUSH1 0x20 MUL ADD DUP2 DUP2 MLOAD PUSH2 0x29DC SWAP2 SWAP1 PUSH2 0x4DD0 JUMP JUMPDEST SWAP2 POP DUP2 DUP2 MSTORE POP POP DUP3 PUSH1 0x20 ADD MLOAD DUP5 PUSH2 0x100 DUP2 LT PUSH2 0x29FB JUMPI PUSH2 0x29FA PUSH2 0x4D1B JUMP JUMPDEST JUMPDEST PUSH1 0x20 MUL ADD MLOAD DUP3 PUSH1 0xFF AND PUSH1 0x2 DUP2 LT PUSH2 0x2A15 JUMPI PUSH2 0x2A14 PUSH2 0x4D1B JUMP JUMPDEST JUMPDEST PUSH1 0x20 MUL ADD MLOAD DUP4 PUSH1 0x20 ADD MLOAD DUP6 PUSH2 0x100 DUP2 LT PUSH2 0x2A32 JUMPI PUSH2 0x2A31 PUSH2 0x4D1B JUMP JUMPDEST JUMPDEST PUSH1 0x20 MUL ADD MLOAD DUP3 PUSH1 0xFF AND PUSH1 0x2 DUP2 LT PUSH2 0x2A4C JUMPI PUSH2 0x2A4B PUSH2 0x4D1B JUMP JUMPDEST JUMPDEST PUSH1 0x20 MUL ADD DUP2 DUP2 MLOAD PUSH2 0x2A5D SWAP2 SWAP1 PUSH2 0x4DD0 JUMP JUMPDEST SWAP2 POP DUP2 DUP2 MSTORE POP POP POP POP POP POP JUMP JUMPDEST PUSH1 0x0 DUP1 DUP3 PUSH1 0xFF AND EQ PUSH2 0x2A7D JUMPI PUSH1 0x0 PUSH2 0x2A80 JUMP JUMPDEST PUSH1 0x1 JUMPDEST SWAP1 POP PUSH1 0x0 DUP5 DUP7 AND EQ PUSH2 0x2BA9 JUMPI DUP3 PUSH1 0x0 ADD MLOAD DUP5 PUSH2 0x100 DUP2 LT PUSH2 0x2AA4 JUMPI PUSH2 0x2AA3 PUSH2 0x4D1B JUMP JUMPDEST JUMPDEST PUSH1 0x20 MUL ADD MLOAD DUP3 PUSH1 0xFF AND PUSH1 0x2 DUP2 LT PUSH2 0x2ABE JUMPI PUSH2 0x2ABD PUSH2 0x4D1B JUMP JUMPDEST JUMPDEST PUSH1 0x20 MUL ADD MLOAD DUP4 PUSH1 0x0 ADD MLOAD DUP7 DUP7 PUSH2 0x2AD4 SWAP2 SWAP1 PUSH2 0x4E57 JUMP JUMPDEST PUSH2 0x100 DUP2 LT PUSH2 0x2AE6 JUMPI PUSH2 0x2AE5 PUSH2 0x4D1B JUMP JUMPDEST JUMPDEST PUSH1 0x20 MUL ADD MLOAD DUP3 PUSH1 0xFF AND PUSH1 0x2 DUP2 LT PUSH2 0x2B00 JUMPI PUSH2 0x2AFF PUSH2 0x4D1B JUMP JUMPDEST JUMPDEST PUSH1 0x20 MUL ADD DUP2 DUP2 MLOAD PUSH2 0x2B11 SWAP2 SWAP1 PUSH2 0x4DD0 JUMP JUMPDEST SWAP2 POP DUP2 DUP2 MSTORE POP POP DUP3 PUSH1 0x20 ADD MLOAD DUP5 PUSH2 0x100 DUP2 LT PUSH2 0x2B30 JUMPI PUSH2 0x2B2F PUSH2 0x4D1B JUMP JUMPDEST JUMPDEST PUSH1 0x20 MUL ADD MLOAD DUP3 PUSH1 0xFF AND PUSH1 0x2 DUP2 LT PUSH2 0x2B4A JUMPI PUSH2 0x2B49 PUSH2 0x4D1B JUMP JUMPDEST JUMPDEST PUSH1 0x20 MUL ADD MLOAD DUP4 PUSH1 0x20 ADD MLOAD DUP7 DUP7 PUSH2 0x2B60 SWAP2 SWAP1 PUSH2 0x4E57 JUMP JUMPDEST PUSH2 0x100 DUP2 LT PUSH2 0x2B72 JUMPI PUSH2 0x2B71 PUSH2 0x4D1B JUMP JUMPDEST JUMPDEST PUSH1 0x20 MUL ADD MLOAD DUP3 PUSH1 0xFF AND PUSH1 0x2 DUP2 LT PUSH2 0x2B8C JUMPI PUSH2 0x2B8B PUSH2 0x4D1B JUMP JUMPDEST JUMPDEST PUSH1 0x20 MUL ADD DUP2 DUP2 MLOAD PUSH2 0x2B9D SWAP2 SWAP1 PUSH2 0x4DD0 JUMP JUMPDEST SWAP2 POP DUP2 DUP2 MSTORE POP POP PUSH2 0x2CC2 JUMP JUMPDEST DUP3 PUSH1 0x0 ADD MLOAD DUP5 PUSH2 0x100 DUP2 LT PUSH2 0x2BC1 JUMPI PUSH2 0x2BC0 PUSH2 0x4D1B JUMP JUMPDEST JUMPDEST PUSH1 0x20 MUL ADD MLOAD DUP3 PUSH1 0xFF AND PUSH1 0x2 DUP2 LT PUSH2 0x2BDB JUMPI PUSH2 0x2BDA PUSH2 0x4D1B JUMP JUMPDEST JUMPDEST PUSH1 0x20 MUL ADD MLOAD DUP4 PUSH1 0x0 ADD MLOAD DUP7 DUP7 PUSH2 0x2BF1 SWAP2 SWAP1 PUSH2 0x4D92 JUMP JUMPDEST PUSH2 0x100 DUP2 LT PUSH2 0x2C03 JUMPI PUSH2 0x2C02 PUSH2 0x4D1B JUMP JUMPDEST JUMPDEST PUSH1 0x20 MUL ADD MLOAD DUP3 PUSH1 0xFF AND PUSH1 0x2 DUP2 LT PUSH2 0x2C1D JUMPI PUSH2 0x2C1C PUSH2 0x4D1B JUMP JUMPDEST JUMPDEST PUSH1 0x20 MUL ADD DUP2 DUP2 MLOAD PUSH2 0x2C2E SWAP2 SWAP1 PUSH2 0x4DD0 JUMP JUMPDEST SWAP2 POP DUP2 DUP2 MSTORE POP POP DUP3 PUSH1 0x20 ADD MLOAD DUP5 PUSH2 0x100 DUP2 LT PUSH2 0x2C4D JUMPI PUSH2 0x2C4C PUSH2 0x4D1B JUMP JUMPDEST JUMPDEST PUSH1 0x20 MUL ADD MLOAD DUP3 PUSH1 0xFF AND PUSH1 0x2 DUP2 LT PUSH2 0x2C67 JUMPI PUSH2 0x2C66 PUSH2 0x4D1B JUMP JUMPDEST JUMPDEST PUSH1 0x20 MUL ADD MLOAD DUP4 PUSH1 0x20 ADD MLOAD DUP7 DUP7 PUSH2 0x2C7D SWAP2 SWAP1 PUSH2 0x4D92 JUMP JUMPDEST PUSH2 0x100 DUP2 LT PUSH2 0x2C8F JUMPI PUSH2 0x2C8E PUSH2 0x4D1B JUMP JUMPDEST JUMPDEST PUSH1 0x20 MUL ADD MLOAD DUP3 PUSH1 0xFF AND PUSH1 0x2 DUP2 LT PUSH2 0x2CA9 JUMPI PUSH2 0x2CA8 PUSH2 0x4D1B JUMP JUMPDEST JUMPDEST PUSH1 0x20 MUL ADD DUP2 DUP2 MLOAD PUSH2 0x2CBA SWAP2 SWAP1 PUSH2 0x4DD0 JUMP JUMPDEST SWAP2 POP DUP2 DUP2 MSTORE POP POP JUMPDEST POP POP POP POP POP JUMP JUMPDEST PUSH1 0x0 DUP1 DUP3 PUSH1 0xFF AND EQ PUSH2 0x2CDC JUMPI PUSH1 0x0 PUSH2 0x2CDF JUMP JUMPDEST PUSH1 0x1 JUMPDEST SWAP1 POP PUSH1 0x0 DUP5 DUP7 AND EQ PUSH2 0x2E14 JUMPI DUP3 PUSH1 0x20 ADD MLOAD DUP5 PUSH2 0x100 DUP2 LT PUSH2 0x2D03 JUMPI PUSH2 0x2D02 PUSH2 0x4D1B JUMP JUMPDEST JUMPDEST PUSH1 0x20 MUL ADD MLOAD DUP3 PUSH1 0xFF AND PUSH1 0x2 DUP2 LT PUSH2 0x2D1D JUMPI PUSH2 0x2D1C PUSH2 0x4D1B JUMP JUMPDEST JUMPDEST PUSH1 0x20 MUL ADD MLOAD DUP4 PUSH1 0x0 ADD MLOAD DUP7 DUP7 PUSH2 0x2D33 SWAP2 SWAP1 PUSH2 0x4E57 JUMP JUMPDEST PUSH2 0x100 DUP2 LT PUSH2 0x2D45 JUMPI PUSH2 0x2D44 PUSH2 0x4D1B JUMP JUMPDEST JUMPDEST PUSH1 0x20 MUL ADD MLOAD DUP3 PUSH1 0xFF AND PUSH1 0x2 DUP2 LT PUSH2 0x2D5F JUMPI PUSH2 0x2D5E PUSH2 0x4D1B JUMP JUMPDEST JUMPDEST PUSH1 0x20 MUL ADD DUP2 DUP2 MLOAD PUSH2 0x2D70 SWAP2 SWAP1 PUSH2 0x4DD0 JUMP JUMPDEST SWAP2 POP DUP2 DUP2 MSTORE POP POP DUP3 PUSH1 0x0 ADD MLOAD DUP5 PUSH2 0x100 DUP2 LT PUSH2 0x2D8F JUMPI PUSH2 0x2D8E PUSH2 0x4D1B JUMP JUMPDEST JUMPDEST PUSH1 0x20 MUL ADD MLOAD DUP3 PUSH1 0xFF AND PUSH1 0x2 DUP2 LT PUSH2 0x2DA9 JUMPI PUSH2 0x2DA8 PUSH2 0x4D1B JUMP JUMPDEST JUMPDEST PUSH1 0x20 MUL ADD MLOAD PUSH1 0x0 PUSH2 0x2DBA SWAP2 SWAP1 PUSH2 0x4E14 JUMP JUMPDEST DUP4 PUSH1 0x20 ADD MLOAD DUP7 DUP7 PUSH2 0x2DCB SWAP2 SWAP1 PUSH2 0x4E57 JUMP JUMPDEST PUSH2 0x100 DUP2 LT PUSH2 0x2DDD JUMPI PUSH2 0x2DDC PUSH2 0x4D1B JUMP JUMPDEST JUMPDEST PUSH1 0x20 MUL ADD MLOAD DUP3 PUSH1 0xFF AND PUSH1 0x2 DUP2 LT PUSH2 0x2DF7 JUMPI PUSH2 0x2DF6 PUSH2 0x4D1B JUMP JUMPDEST JUMPDEST PUSH1 0x20 MUL ADD DUP2 DUP2 MLOAD PUSH2 0x2E08 SWAP2 SWAP1 PUSH2 0x4DD0 JUMP JUMPDEST SWAP2 POP DUP2 DUP2 MSTORE POP POP PUSH2 0x2F39 JUMP JUMPDEST DUP3 PUSH1 0x20 ADD MLOAD DUP5 PUSH2 0x100 DUP2 LT PUSH2 0x2E2C JUMPI PUSH2 0x2E2B PUSH2 0x4D1B JUMP JUMPDEST JUMPDEST PUSH1 0x20 MUL ADD MLOAD DUP3 PUSH1 0xFF AND PUSH1 0x2 DUP2 LT PUSH2 0x2E46 JUMPI PUSH2 0x2E45 PUSH2 0x4D1B JUMP JUMPDEST JUMPDEST PUSH1 0x20 MUL ADD MLOAD PUSH1 0x0 PUSH2 0x2E57 SWAP2 SWAP1 PUSH2 0x4E14 JUMP JUMPDEST DUP4 PUSH1 0x0 ADD MLOAD DUP7 DUP7 PUSH2 0x2E68 SWAP2 SWAP1 PUSH2 0x4D92 JUMP JUMPDEST PUSH2 0x100 DUP2 LT PUSH2 0x2E7A JUMPI PUSH2 0x2E79 PUSH2 0x4D1B JUMP JUMPDEST JUMPDEST PUSH1 0x20 MUL ADD MLOAD DUP3 PUSH1 0xFF AND PUSH1 0x2 DUP2 LT PUSH2 0x2E94 JUMPI PUSH2 0x2E93 PUSH2 0x4D1B JUMP JUMPDEST JUMPDEST PUSH1 0x20 MUL ADD DUP2 DUP2 MLOAD PUSH2 0x2EA5 SWAP2 SWAP1 PUSH2 0x4DD0 JUMP JUMPDEST SWAP2 POP DUP2 DUP2 MSTORE POP POP DUP3 PUSH1 0x0 ADD MLOAD DUP5 PUSH2 0x100 DUP2 LT PUSH2 0x2EC4 JUMPI PUSH2 0x2EC3 PUSH2 0x4D1B JUMP JUMPDEST JUMPDEST PUSH1 0x20 MUL ADD MLOAD DUP3 PUSH1 0xFF AND PUSH1 0x2 DUP2 LT PUSH2 0x2EDE JUMPI PUSH2 0x2EDD PUSH2 0x4D1B JUMP JUMPDEST JUMPDEST PUSH1 0x20 MUL ADD MLOAD DUP4 PUSH1 0x20 ADD MLOAD DUP7 DUP7 PUSH2 0x2EF4 SWAP2 SWAP1 PUSH2 0x4D92 JUMP JUMPDEST PUSH2 0x100 DUP2 LT PUSH2 0x2F06 JUMPI PUSH2 0x2F05 PUSH2 0x4D1B JUMP JUMPDEST JUMPDEST PUSH1 0x20 MUL ADD MLOAD DUP3 PUSH1 0xFF AND PUSH1 0x2 DUP2 LT PUSH2 0x2F20 JUMPI PUSH2 0x2F1F PUSH2 0x4D1B JUMP JUMPDEST JUMPDEST PUSH1 0x20 MUL ADD DUP2 DUP2 MLOAD PUSH2 0x2F31 SWAP2 SWAP1 PUSH2 0x4DD0 JUMP JUMPDEST SWAP2 POP DUP2 DUP2 MSTORE POP POP JUMPDEST POP POP POP POP POP JUMP JUMPDEST PUSH1 0x0 DUP1 DUP3 PUSH1 0xFF AND EQ PUSH2 0x2F53 JUMPI PUSH1 0x0 PUSH2 0x2F56 JUMP JUMPDEST PUSH1 0x1 JUMPDEST SWAP1 POP PUSH1 0x0 DUP5 DUP7 AND EQ PUSH2 0x3081 JUMPI DUP3 PUSH1 0x0 ADD MLOAD DUP5 PUSH2 0x100 DUP2 LT PUSH2 0x2F7A JUMPI PUSH2 0x2F79 PUSH2 0x4D1B JUMP JUMPDEST JUMPDEST PUSH1 0x20 MUL ADD MLOAD DUP3 PUSH1 0xFF AND PUSH1 0x2 DUP2 LT PUSH2 0x2F94 JUMPI PUSH2 0x2F93 PUSH2 0x4D1B JUMP JUMPDEST JUMPDEST PUSH1 0x20 MUL ADD MLOAD PUSH1 0x0 PUSH2 0x2FA5 SWAP2 SWAP1 PUSH2 0x4E14 JUMP JUMPDEST DUP4 PUSH1 0x0 ADD MLOAD DUP6 PUSH2 0x100 DUP2 LT PUSH2 0x2FBD JUMPI PUSH2 0x2FBC PUSH2 0x4D1B JUMP JUMPDEST JUMPDEST PUSH1 0x20 MUL ADD MLOAD DUP3 PUSH1 0xFF AND PUSH1 0x2 DUP2 LT PUSH2 0x2FD7 JUMPI PUSH2 0x2FD6 PUSH2 0x4D1B JUMP JUMPDEST JUMPDEST PUSH1 0x20 MUL ADD DUP2 DUP2 MLOAD PUSH2 0x2FE8 SWAP2 SWAP1 PUSH2 0x4DD0 JUMP JUMPDEST SWAP2 POP DUP2 DUP2 MSTORE POP POP DUP3 PUSH1 0x20 ADD MLOAD DUP5 PUSH2 0x100 DUP2 LT PUSH2 0x3007 JUMPI PUSH2 0x3006 PUSH2 0x4D1B JUMP JUMPDEST JUMPDEST PUSH1 0x20 MUL ADD MLOAD DUP3 PUSH1 0xFF AND PUSH1 0x2 DUP2 LT PUSH2 0x3021 JUMPI PUSH2 0x3020 PUSH2 0x4D1B JUMP JUMPDEST JUMPDEST PUSH1 0x20 MUL ADD MLOAD PUSH1 0x0 PUSH2 0x3032 SWAP2 SWAP1 PUSH2 0x4E14 JUMP JUMPDEST DUP4 PUSH1 0x20 ADD MLOAD DUP6 PUSH2 0x100 DUP2 LT PUSH2 0x304A JUMPI PUSH2 0x3049 PUSH2 0x4D1B JUMP JUMPDEST JUMPDEST PUSH1 0x20 MUL ADD MLOAD DUP3 PUSH1 0xFF AND PUSH1 0x2 DUP2 LT PUSH2 0x3064 JUMPI PUSH2 0x3063 PUSH2 0x4D1B JUMP JUMPDEST JUMPDEST PUSH1 0x20 MUL ADD DUP2 DUP2 MLOAD PUSH2 0x3075 SWAP2 SWAP1 PUSH2 0x4DD0 JUMP JUMPDEST SWAP2 POP DUP2 DUP2 MSTORE POP POP PUSH2 0x3184 JUMP JUMPDEST DUP3 PUSH1 0x0 ADD MLOAD DUP5 PUSH2 0x100 DUP2 LT PUSH2 0x3099 JUMPI PUSH2 0x3098 PUSH2 0x4D1B JUMP JUMPDEST JUMPDEST PUSH1 0x20 MUL ADD MLOAD DUP3 PUSH1 0xFF AND PUSH1 0x2 DUP2 LT PUSH2 0x30B3 JUMPI PUSH2 0x30B2 PUSH2 0x4D1B JUMP JUMPDEST JUMPDEST PUSH1 0x20 MUL ADD MLOAD DUP4 PUSH1 0x0 ADD MLOAD DUP6 PUSH2 0x100 DUP2 LT PUSH2 0x30D0 JUMPI PUSH2 0x30CF PUSH2 0x4D1B JUMP JUMPDEST JUMPDEST PUSH1 0x20 MUL ADD MLOAD DUP3 PUSH1 0xFF AND PUSH1 0x2 DUP2 LT PUSH2 0x30EA JUMPI PUSH2 0x30E9 PUSH2 0x4D1B JUMP JUMPDEST JUMPDEST PUSH1 0x20 MUL ADD DUP2 DUP2 MLOAD PUSH2 0x30FB SWAP2 SWAP1 PUSH2 0x4DD0 JUMP JUMPDEST SWAP2 POP DUP2 DUP2 MSTORE POP POP DUP3 PUSH1 0x20 ADD MLOAD DUP5 PUSH2 0x100 DUP2 LT PUSH2 0x311A JUMPI PUSH2 0x3119 PUSH2 0x4D1B JUMP JUMPDEST JUMPDEST PUSH1 0x20 MUL ADD MLOAD DUP3 PUSH1 0xFF AND PUSH1 0x2 DUP2 LT PUSH2 0x3134 JUMPI PUSH2 0x3133 PUSH2 0x4D1B JUMP JUMPDEST JUMPDEST PUSH1 0x20 MUL ADD MLOAD DUP4 PUSH1 0x20 ADD MLOAD DUP6 PUSH2 0x100 DUP2 LT PUSH2 0x3151 JUMPI PUSH2 0x3150 PUSH2 0x4D1B JUMP JUMPDEST JUMPDEST PUSH1 0x20 MUL ADD MLOAD DUP3 PUSH1 0xFF AND PUSH1 0x2 DUP2 LT PUSH2 0x316B JUMPI PUSH2 0x316A PUSH2 0x4D1B JUMP JUMPDEST JUMPDEST PUSH1 0x20 MUL ADD DUP2 DUP2 MLOAD PUSH2 0x317C SWAP2 SWAP1 PUSH2 0x4DD0 JUMP JUMPDEST SWAP2 POP DUP2 DUP2 MSTORE POP POP JUMPDEST POP POP POP POP POP JUMP JUMPDEST PUSH1 0x0 DUP1 DUP3 PUSH1 0xFF AND EQ PUSH2 0x319E JUMPI PUSH1 0x0 PUSH2 0x31A1 JUMP JUMPDEST PUSH1 0x1 JUMPDEST SWAP1 POP PUSH1 0x0 DUP5 DUP7 AND SUB PUSH2 0x32B0 JUMPI DUP3 PUSH1 0x0 ADD MLOAD DUP5 PUSH2 0x100 DUP2 LT PUSH2 0x31C5 JUMPI PUSH2 0x31C4 PUSH2 0x4D1B JUMP JUMPDEST JUMPDEST PUSH1 0x20 MUL ADD MLOAD DUP3 PUSH1 0xFF AND PUSH1 0x2 DUP2 LT PUSH2 0x31DF JUMPI PUSH2 0x31DE PUSH2 0x4D1B JUMP JUMPDEST JUMPDEST PUSH1 0x20 MUL ADD MLOAD DUP4 PUSH1 0x0 ADD MLOAD DUP6 PUSH2 0x100 DUP2 LT PUSH2 0x31FC JUMPI PUSH2 0x31FB PUSH2 0x4D1B JUMP JUMPDEST JUMPDEST PUSH1 0x20 MUL ADD MLOAD DUP3 PUSH1 0xFF AND PUSH1 0x2 DUP2 LT PUSH2 0x3216 JUMPI PUSH2 0x3215 PUSH2 0x4D1B JUMP JUMPDEST JUMPDEST PUSH1 0x20 MUL ADD DUP2 DUP2 MLOAD PUSH2 0x3227 SWAP2 SWAP1 PUSH2 0x4DD0 JUMP JUMPDEST SWAP2 POP DUP2 DUP2 MSTORE POP POP DUP3 PUSH1 0x20 ADD MLOAD DUP5 PUSH2 0x100 DUP2 LT PUSH2 0x3246 JUMPI PUSH2 0x3245 PUSH2 0x4D1B JUMP JUMPDEST JUMPDEST PUSH1 0x20 MUL ADD MLOAD DUP3 PUSH1 0xFF AND PUSH1 0x2 DUP2 LT PUSH2 0x3260 JUMPI PUSH2 0x325F PUSH2 0x4D1B JUMP JUMPDEST JUMPDEST PUSH1 0x20 MUL ADD MLOAD DUP4 PUSH1 0x20 ADD MLOAD DUP6 PUSH2 0x100 DUP2 LT PUSH2 0x327D JUMPI PUSH2 0x327C PUSH2 0x4D1B JUMP JUMPDEST JUMPDEST PUSH1 0x20 MUL ADD MLOAD DUP3 PUSH1 0xFF AND PUSH1 0x2 DUP2 LT PUSH2 0x3297 JUMPI PUSH2 0x3296 PUSH2 0x4D1B JUMP JUMPDEST JUMPDEST PUSH1 0x20 MUL ADD DUP2 DUP2 MLOAD PUSH2 0x32A8 SWAP2 SWAP1 PUSH2 0x4DD0 JUMP JUMPDEST SWAP2 POP DUP2 DUP2 MSTORE POP POP JUMPDEST POP POP POP POP POP JUMP JUMPDEST PUSH1 0x0 DUP1 DUP3 PUSH1 0xFF AND EQ PUSH2 0x32CA JUMPI PUSH1 0x0 PUSH2 0x32CD JUMP JUMPDEST PUSH1 0x1 JUMPDEST SWAP1 POP DUP5 DUP5 DUP7 AND SUB PUSH2 0x33DB JUMPI DUP3 PUSH1 0x0 ADD MLOAD DUP5 PUSH2 0x100 DUP2 LT PUSH2 0x32F0 JUMPI PUSH2 0x32EF PUSH2 0x4D1B JUMP JUMPDEST JUMPDEST PUSH1 0x20 MUL ADD MLOAD DUP3 PUSH1 0xFF AND PUSH1 0x2 DUP2 LT PUSH2 0x330A JUMPI PUSH2 0x3309 PUSH2 0x4D1B JUMP JUMPDEST JUMPDEST PUSH1 0x20 MUL ADD MLOAD DUP4 PUSH1 0x0 ADD MLOAD DUP6 PUSH2 0x100 DUP2 LT PUSH2 0x3327 JUMPI PUSH2 0x3326 PUSH2 0x4D1B JUMP JUMPDEST JUMPDEST PUSH1 0x20 MUL ADD MLOAD DUP3 PUSH1 0xFF AND PUSH1 0x2 DUP2 LT PUSH2 0x3341 JUMPI PUSH2 0x3340 PUSH2 0x4D1B JUMP JUMPDEST JUMPDEST PUSH1 0x20 MUL ADD DUP2 DUP2 MLOAD PUSH2 0x3352 SWAP2 SWAP1 PUSH2 0x4DD0 JUMP JUMPDEST SWAP2 POP DUP2 DUP2 MSTORE POP POP DUP3 PUSH1 0x20 ADD MLOAD DUP5 PUSH2 0x100 DUP2 LT PUSH2 0x3371 JUMPI PUSH2 0x3370 PUSH2 0x4D1B JUMP JUMPDEST JUMPDEST PUSH1 0x20 MUL ADD MLOAD DUP3 PUSH1 0xFF AND PUSH1 0x2 DUP2 LT PUSH2 0x338B JUMPI PUSH2 0x338A PUSH2 0x4D1B JUMP JUMPDEST JUMPDEST PUSH1 0x20 MUL ADD MLOAD DUP4 PUSH1 0x20 ADD MLOAD DUP6 PUSH2 0x100 DUP2 LT PUSH2 0x33A8 JUMPI PUSH2 0x33A7 PUSH2 0x4D1B JUMP JUMPDEST JUMPDEST PUSH1 0x20 MUL ADD MLOAD DUP3 PUSH1 0xFF AND PUSH1 0x2 DUP2 LT PUSH2 0x33C2 JUMPI PUSH2 0x33C1 PUSH2 0x4D1B JUMP JUMPDEST JUMPDEST PUSH1 0x20 MUL ADD DUP2 DUP2 MLOAD PUSH2 0x33D3 SWAP2 SWAP1 PUSH2 0x4DD0 JUMP JUMPDEST SWAP2 POP DUP2 DUP2 MSTORE POP POP JUMPDEST POP POP POP POP POP JUMP JUMPDEST PUSH1 0x0 DUP1 DUP3 PUSH1 0xFF AND EQ PUSH2 0x33F5 JUMPI PUSH1 0x0 PUSH2 0x33F8 JUMP JUMPDEST PUSH1 0x1 JUMPDEST SWAP1 POP DUP6 DUP5 DUP8 AND EQ DUP1 ISZERO PUSH2 0x340C JUMPI POP PUSH1 0x0 DUP7 EQ ISZERO JUMPDEST ISZERO PUSH2 0x3656 JUMPI PUSH1 0x0 DUP5 DUP7 AND EQ PUSH2 0x3538 JUMPI DUP3 PUSH1 0x0 ADD MLOAD DUP5 PUSH2 0x100 DUP2 LT PUSH2 0x3433 JUMPI PUSH2 0x3432 PUSH2 0x4D1B JUMP JUMPDEST JUMPDEST PUSH1 0x20 MUL ADD MLOAD DUP3 PUSH1 0xFF AND PUSH1 0x2 DUP2 LT PUSH2 0x344D JUMPI PUSH2 0x344C PUSH2 0x4D1B JUMP JUMPDEST JUMPDEST PUSH1 0x20 MUL ADD MLOAD DUP4 PUSH1 0x0 ADD MLOAD DUP7 DUP7 PUSH2 0x3463 SWAP2 SWAP1 PUSH2 0x4E57 JUMP JUMPDEST PUSH2 0x100 DUP2 LT PUSH2 0x3475 JUMPI PUSH2 0x3474 PUSH2 0x4D1B JUMP JUMPDEST JUMPDEST PUSH1 0x20 MUL ADD MLOAD DUP3 PUSH1 0xFF AND PUSH1 0x2 DUP2 LT PUSH2 0x348F JUMPI PUSH2 0x348E PUSH2 0x4D1B JUMP JUMPDEST JUMPDEST PUSH1 0x20 MUL ADD DUP2 DUP2 MLOAD PUSH2 0x34A0 SWAP2 SWAP1 PUSH2 0x4DD0 JUMP JUMPDEST SWAP2 POP DUP2 DUP2 MSTORE POP POP DUP3 PUSH1 0x20 ADD MLOAD DUP5 PUSH2 0x100 DUP2 LT PUSH2 0x34BF JUMPI PUSH2 0x34BE PUSH2 0x4D1B JUMP JUMPDEST JUMPDEST PUSH1 0x20 MUL ADD MLOAD DUP3 PUSH1 0xFF AND PUSH1 0x2 DUP2 LT PUSH2 0x34D9 JUMPI PUSH2 0x34D8 PUSH2 0x4D1B JUMP JUMPDEST JUMPDEST PUSH1 0x20 MUL ADD MLOAD DUP4 PUSH1 0x20 ADD MLOAD DUP7 DUP7 PUSH2 0x34EF SWAP2 SWAP1 PUSH2 0x4E57 JUMP JUMPDEST PUSH2 0x100 DUP2 LT PUSH2 0x3501 JUMPI PUSH2 0x3500 PUSH2 0x4D1B JUMP JUMPDEST JUMPDEST PUSH1 0x20 MUL ADD MLOAD DUP3 PUSH1 0xFF AND PUSH1 0x2 DUP2 LT PUSH2 0x351B JUMPI PUSH2 0x351A PUSH2 0x4D1B JUMP JUMPDEST JUMPDEST PUSH1 0x20 MUL ADD DUP2 DUP2 MLOAD PUSH2 0x352C SWAP2 SWAP1 PUSH2 0x4DD0 JUMP JUMPDEST SWAP2 POP DUP2 DUP2 MSTORE POP POP PUSH2 0x3651 JUMP JUMPDEST DUP3 PUSH1 0x0 ADD MLOAD DUP5 PUSH2 0x100 DUP2 LT PUSH2 0x3550 JUMPI PUSH2 0x354F PUSH2 0x4D1B JUMP JUMPDEST JUMPDEST PUSH1 0x20 MUL ADD MLOAD DUP3 PUSH1 0xFF AND PUSH1 0x2 DUP2 LT PUSH2 0x356A JUMPI PUSH2 0x3569 PUSH2 0x4D1B JUMP JUMPDEST JUMPDEST PUSH1 0x20 MUL ADD MLOAD DUP4 PUSH1 0x0 ADD MLOAD DUP7 DUP7 PUSH2 0x3580 SWAP2 SWAP1 PUSH2 0x4D92 JUMP JUMPDEST PUSH2 0x100 DUP2 LT PUSH2 0x3592 JUMPI PUSH2 0x3591 PUSH2 0x4D1B JUMP JUMPDEST JUMPDEST PUSH1 0x20 MUL ADD MLOAD DUP3 PUSH1 0xFF AND PUSH1 0x2 DUP2 LT PUSH2 0x35AC JUMPI PUSH2 0x35AB PUSH2 0x4D1B JUMP JUMPDEST JUMPDEST PUSH1 0x20 MUL ADD DUP2 DUP2 MLOAD PUSH2 0x35BD SWAP2 SWAP1 PUSH2 0x4DD0 JUMP JUMPDEST SWAP2 POP DUP2 DUP2 MSTORE POP POP DUP3 PUSH1 0x20 ADD MLOAD DUP5 PUSH2 0x100 DUP2 LT PUSH2 0x35DC JUMPI PUSH2 0x35DB PUSH2 0x4D1B JUMP JUMPDEST JUMPDEST PUSH1 0x20 MUL ADD MLOAD DUP3 PUSH1 0xFF AND PUSH1 0x2 DUP2 LT PUSH2 0x35F6 JUMPI PUSH2 0x35F5 PUSH2 0x4D1B JUMP JUMPDEST JUMPDEST PUSH1 0x20 MUL ADD MLOAD DUP4 PUSH1 0x20 ADD MLOAD DUP7 DUP7 PUSH2 0x360C SWAP2 SWAP1 PUSH2 0x4D92 JUMP JUMPDEST PUSH2 0x100 DUP2 LT PUSH2 0x361E JUMPI PUSH2 0x361D PUSH2 0x4D1B JUMP JUMPDEST JUMPDEST PUSH1 0x20 MUL ADD MLOAD DUP3 PUSH1 0xFF AND PUSH1 0x2 DUP2 LT PUSH2 0x3638 JUMPI PUSH2 0x3637 PUSH2 0x4D1B JUMP JUMPDEST JUMPDEST PUSH1 0x20 MUL ADD DUP2 DUP2 MLOAD PUSH2 0x3649 SWAP2 SWAP1 PUSH2 0x4DD0 JUMP JUMPDEST SWAP2 POP DUP2 DUP2 MSTORE POP POP JUMPDEST PUSH2 0x3759 JUMP JUMPDEST DUP3 PUSH1 0x0 ADD MLOAD DUP5 PUSH2 0x100 DUP2 LT PUSH2 0x366E JUMPI PUSH2 0x366D PUSH2 0x4D1B JUMP JUMPDEST JUMPDEST PUSH1 0x20 MUL ADD MLOAD DUP3 PUSH1 0xFF AND PUSH1 0x2 DUP2 LT PUSH2 0x3688 JUMPI PUSH2 0x3687 PUSH2 0x4D1B JUMP JUMPDEST JUMPDEST PUSH1 0x20 MUL ADD MLOAD DUP4 PUSH1 0x0 ADD MLOAD DUP6 PUSH2 0x100 DUP2 LT PUSH2 0x36A5 JUMPI PUSH2 0x36A4 PUSH2 0x4D1B JUMP JUMPDEST JUMPDEST PUSH1 0x20 MUL ADD MLOAD DUP3 PUSH1 0xFF AND PUSH1 0x2 DUP2 LT PUSH2 0x36BF JUMPI PUSH2 0x36BE PUSH2 0x4D1B JUMP JUMPDEST JUMPDEST PUSH1 0x20 MUL ADD DUP2 DUP2 MLOAD PUSH2 0x36D0 SWAP2 SWAP1 PUSH2 0x4DD0 JUMP JUMPDEST SWAP2 POP DUP2 DUP2 MSTORE POP POP DUP3 PUSH1 0x20 ADD MLOAD DUP5 PUSH2 0x100 DUP2 LT PUSH2 0x36EF JUMPI PUSH2 0x36EE PUSH2 0x4D1B JUMP JUMPDEST JUMPDEST PUSH1 0x20 MUL ADD MLOAD DUP3 PUSH1 0xFF AND PUSH1 0x2 DUP2 LT PUSH2 0x3709 JUMPI PUSH2 0x3708 PUSH2 0x4D1B JUMP JUMPDEST JUMPDEST PUSH1 0x20 MUL ADD MLOAD DUP4 PUSH1 0x20 ADD MLOAD DUP6 PUSH2 0x100 DUP2 LT PUSH2 0x3726 JUMPI PUSH2 0x3725 PUSH2 0x4D1B JUMP JUMPDEST JUMPDEST PUSH1 0x20 MUL ADD MLOAD DUP3 PUSH1 0xFF AND PUSH1 0x2 DUP2 LT PUSH2 0x3740 JUMPI PUSH2 0x373F PUSH2 0x4D1B JUMP JUMPDEST JUMPDEST PUSH1 0x20 MUL ADD DUP2 DUP2 MLOAD PUSH2 0x3751 SWAP2 SWAP1 PUSH2 0x4DD0 JUMP JUMPDEST SWAP2 POP DUP2 DUP2 MSTORE POP POP JUMPDEST POP POP POP POP POP POP JUMP JUMPDEST PUSH1 0x0 DUP1 DUP3 PUSH1 0xFF AND EQ PUSH2 0x3774 JUMPI PUSH1 0x0 PUSH2 0x3777 JUMP JUMPDEST PUSH1 0x1 JUMPDEST SWAP1 POP DUP6 DUP5 DUP8 AND SUB PUSH2 0x39A7 JUMPI PUSH1 0x0 DUP5 DUP7 AND EQ PUSH2 0x389F JUMPI DUP3 PUSH1 0x20 ADD MLOAD DUP5 PUSH2 0x100 DUP2 LT PUSH2 0x37A4 JUMPI PUSH2 0x37A3 PUSH2 0x4D1B JUMP JUMPDEST JUMPDEST PUSH1 0x20 MUL ADD MLOAD DUP3 PUSH1 0xFF AND PUSH1 0x2 DUP2 LT PUSH2 0x37BE JUMPI PUSH2 0x37BD PUSH2 0x4D1B JUMP JUMPDEST JUMPDEST PUSH1 0x20 MUL ADD MLOAD PUSH1 0x0 PUSH2 0x37CF SWAP2 SWAP1 PUSH2 0x4E14 JUMP JUMPDEST DUP4 PUSH1 0x0 ADD MLOAD DUP6 PUSH2 0x100 DUP2 LT PUSH2 0x37E7 JUMPI PUSH2 0x37E6 PUSH2 0x4D1B JUMP JUMPDEST JUMPDEST PUSH1 0x20 MUL ADD MLOAD DUP3 PUSH1 0xFF AND PUSH1 0x2 DUP2 LT PUSH2 0x3801 JUMPI PUSH2 0x3800 PUSH2 0x4D1B JUMP JUMPDEST JUMPDEST PUSH1 0x20 MUL ADD DUP2 DUP2 MLOAD PUSH2 0x3812 SWAP2 SWAP1 PUSH2 0x4DD0 JUMP JUMPDEST SWAP2 POP DUP2 DUP2 MSTORE POP POP DUP3 PUSH1 0x0 ADD MLOAD DUP5 PUSH2 0x100 DUP2 LT PUSH2 0x3831 JUMPI PUSH2 0x3830 PUSH2 0x4D1B JUMP JUMPDEST JUMPDEST PUSH1 0x20 MUL ADD MLOAD DUP3 PUSH1 0xFF AND PUSH1 0x2 DUP2 LT PUSH2 0x384B JUMPI PUSH2 0x384A PUSH2 0x4D1B JUMP JUMPDEST JUMPDEST PUSH1 0x20 MUL ADD MLOAD DUP4 PUSH1 0x20 ADD MLOAD DUP6 PUSH2 0x100 DUP2 LT PUSH2 0x3868 JUMPI PUSH2 0x3867 PUSH2 0x4D1B JUMP JUMPDEST JUMPDEST PUSH1 0x20 MUL ADD MLOAD DUP3 PUSH1 0xFF AND PUSH1 0x2 DUP2 LT PUSH2 0x3882 JUMPI PUSH2 0x3881 PUSH2 0x4D1B JUMP JUMPDEST JUMPDEST PUSH1 0x20 MUL ADD DUP2 DUP2 MLOAD PUSH2 0x3893 SWAP2 SWAP1 PUSH2 0x4DD0 JUMP JUMPDEST SWAP2 POP DUP2 DUP2 MSTORE POP POP PUSH2 0x39A2 JUMP JUMPDEST DUP3 PUSH1 0x0 ADD MLOAD DUP5 PUSH2 0x100 DUP2 LT PUSH2 0x38B7 JUMPI PUSH2 0x38B6 PUSH2 0x4D1B JUMP JUMPDEST JUMPDEST PUSH1 0x20 MUL ADD MLOAD DUP3 PUSH1 0xFF AND PUSH1 0x2 DUP2 LT PUSH2 0x38D1 JUMPI PUSH2 0x38D0 PUSH2 0x4D1B JUMP JUMPDEST JUMPDEST PUSH1 0x20 MUL ADD MLOAD DUP4 PUSH1 0x0 ADD MLOAD DUP6 PUSH2 0x100 DUP2 LT PUSH2 0x38EE JUMPI PUSH2 0x38ED PUSH2 0x4D1B JUMP JUMPDEST JUMPDEST PUSH1 0x20 MUL ADD MLOAD DUP3 PUSH1 0xFF AND PUSH1 0x2 DUP2 LT PUSH2 0x3908 JUMPI PUSH2 0x3907 PUSH2 0x4D1B JUMP JUMPDEST JUMPDEST PUSH1 0x20 MUL ADD DUP2 DUP2 MLOAD PUSH2 0x3919 SWAP2 SWAP1 PUSH2 0x4DD0 JUMP JUMPDEST SWAP2 POP DUP2 DUP2 MSTORE POP POP DUP3 PUSH1 0x20 ADD MLOAD DUP5 PUSH2 0x100 DUP2 LT PUSH2 0x3938 JUMPI PUSH2 0x3937 PUSH2 0x4D1B JUMP JUMPDEST JUMPDEST PUSH1 0x20 MUL ADD MLOAD DUP3 PUSH1 0xFF AND PUSH1 0x2 DUP2 LT PUSH2 0x3952 JUMPI PUSH2 0x3951 PUSH2 0x4D1B JUMP JUMPDEST JUMPDEST PUSH1 0x20 MUL ADD MLOAD DUP4 PUSH1 0x20 ADD MLOAD DUP6 PUSH2 0x100 DUP2 LT PUSH2 0x396F JUMPI PUSH2 0x396E PUSH2 0x4D1B JUMP JUMPDEST JUMPDEST PUSH1 0x20 MUL ADD MLOAD DUP3 PUSH1 0xFF AND PUSH1 0x2 DUP2 LT PUSH2 0x3989 JUMPI PUSH2 0x3988 PUSH2 0x4D1B JUMP JUMPDEST JUMPDEST PUSH1 0x20 MUL ADD DUP2 DUP2 MLOAD PUSH2 0x399A SWAP2 SWAP1 PUSH2 0x4DD0 JUMP JUMPDEST SWAP2 POP DUP2 DUP2 MSTORE POP POP JUMPDEST PUSH2 0x3AAA JUMP JUMPDEST DUP3 PUSH1 0x0 ADD MLOAD DUP5 PUSH2 0x100 DUP2 LT PUSH2 0x39BF JUMPI PUSH2 0x39BE PUSH2 0x4D1B JUMP JUMPDEST JUMPDEST PUSH1 0x20 MUL ADD MLOAD DUP3 PUSH1 0xFF AND PUSH1 0x2 DUP2 LT PUSH2 0x39D9 JUMPI PUSH2 0x39D8 PUSH2 0x4D1B JUMP JUMPDEST JUMPDEST PUSH1 0x20 MUL ADD MLOAD DUP4 PUSH1 0x0 ADD MLOAD DUP6 PUSH2 0x100 DUP2 LT PUSH2 0x39F6 JUMPI PUSH2 0x39F5 PUSH2 0x4D1B JUMP JUMPDEST JUMPDEST PUSH1 0x20 MUL ADD MLOAD DUP3 PUSH1 0xFF AND PUSH1 0x2 DUP2 LT PUSH2 0x3A10 JUMPI PUSH2 0x3A0F PUSH2 0x4D1B JUMP JUMPDEST JUMPDEST PUSH1 0x20 MUL ADD DUP2 DUP2 MLOAD PUSH2 0x3A21 SWAP2 SWAP1 PUSH2 0x4DD0 JUMP JUMPDEST SWAP2 POP DUP2 DUP2 MSTORE POP POP DUP3 PUSH1 0x20 ADD MLOAD DUP5 PUSH2 0x100 DUP2 LT PUSH2 0x3A40 JUMPI PUSH2 0x3A3F PUSH2 0x4D1B JUMP JUMPDEST JUMPDEST PUSH1 0x20 MUL ADD MLOAD DUP3 PUSH1 0xFF AND PUSH1 0x2 DUP2 LT PUSH2 0x3A5A JUMPI PUSH2 0x3A59 PUSH2 0x4D1B JUMP JUMPDEST JUMPDEST PUSH1 0x20 MUL ADD MLOAD DUP4 PUSH1 0x20 ADD MLOAD DUP6 PUSH2 0x100 DUP2 LT PUSH2 0x3A77 JUMPI PUSH2 0x3A76 PUSH2 0x4D1B JUMP JUMPDEST JUMPDEST PUSH1 0x20 MUL ADD MLOAD DUP3 PUSH1 0xFF AND PUSH1 0x2 DUP2 LT PUSH2 0x3A91 JUMPI PUSH2 0x3A90 PUSH2 0x4D1B JUMP JUMPDEST JUMPDEST PUSH1 0x20 MUL ADD DUP2 DUP2 MLOAD PUSH2 0x3AA2 SWAP2 SWAP1 PUSH2 0x4DD0 JUMP JUMPDEST SWAP2 POP DUP2 DUP2 MSTORE POP POP JUMPDEST POP POP POP POP POP POP JUMP JUMPDEST PUSH1 0x0 DUP1 DUP3 PUSH1 0xFF AND EQ PUSH2 0x3AC5 JUMPI PUSH1 0x0 PUSH2 0x3AC8 JUMP JUMPDEST PUSH1 0x1 JUMPDEST SWAP1 POP DUP6 DUP5 DUP8 AND SUB PUSH2 0x3CF8 JUMPI PUSH1 0x0 DUP5 DUP7 AND EQ PUSH2 0x3BF0 JUMPI DUP3 PUSH1 0x20 ADD MLOAD DUP5 PUSH2 0x100 DUP2 LT PUSH2 0x3AF5 JUMPI PUSH2 0x3AF4 PUSH2 0x4D1B JUMP JUMPDEST JUMPDEST PUSH1 0x20 MUL ADD MLOAD DUP3 PUSH1 0xFF AND PUSH1 0x2 DUP2 LT PUSH2 0x3B0F JUMPI PUSH2 0x3B0E PUSH2 0x4D1B JUMP JUMPDEST JUMPDEST PUSH1 0x20 MUL ADD MLOAD DUP4 PUSH1 0x0 ADD MLOAD DUP6 PUSH2 0x100 DUP2 LT PUSH2 0x3B2C JUMPI PUSH2 0x3B2B PUSH2 0x4D1B JUMP JUMPDEST JUMPDEST PUSH1 0x20 MUL ADD MLOAD DUP3 PUSH1 0xFF AND PUSH1 0x2 DUP2 LT PUSH2 0x3B46 JUMPI PUSH2 0x3B45 PUSH2 0x4D1B JUMP JUMPDEST JUMPDEST PUSH1 0x20 MUL ADD DUP2 DUP2 MLOAD PUSH2 0x3B57 SWAP2 SWAP1 PUSH2 0x4DD0 JUMP JUMPDEST SWAP2 POP DUP2 DUP2 MSTORE POP POP DUP3 PUSH1 0x0 ADD MLOAD DUP5 PUSH2 0x100 DUP2 LT PUSH2 0x3B76 JUMPI PUSH2 0x3B75 PUSH2 0x4D1B JUMP JUMPDEST JUMPDEST PUSH1 0x20 MUL ADD MLOAD DUP3 PUSH1 0xFF AND PUSH1 0x2 DUP2 LT PUSH2 0x3B90 JUMPI PUSH2 0x3B8F PUSH2 0x4D1B JUMP JUMPDEST JUMPDEST PUSH1 0x20 MUL ADD MLOAD PUSH1 0x0 PUSH2 0x3BA1 SWAP2 SWAP1 PUSH2 0x4E14 JUMP JUMPDEST DUP4 PUSH1 0x20 ADD MLOAD DUP6 PUSH2 0x100 DUP2 LT PUSH2 0x3BB9 JUMPI PUSH2 0x3BB8 PUSH2 0x4D1B JUMP JUMPDEST JUMPDEST PUSH1 0x20 MUL ADD MLOAD DUP3 PUSH1 0xFF AND PUSH1 0x2 DUP2 LT PUSH2 0x3BD3 JUMPI PUSH2 0x3BD2 PUSH2 0x4D1B JUMP JUMPDEST JUMPDEST PUSH1 0x20 MUL ADD DUP2 DUP2 MLOAD PUSH2 0x3BE4 SWAP2 SWAP1 PUSH2 0x4DD0 JUMP JUMPDEST SWAP2 POP DUP2 DUP2 MSTORE POP POP PUSH2 0x3CF3 JUMP JUMPDEST DUP3 PUSH1 0x0 ADD MLOAD DUP5 PUSH2 0x100 DUP2 LT PUSH2 0x3C08 JUMPI PUSH2 0x3C07 PUSH2 0x4D1B JUMP JUMPDEST JUMPDEST PUSH1 0x20 MUL ADD MLOAD DUP3 PUSH1 0xFF AND PUSH1 0x2 DUP2 LT PUSH2 0x3C22 JUMPI PUSH2 0x3C21 PUSH2 0x4D1B JUMP JUMPDEST JUMPDEST PUSH1 0x20 MUL ADD MLOAD DUP4 PUSH1 0x0 ADD MLOAD DUP6 PUSH2 0x100 DUP2 LT PUSH2 0x3C3F JUMPI PUSH2 0x3C3E PUSH2 0x4D1B JUMP JUMPDEST JUMPDEST PUSH1 0x20 MUL ADD MLOAD DUP3 PUSH1 0xFF AND PUSH1 0x2 DUP2 LT PUSH2 0x3C59 JUMPI PUSH2 0x3C58 PUSH2 0x4D1B JUMP JUMPDEST JUMPDEST PUSH1 0x20 MUL ADD DUP2 DUP2 MLOAD PUSH2 0x3C6A SWAP2 SWAP1 PUSH2 0x4DD0 JUMP JUMPDEST SWAP2 POP DUP2 DUP2 MSTORE POP POP DUP3 PUSH1 0x20 ADD MLOAD DUP5 PUSH2 0x100 DUP2 LT PUSH2 0x3C89 JUMPI PUSH2 0x3C88 PUSH2 0x4D1B JUMP JUMPDEST JUMPDEST PUSH1 0x20 MUL ADD MLOAD DUP3 PUSH1 0xFF AND PUSH1 0x2 DUP2 LT PUSH2 0x3CA3 JUMPI PUSH2 0x3CA2 PUSH2 0x4D1B JUMP JUMPDEST JUMPDEST PUSH1 0x20 MUL ADD MLOAD DUP4 PUSH1 0x20 ADD MLOAD DUP6 PUSH2 0x100 DUP2 LT PUSH2 0x3CC0 JUMPI PUSH2 0x3CBF PUSH2 0x4D1B JUMP JUMPDEST JUMPDEST PUSH1 0x20 MUL ADD MLOAD DUP3 PUSH1 0xFF AND PUSH1 0x2 DUP2 LT PUSH2 0x3CDA JUMPI PUSH2 0x3CD9 PUSH2 0x4D1B JUMP JUMPDEST JUMPDEST PUSH1 0x20 MUL ADD DUP2 DUP2 MLOAD PUSH2 0x3CEB SWAP2 SWAP1 PUSH2 0x4DD0 JUMP JUMPDEST SWAP2 POP DUP2 DUP2 MSTORE POP POP JUMPDEST PUSH2 0x3DFB JUMP JUMPDEST DUP3 PUSH1 0x0 ADD MLOAD DUP5 PUSH2 0x100 DUP2 LT PUSH2 0x3D10 JUMPI PUSH2 0x3D0F PUSH2 0x4D1B JUMP JUMPDEST JUMPDEST PUSH1 0x20 MUL ADD MLOAD DUP3 PUSH1 0xFF AND PUSH1 0x2 DUP2 LT PUSH2 0x3D2A JUMPI PUSH2 0x3D29 PUSH2 0x4D1B JUMP JUMPDEST JUMPDEST PUSH1 0x20 MUL ADD MLOAD DUP4 PUSH1 0x0 ADD MLOAD DUP6 PUSH2 0x100 DUP2 LT PUSH2 0x3D47 JUMPI PUSH2 0x3D46 PUSH2 0x4D1B JUMP JUMPDEST JUMPDEST PUSH1 0x20 MUL ADD MLOAD DUP3 PUSH1 0xFF AND PUSH1 0x2 DUP2 LT PUSH2 0x3D61 JUMPI PUSH2 0x3D60 PUSH2 0x4D1B JUMP JUMPDEST JUMPDEST PUSH1 0x20 MUL ADD DUP2 DUP2 MLOAD PUSH2 0x3D72 SWAP2 SWAP1 PUSH2 0x4DD0 JUMP JUMPDEST SWAP2 POP DUP2 DUP2 MSTORE POP POP DUP3 PUSH1 0x20 ADD MLOAD DUP5 PUSH2 0x100 DUP2 LT PUSH2 0x3D91 JUMPI PUSH2 0x3D90 PUSH2 0x4D1B JUMP JUMPDEST JUMPDEST PUSH1 0x20 MUL ADD MLOAD DUP3 PUSH1 0xFF AND PUSH1 0x2 DUP2 LT PUSH2 0x3DAB JUMPI PUSH2 0x3DAA PUSH2 0x4D1B JUMP JUMPDEST JUMPDEST PUSH1 0x20 MUL ADD MLOAD DUP4 PUSH1 0x20 ADD MLOAD DUP6 PUSH2 0x100 DUP2 LT PUSH2 0x3DC8 JUMPI PUSH2 0x3DC7 PUSH2 0x4D1B JUMP JUMPDEST JUMPDEST PUSH1 0x20 MUL ADD MLOAD DUP3 PUSH1 0xFF AND PUSH1 0x2 DUP2 LT PUSH2 0x3DE2 JUMPI PUSH2 0x3DE1 PUSH2 0x4D1B JUMP JUMPDEST JUMPDEST PUSH1 0x20 MUL ADD DUP2 DUP2 MLOAD PUSH2 0x3DF3 SWAP2 SWAP1 PUSH2 0x4DD0 JUMP JUMPDEST SWAP2 POP DUP2 DUP2 MSTORE POP POP JUMPDEST POP POP POP POP POP POP JUMP JUMPDEST PUSH1 0x0 DUP1 PUSH1 0x0 DUP4 PUSH1 0xFF AND EQ PUSH2 0x3E18 JUMPI PUSH1 0x0 PUSH2 0x3E1B JUMP JUMPDEST PUSH1 0x1 JUMPDEST SWAP1 POP PUSH1 0x0 DUP8 DUP7 DUP10 AND SUB PUSH2 0x40C7 JUMPI PUSH1 0x0 DUP7 DUP9 AND EQ PUSH2 0x3FBF JUMPI DUP5 PUSH1 0x20 ADD MLOAD DUP7 PUSH2 0x100 DUP2 LT PUSH2 0x3E4A JUMPI PUSH2 0x3E49 PUSH2 0x4D1B JUMP JUMPDEST JUMPDEST PUSH1 0x20 MUL ADD MLOAD DUP5 PUSH1 0xFF AND PUSH1 0x2 DUP2 LT PUSH2 0x3E64 JUMPI PUSH2 0x3E63 PUSH2 0x4D1B JUMP JUMPDEST JUMPDEST PUSH1 0x20 MUL ADD MLOAD DUP6 PUSH1 0x0 ADD MLOAD DUP8 PUSH2 0x100 DUP2 LT PUSH2 0x3E81 JUMPI PUSH2 0x3E80 PUSH2 0x4D1B JUMP JUMPDEST JUMPDEST PUSH1 0x20 MUL ADD MLOAD DUP6 PUSH1 0xFF AND PUSH1 0x2 DUP2 LT PUSH2 0x3E9B JUMPI PUSH2 0x3E9A PUSH2 0x4D1B JUMP JUMPDEST JUMPDEST PUSH1 0x20 MUL ADD MLOAD PUSH2 0x3EAA SWAP2 SWAP1 PUSH2 0x4E14 JUMP JUMPDEST DUP6 PUSH1 0x0 ADD MLOAD DUP8 PUSH2 0x100 DUP2 LT PUSH2 0x3EC2 JUMPI PUSH2 0x3EC1 PUSH2 0x4D1B JUMP JUMPDEST JUMPDEST PUSH1 0x20 MUL ADD MLOAD DUP4 PUSH1 0xFF AND PUSH1 0x2 DUP2 LT PUSH2 0x3EDC JUMPI PUSH2 0x3EDB PUSH2 0x4D1B JUMP JUMPDEST JUMPDEST PUSH1 0x20 MUL ADD DUP2 DUP2 MLOAD PUSH2 0x3EED SWAP2 SWAP1 PUSH2 0x4DD0 JUMP JUMPDEST SWAP2 POP DUP2 DUP2 MSTORE POP POP DUP5 PUSH1 0x20 ADD MLOAD DUP7 PUSH2 0x100 DUP2 LT PUSH2 0x3F0C JUMPI PUSH2 0x3F0B PUSH2 0x4D1B JUMP JUMPDEST JUMPDEST PUSH1 0x20 MUL ADD MLOAD DUP5 PUSH1 0xFF AND PUSH1 0x2 DUP2 LT PUSH2 0x3F26 JUMPI PUSH2 0x3F25 PUSH2 0x4D1B JUMP JUMPDEST JUMPDEST PUSH1 0x20 MUL ADD MLOAD DUP6 PUSH1 0x0 ADD MLOAD DUP8 PUSH2 0x100 DUP2 LT PUSH2 0x3F43 JUMPI PUSH2 0x3F42 PUSH2 0x4D1B JUMP JUMPDEST JUMPDEST PUSH1 0x20 MUL ADD MLOAD DUP6 PUSH1 0xFF AND PUSH1 0x2 DUP2 LT PUSH2 0x3F5D JUMPI PUSH2 0x3F5C PUSH2 0x4D1B JUMP JUMPDEST JUMPDEST PUSH1 0x20 MUL ADD MLOAD PUSH2 0x3F6C SWAP2 SWAP1 PUSH2 0x4DD0 JUMP JUMPDEST DUP6 PUSH1 0x20 ADD MLOAD DUP8 PUSH2 0x100 DUP2 LT PUSH2 0x3F84 JUMPI PUSH2 0x3F83 PUSH2 0x4D1B JUMP JUMPDEST JUMPDEST PUSH1 0x20 MUL ADD MLOAD DUP4 PUSH1 0xFF AND PUSH1 0x2 DUP2 LT PUSH2 0x3F9E JUMPI PUSH2 0x3F9D PUSH2 0x4D1B JUMP JUMPDEST JUMPDEST PUSH1 0x20 MUL ADD DUP2 DUP2 MLOAD PUSH2 0x3FAF SWAP2 SWAP1 PUSH2 0x4DD0 JUMP JUMPDEST SWAP2 POP DUP2 DUP2 MSTORE POP POP PUSH1 0x1 SWAP1 POP PUSH2 0x40C2 JUMP JUMPDEST DUP5 PUSH1 0x0 ADD MLOAD DUP7 PUSH2 0x100 DUP2 LT PUSH2 0x3FD7 JUMPI PUSH2 0x3FD6 PUSH2 0x4D1B JUMP JUMPDEST JUMPDEST PUSH1 0x20 MUL ADD MLOAD DUP5 PUSH1 0xFF AND PUSH1 0x2 DUP2 LT PUSH2 0x3FF1 JUMPI PUSH2 0x3FF0 PUSH2 0x4D1B JUMP JUMPDEST JUMPDEST PUSH1 0x20 MUL ADD MLOAD DUP6 PUSH1 0x0 ADD MLOAD DUP8 PUSH2 0x100 DUP2 LT PUSH2 0x400E JUMPI PUSH2 0x400D PUSH2 0x4D1B JUMP JUMPDEST JUMPDEST PUSH1 0x20 MUL ADD MLOAD DUP4 PUSH1 0xFF AND PUSH1 0x2 DUP2 LT PUSH2 0x4028 JUMPI PUSH2 0x4027 PUSH2 0x4D1B JUMP JUMPDEST JUMPDEST PUSH1 0x20 MUL ADD DUP2 DUP2 MLOAD PUSH2 0x4039 SWAP2 SWAP1 PUSH2 0x4DD0 JUMP JUMPDEST SWAP2 POP DUP2 DUP2 MSTORE POP POP DUP5 PUSH1 0x20 ADD MLOAD DUP7 PUSH2 0x100 DUP2 LT PUSH2 0x4058 JUMPI PUSH2 0x4057 PUSH2 0x4D1B JUMP JUMPDEST JUMPDEST PUSH1 0x20 MUL ADD MLOAD DUP5 PUSH1 0xFF AND PUSH1 0x2 DUP2 LT PUSH2 0x4072 JUMPI PUSH2 0x4071 PUSH2 0x4D1B JUMP JUMPDEST JUMPDEST PUSH1 0x20 MUL ADD MLOAD DUP6 PUSH1 0x20 ADD MLOAD DUP8 PUSH2 0x100 DUP2 LT PUSH2 0x408F JUMPI PUSH2 0x408E PUSH2 0x4D1B JUMP JUMPDEST JUMPDEST PUSH1 0x20 MUL ADD MLOAD DUP4 PUSH1 0xFF AND PUSH1 0x2 DUP2 LT PUSH2 0x40A9 JUMPI PUSH2 0x40A8 PUSH2 0x4D1B JUMP JUMPDEST JUMPDEST PUSH1 0x20 MUL ADD DUP2 DUP2 MLOAD PUSH2 0x40BA SWAP2 SWAP1 PUSH2 0x4DD0 JUMP JUMPDEST SWAP2 POP DUP2 DUP2 MSTORE POP POP JUMPDEST PUSH2 0x41CA JUMP JUMPDEST DUP5 PUSH1 0x0 ADD MLOAD DUP7 PUSH2 0x100 DUP2 LT PUSH2 0x40DF JUMPI PUSH2 0x40DE PUSH2 0x4D1B JUMP JUMPDEST JUMPDEST PUSH1 0x20 MUL ADD MLOAD DUP5 PUSH1 0xFF AND PUSH1 0x2 DUP2 LT PUSH2 0x40F9 JUMPI PUSH2 0x40F8 PUSH2 0x4D1B JUMP JUMPDEST JUMPDEST PUSH1 0x20 MUL ADD MLOAD DUP6 PUSH1 0x0 ADD MLOAD DUP8 PUSH2 0x100 DUP2 LT PUSH2 0x4116 JUMPI PUSH2 0x4115 PUSH2 0x4D1B JUMP JUMPDEST JUMPDEST PUSH1 0x20 MUL ADD MLOAD DUP4 PUSH1 0xFF AND PUSH1 0x2 DUP2 LT PUSH2 0x4130 JUMPI PUSH2 0x412F PUSH2 0x4D1B JUMP JUMPDEST JUMPDEST PUSH1 0x20 MUL ADD DUP2 DUP2 MLOAD PUSH2 0x4141 SWAP2 SWAP1 PUSH2 0x4DD0 JUMP JUMPDEST SWAP2 POP DUP2 DUP2 MSTORE POP POP DUP5 PUSH1 0x20 ADD MLOAD DUP7 PUSH2 0x100 DUP2 LT PUSH2 0x4160 JUMPI PUSH2 0x415F PUSH2 0x4D1B JUMP JUMPDEST JUMPDEST PUSH1 0x20 MUL ADD MLOAD DUP5 PUSH1 0xFF AND PUSH1 0x2 DUP2 LT PUSH2 0x417A JUMPI PUSH2 0x4179 PUSH2 0x4D1B JUMP JUMPDEST JUMPDEST PUSH1 0x20 MUL ADD MLOAD DUP6 PUSH1 0x20 ADD MLOAD DUP8 PUSH2 0x100 DUP2 LT PUSH2 0x4197 JUMPI PUSH2 0x4196 PUSH2 0x4D1B JUMP JUMPDEST JUMPDEST PUSH1 0x20 MUL ADD MLOAD DUP4 PUSH1 0xFF AND PUSH1 0x2 DUP2 LT PUSH2 0x41B1 JUMPI PUSH2 0x41B0 PUSH2 0x4D1B JUMP JUMPDEST JUMPDEST PUSH1 0x20 MUL ADD DUP2 DUP2 MLOAD PUSH2 0x41C2 SWAP2 SWAP1 PUSH2 0x4DD0 JUMP JUMPDEST SWAP2 POP DUP2 DUP2 MSTORE POP POP JUMPDEST DUP1 SWAP3 POP POP POP SWAP6 SWAP5 POP POP POP POP POP JUMP JUMPDEST PUSH1 0x0 DUP1 PUSH1 0x0 DUP4 PUSH1 0xFF AND EQ PUSH2 0x41ED JUMPI PUSH1 0x0 PUSH2 0x41F0 JUMP JUMPDEST PUSH1 0x1 JUMPDEST SWAP1 POP PUSH1 0x0 DUP8 DUP7 DUP10 AND SUB PUSH2 0x44A8 JUMPI PUSH1 0x0 DUP7 DUP9 AND EQ PUSH2 0x43A0 JUMPI DUP5 PUSH1 0x20 ADD MLOAD DUP7 PUSH2 0x100 DUP2 LT PUSH2 0x421F JUMPI PUSH2 0x421E PUSH2 0x4D1B JUMP JUMPDEST JUMPDEST PUSH1 0x20 MUL ADD MLOAD DUP5 PUSH1 0xFF AND PUSH1 0x2 DUP2 LT PUSH2 0x4239 JUMPI PUSH2 0x4238 PUSH2 0x4D1B JUMP JUMPDEST JUMPDEST PUSH1 0x20 MUL ADD MLOAD DUP6 PUSH1 0x0 ADD MLOAD DUP8 PUSH2 0x100 DUP2 LT PUSH2 0x4256 JUMPI PUSH2 0x4255 PUSH2 0x4D1B JUMP JUMPDEST JUMPDEST PUSH1 0x20 MUL ADD MLOAD DUP6 PUSH1 0xFF AND PUSH1 0x2 DUP2 LT PUSH2 0x4270 JUMPI PUSH2 0x426F PUSH2 0x4D1B JUMP JUMPDEST JUMPDEST PUSH1 0x20 MUL ADD MLOAD PUSH2 0x427F SWAP2 SWAP1 PUSH2 0x4DD0 JUMP JUMPDEST DUP6 PUSH1 0x0 ADD MLOAD DUP8 PUSH2 0x100 DUP2 LT PUSH2 0x4297 JUMPI PUSH2 0x4296 PUSH2 0x4D1B JUMP JUMPDEST JUMPDEST PUSH1 0x20 MUL ADD MLOAD DUP4 PUSH1 0xFF AND PUSH1 0x2 DUP2 LT PUSH2 0x42B1 JUMPI PUSH2 0x42B0 PUSH2 0x4D1B JUMP JUMPDEST JUMPDEST PUSH1 0x20 MUL ADD DUP2 DUP2 MLOAD PUSH2 0x42C2 SWAP2 SWAP1 PUSH2 0x4DD0 JUMP JUMPDEST SWAP2 POP DUP2 DUP2 MSTORE POP POP DUP5 PUSH1 0x20 ADD MLOAD DUP7 PUSH2 0x100 DUP2 LT PUSH2 0x42E1 JUMPI PUSH2 0x42E0 PUSH2 0x4D1B JUMP JUMPDEST JUMPDEST PUSH1 0x20 MUL ADD MLOAD DUP5 PUSH1 0xFF AND PUSH1 0x2 DUP2 LT PUSH2 0x42FB JUMPI PUSH2 0x42FA PUSH2 0x4D1B JUMP JUMPDEST JUMPDEST PUSH1 0x20 MUL ADD MLOAD DUP6 PUSH1 0x0 ADD MLOAD DUP8 PUSH2 0x100 DUP2 LT PUSH2 0x4318 JUMPI PUSH2 0x4317 PUSH2 0x4D1B JUMP JUMPDEST JUMPDEST PUSH1 0x20 MUL ADD MLOAD DUP6 PUSH1 0xFF AND PUSH1 0x2 DUP2 LT PUSH2 0x4332 JUMPI PUSH2 0x4331 PUSH2 0x4D1B JUMP JUMPDEST JUMPDEST PUSH1 0x20 MUL ADD MLOAD PUSH1 0x0 PUSH2 0x4343 SWAP2 SWAP1 PUSH2 0x4E14 JUMP JUMPDEST PUSH2 0x434D SWAP2 SWAP1 PUSH2 0x4DD0 JUMP JUMPDEST DUP6 PUSH1 0x20 ADD MLOAD DUP8 PUSH2 0x100 DUP2 LT PUSH2 0x4365 JUMPI PUSH2 0x4364 PUSH2 0x4D1B JUMP JUMPDEST JUMPDEST PUSH1 0x20 MUL ADD MLOAD DUP4 PUSH1 0xFF AND PUSH1 0x2 DUP2 LT PUSH2 0x437F JUMPI PUSH2 0x437E PUSH2 0x4D1B JUMP JUMPDEST JUMPDEST PUSH1 0x20 MUL ADD DUP2 DUP2 MLOAD PUSH2 0x4390 SWAP2 SWAP1 PUSH2 0x4DD0 JUMP JUMPDEST SWAP2 POP DUP2 DUP2 MSTORE POP POP PUSH1 0x1 SWAP1 POP PUSH2 0x44A3 JUMP JUMPDEST DUP5 PUSH1 0x0 ADD MLOAD DUP7 PUSH2 0x100 DUP2 LT PUSH2 0x43B8 JUMPI PUSH2 0x43B7 PUSH2 0x4D1B JUMP JUMPDEST JUMPDEST PUSH1 0x20 MUL ADD MLOAD DUP5 PUSH1 0xFF AND PUSH1 0x2 DUP2 LT PUSH2 0x43D2 JUMPI PUSH2 0x43D1 PUSH2 0x4D1B JUMP JUMPDEST JUMPDEST PUSH1 0x20 MUL ADD MLOAD DUP6 PUSH1 0x0 ADD MLOAD DUP8 PUSH2 0x100 DUP2 LT PUSH2 0x43EF JUMPI PUSH2 0x43EE PUSH2 0x4D1B JUMP JUMPDEST JUMPDEST PUSH1 0x20 MUL ADD MLOAD DUP4 PUSH1 0xFF AND PUSH1 0x2 DUP2 LT PUSH2 0x4409 JUMPI PUSH2 0x4408 PUSH2 0x4D1B JUMP JUMPDEST JUMPDEST PUSH1 0x20 MUL ADD DUP2 DUP2 MLOAD PUSH2 0x441A SWAP2 SWAP1 PUSH2 0x4DD0 JUMP JUMPDEST SWAP2 POP DUP2 DUP2 MSTORE POP POP DUP5 PUSH1 0x20 ADD MLOAD DUP7 PUSH2 0x100 DUP2 LT PUSH2 0x4439 JUMPI PUSH2 0x4438 PUSH2 0x4D1B JUMP JUMPDEST JUMPDEST PUSH1 0x20 MUL ADD MLOAD DUP5 PUSH1 0xFF AND PUSH1 0x2 DUP2 LT PUSH2 0x4453 JUMPI PUSH2 0x4452 PUSH2 0x4D1B JUMP JUMPDEST JUMPDEST PUSH1 0x20 MUL ADD MLOAD DUP6 PUSH1 0x20 ADD MLOAD DUP8 PUSH2 0x100 DUP2 LT PUSH2 0x4470 JUMPI PUSH2 0x446F PUSH2 0x4D1B JUMP JUMPDEST JUMPDEST PUSH1 0x20 MUL ADD MLOAD DUP4 PUSH1 0xFF AND PUSH1 0x2 DUP2 LT PUSH2 0x448A JUMPI PUSH2 0x4489 PUSH2 0x4D1B JUMP JUMPDEST JUMPDEST PUSH1 0x20 MUL ADD DUP2 DUP2 MLOAD PUSH2 0x449B SWAP2 SWAP1 PUSH2 0x4DD0 JUMP JUMPDEST SWAP2 POP DUP2 DUP2 MSTORE POP POP JUMPDEST PUSH2 0x45AB JUMP JUMPDEST DUP5 PUSH1 0x0 ADD MLOAD DUP7 PUSH2 0x100 DUP2 LT PUSH2 0x44C0 JUMPI PUSH2 0x44BF PUSH2 0x4D1B JUMP JUMPDEST JUMPDEST PUSH1 0x20 MUL ADD MLOAD DUP5 PUSH1 0xFF AND PUSH1 0x2 DUP2 LT PUSH2 0x44DA JUMPI PUSH2 0x44D9 PUSH2 0x4D1B JUMP JUMPDEST JUMPDEST PUSH1 0x20 MUL ADD MLOAD DUP6 PUSH1 0x0 ADD MLOAD DUP8 PUSH2 0x100 DUP2 LT PUSH2 0x44F7 JUMPI PUSH2 0x44F6 PUSH2 0x4D1B JUMP JUMPDEST JUMPDEST PUSH1 0x20 MUL ADD MLOAD DUP4 PUSH1 0xFF AND PUSH1 0x2 DUP2 LT PUSH2 0x4511 JUMPI PUSH2 0x4510 PUSH2 0x4D1B JUMP JUMPDEST JUMPDEST PUSH1 0x20 MUL ADD DUP2 DUP2 MLOAD PUSH2 0x4522 SWAP2 SWAP1 PUSH2 0x4DD0 JUMP JUMPDEST SWAP2 POP DUP2 DUP2 MSTORE POP POP DUP5 PUSH1 0x20 ADD MLOAD DUP7 PUSH2 0x100 DUP2 LT PUSH2 0x4541 JUMPI PUSH2 0x4540 PUSH2 0x4D1B JUMP JUMPDEST JUMPDEST PUSH1 0x20 MUL ADD MLOAD DUP5 PUSH1 0xFF AND PUSH1 0x2 DUP2 LT PUSH2 0x455B JUMPI PUSH2 0x455A PUSH2 0x4D1B JUMP JUMPDEST JUMPDEST PUSH1 0x20 MUL ADD MLOAD DUP6 PUSH1 0x20 ADD MLOAD DUP8 PUSH2 0x100 DUP2 LT PUSH2 0x4578 JUMPI PUSH2 0x4577 PUSH2 0x4D1B JUMP JUMPDEST JUMPDEST PUSH1 0x20 MUL ADD MLOAD DUP4 PUSH1 0xFF AND PUSH1 0x2 DUP2 LT PUSH2 0x4592 JUMPI PUSH2 0x4591 PUSH2 0x4D1B JUMP JUMPDEST JUMPDEST PUSH1 0x20 MUL ADD DUP2 DUP2 MLOAD PUSH2 0x45A3 SWAP2 SWAP1 PUSH2 0x4DD0 JUMP JUMPDEST SWAP2 POP DUP2 DUP2 MSTORE POP POP JUMPDEST DUP1 SWAP3 POP POP POP SWAP6 SWAP5 POP POP POP POP POP JUMP JUMPDEST PUSH1 0x40 MLOAD DUP1 PUSH1 0x40 ADD PUSH1 0x40 MSTORE DUP1 PUSH2 0x45CC PUSH2 0x4603 JUMP JUMPDEST DUP2 MSTORE PUSH1 0x20 ADD PUSH2 0x45D9 PUSH2 0x4603 JUMP JUMPDEST DUP2 MSTORE POP SWAP1 JUMP JUMPDEST PUSH1 0x40 MLOAD DUP1 PUSH2 0x2000 ADD PUSH1 0x40 MSTORE DUP1 PUSH2 0x100 SWAP1 PUSH1 0x20 DUP3 MUL DUP1 CALLDATASIZE DUP4 CALLDATACOPY DUP1 DUP3 ADD SWAP2 POP POP SWAP1 POP POP SWAP1 JUMP JUMPDEST PUSH1 0x40 MLOAD DUP1 PUSH2 0x2000 ADD PUSH1 0x40 MSTORE DUP1 PUSH2 0x100 SWAP1 JUMPDEST PUSH2 0x461C PUSH2 0x4632 JUMP JUMPDEST DUP2 MSTORE PUSH1 0x20 ADD SWAP1 PUSH1 0x1 SWAP1 SUB SWAP1 DUP2 PUSH2 0x4614 JUMPI SWAP1 POP POP SWAP1 JUMP JUMPDEST PUSH1 0x40 MLOAD DUP1 PUSH1 0x40 ADD PUSH1 0x40 MSTORE DUP1 PUSH1 0x2 SWAP1 PUSH1 0x20 DUP3 MUL DUP1 CALLDATASIZE DUP4 CALLDATACOPY DUP1 DUP3 ADD SWAP2 POP POP SWAP1 POP POP SWAP1 JUMP JUMPDEST PUSH1 0x0 PUSH1 0x40 MLOAD SWAP1 POP SWAP1 JUMP JUMPDEST PUSH1 0x0 DUP1 REVERT JUMPDEST PUSH1 0x0 DUP1 REVERT JUMPDEST PUSH1 0x0 PUSH1 0xFF DUP3 AND SWAP1 POP SWAP2 SWAP1 POP JUMP JUMPDEST PUSH2 0x467E DUP2 PUSH2 0x4668 JUMP JUMPDEST DUP2 EQ PUSH2 0x4689 JUMPI PUSH1 0x0 DUP1 REVERT JUMPDEST POP JUMP JUMPDEST PUSH1 0x0 DUP2 CALLDATALOAD SWAP1 POP PUSH2 0x469B DUP2 PUSH2 0x4675 JUMP JUMPDEST SWAP3 SWAP2 POP POP JUMP JUMPDEST PUSH1 0x0 DUP1 REVERT JUMPDEST PUSH1 0x0 DUP1 REVERT JUMPDEST PUSH1 0x0 PUSH1 0x1F NOT PUSH1 0x1F DUP4 ADD AND SWAP1 POP SWAP2 SWAP1 POP JUMP JUMPDEST PUSH32 0x4E487B7100000000000000000000000000000000000000000000000000000000 PUSH1 0x0 MSTORE PUSH1 0x41 PUSH1 0x4 MSTORE PUSH1 0x24 PUSH1 0x0 REVERT JUMPDEST PUSH2 0x46F4 DUP3 PUSH2 0x46AB JUMP JUMPDEST DUP2 ADD DUP2 DUP2 LT PUSH8 0xFFFFFFFFFFFFFFFF DUP3 GT OR ISZERO PUSH2 0x4713 JUMPI PUSH2 0x4712 PUSH2 0x46BC JUMP JUMPDEST JUMPDEST DUP1 PUSH1 0x40 MSTORE POP POP POP JUMP JUMPDEST PUSH1 0x0 PUSH2 0x4726 PUSH2 0x4654 JUMP JUMPDEST SWAP1 POP PUSH2 0x4732 DUP3 DUP3 PUSH2 0x46EB JUMP JUMPDEST SWAP2 SWAP1 POP JUMP JUMPDEST PUSH1 0x0 PUSH8 0xFFFFFFFFFFFFFFFF DUP3 GT ISZERO PUSH2 0x4752 JUMPI PUSH2 0x4751 PUSH2 0x46BC JUMP JUMPDEST JUMPDEST PUSH2 0x475B DUP3 PUSH2 0x46AB JUMP JUMPDEST SWAP1 POP PUSH1 0x20 DUP2 ADD SWAP1 POP SWAP2 SWAP1 POP JUMP JUMPDEST DUP3 DUP2 DUP4 CALLDATACOPY PUSH1 0x0 DUP4 DUP4 ADD MSTORE POP POP POP JUMP JUMPDEST PUSH1 0x0 PUSH2 0x478A PUSH2 0x4785 DUP5 PUSH2 0x4737 JUMP JUMPDEST PUSH2 0x471C JUMP JUMPDEST SWAP1 POP DUP3 DUP2 MSTORE PUSH1 0x20 DUP2 ADD DUP5 DUP5 DUP5 ADD GT ISZERO PUSH2 0x47A6 JUMPI PUSH2 0x47A5 PUSH2 0x46A6 JUMP JUMPDEST JUMPDEST PUSH2 0x47B1 DUP5 DUP3 DUP6 PUSH2 0x4768 JUMP JUMPDEST POP SWAP4 SWAP3 POP POP POP JUMP JUMPDEST PUSH1 0x0 DUP3 PUSH1 0x1F DUP4 ADD SLT PUSH2 0x47CE JUMPI PUSH2 0x47CD PUSH2 0x46A1 JUMP JUMPDEST JUMPDEST DUP2 CALLDATALOAD PUSH2 0x47DE DUP5 DUP3 PUSH1 0x20 DUP7 ADD PUSH2 0x4777 JUMP JUMPDEST SWAP2 POP POP SWAP3 SWAP2 POP POP JUMP JUMPDEST PUSH1 0x0 DUP2 SWAP1 POP SWAP2 SWAP1 POP JUMP JUMPDEST PUSH2 0x47FA DUP2 PUSH2 0x47E7 JUMP JUMPDEST DUP2 EQ PUSH2 0x4805 JUMPI PUSH1 0x0 DUP1 REVERT JUMPDEST POP JUMP JUMPDEST PUSH1 0x0 DUP2 CALLDATALOAD SWAP1 POP PUSH2 0x4817 DUP2 PUSH2 0x47F1 JUMP JUMPDEST SWAP3 SWAP2 POP POP JUMP JUMPDEST PUSH1 0x0 DUP1 PUSH1 0x0 PUSH1 0x60 DUP5 DUP7 SUB SLT ISZERO PUSH2 0x4836 JUMPI PUSH2 0x4835 PUSH2 0x465E JUMP JUMPDEST JUMPDEST PUSH1 0x0 PUSH2 0x4844 DUP7 DUP3 DUP8 ADD PUSH2 0x468C JUMP JUMPDEST SWAP4 POP POP PUSH1 0x20 DUP5 ADD CALLDATALOAD PUSH8 0xFFFFFFFFFFFFFFFF DUP2 GT ISZERO PUSH2 0x4865 JUMPI PUSH2 0x4864 PUSH2 0x4663 JUMP JUMPDEST JUMPDEST PUSH2 0x4871 DUP7 DUP3 DUP8 ADD PUSH2 0x47B9 JUMP JUMPDEST SWAP3 POP POP PUSH1 0x40 PUSH2 0x4882 DUP7 DUP3 DUP8 ADD PUSH2 0x4808 JUMP JUMPDEST SWAP2 POP POP SWAP3 POP SWAP3 POP SWAP3 JUMP JUMPDEST PUSH2 0x4895 DUP2 PUSH2 0x47E7 JUMP JUMPDEST DUP3 MSTORE POP POP JUMP JUMPDEST PUSH1 0x0 PUSH1 0x20 DUP3 ADD SWAP1 POP PUSH2 0x48B0 PUSH1 0x0 DUP4 ADD DUP5 PUSH2 0x488C JUMP JUMPDEST SWAP3 SWAP2 POP POP JUMP JUMPDEST PUSH1 0x0 DUP2 MLOAD SWAP1 POP SWAP2 SWAP1 POP JUMP JUMPDEST PUSH1 0x0 DUP3 DUP3 MSTORE PUSH1 0x20 DUP3 ADD SWAP1 POP SWAP3 SWAP2 POP POP JUMP JUMPDEST PUSH1 0x0 DUP2 SWAP1 POP PUSH1 0x20 DUP3 ADD SWAP1 POP SWAP2 SWAP1 POP JUMP JUMPDEST PUSH1 0x0 DUP2 MLOAD SWAP1 POP SWAP2 SWAP1 POP JUMP JUMPDEST PUSH1 0x0 DUP3 DUP3 MSTORE PUSH1 0x20 DUP3 ADD SWAP1 POP SWAP3 SWAP2 POP POP JUMP JUMPDEST PUSH1 0x0 JUMPDEST DUP4 DUP2 LT ISZERO PUSH2 0x491C JUMPI DUP1 DUP3 ADD MLOAD DUP2 DUP5 ADD MSTORE PUSH1 0x20 DUP2 ADD SWAP1 POP PUSH2 0x4901 JUMP JUMPDEST PUSH1 0x0 DUP5 DUP5 ADD MSTORE POP POP POP POP JUMP JUMPDEST PUSH1 0x0 PUSH2 0x4933 DUP3 PUSH2 0x48E2 JUMP JUMPDEST PUSH2 0x493D DUP2 DUP6 PUSH2 0x48ED JUMP JUMPDEST SWAP4 POP PUSH2 0x494D DUP2 DUP6 PUSH1 0x20 DUP7 ADD PUSH2 0x48FE JUMP JUMPDEST PUSH2 0x4956 DUP2 PUSH2 0x46AB JUMP JUMPDEST DUP5 ADD SWAP2 POP POP SWAP3 SWAP2 POP POP JUMP JUMPDEST PUSH1 0x0 PUSH2 0x496D DUP4 DUP4 PUSH2 0x4928 JUMP JUMPDEST SWAP1 POP SWAP3 SWAP2 POP POP JUMP JUMPDEST PUSH1 0x0 PUSH1 0x20 DUP3 ADD SWAP1 POP SWAP2 SWAP1 POP JUMP JUMPDEST PUSH1 0x0 PUSH2 0x498D DUP3 PUSH2 0x48B6 JUMP JUMPDEST PUSH2 0x4997 DUP2 DUP6 PUSH2 0x48C1 JUMP JUMPDEST SWAP4 POP DUP4 PUSH1 0x20 DUP3 MUL DUP6 ADD PUSH2 0x49A9 DUP6 PUSH2 0x48D2 JUMP JUMPDEST DUP1 PUSH1 0x0 JUMPDEST DUP6 DUP2 LT ISZERO PUSH2 0x49E5 JUMPI DUP5 DUP5 SUB DUP10 MSTORE DUP2 MLOAD PUSH2 0x49C6 DUP6 DUP3 PUSH2 0x4961 JUMP JUMPDEST SWAP5 POP PUSH2 0x49D1 DUP4 PUSH2 0x4975 JUMP JUMPDEST SWAP3 POP PUSH1 0x20 DUP11 ADD SWAP10 POP POP PUSH1 0x1 DUP2 ADD SWAP1 POP PUSH2 0x49AD JUMP JUMPDEST POP DUP3 SWAP8 POP DUP8 SWAP6 POP POP POP POP POP POP SWAP3 SWAP2 POP POP JUMP JUMPDEST PUSH1 0x0 PUSH1 0x20 DUP3 ADD SWAP1 POP DUP2 DUP2 SUB PUSH1 0x0 DUP4 ADD MSTORE PUSH2 0x4A11 DUP2 DUP5 PUSH2 0x4982 JUMP JUMPDEST SWAP1 POP SWAP3 SWAP2 POP POP JUMP JUMPDEST PUSH1 0x0 DUP3 DUP3 MSTORE PUSH1 0x20 DUP3 ADD SWAP1 POP SWAP3 SWAP2 POP POP JUMP JUMPDEST PUSH1 0x0 PUSH2 0x4A35 DUP3 PUSH2 0x48E2 JUMP JUMPDEST PUSH2 0x4A3F DUP2 DUP6 PUSH2 0x4A19 JUMP JUMPDEST SWAP4 POP PUSH2 0x4A4F DUP2 DUP6 PUSH1 0x20 DUP7 ADD PUSH2 0x48FE JUMP JUMPDEST PUSH2 0x4A58 DUP2 PUSH2 0x46AB JUMP JUMPDEST DUP5 ADD SWAP2 POP POP SWAP3 SWAP2 POP POP JUMP JUMPDEST PUSH1 0x0 PUSH1 0x20 DUP3 ADD SWAP1 POP DUP2 DUP2 SUB PUSH1 0x0 DUP4 ADD MSTORE PUSH2 0x4A7D DUP2 DUP5 PUSH2 0x4A2A JUMP JUMPDEST SWAP1 POP SWAP3 SWAP2 POP POP JUMP JUMPDEST PUSH1 0x0 PUSH1 0x20 DUP3 DUP5 SUB SLT ISZERO PUSH2 0x4A9B JUMPI PUSH2 0x4A9A PUSH2 0x465E JUMP JUMPDEST JUMPDEST PUSH1 0x0 PUSH2 0x4AA9 DUP5 DUP3 DUP6 ADD PUSH2 0x4808 JUMP JUMPDEST SWAP2 POP POP SWAP3 SWAP2 POP POP JUMP JUMPDEST PUSH2 0x4ABB DUP2 PUSH2 0x4668 JUMP JUMPDEST DUP3 MSTORE POP POP JUMP JUMPDEST PUSH1 0x0 PUSH1 0x20 DUP3 ADD SWAP1 POP PUSH2 0x4AD6 PUSH1 0x0 DUP4 ADD DUP5 PUSH2 0x4AB2 JUMP JUMPDEST SWAP3 SWAP2 POP POP JUMP JUMPDEST PUSH1 0x0 DUP2 ISZERO ISZERO SWAP1 POP SWAP2 SWAP1 POP JUMP JUMPDEST PUSH2 0x4AF1 DUP2 PUSH2 0x4ADC JUMP JUMPDEST DUP3 MSTORE POP POP JUMP JUMPDEST PUSH1 0x0 PUSH1 0x20 DUP3 ADD SWAP1 POP PUSH2 0x4B0C PUSH1 0x0 DUP4 ADD DUP5 PUSH2 0x4AE8 JUMP JUMPDEST SWAP3 SWAP2 POP POP JUMP JUMPDEST PUSH1 0x0 PUSH20 0xFFFFFFFFFFFFFFFFFFFFFFFFFFFFFFFFFFFFFFFF DUP3 AND SWAP1 POP SWAP2 SWAP1 POP JUMP JUMPDEST PUSH1 0x0 PUSH2 0x4B3D DUP3 PUSH2 0x4B12 JUMP JUMPDEST SWAP1 POP SWAP2 SWAP1 POP JUMP JUMPDEST PUSH2 0x4B4D DUP2 PUSH2 0x4B32 JUMP JUMPDEST DUP3 MSTORE POP POP JUMP JUMPDEST PUSH1 0x0 PUSH1 0x20 DUP3 ADD SWAP1 POP PUSH2 0x4B68 PUSH1 0x0 DUP4 ADD DUP5 PUSH2 0x4B44 JUMP JUMPDEST SWAP3 SWAP2 POP POP JUMP JUMPDEST PUSH32 0x4E487B7100000000000000000000000000000000000000000000000000000000 PUSH1 0x0 MSTORE PUSH1 0x11 PUSH1 0x4 MSTORE PUSH1 0x24 PUSH1 0x0 REVERT JUMPDEST PUSH1 0x0 DUP2 PUSH1 0x1 SHR SWAP1 POP SWAP2 SWAP1 POP JUMP JUMPDEST PUSH1 0x0 DUP1 DUP3 SWAP2 POP DUP4 SWAP1 POP JUMPDEST PUSH1 0x1 DUP6 GT ISZERO PUSH2 0x4BF4 JUMPI DUP1 DUP7 DIV DUP2 GT ISZERO PUSH2 0x4BD0 JUMPI PUSH2 0x4BCF PUSH2 0x4B6E JUMP JUMPDEST JUMPDEST PUSH1 0x1 DUP6 AND ISZERO PUSH2 0x4BDF JUMPI DUP1 DUP3 MUL SWAP2 POP JUMPDEST DUP1 DUP2 MUL SWAP1 POP PUSH2 0x4BED DUP6 PUSH2 0x4B9D JUMP JUMPDEST SWAP5 POP PUSH2 0x4BB4 JUMP JUMPDEST SWAP5 POP SWAP5 SWAP3 POP POP POP JUMP JUMPDEST PUSH1 0x0 DUP3 PUSH2 0x4C0D JUMPI PUSH1 0x1 SWAP1 POP PUSH2 0x4CC9 JUMP JUMPDEST DUP2 PUSH2 0x4C1B JUMPI PUSH1 0x0 SWAP1 POP PUSH2 0x4CC9 JUMP JUMPDEST DUP2 PUSH1 0x1 DUP2 EQ PUSH2 0x4C31 JUMPI PUSH1 0x2 DUP2 EQ PUSH2 0x4C3B JUMPI PUSH2 0x4C6A JUMP JUMPDEST PUSH1 0x1 SWAP2 POP POP PUSH2 0x4CC9 JUMP JUMPDEST PUSH1 0xFF DUP5 GT ISZERO PUSH2 0x4C4D JUMPI PUSH2 0x4C4C PUSH2 0x4B6E JUMP JUMPDEST JUMPDEST DUP4 PUSH1 0x2 EXP SWAP2 POP DUP5 DUP3 GT ISZERO PUSH2 0x4C64 JUMPI PUSH2 0x4C63 PUSH2 0x4B6E JUMP JUMPDEST JUMPDEST POP PUSH2 0x4CC9 JUMP JUMPDEST POP PUSH1 0x20 DUP4 LT PUSH2 0x133 DUP4 LT AND PUSH1 0x4E DUP5 LT PUSH1 0xB DUP5 LT AND OR ISZERO PUSH2 0x4C9F JUMPI DUP3 DUP3 EXP SWAP1 POP DUP4 DUP2 GT ISZERO PUSH2 0x4C9A JUMPI PUSH2 0x4C99 PUSH2 0x4B6E JUMP JUMPDEST JUMPDEST PUSH2 0x4CC9 JUMP JUMPDEST PUSH2 0x4CAC DUP5 DUP5 DUP5 PUSH1 0x1 PUSH2 0x4BAA JUMP JUMPDEST SWAP3 POP SWAP1 POP DUP2 DUP5 DIV DUP2 GT ISZERO PUSH2 0x4CC3 JUMPI PUSH2 0x4CC2 PUSH2 0x4B6E JUMP JUMPDEST JUMPDEST DUP2 DUP2 MUL SWAP1 POP JUMPDEST SWAP4 SWAP3 POP POP POP JUMP JUMPDEST PUSH1 0x0 PUSH2 0x4CDB DUP3 PUSH2 0x47E7 JUMP JUMPDEST SWAP2 POP PUSH2 0x4CE6 DUP4 PUSH2 0x4668 JUMP JUMPDEST SWAP3 POP PUSH2 0x4D13 PUSH32 0xFFFFFFFFFFFFFFFFFFFFFFFFFFFFFFFFFFFFFFFFFFFFFFFFFFFFFFFFFFFFFFFF DUP5 DUP5 PUSH2 0x4BFD JUMP JUMPDEST SWAP1 POP SWAP3 SWAP2 POP POP JUMP JUMPDEST PUSH32 0x4E487B7100000000000000000000000000000000000000000000000000000000 PUSH1 0x0 MSTORE PUSH1 0x32 PUSH1 0x4 MSTORE PUSH1 0x24 PUSH1 0x0 REVERT JUMPDEST PUSH1 0x0 PUSH2 0x4D55 DUP3 PUSH2 0x47E7 JUMP JUMPDEST SWAP2 POP PUSH32 0xFFFFFFFFFFFFFFFFFFFFFFFFFFFFFFFFFFFFFFFFFFFFFFFFFFFFFFFFFFFFFFFF DUP3 SUB PUSH2 0x4D87 JUMPI PUSH2 0x4D86 PUSH2 0x4B6E JUMP JUMPDEST JUMPDEST PUSH1 0x1 DUP3 ADD SWAP1 POP SWAP2 SWAP1 POP JUMP JUMPDEST PUSH1 0x0 PUSH2 0x4D9D DUP3 PUSH2 0x47E7 JUMP JUMPDEST SWAP2 POP PUSH2 0x4DA8 DUP4 PUSH2 0x47E7 JUMP JUMPDEST SWAP3 POP DUP3 DUP3 ADD SWAP1 POP DUP1 DUP3 GT ISZERO PUSH2 0x4DC0 JUMPI PUSH2 0x4DBF PUSH2 0x4B6E JUMP JUMPDEST JUMPDEST SWAP3 SWAP2 POP POP JUMP JUMPDEST PUSH1 0x0 DUP2 SWAP1 POP SWAP2 SWAP1 POP JUMP JUMPDEST PUSH1 0x0 PUSH2 0x4DDB DUP3 PUSH2 0x4DC6 JUMP JUMPDEST SWAP2 POP PUSH2 0x4DE6 DUP4 PUSH2 0x4DC6 JUMP JUMPDEST SWAP3 POP DUP3 DUP3 ADD SWAP1 POP DUP3 DUP2 SLT ISZERO PUSH1 0x0 DUP4 SLT AND DUP4 DUP3 SLT PUSH1 0x0 DUP5 SLT ISZERO AND OR ISZERO PUSH2 0x4E0E JUMPI PUSH2 0x4E0D PUSH2 0x4B6E JUMP JUMPDEST JUMPDEST SWAP3 SWAP2 POP POP JUMP JUMPDEST PUSH1 0x0 PUSH2 0x4E1F DUP3 PUSH2 0x4DC6 JUMP JUMPDEST SWAP2 POP PUSH2 0x4E2A DUP4 PUSH2 0x4DC6 JUMP JUMPDEST SWAP3 POP DUP3 DUP3 SUB SWAP1 POP DUP2 DUP2 SLT PUSH1 0x0 DUP5 SLT AND DUP3 DUP3 SGT PUSH1 0x0 DUP6 SLT ISZERO AND OR ISZERO PUSH2 0x4E51 JUMPI PUSH2 0x4E50 PUSH2 0x4B6E JUMP JUMPDEST JUMPDEST SWAP3 SWAP2 POP POP JUMP JUMPDEST PUSH1 0x0 PUSH2 0x4E62 DUP3 PUSH2 0x47E7 JUMP JUMPDEST SWAP2 POP PUSH2 0x4E6D DUP4 PUSH2 0x47E7 JUMP JUMPDEST SWAP3 POP DUP3 DUP3 SUB SWAP1 POP DUP2 DUP2 GT ISZERO PUSH2 0x4E85 JUMPI PUSH2 0x4E84 PUSH2 0x4B6E JUMP JUMPDEST JUMPDEST SWAP3 SWAP2 POP POP JUMP JUMPDEST PUSH32 0x4E487B7100000000000000000000000000000000000000000000000000000000 PUSH1 0x0 MSTORE PUSH1 0x22 PUSH1 0x4 MSTORE PUSH1 0x24 PUSH1 0x0 REVERT JUMPDEST PUSH1 0x0 PUSH1 0x2 DUP3 DIV SWAP1 POP PUSH1 0x1 DUP3 AND DUP1 PUSH2 0x4ED2 JUMPI PUSH1 0x7F DUP3 AND SWAP2 POP JUMPDEST PUSH1 0x20 DUP3 LT DUP2 SUB PUSH2 0x4EE5 JUMPI PUSH2 0x4EE4 PUSH2 0x4E8B JUMP JUMPDEST JUMPDEST POP SWAP2 SWAP1 POP JUMP JUMPDEST PUSH32 0x436865636B20737562736372697074696F6E0000000000000000000000000000 PUSH1 0x0 DUP3 ADD MSTORE POP JUMP JUMPDEST PUSH1 0x0 PUSH2 0x4F21 PUSH1 0x12 DUP4 PUSH2 0x4A19 JUMP JUMPDEST SWAP2 POP PUSH2 0x4F2C DUP3 PUSH2 0x4EEB JUMP JUMPDEST PUSH1 0x20 DUP3 ADD SWAP1 POP SWAP2 SWAP1 POP JUMP JUMPDEST PUSH1 0x0 PUSH1 0x20 DUP3 ADD SWAP1 POP DUP2 DUP2 SUB PUSH1 0x0 DUP4 ADD MSTORE PUSH2 0x4F50 DUP2 PUSH2 0x4F14 JUMP JUMPDEST SWAP1 POP SWAP2 SWAP1 POP JUMP JUMPDEST PUSH1 0x0 PUSH2 0x4F62 DUP3 PUSH2 0x4668 JUMP JUMPDEST SWAP2 POP PUSH2 0x4F6D DUP4 PUSH2 0x4668 JUMP JUMPDEST SWAP3 POP DUP3 DUP3 SUB SWAP1 POP PUSH1 0xFF DUP2 GT ISZERO PUSH2 0x4F86 JUMPI PUSH2 0x4F85 PUSH2 0x4B6E JUMP JUMPDEST JUMPDEST SWAP3 SWAP2 POP POP JUMP JUMPDEST PUSH1 0x0 PUSH2 0x4F97 DUP3 PUSH2 0x4DC6 JUMP JUMPDEST SWAP2 POP PUSH2 0x4FA2 DUP4 PUSH2 0x4DC6 JUMP JUMPDEST SWAP3 POP DUP3 DUP3 MUL PUSH2 0x4FB0 DUP2 PUSH2 0x4DC6 JUMP JUMPDEST SWAP2 POP PUSH32 0x8000000000000000000000000000000000000000000000000000000000000000 DUP5 EQ PUSH1 0x0 DUP5 SLT AND ISZERO PUSH2 0x4FE8 JUMPI PUSH2 0x4FE7 PUSH2 0x4B6E JUMP JUMPDEST JUMPDEST DUP3 DUP3 SDIV DUP5 EQ DUP4 ISZERO OR PUSH2 0x4FFD JUMPI PUSH2 0x4FFC PUSH2 0x4B6E JUMP JUMPDEST JUMPDEST POP SWAP3 SWAP2 POP POP JUMP JUMPDEST PUSH32 0x556E6B6E6F776E206F7220756E737570706F7274656420676174650000000000 PUSH1 0x0 DUP3 ADD MSTORE POP JUMP JUMPDEST PUSH1 0x0 PUSH2 0x503A PUSH1 0x1B DUP4 PUSH2 0x4A19 JUMP JUMPDEST SWAP2 POP PUSH2 0x5045 DUP3 PUSH2 0x5004 JUMP JUMPDEST PUSH1 0x20 DUP3 ADD SWAP1 POP SWAP2 SWAP1 POP JUMP JUMPDEST PUSH1 0x0 PUSH1 0x20 DUP3 ADD SWAP1 POP DUP2 DUP2 SUB PUSH1 0x0 DUP4 ADD MSTORE PUSH2 0x5069 DUP2 PUSH2 0x502D JUMP JUMPDEST SWAP1 POP SWAP2 SWAP1 POP JUMP JUMPDEST PUSH1 0x0 PUSH1 0x60 DUP3 ADD SWAP1 POP PUSH2 0x5085 PUSH1 0x0 DUP4 ADD DUP7 PUSH2 0x488C JUMP JUMPDEST PUSH2 0x5092 PUSH1 0x20 DUP4 ADD DUP6 PUSH2 0x488C JUMP JUMPDEST PUSH2 0x509F PUSH1 0x40 DUP4 ADD DUP5 PUSH2 0x488C JUMP JUMPDEST SWAP5 SWAP4 POP POP POP POP JUMP JUMPDEST PUSH32 0x4E487B7100000000000000000000000000000000000000000000000000000000 PUSH1 0x0 MSTORE PUSH1 0x12 PUSH1 0x4 MSTORE PUSH1 0x24 PUSH1 0x0 REVERT JUMPDEST PUSH1 0x0 PUSH2 0x50E1 DUP3 PUSH2 0x47E7 JUMP JUMPDEST SWAP2 POP PUSH2 0x50EC DUP4 PUSH2 0x47E7 JUMP JUMPDEST SWAP3 POP DUP3 PUSH2 0x50FC JUMPI PUSH2 0x50FB PUSH2 0x50A7 JUMP JUMPDEST JUMPDEST DUP3 DUP3 MOD SWAP1 POP SWAP3 SWAP2 POP POP JUMP INVALID LOG2 PUSH5 0x6970667358 0x22 SLT KECCAK256 LT 0x4F SWAP10 0xD4 SWAP9 DUP8 SIGNEXTEND 0xC7 0xE2 SSTORE 0x1F SWAP15 0xC2 0xC9 CALLDATALOAD 0x2A DUP5 0xC2 CODESIZE DUP14 0xFC PUSH29 0x6910F2EA707A2F3C989864736F6C634300081100330000000000000000 "},"methodIdentifiers":{"gatesNames(uint256)":"48e20f0b","getGatesNames()":"17d2a5f2","getName()":"17d7de7c","getNumberOfQubits()":"4b50623c","isQPU()":"61c0fae8","isSimulator()":"55c1e953","owner()":"8da5cb5b","runQScript(uint8,string,uint256)":"16a832bf"}}}}}