{"contracts/QuantumBackendContract.sol":{"QuantumBackendContract":{"abi":[{"inputs":[],"stateMutability":"nonpayable","type":"constructor"},{"inputs":[{"internalType":"uint256","name":"","type":"uint256"}],"name":"gatesNames","outputs":[{"internalType":"string","name":"","type":"string"}],"stateMutability":"view","type":"function"},{"inputs":[],"name":"getGatesNames","outputs":[{"internalType":"string[]","name":"","type":"string[]"}],"stateMutability":"view","type":"function"},{"inputs":[],"name":"getName","outputs":[{"internalType":"string","name":"","type":"string"}],"stateMutability":"pure","type":"function"},{"inputs":[],"name":"getNumberOfQubits","outputs":[{"internalType":"uint8","name":"","type":"uint8"}],"stateMutability":"pure","type":"function"},{"inputs":[],"name":"isQPU","outputs":[{"internalType":"bool","name":"","type":"bool"}],"stateMutability":"pure","type":"function"},{"inputs":[],"name":"isSimulator","outputs":[{"internalType":"bool","name":"","type":"bool"}],"stateMutability":"pure","type":"function"},{"inputs":[],"name":"owner","outputs":[{"internalType":"address","name":"","type":"address"}],"stateMutability":"view","type":"function"},{"inputs":[{"internalType":"uint8","name":"numQubits","type":"uint8"},{"internalType":"string","name":"s","type":"string"},{"internalType":"uint256","name":"randomSeed","type":"uint256"}],"name":"runQScript","outputs":[{"internalType":"uint256","name":"","type":"uint256"}],"stateMutability":"view","type":"function"}],"evm":{"bytecode":{"linkReferences":{},"object":"60806040526040518061020001604052806040518060400160405280600181526020017f480000000000000000000000000000000000000000000000000000000000000081525081526020016040518060400160405280600181526020017f490000000000000000000000000000000000000000000000000000000000000081525081526020016040518060400160405280600281526020017f434e00000000000000000000000000000000000000000000000000000000000081525081526020016040518060400160405280600381526020017f43434e000000000000000000000000000000000000000000000000000000000081525081526020016040518060400160405280600181526020017f580000000000000000000000000000000000000000000000000000000000000081525081526020016040518060400160405280600181526020017f590000000000000000000000000000000000000000000000000000000000000081525081526020016040518060400160405280600181526020017f5a0000000000000000000000000000000000000000000000000000000000000081525081526020016040518060400160405280600381526020017f503435000000000000000000000000000000000000000000000000000000000081525081526020016040518060400160405280600381526020017f703435000000000000000000000000000000000000000000000000000000000081525081526020016040518060400160405280600181526020017f540000000000000000000000000000000000000000000000000000000000000081525081526020016040518060400160405280600181526020017f740000000000000000000000000000000000000000000000000000000000000081525081526020016040518060400160405280600481526020017f435034350000000000000000000000000000000000000000000000000000000081525081526020016040518060400160405280600481526020017f437034350000000000000000000000000000000000000000000000000000000081525081526020016040518060400160405280600281526020017f435400000000000000000000000000000000000000000000000000000000000081525081526020016040518060400160405280600281526020017f437400000000000000000000000000000000000000000000000000000000000081525081526020016040518060400160405280600181526020017f6d000000000000000000000000000000000000000000000000000000000000008152508152506001906010620003d092919062000425565b50348015620003de57600080fd5b50336000806101000a81548173ffffffffffffffffffffffffffffffffffffffff021916908373ffffffffffffffffffffffffffffffffffffffff16021790555062000873565b82805482825590600052602060002090810192821562000472579160200282015b82811115620004715782518290816200046091906200078c565b509160200191906001019062000446565b5b50905062000481919062000485565b5090565b5b80821115620004a957600081816200049f9190620004ad565b5060010162000486565b5090565b508054620004bb906200057b565b6000825580601f10620004cf5750620004f0565b601f016020900490600052602060002090810190620004ef9190620004f3565b5b50565b5b808211156200050e576000816000905550600101620004f4565b5090565b600081519050919050565b7f4e487b7100000000000000000000000000000000000000000000000000000000600052604160045260246000fd5b7f4e487b7100000000000000000000000000000000000000000000000000000000600052602260045260246000fd5b600060028204905060018216806200059457607f821691505b602082108103620005aa57620005a96200054c565b5b50919050565b60008190508160005260206000209050919050565b60006020601f8301049050919050565b600082821b905092915050565b600060088302620006147fffffffffffffffffffffffffffffffffffffffffffffffffffffffffffffffff82620005d5565b620006208683620005d5565b95508019841693508086168417925050509392505050565b6000819050919050565b6000819050919050565b60006200066d62000667620006618462000638565b62000642565b62000638565b9050919050565b6000819050919050565b62000689836200064c565b620006a1620006988262000674565b848454620005e2565b825550505050565b600090565b620006b8620006a9565b620006c58184846200067e565b505050565b5b81811015620006ed57620006e1600082620006ae565b600181019050620006cb565b5050565b601f8211156200073c576200070681620005b0565b6200071184620005c5565b8101602085101562000721578190505b620007396200073085620005c5565b830182620006ca565b50505b505050565b600082821c905092915050565b6000620007616000198460080262000741565b1980831691505092915050565b60006200077c83836200074e565b9150826002028217905092915050565b620007978262000512565b67ffffffffffffffff811115620007b357620007b26200051d565b5b620007bf82546200057b565b620007cc828285620006f1565b600060209050601f831160018114620008045760008415620007ef578287015190505b620007fb85826200076e565b8655506200086b565b601f1984166200081486620005b0565b60005b828110156200083e5784890151825560018201915060208501945060208101905062000817565b868310156200085e57848901516200085a601f8916826200074e565b8355505b6001600288020188555050505b505050505050565b61517880620008836000396000f3fe608060405234801561001057600080fd5b50600436106100885760003560e01c80634b50623c1161005b5780634b50623c1461012957806355c1e9531461014757806361c0fae8146101655780638da5cb5b1461018357610088565b806316a832bf1461008d57806317d2a5f2146100bd57806317d7de7c146100db57806348e20f0b146100f9575b600080fd5b6100a760048036038101906100a29190614858565b6101a1565b6040516100b491906148d6565b60405180910390f35b6100c561082d565b6040516100d29190614a32565b60405180910390f35b6100e3610906565b6040516100f09190614a9e565b60405180910390f35b610113600480360381019061010e9190614ac0565b610943565b6040516101209190614a9e565b60405180910390f35b6101316109ef565b60405161013e9190614afc565b60405180910390f35b61014f6109f8565b60405161015c9190614b32565b60405180910390f35b61016d610a01565b60405161017a9190614b32565b60405180910390f35b61018b610a06565b6040516101989190614b8e565b60405180910390f35b60006101ab6145f4565b606060008060008080895190506101c18b610a2a565b50600092505b8a60026101d49190614d0b565b8310156102d157600087602001518461010081106101f5576101f4614d56565b5b602002015160016002811061020d5761020c614d56565b5b6020020181815250876020015184610100811061022d5761022c614d56565b5b602002015160006002811061024557610244614d56565b5b6020020181815250876000015184610100811061026557610264614d56565b5b602002015160016002811061027d5761027c614d56565b5b6020020181815250876000015184610100811061029d5761029c614d56565b5b60200201516000600281106102b5576102b4614d56565b5b60200201818152505082806102c990614d85565b9350506101c7565b60018760000151600061010081106102ec576102eb614d56565b5b602002015160006002811061030457610303614d56565b5b6020020181815250508a60ff1667ffffffffffffffff81111561032a576103296146f7565b5b6040519080825280602002602001820160405280156103585781602001602082028036833780820191505090505b509550600092505b8361058e57808b60ff16846103759190614dcd565b1115610416577f2e000000000000000000000000000000000000000000000000000000000000007effffffffffffffffffffffffffffffffffffffffffffffffffffffffffffff19168a84815181106103d1576103d0614d56565b5b602001015160f81c60f81b7effffffffffffffffffffffffffffffffffffffffffffffffffffffffffffff19160361040c5760019350610411565b600193505b610589565b600091505b8a60ff168210156104c85789838061043290614d85565b94508151811061044557610444614d56565b5b602001015160f81c60f81b86838151811061046357610462614d56565b5b60200260200101907effffffffffffffffffffffffffffffffffffffffffffffffffffffffffffff191690817effffffffffffffffffffffffffffffffffffffffffffffffffffffffffffff19168152505081806104c090614d85565b92505061041b565b6104d48b87898c610a7f565b9a5080831015610583577f2e000000000000000000000000000000000000000000000000000000000000007effffffffffffffffffffffffffffffffffffffffffffffffffffffffffffff19168a848151811061053457610533614d56565b5b602001015160f81c60f81b7effffffffffffffffffffffffffffffffffffffffffffffffffffffffffffff19160361056f576001935061057e565b828061057a90614d85565b9350505b610588565b600193505b5b610360565b60009250600091505b8a60026105a49190614d0b565b82101561077057600087600001518361010081106105c5576105c4614d56565b5b60200201516000600281106105dd576105dc614d56565b5b60200201511215610663578660000151826101008110610600576105ff614d56565b5b602002015160006002811061061857610617614d56565b5b602002015160006106299190614e0b565b876000015183610100811061064157610640614d56565b5b602002015160006002811061065957610658614d56565b5b6020020181815250505b6000876020015183610100811061067d5761067c614d56565b5b602002015160006002811061069557610694614d56565b5b6020020151121561071b5786602001518261010081106106b8576106b7614d56565b5b60200201516000600281106106d0576106cf614d56565b5b602002015160006106e19190614e0b565b87602001518361010081106106f9576106f8614d56565b5b602002015160006002811061071157610710614d56565b5b6020020181815250505b866000015182610100811061073357610732614d56565b5b602002015160006002811061074b5761074a614d56565b5b60200201518361075b9190614dcd565b9250818061076890614d85565b925050610597565b600161077c848b6124ce565b6107869190614dcd565b9150600094505b86600001518561010081106107a5576107a4614d56565b5b60200201516000600281106107bd576107bc614d56565b5b602002015182111561081c57866000015185806107d990614d85565b965061010081106107ed576107ec614d56565b5b602002015160006002811061080557610804614d56565b5b6020020151826108159190614e4e565b915061078d565b849750505050505050509392505050565b60606001805480602002602001604051908101604052809291908181526020016000905b828210156108fd57838290600052602060002001805461087090614eb1565b80601f016020809104026020016040519081016040528092919081815260200182805461089c90614eb1565b80156108e95780601f106108be576101008083540402835291602001916108e9565b820191906000526020600020905b8154815290600101906020018083116108cc57829003601f168201915b505050505081526020019060010190610851565b50505050905090565b60606040518060400160405280600f81526020017f70716365655f73696d756c61746f720000000000000000000000000000000000815250905090565b6001818154811061095357600080fd5b90600052602060002001600091509050805461096e90614eb1565b80601f016020809104026020016040519081016040528092919081815260200182805461099a90614eb1565b80156109e75780601f106109bc576101008083540402835291602001916109e7565b820191906000526020600020905b8154815290600101906020018083116109ca57829003601f168201915b505050505081565b60006008905090565b60006001905090565b600090565b60008054906101000a900473ffffffffffffffffffffffffffffffffffffffff1681565b6000600860ff168260ff161115610a76576040517f08c379a0000000000000000000000000000000000000000000000000000000008152600401610a6d90614f2e565b60405180910390fd5b60009050919050565b600080600080600080896002610a959190614d0b565b90506001945060018a610aa89190614f4e565b60ff1685901b9450600093505b8960ff168410156123aa576000808360ff1614610ad3576000610ad6565b60015b9050600093505b81841015610b6f5760008960200151856101008110610aff57610afe614d56565b5b60200201518260ff1660028110610b1957610b18614d56565b5b60200201818152508960000151856101008110610b3957610b38614d56565b5b60200201518260ff1660028110610b5357610b52614d56565b5b6020020181815250508380610b6790614d85565b945050610add565b7f48000000000000000000000000000000000000000000000000000000000000007effffffffffffffffffffffffffffffffffffffffffffffffffffffffffffff19168a8681518110610bc557610bc4614d56565b5b60200260200101517effffffffffffffffffffffffffffffffffffffffffffffffffffffffffffff191603610ca857600093505b81841015610ca35760008960000151856101008110610c1b57610c1a614d56565b5b60200201518460ff1660028110610c3557610c34614d56565b5b6020020151141580610c7e575060008960200151856101008110610c5c57610c5b614d56565b5b60200201518460ff1660028110610c7657610c75614d56565b5b602002015114155b15610c9057610c8f86858b86612516565b5b8380610c9b90614d85565b945050610bf9565b61238c565b7f49000000000000000000000000000000000000000000000000000000000000007effffffffffffffffffffffffffffffffffffffffffffffffffffffffffffff19168a8681518110610cfe57610cfd614d56565b5b60200260200101517effffffffffffffffffffffffffffffffffffffffffffffffffffffffffffff19161480610db157507f43000000000000000000000000000000000000000000000000000000000000007effffffffffffffffffffffffffffffffffffffffffffffffffffffffffffff19168a8681518110610d8557610d84614d56565b5b60200260200101517effffffffffffffffffffffffffffffffffffffffffffffffffffffffffffff1916145b15610e6957600093505b81841015610e645760008960000151856101008110610ddd57610ddc614d56565b5b60200201518460ff1660028110610df757610df6614d56565b5b6020020151141580610e40575060008960200151856101008110610e1e57610e1d614d56565b5b60200201518460ff1660028110610e3857610e37614d56565b5b602002015114155b15610e5157610e50848a85612985565b5b8380610e5c90614d85565b945050610dbb565b61238b565b7f58000000000000000000000000000000000000000000000000000000000000007effffffffffffffffffffffffffffffffffffffffffffffffffffffffffffff19168a8681518110610ebf57610ebe614d56565b5b60200260200101517effffffffffffffffffffffffffffffffffffffffffffffffffffffffffffff191603610fa257600093505b81841015610f9d5760008960000151856101008110610f1557610f14614d56565b5b60200201518460ff1660028110610f2f57610f2e614d56565b5b6020020151141580610f78575060008960200151856101008110610f5657610f55614d56565b5b60200201518460ff1660028110610f7057610f6f614d56565b5b602002015114155b15610f8a57610f8986858b86612aa5565b5b8380610f9590614d85565b945050610ef3565b61238a565b7f59000000000000000000000000000000000000000000000000000000000000007effffffffffffffffffffffffffffffffffffffffffffffffffffffffffffff19168a8681518110610ff857610ff7614d56565b5b60200260200101517effffffffffffffffffffffffffffffffffffffffffffffffffffffffffffff1916036110db57600093505b818410156110d6576000896000015185610100811061104e5761104d614d56565b5b60200201518460ff166002811061106857611067614d56565b5b60200201511415806110b157506000896020015185610100811061108f5761108e614d56565b5b60200201518460ff16600281106110a9576110a8614d56565b5b602002015114155b156110c3576110c286858b86612d04565b5b83806110ce90614d85565b94505061102c565b612389565b7f5a000000000000000000000000000000000000000000000000000000000000007effffffffffffffffffffffffffffffffffffffffffffffffffffffffffffff19168a868151811061113157611130614d56565b5b60200260200101517effffffffffffffffffffffffffffffffffffffffffffffffffffffffffffff19160361121457600093505b8184101561120f576000896000015185610100811061118757611186614d56565b5b60200201518460ff16600281106111a1576111a0614d56565b5b60200201511415806111ea5750600089602001518561010081106111c8576111c7614d56565b5b60200201518460ff16600281106111e2576111e1614d56565b5b602002015114155b156111fc576111fb86858b86612f7b565b5b838061120790614d85565b945050611165565b612388565b7f6d000000000000000000000000000000000000000000000000000000000000007effffffffffffffffffffffffffffffffffffffffffffffffffffffffffffff19168a868151811061126a57611269614d56565b5b60200260200101517effffffffffffffffffffffffffffffffffffffffffffffffffffffffffffff19160361189a5760008094505b828510156115df5789600001518561010081106112bf576112be614d56565b5b60200201518460ff16600281106112d9576112d8614d56565b5b60200201518a600001518661010081106112f6576112f5614d56565b5b60200201518360ff16600281106113105761130f614d56565b5b60200201818152505060008a6000015186610100811061133357611332614d56565b5b60200201518360ff166002811061134d5761134c614d56565b5b602002015112156113d75789600001518561010081106113705761136f614d56565b5b60200201518260ff166002811061138a57611389614d56565b5b6020020151600061139b9190614e0b565b8a600001518661010081106113b3576113b2614d56565b5b60200201518360ff16600281106113cd576113cc614d56565b5b6020020181815250505b89602001518561010081106113ef576113ee614d56565b5b60200201518460ff166002811061140957611408614d56565b5b60200201518a6020015186610100811061142657611425614d56565b5b60200201518360ff16600281106114405761143f614d56565b5b60200201818152505060008a6020015186610100811061146357611462614d56565b5b60200201518360ff166002811061147d5761147c614d56565b5b602002015112156115075789602001518561010081106114a05761149f614d56565b5b60200201518260ff16600281106114ba576114b9614d56565b5b602002015160006114cb9190614e0b565b8a602001518661010081106114e3576114e2614d56565b5b60200201518360ff16600281106114fd576114fc614d56565b5b6020020181815250505b896020015185610100811061151f5761151e614d56565b5b60200201518260ff166002811061153957611538614d56565b5b60200201518a6000015186610100811061155657611555614d56565b5b60200201518360ff16600281106115705761156f614d56565b5b602002018181516115819190614f83565b9150818152505089600001518561010081106115a05761159f614d56565b5b60200201518260ff16600281106115ba576115b9614d56565b5b6020020151816115ca9190614dcd565b905084806115d790614d85565b95505061129f565b60016115eb828b6124ce565b6115f59190614dcd565b9450600090505b896000015181610100811061161457611613614d56565b5b60200201518260ff166002811061162e5761162d614d56565b5b602002015185111561168f578960000151818061164a90614d85565b9250610100811061165e5761165d614d56565b5b60200201518260ff166002811061167857611677614d56565b5b6020020151856116889190614e4e565b94506115fc565b600094505b828510156117265760008a602001518661010081106116b6576116b5614d56565b5b60200201518360ff16600281106116d0576116cf614d56565b5b60200201818152508a600001518661010081106116f0576116ef614d56565b5b60200201518360ff166002811061170a57611709614d56565b5b602002018181525050848061171e90614d85565b955050611694565b6000878216036117e457600094505b828510156117df5760008a6000015186610100811061175757611756614d56565b5b60200201518560ff166002811061177157611770614d56565b5b60200201511415806117ba575060008a6020015186610100811061179857611797614d56565b5b60200201518560ff16600281106117b2576117b1614d56565b5b602002015114155b156117cc576117cb87868c876131c6565b5b84806117d790614d85565b955050611735565b611894565b600094505b828510156118935760008a6000015186610100811061180b5761180a614d56565b5b60200201518560ff166002811061182557611824614d56565b5b602002015114158061186e575060008a6020015186610100811061184c5761184b614d56565b5b60200201518560ff166002811061186657611865614d56565b5b602002015114155b156118805761187f87868c876132f2565b5b848061188b90614d85565b9550506117e9565b5b50612387565b7f4e000000000000000000000000000000000000000000000000000000000000007effffffffffffffffffffffffffffffffffffffffffffffffffffffffffffff19168a86815181106118f0576118ef614d56565b5b60200260200101517effffffffffffffffffffffffffffffffffffffffffffffffffffffffffffff191603611ab05760006001905060018c6119329190614f4e565b60ff1681901b905060008095505b8c60ff168610156119f9577f43000000000000000000000000000000000000000000000000000000000000007effffffffffffffffffffffffffffffffffffffffffffffffffffffffffffff19168c87815181106119a1576119a0614d56565b5b60200260200101517effffffffffffffffffffffffffffffffffffffffffffffffffffffffffffff1916036119df5781816119dc9190614dcd565b90505b600182901c915085806119f190614d85565b965050611940565b600095505b83861015611aa95760008b60000151876101008110611a2057611a1f614d56565b5b60200201518660ff1660028110611a3a57611a39614d56565b5b6020020151141580611a83575060008b60200151876101008110611a6157611a60614d56565b5b60200201518660ff1660028110611a7b57611a7a614d56565b5b602002015114155b15611a9657611a958189888e8961341d565b5b8580611aa190614d85565b9650506119fe565b5050612386565b7f50000000000000000000000000000000000000000000000000000000000000007effffffffffffffffffffffffffffffffffffffffffffffffffffffffffffff19168a8681518110611b0657611b05614d56565b5b60200260200101517effffffffffffffffffffffffffffffffffffffffffffffffffffffffffffff19161480611bb957507f70000000000000000000000000000000000000000000000000000000000000007effffffffffffffffffffffffffffffffffffffffffffffffffffffffffffff19168a8681518110611b8d57611b8c614d56565b5b60200260200101517effffffffffffffffffffffffffffffffffffffffffffffffffffffffffffff1916145b15611de75760006001905060018c611bd19190614f4e565b60ff1681901b905060008095505b8c60ff16861015611c98577f43000000000000000000000000000000000000000000000000000000000000007effffffffffffffffffffffffffffffffffffffffffffffffffffffffffffff19168c8781518110611c4057611c3f614d56565b5b60200260200101517effffffffffffffffffffffffffffffffffffffffffffffffffffffffffffff191603611c7e578181611c7b9190614dcd565b90505b600182901c91508580611c9090614d85565b965050611bdf565b600095505b83861015611de05760008b60000151876101008110611cbf57611cbe614d56565b5b60200201518660ff1660028110611cd957611cd8614d56565b5b6020020151141580611d22575060008b60200151876101008110611d0057611cff614d56565b5b60200201518660ff1660028110611d1a57611d19614d56565b5b602002015114155b15611dcd577f50000000000000000000000000000000000000000000000000000000000000007effffffffffffffffffffffffffffffffffffffffffffffffffffffffffffff19168c8881518110611d7d57611d7c614d56565b5b60200260200101517effffffffffffffffffffffffffffffffffffffffffffffffffffffffffffff191603611dbe57611db98189888e8961379c565b611dcc565b611dcb8189888e89613aed565b5b5b8580611dd890614d85565b965050611c9d565b5050612385565b7f54000000000000000000000000000000000000000000000000000000000000007effffffffffffffffffffffffffffffffffffffffffffffffffffffffffffff19168a8681518110611e3d57611e3c614d56565b5b60200260200101517effffffffffffffffffffffffffffffffffffffffffffffffffffffffffffff19161480611ef057507f74000000000000000000000000000000000000000000000000000000000000007effffffffffffffffffffffffffffffffffffffffffffffffffffffffffffff19168a8681518110611ec457611ec3614d56565b5b60200260200101517effffffffffffffffffffffffffffffffffffffffffffffffffffffffffffff1916145b156123495760006001905060018c611f089190614f4e565b60ff1681901b90506000611f1a61461a565b600096505b8d60ff16871015611fd8577f43000000000000000000000000000000000000000000000000000000000000007effffffffffffffffffffffffffffffffffffffffffffffffffffffffffffff19168d8881518110611f8057611f7f614d56565b5b60200260200101517effffffffffffffffffffffffffffffffffffffffffffffffffffffffffffff191603611fbe578282611fbb9190614dcd565b91505b600183901c92508680611fd090614d85565b975050611f1f565b60009250600096505b848710156121be57600081886101008110611fff57611ffe614d56565b5b602002019060ff16908160ff168152505060008c6000015188610100811061202a57612029614d56565b5b60200201518760ff166002811061204457612043614d56565b5b602002015114158061208d575060008c6020015188610100811061206b5761206a614d56565b5b60200201518760ff166002811061208557612084614d56565b5b602002015114155b156121ab577f54000000000000000000000000000000000000000000000000000000000000007effffffffffffffffffffffffffffffffffffffffffffffffffffffffffffff19168d89815181106120e8576120e7614d56565b5b60200260200101517effffffffffffffffffffffffffffffffffffffffffffffffffffffffffffff19160361214e57612124828a898f8a613e3e565b8188610100811061213857612137614d56565b5b602002019060ff16908160ff1681525050612181565b61215b828a898f8a614213565b8188610100811061216f5761216e614d56565b5b602002019060ff16908160ff16815250505b60008188610100811061219757612196614d56565b5b602002015160ff1611156121aa57600192505b5b86806121b690614d85565b975050611fe1565b600083111561234157600096505b84871015612340576000818861010081106121ea576121e9614d56565b5b602002015160ff160361229457600a8c6000015188610100811061221157612210614d56565b5b60200201518560ff166002811061222b5761222a614d56565b5b6020020181815161223c9190614fc7565b91508181525050600a8c6020015188610100811061225d5761225c614d56565b5b60200201518560ff166002811061227757612276614d56565b5b602002018181516122889190614fc7565b9150818152505061232d565b60078c600001518861010081106122ae576122ad614d56565b5b60200201518560ff16600281106122c8576122c7614d56565b5b602002018181516122d99190614fc7565b9150818152505060078c602001518861010081106122fa576122f9614d56565b5b60200201518560ff166002811061231457612313614d56565b5b602002018181516123259190614fc7565b915081815250505b868061233890614d85565b9750506121cc565b5b505050612384565b6040517f08c379a000000000000000000000000000000000000000000000000000000000815260040161237b9061508b565b60405180910390fd5b5b5b5b5b5b5b5b5b600186901c95508092505083806123a290614d85565b945050610ab5565b60018260ff16036124be57600092505b8960026123c79190614d0b565b8310156124bd5787600001518361010081106123e6576123e5614d56565b5b60200201516001600281106123fe576123fd614d56565b5b6020020151886000015184610100811061241b5761241a614d56565b5b602002015160006002811061243357612432614d56565b5b602002018181525050876020015183610100811061245457612453614d56565b5b602002015160016002811061246c5761246b614d56565b5b6020020151886020015184610100811061248957612488614d56565b5b60200201516000600281106124a1576124a0614d56565b5b60200201818152505082806124b590614d85565b9350506123ba565b5b8995505050505050949350505050565b6000804342846040516020016124e6939291906150ab565b6040516020818303038152906040528051906020012060001c9050838161250d9190615111565b91505092915050565b6000808260ff161461252957600061252c565b60015b90506000848616146127635782600001518461010081106125505761254f614d56565b5b60200201518260ff166002811061256a57612569614d56565b5b6020020151836000015186866125809190614e4e565b610100811061259257612591614d56565b5b60200201518260ff16600281106125ac576125ab614d56565b5b602002018181516125bd9190614f83565b9150818152505082602001518461010081106125dc576125db614d56565b5b60200201518260ff16600281106125f6576125f5614d56565b5b60200201518360200151868661260c9190614e4e565b610100811061261e5761261d614d56565b5b60200201518260ff166002811061263857612637614d56565b5b602002018181516126499190614f83565b91508181525050826000015184610100811061266857612667614d56565b5b60200201518260ff166002811061268257612681614d56565b5b602002015160006126939190614e0b565b83600001518561010081106126ab576126aa614d56565b5b60200201518260ff16600281106126c5576126c4614d56565b5b602002018181516126d69190614f83565b9150818152505082602001518461010081106126f5576126f4614d56565b5b60200201518260ff166002811061270f5761270e614d56565b5b6020020151836020015185610100811061272c5761272b614d56565b5b60200201518260ff166002811061274657612745614d56565b5b602002018181516127579190614f83565b9150818152505061297e565b826000015184610100811061277b5761277a614d56565b5b60200201518260ff166002811061279557612794614d56565b5b6020020151836000015186866127ab9190614dcd565b61010081106127bd576127bc614d56565b5b60200201518260ff16600281106127d7576127d6614d56565b5b602002018181516127e89190614f83565b91508181525050826020015184610100811061280757612806614d56565b5b60200201518260ff166002811061282157612820614d56565b5b6020020151836020015186866128379190614dcd565b610100811061284957612848614d56565b5b60200201518260ff166002811061286357612862614d56565b5b602002018181516128749190614f83565b91508181525050826000015184610100811061289357612892614d56565b5b60200201518260ff16600281106128ad576128ac614d56565b5b602002015183600001518561010081106128ca576128c9614d56565b5b60200201518260ff16600281106128e4576128e3614d56565b5b602002018181516128f59190614f83565b91508181525050826020015184610100811061291457612913614d56565b5b60200201518260ff166002811061292e5761292d614d56565b5b6020020151836020015185610100811061294b5761294a614d56565b5b60200201518260ff166002811061296557612964614d56565b5b602002018181516129769190614f83565b915081815250505b5050505050565b6000808260ff161461299857600061299b565b60015b905082600001518461010081106129b5576129b4614d56565b5b60200201518260ff16600281106129cf576129ce614d56565b5b602002015183600001518561010081106129ec576129eb614d56565b5b60200201518260ff1660028110612a0657612a05614d56565b5b60200201818151612a179190614f83565b915081815250508260200151846101008110612a3657612a35614d56565b5b60200201518260ff1660028110612a5057612a4f614d56565b5b60200201518360200151856101008110612a6d57612a6c614d56565b5b60200201518260ff1660028110612a8757612a86614d56565b5b60200201818151612a989190614f83565b9150818152505050505050565b6000808260ff1614612ab8576000612abb565b60015b9050600084861614612be4578260000151846101008110612adf57612ade614d56565b5b60200201518260ff1660028110612af957612af8614d56565b5b602002015183600001518686612b0f9190614e4e565b6101008110612b2157612b20614d56565b5b60200201518260ff1660028110612b3b57612b3a614d56565b5b60200201818151612b4c9190614f83565b915081815250508260200151846101008110612b6b57612b6a614d56565b5b60200201518260ff1660028110612b8557612b84614d56565b5b602002015183602001518686612b9b9190614e4e565b6101008110612bad57612bac614d56565b5b60200201518260ff1660028110612bc757612bc6614d56565b5b60200201818151612bd89190614f83565b91508181525050612cfd565b8260000151846101008110612bfc57612bfb614d56565b5b60200201518260ff1660028110612c1657612c15614d56565b5b602002015183600001518686612c2c9190614dcd565b6101008110612c3e57612c3d614d56565b5b60200201518260ff1660028110612c5857612c57614d56565b5b60200201818151612c699190614f83565b915081815250508260200151846101008110612c8857612c87614d56565b5b60200201518260ff1660028110612ca257612ca1614d56565b5b602002015183602001518686612cb89190614dcd565b6101008110612cca57612cc9614d56565b5b60200201518260ff1660028110612ce457612ce3614d56565b5b60200201818151612cf59190614f83565b915081815250505b5050505050565b6000808260ff1614612d17576000612d1a565b60015b9050600084861614612e4f578260200151846101008110612d3e57612d3d614d56565b5b60200201518260ff1660028110612d5857612d57614d56565b5b60200201516000612d699190614e0b565b83600001518686612d7a9190614dcd565b6101008110612d8c57612d8b614d56565b5b60200201518260ff1660028110612da657612da5614d56565b5b60200201818151612db79190614f83565b915081815250508260000151846101008110612dd657612dd5614d56565b5b60200201518260ff1660028110612df057612def614d56565b5b602002015183602001518686612e069190614dcd565b6101008110612e1857612e17614d56565b5b60200201518260ff1660028110612e3257612e31614d56565b5b60200201818151612e439190614f83565b91508181525050612f74565b8260200151846101008110612e6757612e66614d56565b5b60200201518260ff1660028110612e8157612e80614d56565b5b602002015183600001518686612e979190614e4e565b6101008110612ea957612ea8614d56565b5b60200201518260ff1660028110612ec357612ec2614d56565b5b60200201818151612ed49190614f83565b915081815250508260000151846101008110612ef357612ef2614d56565b5b60200201518260ff1660028110612f0d57612f0c614d56565b5b60200201516000612f1e9190614e0b565b83602001518686612f2f9190614e4e565b6101008110612f4157612f40614d56565b5b60200201518260ff1660028110612f5b57612f5a614d56565b5b60200201818151612f6c9190614f83565b915081815250505b5050505050565b6000808260ff1614612f8e576000612f91565b60015b90506000848616146130bc578260000151846101008110612fb557612fb4614d56565b5b60200201518260ff1660028110612fcf57612fce614d56565b5b60200201516000612fe09190614e0b565b8360000151856101008110612ff857612ff7614d56565b5b60200201518260ff166002811061301257613011614d56565b5b602002018181516130239190614f83565b91508181525050826020015184610100811061304257613041614d56565b5b60200201518260ff166002811061305c5761305b614d56565b5b6020020151600061306d9190614e0b565b836020015185610100811061308557613084614d56565b5b60200201518260ff166002811061309f5761309e614d56565b5b602002018181516130b09190614f83565b915081815250506131bf565b82600001518461010081106130d4576130d3614d56565b5b60200201518260ff16600281106130ee576130ed614d56565b5b6020020151836000015185610100811061310b5761310a614d56565b5b60200201518260ff166002811061312557613124614d56565b5b602002018181516131369190614f83565b91508181525050826020015184610100811061315557613154614d56565b5b60200201518260ff166002811061316f5761316e614d56565b5b6020020151836020015185610100811061318c5761318b614d56565b5b60200201518260ff16600281106131a6576131a5614d56565b5b602002018181516131b79190614f83565b915081815250505b5050505050565b6000808260ff16146131d95760006131dc565b60015b90506000848616036132eb578260000151846101008110613200576131ff614d56565b5b60200201518260ff166002811061321a57613219614d56565b5b6020020151836000015185610100811061323757613236614d56565b5b60200201518260ff166002811061325157613250614d56565b5b602002018181516132629190614f83565b91508181525050826020015184610100811061328157613280614d56565b5b60200201518260ff166002811061329b5761329a614d56565b5b602002015183602001518561010081106132b8576132b7614d56565b5b60200201518260ff16600281106132d2576132d1614d56565b5b602002018181516132e39190614f83565b915081815250505b5050505050565b6000808260ff1614613305576000613308565b60015b9050848486160361341657826000015184610100811061332b5761332a614d56565b5b60200201518260ff166002811061334557613344614d56565b5b6020020151836000015185610100811061336257613361614d56565b5b60200201518260ff166002811061337c5761337b614d56565b5b6020020181815161338d9190614f83565b9150818152505082602001518461010081106133ac576133ab614d56565b5b60200201518260ff16600281106133c6576133c5614d56565b5b602002015183602001518561010081106133e3576133e2614d56565b5b60200201518260ff16600281106133fd576133fc614d56565b5b6020020181815161340e9190614f83565b915081815250505b5050505050565b6000808260ff1614613430576000613433565b60015b905085848716148015613447575060008614155b156136915760008486161461357357826000015184610100811061346e5761346d614d56565b5b60200201518260ff166002811061348857613487614d56565b5b60200201518360000151868661349e9190614e4e565b61010081106134b0576134af614d56565b5b60200201518260ff16600281106134ca576134c9614d56565b5b602002018181516134db9190614f83565b9150818152505082602001518461010081106134fa576134f9614d56565b5b60200201518260ff166002811061351457613513614d56565b5b60200201518360200151868661352a9190614e4e565b610100811061353c5761353b614d56565b5b60200201518260ff166002811061355657613555614d56565b5b602002018181516135679190614f83565b9150818152505061368c565b826000015184610100811061358b5761358a614d56565b5b60200201518260ff16600281106135a5576135a4614d56565b5b6020020151836000015186866135bb9190614dcd565b61010081106135cd576135cc614d56565b5b60200201518260ff16600281106135e7576135e6614d56565b5b602002018181516135f89190614f83565b91508181525050826020015184610100811061361757613616614d56565b5b60200201518260ff166002811061363157613630614d56565b5b6020020151836020015186866136479190614dcd565b610100811061365957613658614d56565b5b60200201518260ff166002811061367357613672614d56565b5b602002018181516136849190614f83565b915081815250505b613794565b82600001518461010081106136a9576136a8614d56565b5b60200201518260ff16600281106136c3576136c2614d56565b5b602002015183600001518561010081106136e0576136df614d56565b5b60200201518260ff16600281106136fa576136f9614d56565b5b6020020181815161370b9190614f83565b91508181525050826020015184610100811061372a57613729614d56565b5b60200201518260ff166002811061374457613743614d56565b5b6020020151836020015185610100811061376157613760614d56565b5b60200201518260ff166002811061377b5761377a614d56565b5b6020020181815161378c9190614f83565b915081815250505b505050505050565b6000808260ff16146137af5760006137b2565b60015b905085848716036139e2576000848616146138da5782602001518461010081106137df576137de614d56565b5b60200201518260ff16600281106137f9576137f8614d56565b5b6020020151600061380a9190614e0b565b836000015185610100811061382257613821614d56565b5b60200201518260ff166002811061383c5761383b614d56565b5b6020020181815161384d9190614f83565b91508181525050826000015184610100811061386c5761386b614d56565b5b60200201518260ff166002811061388657613885614d56565b5b602002015183602001518561010081106138a3576138a2614d56565b5b60200201518260ff16600281106138bd576138bc614d56565b5b602002018181516138ce9190614f83565b915081815250506139dd565b82600001518461010081106138f2576138f1614d56565b5b60200201518260ff166002811061390c5761390b614d56565b5b6020020151836000015185610100811061392957613928614d56565b5b60200201518260ff166002811061394357613942614d56565b5b602002018181516139549190614f83565b91508181525050826020015184610100811061397357613972614d56565b5b60200201518260ff166002811061398d5761398c614d56565b5b602002015183602001518561010081106139aa576139a9614d56565b5b60200201518260ff16600281106139c4576139c3614d56565b5b602002018181516139d59190614f83565b915081815250505b613ae5565b82600001518461010081106139fa576139f9614d56565b5b60200201518260ff1660028110613a1457613a13614d56565b5b60200201518360000151856101008110613a3157613a30614d56565b5b60200201518260ff1660028110613a4b57613a4a614d56565b5b60200201818151613a5c9190614f83565b915081815250508260200151846101008110613a7b57613a7a614d56565b5b60200201518260ff1660028110613a9557613a94614d56565b5b60200201518360200151856101008110613ab257613ab1614d56565b5b60200201518260ff1660028110613acc57613acb614d56565b5b60200201818151613add9190614f83565b915081815250505b505050505050565b6000808260ff1614613b00576000613b03565b60015b90508584871603613d3357600084861614613c2b578260200151846101008110613b3057613b2f614d56565b5b60200201518260ff1660028110613b4a57613b49614d56565b5b60200201518360000151856101008110613b6757613b66614d56565b5b60200201518260ff1660028110613b8157613b80614d56565b5b60200201818151613b929190614f83565b915081815250508260000151846101008110613bb157613bb0614d56565b5b60200201518260ff1660028110613bcb57613bca614d56565b5b60200201516000613bdc9190614e0b565b8360200151856101008110613bf457613bf3614d56565b5b60200201518260ff1660028110613c0e57613c0d614d56565b5b60200201818151613c1f9190614f83565b91508181525050613d2e565b8260000151846101008110613c4357613c42614d56565b5b60200201518260ff1660028110613c5d57613c5c614d56565b5b60200201518360000151856101008110613c7a57613c79614d56565b5b60200201518260ff1660028110613c9457613c93614d56565b5b60200201818151613ca59190614f83565b915081815250508260200151846101008110613cc457613cc3614d56565b5b60200201518260ff1660028110613cde57613cdd614d56565b5b60200201518360200151856101008110613cfb57613cfa614d56565b5b60200201518260ff1660028110613d1557613d14614d56565b5b60200201818151613d269190614f83565b915081815250505b613e36565b8260000151846101008110613d4b57613d4a614d56565b5b60200201518260ff1660028110613d6557613d64614d56565b5b60200201518360000151856101008110613d8257613d81614d56565b5b60200201518260ff1660028110613d9c57613d9b614d56565b5b60200201818151613dad9190614f83565b915081815250508260200151846101008110613dcc57613dcb614d56565b5b60200201518260ff1660028110613de657613de5614d56565b5b60200201518360200151856101008110613e0357613e02614d56565b5b60200201518260ff1660028110613e1d57613e1c614d56565b5b60200201818151613e2e9190614f83565b915081815250505b505050505050565b60008060008360ff1614613e53576000613e56565b60015b90506000878689160361410257600086881614613ffa578460200151866101008110613e8557613e84614d56565b5b60200201518460ff1660028110613e9f57613e9e614d56565b5b60200201518560000151876101008110613ebc57613ebb614d56565b5b60200201518560ff1660028110613ed657613ed5614d56565b5b6020020151613ee59190614e0b565b8560000151876101008110613efd57613efc614d56565b5b60200201518360ff1660028110613f1757613f16614d56565b5b60200201818151613f289190614f83565b915081815250508460200151866101008110613f4757613f46614d56565b5b60200201518460ff1660028110613f6157613f60614d56565b5b60200201518560000151876101008110613f7e57613f7d614d56565b5b60200201518560ff1660028110613f9857613f97614d56565b5b6020020151613fa79190614f83565b8560200151876101008110613fbf57613fbe614d56565b5b60200201518360ff1660028110613fd957613fd8614d56565b5b60200201818151613fea9190614f83565b91508181525050600190506140fd565b846000015186610100811061401257614011614d56565b5b60200201518460ff166002811061402c5761402b614d56565b5b6020020151856000015187610100811061404957614048614d56565b5b60200201518360ff166002811061406357614062614d56565b5b602002018181516140749190614f83565b91508181525050846020015186610100811061409357614092614d56565b5b60200201518460ff16600281106140ad576140ac614d56565b5b602002015185602001518761010081106140ca576140c9614d56565b5b60200201518360ff16600281106140e4576140e3614d56565b5b602002018181516140f59190614f83565b915081815250505b614205565b846000015186610100811061411a57614119614d56565b5b60200201518460ff166002811061413457614133614d56565b5b6020020151856000015187610100811061415157614150614d56565b5b60200201518360ff166002811061416b5761416a614d56565b5b6020020181815161417c9190614f83565b91508181525050846020015186610100811061419b5761419a614d56565b5b60200201518460ff16600281106141b5576141b4614d56565b5b602002015185602001518761010081106141d2576141d1614d56565b5b60200201518360ff16600281106141ec576141eb614d56565b5b602002018181516141fd9190614f83565b915081815250505b809250505095945050505050565b60008060008360ff161461422857600061422b565b60015b9050600087868916036144e3576000868816146143db57846020015186610100811061425a57614259614d56565b5b60200201518460ff166002811061427457614273614d56565b5b6020020151856000015187610100811061429157614290614d56565b5b60200201518560ff16600281106142ab576142aa614d56565b5b60200201516142ba9190614f83565b85600001518761010081106142d2576142d1614d56565b5b60200201518360ff16600281106142ec576142eb614d56565b5b602002018181516142fd9190614f83565b91508181525050846020015186610100811061431c5761431b614d56565b5b60200201518460ff166002811061433657614335614d56565b5b6020020151856000015187610100811061435357614352614d56565b5b60200201518560ff166002811061436d5761436c614d56565b5b6020020151600061437e9190614e0b565b6143889190614f83565b85602001518761010081106143a05761439f614d56565b5b60200201518360ff16600281106143ba576143b9614d56565b5b602002018181516143cb9190614f83565b91508181525050600190506144de565b84600001518661010081106143f3576143f2614d56565b5b60200201518460ff166002811061440d5761440c614d56565b5b6020020151856000015187610100811061442a57614429614d56565b5b60200201518360ff166002811061444457614443614d56565b5b602002018181516144559190614f83565b91508181525050846020015186610100811061447457614473614d56565b5b60200201518460ff166002811061448e5761448d614d56565b5b602002015185602001518761010081106144ab576144aa614d56565b5b60200201518360ff16600281106144c5576144c4614d56565b5b602002018181516144d69190614f83565b915081815250505b6145e6565b84600001518661010081106144fb576144fa614d56565b5b60200201518460ff166002811061451557614514614d56565b5b6020020151856000015187610100811061453257614531614d56565b5b60200201518360ff166002811061454c5761454b614d56565b5b6020020181815161455d9190614f83565b91508181525050846020015186610100811061457c5761457b614d56565b5b60200201518460ff166002811061459657614595614d56565b5b602002015185602001518761010081106145b3576145b2614d56565b5b60200201518360ff16600281106145cd576145cc614d56565b5b602002018181516145de9190614f83565b915081815250505b809250505095945050505050565b604051806040016040528061460761463e565b815260200161461461463e565b81525090565b60405180612000016040528061010090602082028036833780820191505090505090565b604051806120000160405280610100905b61465761466d565b81526020019060019003908161464f5790505090565b6040518060400160405280600290602082028036833780820191505090505090565b6000604051905090565b600080fd5b600080fd5b600060ff82169050919050565b6146b9816146a3565b81146146c457600080fd5b50565b6000813590506146d6816146b0565b92915050565b600080fd5b600080fd5b6000601f19601f8301169050919050565b7f4e487b7100000000000000000000000000000000000000000000000000000000600052604160045260246000fd5b61472f826146e6565b810181811067ffffffffffffffff8211171561474e5761474d6146f7565b5b80604052505050565b600061476161468f565b905061476d8282614726565b919050565b600067ffffffffffffffff82111561478d5761478c6146f7565b5b614796826146e6565b9050602081019050919050565b82818337600083830152505050565b60006147c56147c084614772565b614757565b9050828152602081018484840111156147e1576147e06146e1565b5b6147ec8482856147a3565b509392505050565b600082601f830112614809576148086146dc565b5b81356148198482602086016147b2565b91505092915050565b6000819050919050565b61483581614822565b811461484057600080fd5b50565b6000813590506148528161482c565b92915050565b60008060006060848603121561487157614870614699565b5b600061487f868287016146c7565b935050602084013567ffffffffffffffff8111156148a05761489f61469e565b5b6148ac868287016147f4565b92505060406148bd86828701614843565b9150509250925092565b6148d081614822565b82525050565b60006020820190506148eb60008301846148c7565b92915050565b600081519050919050565b600082825260208201905092915050565b6000819050602082019050919050565b600081519050919050565b600082825260208201905092915050565b60005b8381101561495757808201518184015260208101905061493c565b60008484015250505050565b600061496e8261491d565b6149788185614928565b9350614988818560208601614939565b614991816146e6565b840191505092915050565b60006149a88383614963565b905092915050565b6000602082019050919050565b60006149c8826148f1565b6149d281856148fc565b9350836020820285016149e48561490d565b8060005b85811015614a205784840389528151614a01858261499c565b9450614a0c836149b0565b925060208a019950506001810190506149e8565b50829750879550505050505092915050565b60006020820190508181036000830152614a4c81846149bd565b905092915050565b600082825260208201905092915050565b6000614a708261491d565b614a7a8185614a54565b9350614a8a818560208601614939565b614a93816146e6565b840191505092915050565b60006020820190508181036000830152614ab88184614a65565b905092915050565b600060208284031215614ad657614ad5614699565b5b6000614ae484828501614843565b91505092915050565b614af6816146a3565b82525050565b6000602082019050614b116000830184614aed565b92915050565b60008115159050919050565b614b2c81614b17565b82525050565b6000602082019050614b476000830184614b23565b92915050565b600073ffffffffffffffffffffffffffffffffffffffff82169050919050565b6000614b7882614b4d565b9050919050565b614b8881614b6d565b82525050565b6000602082019050614ba36000830184614b7f565b92915050565b7f4e487b7100000000000000000000000000000000000000000000000000000000600052601160045260246000fd5b60008160011c9050919050565b6000808291508390505b6001851115614c2f57808604811115614c0b57614c0a614ba9565b5b6001851615614c1a5780820291505b8081029050614c2885614bd8565b9450614bef565b94509492505050565b600082614c485760019050614d04565b81614c565760009050614d04565b8160018114614c6c5760028114614c7657614ca5565b6001915050614d04565b60ff841115614c8857614c87614ba9565b5b8360020a915084821115614c9f57614c9e614ba9565b5b50614d04565b5060208310610133831016604e8410600b8410161715614cda5782820a905083811115614cd557614cd4614ba9565b5b614d04565b614ce78484846001614be5565b92509050818404811115614cfe57614cfd614ba9565b5b81810290505b9392505050565b6000614d1682614822565b9150614d21836146a3565b9250614d4e7fffffffffffffffffffffffffffffffffffffffffffffffffffffffffffffffff8484614c38565b905092915050565b7f4e487b7100000000000000000000000000000000000000000000000000000000600052603260045260246000fd5b6000614d9082614822565b91507fffffffffffffffffffffffffffffffffffffffffffffffffffffffffffffffff8203614dc257614dc1614ba9565b5b600182019050919050565b6000614dd882614822565b9150614de383614822565b9250828201905080821115614dfb57614dfa614ba9565b5b92915050565b6000819050919050565b6000614e1682614e01565b9150614e2183614e01565b9250828203905081811260008412168282136000851215161715614e4857614e47614ba9565b5b92915050565b6000614e5982614822565b9150614e6483614822565b9250828203905081811115614e7c57614e7b614ba9565b5b92915050565b7f4e487b7100000000000000000000000000000000000000000000000000000000600052602260045260246000fd5b60006002820490506001821680614ec957607f821691505b602082108103614edc57614edb614e82565b5b50919050565b7f436865636b20737562736372697074696f6e0000000000000000000000000000600082015250565b6000614f18601283614a54565b9150614f2382614ee2565b602082019050919050565b60006020820190508181036000830152614f4781614f0b565b9050919050565b6000614f59826146a3565b9150614f64836146a3565b9250828203905060ff811115614f7d57614f7c614ba9565b5b92915050565b6000614f8e82614e01565b9150614f9983614e01565b925082820190508281121560008312168382126000841215161715614fc157614fc0614ba9565b5b92915050565b6000614fd282614e01565b9150614fdd83614e01565b9250828202614feb81614e01565b91507f8000000000000000000000000000000000000000000000000000000000000000841460008412161561502357615022614ba9565b5b828205841483151761503857615037614ba9565b5b5092915050565b7f556e6b6e6f776e206f7220756e737570706f7274656420676174650000000000600082015250565b6000615075601b83614a54565b91506150808261503f565b602082019050919050565b600060208201905081810360008301526150a481615068565b9050919050565b60006060820190506150c060008301866148c7565b6150cd60208301856148c7565b6150da60408301846148c7565b949350505050565b7f4e487b7100000000000000000000000000000000000000000000000000000000600052601260045260246000fd5b600061511c82614822565b915061512783614822565b925082615137576151366150e2565b5b82820690509291505056fea26469706673582212209da9b6b074cf7ffc006b869092821d7bbb20ab1966f044a1e26d51ce827a0b4b64736f6c63430008110033","opcodes":"PUSH1 0x80 PUSH1 0x40 MSTORE PUSH1 0x40 MLOAD DUP1 PUSH2 0x200 ADD PUSH1 0x40 MSTORE DUP1 PUSH1 0x40 MLOAD DUP1 PUSH1 0x40 ADD PUSH1 0x40 MSTORE DUP1 PUSH1 0x1 DUP2 MSTORE PUSH1 0x20 ADD PUSH32 0x4800000000000000000000000000000000000000000000000000000000000000 DUP2 MSTORE POP DUP2 MSTORE PUSH1 0x20 ADD PUSH1 0x40 MLOAD DUP1 PUSH1 0x40 ADD PUSH1 0x40 MSTORE DUP1 PUSH1 0x1 DUP2 MSTORE PUSH1 0x20 ADD PUSH32 0x4900000000000000000000000000000000000000000000000000000000000000 DUP2 MSTORE POP DUP2 MSTORE PUSH1 0x20 ADD PUSH1 0x40 MLOAD DUP1 PUSH1 0x40 ADD PUSH1 0x40 MSTORE DUP1 PUSH1 0x2 DUP2 MSTORE PUSH1 0x20 ADD PUSH32 0x434E000000000000000000000000000000000000000000000000000000000000 DUP2 MSTORE POP DUP2 MSTORE PUSH1 0x20 ADD PUSH1 0x40 MLOAD DUP1 PUSH1 0x40 ADD PUSH1 0x40 MSTORE DUP1 PUSH1 0x3 DUP2 MSTORE PUSH1 0x20 ADD PUSH32 0x43434E0000000000000000000000000000000000000000000000000000000000 DUP2 MSTORE POP DUP2 MSTORE PUSH1 0x20 ADD PUSH1 0x40 MLOAD DUP1 PUSH1 0x40 ADD PUSH1 0x40 MSTORE DUP1 PUSH1 0x1 DUP2 MSTORE PUSH1 0x20 ADD PUSH32 0x5800000000000000000000000000000000000000000000000000000000000000 DUP2 MSTORE POP DUP2 MSTORE PUSH1 0x20 ADD PUSH1 0x40 MLOAD DUP1 PUSH1 0x40 ADD PUSH1 0x40 MSTORE DUP1 PUSH1 0x1 DUP2 MSTORE PUSH1 0x20 ADD PUSH32 0x5900000000000000000000000000000000000000000000000000000000000000 DUP2 MSTORE POP DUP2 MSTORE PUSH1 0x20 ADD PUSH1 0x40 MLOAD DUP1 PUSH1 0x40 ADD PUSH1 0x40 MSTORE DUP1 PUSH1 0x1 DUP2 MSTORE PUSH1 0x20 ADD PUSH32 0x5A00000000000000000000000000000000000000000000000000000000000000 DUP2 MSTORE POP DUP2 MSTORE PUSH1 0x20 ADD PUSH1 0x40 MLOAD DUP1 PUSH1 0x40 ADD PUSH1 0x40 MSTORE DUP1 PUSH1 0x3 DUP2 MSTORE PUSH1 0x20 ADD PUSH32 0x5034350000000000000000000000000000000000000000000000000000000000 DUP2 MSTORE POP DUP2 MSTORE PUSH1 0x20 ADD PUSH1 0x40 MLOAD DUP1 PUSH1 0x40 ADD PUSH1 0x40 MSTORE DUP1 PUSH1 0x3 DUP2 MSTORE PUSH1 0x20 ADD PUSH32 0x7034350000000000000000000000000000000000000000000000000000000000 DUP2 MSTORE POP DUP2 MSTORE PUSH1 0x20 ADD PUSH1 0x40 MLOAD DUP1 PUSH1 0x40 ADD PUSH1 0x40 MSTORE DUP1 PUSH1 0x1 DUP2 MSTORE PUSH1 0x20 ADD PUSH32 0x5400000000000000000000000000000000000000000000000000000000000000 DUP2 MSTORE POP DUP2 MSTORE PUSH1 0x20 ADD PUSH1 0x40 MLOAD DUP1 PUSH1 0x40 ADD PUSH1 0x40 MSTORE DUP1 PUSH1 0x1 DUP2 MSTORE PUSH1 0x20 ADD PUSH32 0x7400000000000000000000000000000000000000000000000000000000000000 DUP2 MSTORE POP DUP2 MSTORE PUSH1 0x20 ADD PUSH1 0x40 MLOAD DUP1 PUSH1 0x40 ADD PUSH1 0x40 MSTORE DUP1 PUSH1 0x4 DUP2 MSTORE PUSH1 0x20 ADD PUSH32 0x4350343500000000000000000000000000000000000000000000000000000000 DUP2 MSTORE POP DUP2 MSTORE PUSH1 0x20 ADD PUSH1 0x40 MLOAD DUP1 PUSH1 0x40 ADD PUSH1 0x40 MSTORE DUP1 PUSH1 0x4 DUP2 MSTORE PUSH1 0x20 ADD PUSH32 0x4370343500000000000000000000000000000000000000000000000000000000 DUP2 MSTORE POP DUP2 MSTORE PUSH1 0x20 ADD PUSH1 0x40 MLOAD DUP1 PUSH1 0x40 ADD PUSH1 0x40 MSTORE DUP1 PUSH1 0x2 DUP2 MSTORE PUSH1 0x20 ADD PUSH32 0x4354000000000000000000000000000000000000000000000000000000000000 DUP2 MSTORE POP DUP2 MSTORE PUSH1 0x20 ADD PUSH1 0x40 MLOAD DUP1 PUSH1 0x40 ADD PUSH1 0x40 MSTORE DUP1 PUSH1 0x2 DUP2 MSTORE PUSH1 0x20 ADD PUSH32 0x4374000000000000000000000000000000000000000000000000000000000000 DUP2 MSTORE POP DUP2 MSTORE PUSH1 0x20 ADD PUSH1 0x40 MLOAD DUP1 PUSH1 0x40 ADD PUSH1 0x40 MSTORE DUP1 PUSH1 0x1 DUP2 MSTORE PUSH1 0x20 ADD PUSH32 0x6D00000000000000000000000000000000000000000000000000000000000000 DUP2 MSTORE POP DUP2 MSTORE POP PUSH1 0x1 SWAP1 PUSH1 0x10 PUSH3 0x3D0 SWAP3 SWAP2 SWAP1 PUSH3 0x425 JUMP JUMPDEST POP CALLVALUE DUP1 ISZERO PUSH3 0x3DE JUMPI PUSH1 0x0 DUP1 REVERT JUMPDEST POP CALLER PUSH1 0x0 DUP1 PUSH2 0x100 EXP DUP2 SLOAD DUP2 PUSH20 0xFFFFFFFFFFFFFFFFFFFFFFFFFFFFFFFFFFFFFFFF MUL NOT AND SWAP1 DUP4 PUSH20 0xFFFFFFFFFFFFFFFFFFFFFFFFFFFFFFFFFFFFFFFF AND MUL OR SWAP1 SSTORE POP PUSH3 0x873 JUMP JUMPDEST DUP3 DUP1 SLOAD DUP3 DUP3 SSTORE SWAP1 PUSH1 0x0 MSTORE PUSH1 0x20 PUSH1 0x0 KECCAK256 SWAP1 DUP2 ADD SWAP3 DUP3 ISZERO PUSH3 0x472 JUMPI SWAP2 PUSH1 0x20 MUL DUP3 ADD JUMPDEST DUP3 DUP2 GT ISZERO PUSH3 0x471 JUMPI DUP3 MLOAD DUP3 SWAP1 DUP2 PUSH3 0x460 SWAP2 SWAP1 PUSH3 0x78C JUMP JUMPDEST POP SWAP2 PUSH1 0x20 ADD SWAP2 SWAP1 PUSH1 0x1 ADD SWAP1 PUSH3 0x446 JUMP JUMPDEST JUMPDEST POP SWAP1 POP PUSH3 0x481 SWAP2 SWAP1 PUSH3 0x485 JUMP JUMPDEST POP SWAP1 JUMP JUMPDEST JUMPDEST DUP1 DUP3 GT ISZERO PUSH3 0x4A9 JUMPI PUSH1 0x0 DUP2 DUP2 PUSH3 0x49F SWAP2 SWAP1 PUSH3 0x4AD JUMP JUMPDEST POP PUSH1 0x1 ADD PUSH3 0x486 JUMP JUMPDEST POP SWAP1 JUMP JUMPDEST POP DUP1 SLOAD PUSH3 0x4BB SWAP1 PUSH3 0x57B JUMP JUMPDEST PUSH1 0x0 DUP3 SSTORE DUP1 PUSH1 0x1F LT PUSH3 0x4CF JUMPI POP PUSH3 0x4F0 JUMP JUMPDEST PUSH1 0x1F ADD PUSH1 0x20 SWAP1 DIV SWAP1 PUSH1 0x0 MSTORE PUSH1 0x20 PUSH1 0x0 KECCAK256 SWAP1 DUP2 ADD SWAP1 PUSH3 0x4EF SWAP2 SWAP1 PUSH3 0x4F3 JUMP JUMPDEST JUMPDEST POP JUMP JUMPDEST JUMPDEST DUP1 DUP3 GT ISZERO PUSH3 0x50E JUMPI PUSH1 0x0 DUP2 PUSH1 0x0 SWAP1 SSTORE POP PUSH1 0x1 ADD PUSH3 0x4F4 JUMP JUMPDEST POP SWAP1 JUMP JUMPDEST PUSH1 0x0 DUP2 MLOAD SWAP1 POP SWAP2 SWAP1 POP JUMP JUMPDEST PUSH32 0x4E487B7100000000000000000000000000000000000000000000000000000000 PUSH1 0x0 MSTORE PUSH1 0x41 PUSH1 0x4 MSTORE PUSH1 0x24 PUSH1 0x0 REVERT JUMPDEST PUSH32 0x4E487B7100000000000000000000000000000000000000000000000000000000 PUSH1 0x0 MSTORE PUSH1 0x22 PUSH1 0x4 MSTORE PUSH1 0x24 PUSH1 0x0 REVERT JUMPDEST PUSH1 0x0 PUSH1 0x2 DUP3 DIV SWAP1 POP PUSH1 0x1 DUP3 AND DUP1 PUSH3 0x594 JUMPI PUSH1 0x7F DUP3 AND SWAP2 POP JUMPDEST PUSH1 0x20 DUP3 LT DUP2 SUB PUSH3 0x5AA JUMPI PUSH3 0x5A9 PUSH3 0x54C JUMP JUMPDEST JUMPDEST POP SWAP2 SWAP1 POP JUMP JUMPDEST PUSH1 0x0 DUP2 SWAP1 POP DUP2 PUSH1 0x0 MSTORE PUSH1 0x20 PUSH1 0x0 KECCAK256 SWAP1 POP SWAP2 SWAP1 POP JUMP JUMPDEST PUSH1 0x0 PUSH1 0x20 PUSH1 0x1F DUP4 ADD DIV SWAP1 POP SWAP2 SWAP1 POP JUMP JUMPDEST PUSH1 0x0 DUP3 DUP3 SHL SWAP1 POP SWAP3 SWAP2 POP POP JUMP JUMPDEST PUSH1 0x0 PUSH1 0x8 DUP4 MUL PUSH3 0x614 PUSH32 0xFFFFFFFFFFFFFFFFFFFFFFFFFFFFFFFFFFFFFFFFFFFFFFFFFFFFFFFFFFFFFFFF DUP3 PUSH3 0x5D5 JUMP JUMPDEST PUSH3 0x620 DUP7 DUP4 PUSH3 0x5D5 JUMP JUMPDEST SWAP6 POP DUP1 NOT DUP5 AND SWAP4 POP DUP1 DUP7 AND DUP5 OR SWAP3 POP POP POP SWAP4 SWAP3 POP POP POP JUMP JUMPDEST PUSH1 0x0 DUP2 SWAP1 POP SWAP2 SWAP1 POP JUMP JUMPDEST PUSH1 0x0 DUP2 SWAP1 POP SWAP2 SWAP1 POP JUMP JUMPDEST PUSH1 0x0 PUSH3 0x66D PUSH3 0x667 PUSH3 0x661 DUP5 PUSH3 0x638 JUMP JUMPDEST PUSH3 0x642 JUMP JUMPDEST PUSH3 0x638 JUMP JUMPDEST SWAP1 POP SWAP2 SWAP1 POP JUMP JUMPDEST PUSH1 0x0 DUP2 SWAP1 POP SWAP2 SWAP1 POP JUMP JUMPDEST PUSH3 0x689 DUP4 PUSH3 0x64C JUMP JUMPDEST PUSH3 0x6A1 PUSH3 0x698 DUP3 PUSH3 0x674 JUMP JUMPDEST DUP5 DUP5 SLOAD PUSH3 0x5E2 JUMP JUMPDEST DUP3 SSTORE POP POP POP POP JUMP JUMPDEST PUSH1 0x0 SWAP1 JUMP JUMPDEST PUSH3 0x6B8 PUSH3 0x6A9 JUMP JUMPDEST PUSH3 0x6C5 DUP2 DUP5 DUP5 PUSH3 0x67E JUMP JUMPDEST POP POP POP JUMP JUMPDEST JUMPDEST DUP2 DUP2 LT ISZERO PUSH3 0x6ED JUMPI PUSH3 0x6E1 PUSH1 0x0 DUP3 PUSH3 0x6AE JUMP JUMPDEST PUSH1 0x1 DUP2 ADD SWAP1 POP PUSH3 0x6CB JUMP JUMPDEST POP POP JUMP JUMPDEST PUSH1 0x1F DUP3 GT ISZERO PUSH3 0x73C JUMPI PUSH3 0x706 DUP2 PUSH3 0x5B0 JUMP JUMPDEST PUSH3 0x711 DUP5 PUSH3 0x5C5 JUMP JUMPDEST DUP2 ADD PUSH1 0x20 DUP6 LT ISZERO PUSH3 0x721 JUMPI DUP2 SWAP1 POP JUMPDEST PUSH3 0x739 PUSH3 0x730 DUP6 PUSH3 0x5C5 JUMP JUMPDEST DUP4 ADD DUP3 PUSH3 0x6CA JUMP JUMPDEST POP POP JUMPDEST POP POP POP JUMP JUMPDEST PUSH1 0x0 DUP3 DUP3 SHR SWAP1 POP SWAP3 SWAP2 POP POP JUMP JUMPDEST PUSH1 0x0 PUSH3 0x761 PUSH1 0x0 NOT DUP5 PUSH1 0x8 MUL PUSH3 0x741 JUMP JUMPDEST NOT DUP1 DUP4 AND SWAP2 POP POP SWAP3 SWAP2 POP POP JUMP JUMPDEST PUSH1 0x0 PUSH3 0x77C DUP4 DUP4 PUSH3 0x74E JUMP JUMPDEST SWAP2 POP DUP3 PUSH1 0x2 MUL DUP3 OR SWAP1 POP SWAP3 SWAP2 POP POP JUMP JUMPDEST PUSH3 0x797 DUP3 PUSH3 0x512 JUMP JUMPDEST PUSH8 0xFFFFFFFFFFFFFFFF DUP2 GT ISZERO PUSH3 0x7B3 JUMPI PUSH3 0x7B2 PUSH3 0x51D JUMP JUMPDEST JUMPDEST PUSH3 0x7BF DUP3 SLOAD PUSH3 0x57B JUMP JUMPDEST PUSH3 0x7CC DUP3 DUP3 DUP6 PUSH3 0x6F1 JUMP JUMPDEST PUSH1 0x0 PUSH1 0x20 SWAP1 POP PUSH1 0x1F DUP4 GT PUSH1 0x1 DUP2 EQ PUSH3 0x804 JUMPI PUSH1 0x0 DUP5 ISZERO PUSH3 0x7EF JUMPI DUP3 DUP8 ADD MLOAD SWAP1 POP JUMPDEST PUSH3 0x7FB DUP6 DUP3 PUSH3 0x76E JUMP JUMPDEST DUP7 SSTORE POP PUSH3 0x86B JUMP JUMPDEST PUSH1 0x1F NOT DUP5 AND PUSH3 0x814 DUP7 PUSH3 0x5B0 JUMP JUMPDEST PUSH1 0x0 JUMPDEST DUP3 DUP2 LT ISZERO PUSH3 0x83E JUMPI DUP5 DUP10 ADD MLOAD DUP3 SSTORE PUSH1 0x1 DUP3 ADD SWAP2 POP PUSH1 0x20 DUP6 ADD SWAP5 POP PUSH1 0x20 DUP2 ADD SWAP1 POP PUSH3 0x817 JUMP JUMPDEST DUP7 DUP4 LT ISZERO PUSH3 0x85E JUMPI DUP5 DUP10 ADD MLOAD PUSH3 0x85A PUSH1 0x1F DUP10 AND DUP3 PUSH3 0x74E JUMP JUMPDEST DUP4 SSTORE POP JUMPDEST PUSH1 0x1 PUSH1 0x2 DUP9 MUL ADD DUP9 SSTORE POP POP POP JUMPDEST POP POP POP POP POP POP JUMP JUMPDEST PUSH2 0x5178 DUP1 PUSH3 0x883 PUSH1 0x0 CODECOPY PUSH1 0x0 RETURN INVALID PUSH1 0x80 PUSH1 0x40 MSTORE CALLVALUE DUP1 ISZERO PUSH2 0x10 JUMPI PUSH1 0x0 DUP1 REVERT JUMPDEST POP PUSH1 0x4 CALLDATASIZE LT PUSH2 0x88 JUMPI PUSH1 0x0 CALLDATALOAD PUSH1 0xE0 SHR DUP1 PUSH4 0x4B50623C GT PUSH2 0x5B JUMPI DUP1 PUSH4 0x4B50623C EQ PUSH2 0x129 JUMPI DUP1 PUSH4 0x55C1E953 EQ PUSH2 0x147 JUMPI DUP1 PUSH4 0x61C0FAE8 EQ PUSH2 0x165 JUMPI DUP1 PUSH4 0x8DA5CB5B EQ PUSH2 0x183 JUMPI PUSH2 0x88 JUMP JUMPDEST DUP1 PUSH4 0x16A832BF EQ PUSH2 0x8D JUMPI DUP1 PUSH4 0x17D2A5F2 EQ PUSH2 0xBD JUMPI DUP1 PUSH4 0x17D7DE7C EQ PUSH2 0xDB JUMPI DUP1 PUSH4 0x48E20F0B EQ PUSH2 0xF9 JUMPI JUMPDEST PUSH1 0x0 DUP1 REVERT JUMPDEST PUSH2 0xA7 PUSH1 0x4 DUP1 CALLDATASIZE SUB DUP2 ADD SWAP1 PUSH2 0xA2 SWAP2 SWAP1 PUSH2 0x4858 JUMP JUMPDEST PUSH2 0x1A1 JUMP JUMPDEST PUSH1 0x40 MLOAD PUSH2 0xB4 SWAP2 SWAP1 PUSH2 0x48D6 JUMP JUMPDEST PUSH1 0x40 MLOAD DUP1 SWAP2 SUB SWAP1 RETURN JUMPDEST PUSH2 0xC5 PUSH2 0x82D JUMP JUMPDEST PUSH1 0x40 MLOAD PUSH2 0xD2 SWAP2 SWAP1 PUSH2 0x4A32 JUMP JUMPDEST PUSH1 0x40 MLOAD DUP1 SWAP2 SUB SWAP1 RETURN JUMPDEST PUSH2 0xE3 PUSH2 0x906 JUMP JUMPDEST PUSH1 0x40 MLOAD PUSH2 0xF0 SWAP2 SWAP1 PUSH2 0x4A9E JUMP JUMPDEST PUSH1 0x40 MLOAD DUP1 SWAP2 SUB SWAP1 RETURN JUMPDEST PUSH2 0x113 PUSH1 0x4 DUP1 CALLDATASIZE SUB DUP2 ADD SWAP1 PUSH2 0x10E SWAP2 SWAP1 PUSH2 0x4AC0 JUMP JUMPDEST PUSH2 0x943 JUMP JUMPDEST PUSH1 0x40 MLOAD PUSH2 0x120 SWAP2 SWAP1 PUSH2 0x4A9E JUMP JUMPDEST PUSH1 0x40 MLOAD DUP1 SWAP2 SUB SWAP1 RETURN JUMPDEST PUSH2 0x131 PUSH2 0x9EF JUMP JUMPDEST PUSH1 0x40 MLOAD PUSH2 0x13E SWAP2 SWAP1 PUSH2 0x4AFC JUMP JUMPDEST PUSH1 0x40 MLOAD DUP1 SWAP2 SUB SWAP1 RETURN JUMPDEST PUSH2 0x14F PUSH2 0x9F8 JUMP JUMPDEST PUSH1 0x40 MLOAD PUSH2 0x15C SWAP2 SWAP1 PUSH2 0x4B32 JUMP JUMPDEST PUSH1 0x40 MLOAD DUP1 SWAP2 SUB SWAP1 RETURN JUMPDEST PUSH2 0x16D PUSH2 0xA01 JUMP JUMPDEST PUSH1 0x40 MLOAD PUSH2 0x17A SWAP2 SWAP1 PUSH2 0x4B32 JUMP JUMPDEST PUSH1 0x40 MLOAD DUP1 SWAP2 SUB SWAP1 RETURN JUMPDEST PUSH2 0x18B PUSH2 0xA06 JUMP JUMPDEST PUSH1 0x40 MLOAD PUSH2 0x198 SWAP2 SWAP1 PUSH2 0x4B8E JUMP JUMPDEST PUSH1 0x40 MLOAD DUP1 SWAP2 SUB SWAP1 RETURN JUMPDEST PUSH1 0x0 PUSH2 0x1AB PUSH2 0x45F4 JUMP JUMPDEST PUSH1 0x60 PUSH1 0x0 DUP1 PUSH1 0x0 DUP1 DUP1 DUP10 MLOAD SWAP1 POP PUSH2 0x1C1 DUP12 PUSH2 0xA2A JUMP JUMPDEST POP PUSH1 0x0 SWAP3 POP JUMPDEST DUP11 PUSH1 0x2 PUSH2 0x1D4 SWAP2 SWAP1 PUSH2 0x4D0B JUMP JUMPDEST DUP4 LT ISZERO PUSH2 0x2D1 JUMPI PUSH1 0x0 DUP8 PUSH1 0x20 ADD MLOAD DUP5 PUSH2 0x100 DUP2 LT PUSH2 0x1F5 JUMPI PUSH2 0x1F4 PUSH2 0x4D56 JUMP JUMPDEST JUMPDEST PUSH1 0x20 MUL ADD MLOAD PUSH1 0x1 PUSH1 0x2 DUP2 LT PUSH2 0x20D JUMPI PUSH2 0x20C PUSH2 0x4D56 JUMP JUMPDEST JUMPDEST PUSH1 0x20 MUL ADD DUP2 DUP2 MSTORE POP DUP8 PUSH1 0x20 ADD MLOAD DUP5 PUSH2 0x100 DUP2 LT PUSH2 0x22D JUMPI PUSH2 0x22C PUSH2 0x4D56 JUMP JUMPDEST JUMPDEST PUSH1 0x20 MUL ADD MLOAD PUSH1 0x0 PUSH1 0x2 DUP2 LT PUSH2 0x245 JUMPI PUSH2 0x244 PUSH2 0x4D56 JUMP JUMPDEST JUMPDEST PUSH1 0x20 MUL ADD DUP2 DUP2 MSTORE POP DUP8 PUSH1 0x0 ADD MLOAD DUP5 PUSH2 0x100 DUP2 LT PUSH2 0x265 JUMPI PUSH2 0x264 PUSH2 0x4D56 JUMP JUMPDEST JUMPDEST PUSH1 0x20 MUL ADD MLOAD PUSH1 0x1 PUSH1 0x2 DUP2 LT PUSH2 0x27D JUMPI PUSH2 0x27C PUSH2 0x4D56 JUMP JUMPDEST JUMPDEST PUSH1 0x20 MUL ADD DUP2 DUP2 MSTORE POP DUP8 PUSH1 0x0 ADD MLOAD DUP5 PUSH2 0x100 DUP2 LT PUSH2 0x29D JUMPI PUSH2 0x29C PUSH2 0x4D56 JUMP JUMPDEST JUMPDEST PUSH1 0x20 MUL ADD MLOAD PUSH1 0x0 PUSH1 0x2 DUP2 LT PUSH2 0x2B5 JUMPI PUSH2 0x2B4 PUSH2 0x4D56 JUMP JUMPDEST JUMPDEST PUSH1 0x20 MUL ADD DUP2 DUP2 MSTORE POP POP DUP3 DUP1 PUSH2 0x2C9 SWAP1 PUSH2 0x4D85 JUMP JUMPDEST SWAP4 POP POP PUSH2 0x1C7 JUMP JUMPDEST PUSH1 0x1 DUP8 PUSH1 0x0 ADD MLOAD PUSH1 0x0 PUSH2 0x100 DUP2 LT PUSH2 0x2EC JUMPI PUSH2 0x2EB PUSH2 0x4D56 JUMP JUMPDEST JUMPDEST PUSH1 0x20 MUL ADD MLOAD PUSH1 0x0 PUSH1 0x2 DUP2 LT PUSH2 0x304 JUMPI PUSH2 0x303 PUSH2 0x4D56 JUMP JUMPDEST JUMPDEST PUSH1 0x20 MUL ADD DUP2 DUP2 MSTORE POP POP DUP11 PUSH1 0xFF AND PUSH8 0xFFFFFFFFFFFFFFFF DUP2 GT ISZERO PUSH2 0x32A JUMPI PUSH2 0x329 PUSH2 0x46F7 JUMP JUMPDEST JUMPDEST PUSH1 0x40 MLOAD SWAP1 DUP1 DUP3 MSTORE DUP1 PUSH1 0x20 MUL PUSH1 0x20 ADD DUP3 ADD PUSH1 0x40 MSTORE DUP1 ISZERO PUSH2 0x358 JUMPI DUP2 PUSH1 0x20 ADD PUSH1 0x20 DUP3 MUL DUP1 CALLDATASIZE DUP4 CALLDATACOPY DUP1 DUP3 ADD SWAP2 POP POP SWAP1 POP JUMPDEST POP SWAP6 POP PUSH1 0x0 SWAP3 POP JUMPDEST DUP4 PUSH2 0x58E JUMPI DUP1 DUP12 PUSH1 0xFF AND DUP5 PUSH2 0x375 SWAP2 SWAP1 PUSH2 0x4DCD JUMP JUMPDEST GT ISZERO PUSH2 0x416 JUMPI PUSH32 0x2E00000000000000000000000000000000000000000000000000000000000000 PUSH31 0xFFFFFFFFFFFFFFFFFFFFFFFFFFFFFFFFFFFFFFFFFFFFFFFFFFFFFFFFFFFFFF NOT AND DUP11 DUP5 DUP2 MLOAD DUP2 LT PUSH2 0x3D1 JUMPI PUSH2 0x3D0 PUSH2 0x4D56 JUMP JUMPDEST JUMPDEST PUSH1 0x20 ADD ADD MLOAD PUSH1 0xF8 SHR PUSH1 0xF8 SHL PUSH31 0xFFFFFFFFFFFFFFFFFFFFFFFFFFFFFFFFFFFFFFFFFFFFFFFFFFFFFFFFFFFFFF NOT AND SUB PUSH2 0x40C JUMPI PUSH1 0x1 SWAP4 POP PUSH2 0x411 JUMP JUMPDEST PUSH1 0x1 SWAP4 POP JUMPDEST PUSH2 0x589 JUMP JUMPDEST PUSH1 0x0 SWAP2 POP JUMPDEST DUP11 PUSH1 0xFF AND DUP3 LT ISZERO PUSH2 0x4C8 JUMPI DUP10 DUP4 DUP1 PUSH2 0x432 SWAP1 PUSH2 0x4D85 JUMP JUMPDEST SWAP5 POP DUP2 MLOAD DUP2 LT PUSH2 0x445 JUMPI PUSH2 0x444 PUSH2 0x4D56 JUMP JUMPDEST JUMPDEST PUSH1 0x20 ADD ADD MLOAD PUSH1 0xF8 SHR PUSH1 0xF8 SHL DUP7 DUP4 DUP2 MLOAD DUP2 LT PUSH2 0x463 JUMPI PUSH2 0x462 PUSH2 0x4D56 JUMP JUMPDEST JUMPDEST PUSH1 0x20 MUL PUSH1 0x20 ADD ADD SWAP1 PUSH31 0xFFFFFFFFFFFFFFFFFFFFFFFFFFFFFFFFFFFFFFFFFFFFFFFFFFFFFFFFFFFFFF NOT AND SWAP1 DUP2 PUSH31 0xFFFFFFFFFFFFFFFFFFFFFFFFFFFFFFFFFFFFFFFFFFFFFFFFFFFFFFFFFFFFFF NOT AND DUP2 MSTORE POP POP DUP2 DUP1 PUSH2 0x4C0 SWAP1 PUSH2 0x4D85 JUMP JUMPDEST SWAP3 POP POP PUSH2 0x41B JUMP JUMPDEST PUSH2 0x4D4 DUP12 DUP8 DUP10 DUP13 PUSH2 0xA7F JUMP JUMPDEST SWAP11 POP DUP1 DUP4 LT ISZERO PUSH2 0x583 JUMPI PUSH32 0x2E00000000000000000000000000000000000000000000000000000000000000 PUSH31 0xFFFFFFFFFFFFFFFFFFFFFFFFFFFFFFFFFFFFFFFFFFFFFFFFFFFFFFFFFFFFFF NOT AND DUP11 DUP5 DUP2 MLOAD DUP2 LT PUSH2 0x534 JUMPI PUSH2 0x533 PUSH2 0x4D56 JUMP JUMPDEST JUMPDEST PUSH1 0x20 ADD ADD MLOAD PUSH1 0xF8 SHR PUSH1 0xF8 SHL PUSH31 0xFFFFFFFFFFFFFFFFFFFFFFFFFFFFFFFFFFFFFFFFFFFFFFFFFFFFFFFFFFFFFF NOT AND SUB PUSH2 0x56F JUMPI PUSH1 0x1 SWAP4 POP PUSH2 0x57E JUMP JUMPDEST DUP3 DUP1 PUSH2 0x57A SWAP1 PUSH2 0x4D85 JUMP JUMPDEST SWAP4 POP POP JUMPDEST PUSH2 0x588 JUMP JUMPDEST PUSH1 0x1 SWAP4 POP JUMPDEST JUMPDEST PUSH2 0x360 JUMP JUMPDEST PUSH1 0x0 SWAP3 POP PUSH1 0x0 SWAP2 POP JUMPDEST DUP11 PUSH1 0x2 PUSH2 0x5A4 SWAP2 SWAP1 PUSH2 0x4D0B JUMP JUMPDEST DUP3 LT ISZERO PUSH2 0x770 JUMPI PUSH1 0x0 DUP8 PUSH1 0x0 ADD MLOAD DUP4 PUSH2 0x100 DUP2 LT PUSH2 0x5C5 JUMPI PUSH2 0x5C4 PUSH2 0x4D56 JUMP JUMPDEST JUMPDEST PUSH1 0x20 MUL ADD MLOAD PUSH1 0x0 PUSH1 0x2 DUP2 LT PUSH2 0x5DD JUMPI PUSH2 0x5DC PUSH2 0x4D56 JUMP JUMPDEST JUMPDEST PUSH1 0x20 MUL ADD MLOAD SLT ISZERO PUSH2 0x663 JUMPI DUP7 PUSH1 0x0 ADD MLOAD DUP3 PUSH2 0x100 DUP2 LT PUSH2 0x600 JUMPI PUSH2 0x5FF PUSH2 0x4D56 JUMP JUMPDEST JUMPDEST PUSH1 0x20 MUL ADD MLOAD PUSH1 0x0 PUSH1 0x2 DUP2 LT PUSH2 0x618 JUMPI PUSH2 0x617 PUSH2 0x4D56 JUMP JUMPDEST JUMPDEST PUSH1 0x20 MUL ADD MLOAD PUSH1 0x0 PUSH2 0x629 SWAP2 SWAP1 PUSH2 0x4E0B JUMP JUMPDEST DUP8 PUSH1 0x0 ADD MLOAD DUP4 PUSH2 0x100 DUP2 LT PUSH2 0x641 JUMPI PUSH2 0x640 PUSH2 0x4D56 JUMP JUMPDEST JUMPDEST PUSH1 0x20 MUL ADD MLOAD PUSH1 0x0 PUSH1 0x2 DUP2 LT PUSH2 0x659 JUMPI PUSH2 0x658 PUSH2 0x4D56 JUMP JUMPDEST JUMPDEST PUSH1 0x20 MUL ADD DUP2 DUP2 MSTORE POP POP JUMPDEST PUSH1 0x0 DUP8 PUSH1 0x20 ADD MLOAD DUP4 PUSH2 0x100 DUP2 LT PUSH2 0x67D JUMPI PUSH2 0x67C PUSH2 0x4D56 JUMP JUMPDEST JUMPDEST PUSH1 0x20 MUL ADD MLOAD PUSH1 0x0 PUSH1 0x2 DUP2 LT PUSH2 0x695 JUMPI PUSH2 0x694 PUSH2 0x4D56 JUMP JUMPDEST JUMPDEST PUSH1 0x20 MUL ADD MLOAD SLT ISZERO PUSH2 0x71B JUMPI DUP7 PUSH1 0x20 ADD MLOAD DUP3 PUSH2 0x100 DUP2 LT PUSH2 0x6B8 JUMPI PUSH2 0x6B7 PUSH2 0x4D56 JUMP JUMPDEST JUMPDEST PUSH1 0x20 MUL ADD MLOAD PUSH1 0x0 PUSH1 0x2 DUP2 LT PUSH2 0x6D0 JUMPI PUSH2 0x6CF PUSH2 0x4D56 JUMP JUMPDEST JUMPDEST PUSH1 0x20 MUL ADD MLOAD PUSH1 0x0 PUSH2 0x6E1 SWAP2 SWAP1 PUSH2 0x4E0B JUMP JUMPDEST DUP8 PUSH1 0x20 ADD MLOAD DUP4 PUSH2 0x100 DUP2 LT PUSH2 0x6F9 JUMPI PUSH2 0x6F8 PUSH2 0x4D56 JUMP JUMPDEST JUMPDEST PUSH1 0x20 MUL ADD MLOAD PUSH1 0x0 PUSH1 0x2 DUP2 LT PUSH2 0x711 JUMPI PUSH2 0x710 PUSH2 0x4D56 JUMP JUMPDEST JUMPDEST PUSH1 0x20 MUL ADD DUP2 DUP2 MSTORE POP POP JUMPDEST DUP7 PUSH1 0x0 ADD MLOAD DUP3 PUSH2 0x100 DUP2 LT PUSH2 0x733 JUMPI PUSH2 0x732 PUSH2 0x4D56 JUMP JUMPDEST JUMPDEST PUSH1 0x20 MUL ADD MLOAD PUSH1 0x0 PUSH1 0x2 DUP2 LT PUSH2 0x74B JUMPI PUSH2 0x74A PUSH2 0x4D56 JUMP JUMPDEST JUMPDEST PUSH1 0x20 MUL ADD MLOAD DUP4 PUSH2 0x75B SWAP2 SWAP1 PUSH2 0x4DCD JUMP JUMPDEST SWAP3 POP DUP2 DUP1 PUSH2 0x768 SWAP1 PUSH2 0x4D85 JUMP JUMPDEST SWAP3 POP POP PUSH2 0x597 JUMP JUMPDEST PUSH1 0x1 PUSH2 0x77C DUP5 DUP12 PUSH2 0x24CE JUMP JUMPDEST PUSH2 0x786 SWAP2 SWAP1 PUSH2 0x4DCD JUMP JUMPDEST SWAP2 POP PUSH1 0x0 SWAP5 POP JUMPDEST DUP7 PUSH1 0x0 ADD MLOAD DUP6 PUSH2 0x100 DUP2 LT PUSH2 0x7A5 JUMPI PUSH2 0x7A4 PUSH2 0x4D56 JUMP JUMPDEST JUMPDEST PUSH1 0x20 MUL ADD MLOAD PUSH1 0x0 PUSH1 0x2 DUP2 LT PUSH2 0x7BD JUMPI PUSH2 0x7BC PUSH2 0x4D56 JUMP JUMPDEST JUMPDEST PUSH1 0x20 MUL ADD MLOAD DUP3 GT ISZERO PUSH2 0x81C JUMPI DUP7 PUSH1 0x0 ADD MLOAD DUP6 DUP1 PUSH2 0x7D9 SWAP1 PUSH2 0x4D85 JUMP JUMPDEST SWAP7 POP PUSH2 0x100 DUP2 LT PUSH2 0x7ED JUMPI PUSH2 0x7EC PUSH2 0x4D56 JUMP JUMPDEST JUMPDEST PUSH1 0x20 MUL ADD MLOAD PUSH1 0x0 PUSH1 0x2 DUP2 LT PUSH2 0x805 JUMPI PUSH2 0x804 PUSH2 0x4D56 JUMP JUMPDEST JUMPDEST PUSH1 0x20 MUL ADD MLOAD DUP3 PUSH2 0x815 SWAP2 SWAP1 PUSH2 0x4E4E JUMP JUMPDEST SWAP2 POP PUSH2 0x78D JUMP JUMPDEST DUP5 SWAP8 POP POP POP POP POP POP POP POP SWAP4 SWAP3 POP POP POP JUMP JUMPDEST PUSH1 0x60 PUSH1 0x1 DUP1 SLOAD DUP1 PUSH1 0x20 MUL PUSH1 0x20 ADD PUSH1 0x40 MLOAD SWAP1 DUP2 ADD PUSH1 0x40 MSTORE DUP1 SWAP3 SWAP2 SWAP1 DUP2 DUP2 MSTORE PUSH1 0x20 ADD PUSH1 0x0 SWAP1 JUMPDEST DUP3 DUP3 LT ISZERO PUSH2 0x8FD JUMPI DUP4 DUP3 SWAP1 PUSH1 0x0 MSTORE PUSH1 0x20 PUSH1 0x0 KECCAK256 ADD DUP1 SLOAD PUSH2 0x870 SWAP1 PUSH2 0x4EB1 JUMP JUMPDEST DUP1 PUSH1 0x1F ADD PUSH1 0x20 DUP1 SWAP2 DIV MUL PUSH1 0x20 ADD PUSH1 0x40 MLOAD SWAP1 DUP2 ADD PUSH1 0x40 MSTORE DUP1 SWAP3 SWAP2 SWAP1 DUP2 DUP2 MSTORE PUSH1 0x20 ADD DUP3 DUP1 SLOAD PUSH2 0x89C SWAP1 PUSH2 0x4EB1 JUMP JUMPDEST DUP1 ISZERO PUSH2 0x8E9 JUMPI DUP1 PUSH1 0x1F LT PUSH2 0x8BE JUMPI PUSH2 0x100 DUP1 DUP4 SLOAD DIV MUL DUP4 MSTORE SWAP2 PUSH1 0x20 ADD SWAP2 PUSH2 0x8E9 JUMP JUMPDEST DUP3 ADD SWAP2 SWAP1 PUSH1 0x0 MSTORE PUSH1 0x20 PUSH1 0x0 KECCAK256 SWAP1 JUMPDEST DUP2 SLOAD DUP2 MSTORE SWAP1 PUSH1 0x1 ADD SWAP1 PUSH1 0x20 ADD DUP1 DUP4 GT PUSH2 0x8CC JUMPI DUP3 SWAP1 SUB PUSH1 0x1F AND DUP3 ADD SWAP2 JUMPDEST POP POP POP POP POP DUP2 MSTORE PUSH1 0x20 ADD SWAP1 PUSH1 0x1 ADD SWAP1 PUSH2 0x851 JUMP JUMPDEST POP POP POP POP SWAP1 POP SWAP1 JUMP JUMPDEST PUSH1 0x60 PUSH1 0x40 MLOAD DUP1 PUSH1 0x40 ADD PUSH1 0x40 MSTORE DUP1 PUSH1 0xF DUP2 MSTORE PUSH1 0x20 ADD PUSH32 0x70716365655F73696D756C61746F720000000000000000000000000000000000 DUP2 MSTORE POP SWAP1 POP SWAP1 JUMP JUMPDEST PUSH1 0x1 DUP2 DUP2 SLOAD DUP2 LT PUSH2 0x953 JUMPI PUSH1 0x0 DUP1 REVERT JUMPDEST SWAP1 PUSH1 0x0 MSTORE PUSH1 0x20 PUSH1 0x0 KECCAK256 ADD PUSH1 0x0 SWAP2 POP SWAP1 POP DUP1 SLOAD PUSH2 0x96E SWAP1 PUSH2 0x4EB1 JUMP JUMPDEST DUP1 PUSH1 0x1F ADD PUSH1 0x20 DUP1 SWAP2 DIV MUL PUSH1 0x20 ADD PUSH1 0x40 MLOAD SWAP1 DUP2 ADD PUSH1 0x40 MSTORE DUP1 SWAP3 SWAP2 SWAP1 DUP2 DUP2 MSTORE PUSH1 0x20 ADD DUP3 DUP1 SLOAD PUSH2 0x99A SWAP1 PUSH2 0x4EB1 JUMP JUMPDEST DUP1 ISZERO PUSH2 0x9E7 JUMPI DUP1 PUSH1 0x1F LT PUSH2 0x9BC JUMPI PUSH2 0x100 DUP1 DUP4 SLOAD DIV MUL DUP4 MSTORE SWAP2 PUSH1 0x20 ADD SWAP2 PUSH2 0x9E7 JUMP JUMPDEST DUP3 ADD SWAP2 SWAP1 PUSH1 0x0 MSTORE PUSH1 0x20 PUSH1 0x0 KECCAK256 SWAP1 JUMPDEST DUP2 SLOAD DUP2 MSTORE SWAP1 PUSH1 0x1 ADD SWAP1 PUSH1 0x20 ADD DUP1 DUP4 GT PUSH2 0x9CA JUMPI DUP3 SWAP1 SUB PUSH1 0x1F AND DUP3 ADD SWAP2 JUMPDEST POP POP POP POP POP DUP2 JUMP JUMPDEST PUSH1 0x0 PUSH1 0x8 SWAP1 POP SWAP1 JUMP JUMPDEST PUSH1 0x0 PUSH1 0x1 SWAP1 POP SWAP1 JUMP JUMPDEST PUSH1 0x0 SWAP1 JUMP JUMPDEST PUSH1 0x0 DUP1 SLOAD SWAP1 PUSH2 0x100 EXP SWAP1 DIV PUSH20 0xFFFFFFFFFFFFFFFFFFFFFFFFFFFFFFFFFFFFFFFF AND DUP2 JUMP JUMPDEST PUSH1 0x0 PUSH1 0x8 PUSH1 0xFF AND DUP3 PUSH1 0xFF AND GT ISZERO PUSH2 0xA76 JUMPI PUSH1 0x40 MLOAD PUSH32 0x8C379A000000000000000000000000000000000000000000000000000000000 DUP2 MSTORE PUSH1 0x4 ADD PUSH2 0xA6D SWAP1 PUSH2 0x4F2E JUMP JUMPDEST PUSH1 0x40 MLOAD DUP1 SWAP2 SUB SWAP1 REVERT JUMPDEST PUSH1 0x0 SWAP1 POP SWAP2 SWAP1 POP JUMP JUMPDEST PUSH1 0x0 DUP1 PUSH1 0x0 DUP1 PUSH1 0x0 DUP1 DUP10 PUSH1 0x2 PUSH2 0xA95 SWAP2 SWAP1 PUSH2 0x4D0B JUMP JUMPDEST SWAP1 POP PUSH1 0x1 SWAP5 POP PUSH1 0x1 DUP11 PUSH2 0xAA8 SWAP2 SWAP1 PUSH2 0x4F4E JUMP JUMPDEST PUSH1 0xFF AND DUP6 SWAP1 SHL SWAP5 POP PUSH1 0x0 SWAP4 POP JUMPDEST DUP10 PUSH1 0xFF AND DUP5 LT ISZERO PUSH2 0x23AA JUMPI PUSH1 0x0 DUP1 DUP4 PUSH1 0xFF AND EQ PUSH2 0xAD3 JUMPI PUSH1 0x0 PUSH2 0xAD6 JUMP JUMPDEST PUSH1 0x1 JUMPDEST SWAP1 POP PUSH1 0x0 SWAP4 POP JUMPDEST DUP2 DUP5 LT ISZERO PUSH2 0xB6F JUMPI PUSH1 0x0 DUP10 PUSH1 0x20 ADD MLOAD DUP6 PUSH2 0x100 DUP2 LT PUSH2 0xAFF JUMPI PUSH2 0xAFE PUSH2 0x4D56 JUMP JUMPDEST JUMPDEST PUSH1 0x20 MUL ADD MLOAD DUP3 PUSH1 0xFF AND PUSH1 0x2 DUP2 LT PUSH2 0xB19 JUMPI PUSH2 0xB18 PUSH2 0x4D56 JUMP JUMPDEST JUMPDEST PUSH1 0x20 MUL ADD DUP2 DUP2 MSTORE POP DUP10 PUSH1 0x0 ADD MLOAD DUP6 PUSH2 0x100 DUP2 LT PUSH2 0xB39 JUMPI PUSH2 0xB38 PUSH2 0x4D56 JUMP JUMPDEST JUMPDEST PUSH1 0x20 MUL ADD MLOAD DUP3 PUSH1 0xFF AND PUSH1 0x2 DUP2 LT PUSH2 0xB53 JUMPI PUSH2 0xB52 PUSH2 0x4D56 JUMP JUMPDEST JUMPDEST PUSH1 0x20 MUL ADD DUP2 DUP2 MSTORE POP POP DUP4 DUP1 PUSH2 0xB67 SWAP1 PUSH2 0x4D85 JUMP JUMPDEST SWAP5 POP POP PUSH2 0xADD JUMP JUMPDEST PUSH32 0x4800000000000000000000000000000000000000000000000000000000000000 PUSH31 0xFFFFFFFFFFFFFFFFFFFFFFFFFFFFFFFFFFFFFFFFFFFFFFFFFFFFFFFFFFFFFF NOT AND DUP11 DUP7 DUP2 MLOAD DUP2 LT PUSH2 0xBC5 JUMPI PUSH2 0xBC4 PUSH2 0x4D56 JUMP JUMPDEST JUMPDEST PUSH1 0x20 MUL PUSH1 0x20 ADD ADD MLOAD PUSH31 0xFFFFFFFFFFFFFFFFFFFFFFFFFFFFFFFFFFFFFFFFFFFFFFFFFFFFFFFFFFFFFF NOT AND SUB PUSH2 0xCA8 JUMPI PUSH1 0x0 SWAP4 POP JUMPDEST DUP2 DUP5 LT ISZERO PUSH2 0xCA3 JUMPI PUSH1 0x0 DUP10 PUSH1 0x0 ADD MLOAD DUP6 PUSH2 0x100 DUP2 LT PUSH2 0xC1B JUMPI PUSH2 0xC1A PUSH2 0x4D56 JUMP JUMPDEST JUMPDEST PUSH1 0x20 MUL ADD MLOAD DUP5 PUSH1 0xFF AND PUSH1 0x2 DUP2 LT PUSH2 0xC35 JUMPI PUSH2 0xC34 PUSH2 0x4D56 JUMP JUMPDEST JUMPDEST PUSH1 0x20 MUL ADD MLOAD EQ ISZERO DUP1 PUSH2 0xC7E JUMPI POP PUSH1 0x0 DUP10 PUSH1 0x20 ADD MLOAD DUP6 PUSH2 0x100 DUP2 LT PUSH2 0xC5C JUMPI PUSH2 0xC5B PUSH2 0x4D56 JUMP JUMPDEST JUMPDEST PUSH1 0x20 MUL ADD MLOAD DUP5 PUSH1 0xFF AND PUSH1 0x2 DUP2 LT PUSH2 0xC76 JUMPI PUSH2 0xC75 PUSH2 0x4D56 JUMP JUMPDEST JUMPDEST PUSH1 0x20 MUL ADD MLOAD EQ ISZERO JUMPDEST ISZERO PUSH2 0xC90 JUMPI PUSH2 0xC8F DUP7 DUP6 DUP12 DUP7 PUSH2 0x2516 JUMP JUMPDEST JUMPDEST DUP4 DUP1 PUSH2 0xC9B SWAP1 PUSH2 0x4D85 JUMP JUMPDEST SWAP5 POP POP PUSH2 0xBF9 JUMP JUMPDEST PUSH2 0x238C JUMP JUMPDEST PUSH32 0x4900000000000000000000000000000000000000000000000000000000000000 PUSH31 0xFFFFFFFFFFFFFFFFFFFFFFFFFFFFFFFFFFFFFFFFFFFFFFFFFFFFFFFFFFFFFF NOT AND DUP11 DUP7 DUP2 MLOAD DUP2 LT PUSH2 0xCFE JUMPI PUSH2 0xCFD PUSH2 0x4D56 JUMP JUMPDEST JUMPDEST PUSH1 0x20 MUL PUSH1 0x20 ADD ADD MLOAD PUSH31 0xFFFFFFFFFFFFFFFFFFFFFFFFFFFFFFFFFFFFFFFFFFFFFFFFFFFFFFFFFFFFFF NOT AND EQ DUP1 PUSH2 0xDB1 JUMPI POP PUSH32 0x4300000000000000000000000000000000000000000000000000000000000000 PUSH31 0xFFFFFFFFFFFFFFFFFFFFFFFFFFFFFFFFFFFFFFFFFFFFFFFFFFFFFFFFFFFFFF NOT AND DUP11 DUP7 DUP2 MLOAD DUP2 LT PUSH2 0xD85 JUMPI PUSH2 0xD84 PUSH2 0x4D56 JUMP JUMPDEST JUMPDEST PUSH1 0x20 MUL PUSH1 0x20 ADD ADD MLOAD PUSH31 0xFFFFFFFFFFFFFFFFFFFFFFFFFFFFFFFFFFFFFFFFFFFFFFFFFFFFFFFFFFFFFF NOT AND EQ JUMPDEST ISZERO PUSH2 0xE69 JUMPI PUSH1 0x0 SWAP4 POP JUMPDEST DUP2 DUP5 LT ISZERO PUSH2 0xE64 JUMPI PUSH1 0x0 DUP10 PUSH1 0x0 ADD MLOAD DUP6 PUSH2 0x100 DUP2 LT PUSH2 0xDDD JUMPI PUSH2 0xDDC PUSH2 0x4D56 JUMP JUMPDEST JUMPDEST PUSH1 0x20 MUL ADD MLOAD DUP5 PUSH1 0xFF AND PUSH1 0x2 DUP2 LT PUSH2 0xDF7 JUMPI PUSH2 0xDF6 PUSH2 0x4D56 JUMP JUMPDEST JUMPDEST PUSH1 0x20 MUL ADD MLOAD EQ ISZERO DUP1 PUSH2 0xE40 JUMPI POP PUSH1 0x0 DUP10 PUSH1 0x20 ADD MLOAD DUP6 PUSH2 0x100 DUP2 LT PUSH2 0xE1E JUMPI PUSH2 0xE1D PUSH2 0x4D56 JUMP JUMPDEST JUMPDEST PUSH1 0x20 MUL ADD MLOAD DUP5 PUSH1 0xFF AND PUSH1 0x2 DUP2 LT PUSH2 0xE38 JUMPI PUSH2 0xE37 PUSH2 0x4D56 JUMP JUMPDEST JUMPDEST PUSH1 0x20 MUL ADD MLOAD EQ ISZERO JUMPDEST ISZERO PUSH2 0xE51 JUMPI PUSH2 0xE50 DUP5 DUP11 DUP6 PUSH2 0x2985 JUMP JUMPDEST JUMPDEST DUP4 DUP1 PUSH2 0xE5C SWAP1 PUSH2 0x4D85 JUMP JUMPDEST SWAP5 POP POP PUSH2 0xDBB JUMP JUMPDEST PUSH2 0x238B JUMP JUMPDEST PUSH32 0x5800000000000000000000000000000000000000000000000000000000000000 PUSH31 0xFFFFFFFFFFFFFFFFFFFFFFFFFFFFFFFFFFFFFFFFFFFFFFFFFFFFFFFFFFFFFF NOT AND DUP11 DUP7 DUP2 MLOAD DUP2 LT PUSH2 0xEBF JUMPI PUSH2 0xEBE PUSH2 0x4D56 JUMP JUMPDEST JUMPDEST PUSH1 0x20 MUL PUSH1 0x20 ADD ADD MLOAD PUSH31 0xFFFFFFFFFFFFFFFFFFFFFFFFFFFFFFFFFFFFFFFFFFFFFFFFFFFFFFFFFFFFFF NOT AND SUB PUSH2 0xFA2 JUMPI PUSH1 0x0 SWAP4 POP JUMPDEST DUP2 DUP5 LT ISZERO PUSH2 0xF9D JUMPI PUSH1 0x0 DUP10 PUSH1 0x0 ADD MLOAD DUP6 PUSH2 0x100 DUP2 LT PUSH2 0xF15 JUMPI PUSH2 0xF14 PUSH2 0x4D56 JUMP JUMPDEST JUMPDEST PUSH1 0x20 MUL ADD MLOAD DUP5 PUSH1 0xFF AND PUSH1 0x2 DUP2 LT PUSH2 0xF2F JUMPI PUSH2 0xF2E PUSH2 0x4D56 JUMP JUMPDEST JUMPDEST PUSH1 0x20 MUL ADD MLOAD EQ ISZERO DUP1 PUSH2 0xF78 JUMPI POP PUSH1 0x0 DUP10 PUSH1 0x20 ADD MLOAD DUP6 PUSH2 0x100 DUP2 LT PUSH2 0xF56 JUMPI PUSH2 0xF55 PUSH2 0x4D56 JUMP JUMPDEST JUMPDEST PUSH1 0x20 MUL ADD MLOAD DUP5 PUSH1 0xFF AND PUSH1 0x2 DUP2 LT PUSH2 0xF70 JUMPI PUSH2 0xF6F PUSH2 0x4D56 JUMP JUMPDEST JUMPDEST PUSH1 0x20 MUL ADD MLOAD EQ ISZERO JUMPDEST ISZERO PUSH2 0xF8A JUMPI PUSH2 0xF89 DUP7 DUP6 DUP12 DUP7 PUSH2 0x2AA5 JUMP JUMPDEST JUMPDEST DUP4 DUP1 PUSH2 0xF95 SWAP1 PUSH2 0x4D85 JUMP JUMPDEST SWAP5 POP POP PUSH2 0xEF3 JUMP JUMPDEST PUSH2 0x238A JUMP JUMPDEST PUSH32 0x5900000000000000000000000000000000000000000000000000000000000000 PUSH31 0xFFFFFFFFFFFFFFFFFFFFFFFFFFFFFFFFFFFFFFFFFFFFFFFFFFFFFFFFFFFFFF NOT AND DUP11 DUP7 DUP2 MLOAD DUP2 LT PUSH2 0xFF8 JUMPI PUSH2 0xFF7 PUSH2 0x4D56 JUMP JUMPDEST JUMPDEST PUSH1 0x20 MUL PUSH1 0x20 ADD ADD MLOAD PUSH31 0xFFFFFFFFFFFFFFFFFFFFFFFFFFFFFFFFFFFFFFFFFFFFFFFFFFFFFFFFFFFFFF NOT AND SUB PUSH2 0x10DB JUMPI PUSH1 0x0 SWAP4 POP JUMPDEST DUP2 DUP5 LT ISZERO PUSH2 0x10D6 JUMPI PUSH1 0x0 DUP10 PUSH1 0x0 ADD MLOAD DUP6 PUSH2 0x100 DUP2 LT PUSH2 0x104E JUMPI PUSH2 0x104D PUSH2 0x4D56 JUMP JUMPDEST JUMPDEST PUSH1 0x20 MUL ADD MLOAD DUP5 PUSH1 0xFF AND PUSH1 0x2 DUP2 LT PUSH2 0x1068 JUMPI PUSH2 0x1067 PUSH2 0x4D56 JUMP JUMPDEST JUMPDEST PUSH1 0x20 MUL ADD MLOAD EQ ISZERO DUP1 PUSH2 0x10B1 JUMPI POP PUSH1 0x0 DUP10 PUSH1 0x20 ADD MLOAD DUP6 PUSH2 0x100 DUP2 LT PUSH2 0x108F JUMPI PUSH2 0x108E PUSH2 0x4D56 JUMP JUMPDEST JUMPDEST PUSH1 0x20 MUL ADD MLOAD DUP5 PUSH1 0xFF AND PUSH1 0x2 DUP2 LT PUSH2 0x10A9 JUMPI PUSH2 0x10A8 PUSH2 0x4D56 JUMP JUMPDEST JUMPDEST PUSH1 0x20 MUL ADD MLOAD EQ ISZERO JUMPDEST ISZERO PUSH2 0x10C3 JUMPI PUSH2 0x10C2 DUP7 DUP6 DUP12 DUP7 PUSH2 0x2D04 JUMP JUMPDEST JUMPDEST DUP4 DUP1 PUSH2 0x10CE SWAP1 PUSH2 0x4D85 JUMP JUMPDEST SWAP5 POP POP PUSH2 0x102C JUMP JUMPDEST PUSH2 0x2389 JUMP JUMPDEST PUSH32 0x5A00000000000000000000000000000000000000000000000000000000000000 PUSH31 0xFFFFFFFFFFFFFFFFFFFFFFFFFFFFFFFFFFFFFFFFFFFFFFFFFFFFFFFFFFFFFF NOT AND DUP11 DUP7 DUP2 MLOAD DUP2 LT PUSH2 0x1131 JUMPI PUSH2 0x1130 PUSH2 0x4D56 JUMP JUMPDEST JUMPDEST PUSH1 0x20 MUL PUSH1 0x20 ADD ADD MLOAD PUSH31 0xFFFFFFFFFFFFFFFFFFFFFFFFFFFFFFFFFFFFFFFFFFFFFFFFFFFFFFFFFFFFFF NOT AND SUB PUSH2 0x1214 JUMPI PUSH1 0x0 SWAP4 POP JUMPDEST DUP2 DUP5 LT ISZERO PUSH2 0x120F JUMPI PUSH1 0x0 DUP10 PUSH1 0x0 ADD MLOAD DUP6 PUSH2 0x100 DUP2 LT PUSH2 0x1187 JUMPI PUSH2 0x1186 PUSH2 0x4D56 JUMP JUMPDEST JUMPDEST PUSH1 0x20 MUL ADD MLOAD DUP5 PUSH1 0xFF AND PUSH1 0x2 DUP2 LT PUSH2 0x11A1 JUMPI PUSH2 0x11A0 PUSH2 0x4D56 JUMP JUMPDEST JUMPDEST PUSH1 0x20 MUL ADD MLOAD EQ ISZERO DUP1 PUSH2 0x11EA JUMPI POP PUSH1 0x0 DUP10 PUSH1 0x20 ADD MLOAD DUP6 PUSH2 0x100 DUP2 LT PUSH2 0x11C8 JUMPI PUSH2 0x11C7 PUSH2 0x4D56 JUMP JUMPDEST JUMPDEST PUSH1 0x20 MUL ADD MLOAD DUP5 PUSH1 0xFF AND PUSH1 0x2 DUP2 LT PUSH2 0x11E2 JUMPI PUSH2 0x11E1 PUSH2 0x4D56 JUMP JUMPDEST JUMPDEST PUSH1 0x20 MUL ADD MLOAD EQ ISZERO JUMPDEST ISZERO PUSH2 0x11FC JUMPI PUSH2 0x11FB DUP7 DUP6 DUP12 DUP7 PUSH2 0x2F7B JUMP JUMPDEST JUMPDEST DUP4 DUP1 PUSH2 0x1207 SWAP1 PUSH2 0x4D85 JUMP JUMPDEST SWAP5 POP POP PUSH2 0x1165 JUMP JUMPDEST PUSH2 0x2388 JUMP JUMPDEST PUSH32 0x6D00000000000000000000000000000000000000000000000000000000000000 PUSH31 0xFFFFFFFFFFFFFFFFFFFFFFFFFFFFFFFFFFFFFFFFFFFFFFFFFFFFFFFFFFFFFF NOT AND DUP11 DUP7 DUP2 MLOAD DUP2 LT PUSH2 0x126A JUMPI PUSH2 0x1269 PUSH2 0x4D56 JUMP JUMPDEST JUMPDEST PUSH1 0x20 MUL PUSH1 0x20 ADD ADD MLOAD PUSH31 0xFFFFFFFFFFFFFFFFFFFFFFFFFFFFFFFFFFFFFFFFFFFFFFFFFFFFFFFFFFFFFF NOT AND SUB PUSH2 0x189A JUMPI PUSH1 0x0 DUP1 SWAP5 POP JUMPDEST DUP3 DUP6 LT ISZERO PUSH2 0x15DF JUMPI DUP10 PUSH1 0x0 ADD MLOAD DUP6 PUSH2 0x100 DUP2 LT PUSH2 0x12BF JUMPI PUSH2 0x12BE PUSH2 0x4D56 JUMP JUMPDEST JUMPDEST PUSH1 0x20 MUL ADD MLOAD DUP5 PUSH1 0xFF AND PUSH1 0x2 DUP2 LT PUSH2 0x12D9 JUMPI PUSH2 0x12D8 PUSH2 0x4D56 JUMP JUMPDEST JUMPDEST PUSH1 0x20 MUL ADD MLOAD DUP11 PUSH1 0x0 ADD MLOAD DUP7 PUSH2 0x100 DUP2 LT PUSH2 0x12F6 JUMPI PUSH2 0x12F5 PUSH2 0x4D56 JUMP JUMPDEST JUMPDEST PUSH1 0x20 MUL ADD MLOAD DUP4 PUSH1 0xFF AND PUSH1 0x2 DUP2 LT PUSH2 0x1310 JUMPI PUSH2 0x130F PUSH2 0x4D56 JUMP JUMPDEST JUMPDEST PUSH1 0x20 MUL ADD DUP2 DUP2 MSTORE POP POP PUSH1 0x0 DUP11 PUSH1 0x0 ADD MLOAD DUP7 PUSH2 0x100 DUP2 LT PUSH2 0x1333 JUMPI PUSH2 0x1332 PUSH2 0x4D56 JUMP JUMPDEST JUMPDEST PUSH1 0x20 MUL ADD MLOAD DUP4 PUSH1 0xFF AND PUSH1 0x2 DUP2 LT PUSH2 0x134D JUMPI PUSH2 0x134C PUSH2 0x4D56 JUMP JUMPDEST JUMPDEST PUSH1 0x20 MUL ADD MLOAD SLT ISZERO PUSH2 0x13D7 JUMPI DUP10 PUSH1 0x0 ADD MLOAD DUP6 PUSH2 0x100 DUP2 LT PUSH2 0x1370 JUMPI PUSH2 0x136F PUSH2 0x4D56 JUMP JUMPDEST JUMPDEST PUSH1 0x20 MUL ADD MLOAD DUP3 PUSH1 0xFF AND PUSH1 0x2 DUP2 LT PUSH2 0x138A JUMPI PUSH2 0x1389 PUSH2 0x4D56 JUMP JUMPDEST JUMPDEST PUSH1 0x20 MUL ADD MLOAD PUSH1 0x0 PUSH2 0x139B SWAP2 SWAP1 PUSH2 0x4E0B JUMP JUMPDEST DUP11 PUSH1 0x0 ADD MLOAD DUP7 PUSH2 0x100 DUP2 LT PUSH2 0x13B3 JUMPI PUSH2 0x13B2 PUSH2 0x4D56 JUMP JUMPDEST JUMPDEST PUSH1 0x20 MUL ADD MLOAD DUP4 PUSH1 0xFF AND PUSH1 0x2 DUP2 LT PUSH2 0x13CD JUMPI PUSH2 0x13CC PUSH2 0x4D56 JUMP JUMPDEST JUMPDEST PUSH1 0x20 MUL ADD DUP2 DUP2 MSTORE POP POP JUMPDEST DUP10 PUSH1 0x20 ADD MLOAD DUP6 PUSH2 0x100 DUP2 LT PUSH2 0x13EF JUMPI PUSH2 0x13EE PUSH2 0x4D56 JUMP JUMPDEST JUMPDEST PUSH1 0x20 MUL ADD MLOAD DUP5 PUSH1 0xFF AND PUSH1 0x2 DUP2 LT PUSH2 0x1409 JUMPI PUSH2 0x1408 PUSH2 0x4D56 JUMP JUMPDEST JUMPDEST PUSH1 0x20 MUL ADD MLOAD DUP11 PUSH1 0x20 ADD MLOAD DUP7 PUSH2 0x100 DUP2 LT PUSH2 0x1426 JUMPI PUSH2 0x1425 PUSH2 0x4D56 JUMP JUMPDEST JUMPDEST PUSH1 0x20 MUL ADD MLOAD DUP4 PUSH1 0xFF AND PUSH1 0x2 DUP2 LT PUSH2 0x1440 JUMPI PUSH2 0x143F PUSH2 0x4D56 JUMP JUMPDEST JUMPDEST PUSH1 0x20 MUL ADD DUP2 DUP2 MSTORE POP POP PUSH1 0x0 DUP11 PUSH1 0x20 ADD MLOAD DUP7 PUSH2 0x100 DUP2 LT PUSH2 0x1463 JUMPI PUSH2 0x1462 PUSH2 0x4D56 JUMP JUMPDEST JUMPDEST PUSH1 0x20 MUL ADD MLOAD DUP4 PUSH1 0xFF AND PUSH1 0x2 DUP2 LT PUSH2 0x147D JUMPI PUSH2 0x147C PUSH2 0x4D56 JUMP JUMPDEST JUMPDEST PUSH1 0x20 MUL ADD MLOAD SLT ISZERO PUSH2 0x1507 JUMPI DUP10 PUSH1 0x20 ADD MLOAD DUP6 PUSH2 0x100 DUP2 LT PUSH2 0x14A0 JUMPI PUSH2 0x149F PUSH2 0x4D56 JUMP JUMPDEST JUMPDEST PUSH1 0x20 MUL ADD MLOAD DUP3 PUSH1 0xFF AND PUSH1 0x2 DUP2 LT PUSH2 0x14BA JUMPI PUSH2 0x14B9 PUSH2 0x4D56 JUMP JUMPDEST JUMPDEST PUSH1 0x20 MUL ADD MLOAD PUSH1 0x0 PUSH2 0x14CB SWAP2 SWAP1 PUSH2 0x4E0B JUMP JUMPDEST DUP11 PUSH1 0x20 ADD MLOAD DUP7 PUSH2 0x100 DUP2 LT PUSH2 0x14E3 JUMPI PUSH2 0x14E2 PUSH2 0x4D56 JUMP JUMPDEST JUMPDEST PUSH1 0x20 MUL ADD MLOAD DUP4 PUSH1 0xFF AND PUSH1 0x2 DUP2 LT PUSH2 0x14FD JUMPI PUSH2 0x14FC PUSH2 0x4D56 JUMP JUMPDEST JUMPDEST PUSH1 0x20 MUL ADD DUP2 DUP2 MSTORE POP POP JUMPDEST DUP10 PUSH1 0x20 ADD MLOAD DUP6 PUSH2 0x100 DUP2 LT PUSH2 0x151F JUMPI PUSH2 0x151E PUSH2 0x4D56 JUMP JUMPDEST JUMPDEST PUSH1 0x20 MUL ADD MLOAD DUP3 PUSH1 0xFF AND PUSH1 0x2 DUP2 LT PUSH2 0x1539 JUMPI PUSH2 0x1538 PUSH2 0x4D56 JUMP JUMPDEST JUMPDEST PUSH1 0x20 MUL ADD MLOAD DUP11 PUSH1 0x0 ADD MLOAD DUP7 PUSH2 0x100 DUP2 LT PUSH2 0x1556 JUMPI PUSH2 0x1555 PUSH2 0x4D56 JUMP JUMPDEST JUMPDEST PUSH1 0x20 MUL ADD MLOAD DUP4 PUSH1 0xFF AND PUSH1 0x2 DUP2 LT PUSH2 0x1570 JUMPI PUSH2 0x156F PUSH2 0x4D56 JUMP JUMPDEST JUMPDEST PUSH1 0x20 MUL ADD DUP2 DUP2 MLOAD PUSH2 0x1581 SWAP2 SWAP1 PUSH2 0x4F83 JUMP JUMPDEST SWAP2 POP DUP2 DUP2 MSTORE POP POP DUP10 PUSH1 0x0 ADD MLOAD DUP6 PUSH2 0x100 DUP2 LT PUSH2 0x15A0 JUMPI PUSH2 0x159F PUSH2 0x4D56 JUMP JUMPDEST JUMPDEST PUSH1 0x20 MUL ADD MLOAD DUP3 PUSH1 0xFF AND PUSH1 0x2 DUP2 LT PUSH2 0x15BA JUMPI PUSH2 0x15B9 PUSH2 0x4D56 JUMP JUMPDEST JUMPDEST PUSH1 0x20 MUL ADD MLOAD DUP2 PUSH2 0x15CA SWAP2 SWAP1 PUSH2 0x4DCD JUMP JUMPDEST SWAP1 POP DUP5 DUP1 PUSH2 0x15D7 SWAP1 PUSH2 0x4D85 JUMP JUMPDEST SWAP6 POP POP PUSH2 0x129F JUMP JUMPDEST PUSH1 0x1 PUSH2 0x15EB DUP3 DUP12 PUSH2 0x24CE JUMP JUMPDEST PUSH2 0x15F5 SWAP2 SWAP1 PUSH2 0x4DCD JUMP JUMPDEST SWAP5 POP PUSH1 0x0 SWAP1 POP JUMPDEST DUP10 PUSH1 0x0 ADD MLOAD DUP2 PUSH2 0x100 DUP2 LT PUSH2 0x1614 JUMPI PUSH2 0x1613 PUSH2 0x4D56 JUMP JUMPDEST JUMPDEST PUSH1 0x20 MUL ADD MLOAD DUP3 PUSH1 0xFF AND PUSH1 0x2 DUP2 LT PUSH2 0x162E JUMPI PUSH2 0x162D PUSH2 0x4D56 JUMP JUMPDEST JUMPDEST PUSH1 0x20 MUL ADD MLOAD DUP6 GT ISZERO PUSH2 0x168F JUMPI DUP10 PUSH1 0x0 ADD MLOAD DUP2 DUP1 PUSH2 0x164A SWAP1 PUSH2 0x4D85 JUMP JUMPDEST SWAP3 POP PUSH2 0x100 DUP2 LT PUSH2 0x165E JUMPI PUSH2 0x165D PUSH2 0x4D56 JUMP JUMPDEST JUMPDEST PUSH1 0x20 MUL ADD MLOAD DUP3 PUSH1 0xFF AND PUSH1 0x2 DUP2 LT PUSH2 0x1678 JUMPI PUSH2 0x1677 PUSH2 0x4D56 JUMP JUMPDEST JUMPDEST PUSH1 0x20 MUL ADD MLOAD DUP6 PUSH2 0x1688 SWAP2 SWAP1 PUSH2 0x4E4E JUMP JUMPDEST SWAP5 POP PUSH2 0x15FC JUMP JUMPDEST PUSH1 0x0 SWAP5 POP JUMPDEST DUP3 DUP6 LT ISZERO PUSH2 0x1726 JUMPI PUSH1 0x0 DUP11 PUSH1 0x20 ADD MLOAD DUP7 PUSH2 0x100 DUP2 LT PUSH2 0x16B6 JUMPI PUSH2 0x16B5 PUSH2 0x4D56 JUMP JUMPDEST JUMPDEST PUSH1 0x20 MUL ADD MLOAD DUP4 PUSH1 0xFF AND PUSH1 0x2 DUP2 LT PUSH2 0x16D0 JUMPI PUSH2 0x16CF PUSH2 0x4D56 JUMP JUMPDEST JUMPDEST PUSH1 0x20 MUL ADD DUP2 DUP2 MSTORE POP DUP11 PUSH1 0x0 ADD MLOAD DUP7 PUSH2 0x100 DUP2 LT PUSH2 0x16F0 JUMPI PUSH2 0x16EF PUSH2 0x4D56 JUMP JUMPDEST JUMPDEST PUSH1 0x20 MUL ADD MLOAD DUP4 PUSH1 0xFF AND PUSH1 0x2 DUP2 LT PUSH2 0x170A JUMPI PUSH2 0x1709 PUSH2 0x4D56 JUMP JUMPDEST JUMPDEST PUSH1 0x20 MUL ADD DUP2 DUP2 MSTORE POP POP DUP5 DUP1 PUSH2 0x171E SWAP1 PUSH2 0x4D85 JUMP JUMPDEST SWAP6 POP POP PUSH2 0x1694 JUMP JUMPDEST PUSH1 0x0 DUP8 DUP3 AND SUB PUSH2 0x17E4 JUMPI PUSH1 0x0 SWAP5 POP JUMPDEST DUP3 DUP6 LT ISZERO PUSH2 0x17DF JUMPI PUSH1 0x0 DUP11 PUSH1 0x0 ADD MLOAD DUP7 PUSH2 0x100 DUP2 LT PUSH2 0x1757 JUMPI PUSH2 0x1756 PUSH2 0x4D56 JUMP JUMPDEST JUMPDEST PUSH1 0x20 MUL ADD MLOAD DUP6 PUSH1 0xFF AND PUSH1 0x2 DUP2 LT PUSH2 0x1771 JUMPI PUSH2 0x1770 PUSH2 0x4D56 JUMP JUMPDEST JUMPDEST PUSH1 0x20 MUL ADD MLOAD EQ ISZERO DUP1 PUSH2 0x17BA JUMPI POP PUSH1 0x0 DUP11 PUSH1 0x20 ADD MLOAD DUP7 PUSH2 0x100 DUP2 LT PUSH2 0x1798 JUMPI PUSH2 0x1797 PUSH2 0x4D56 JUMP JUMPDEST JUMPDEST PUSH1 0x20 MUL ADD MLOAD DUP6 PUSH1 0xFF AND PUSH1 0x2 DUP2 LT PUSH2 0x17B2 JUMPI PUSH2 0x17B1 PUSH2 0x4D56 JUMP JUMPDEST JUMPDEST PUSH1 0x20 MUL ADD MLOAD EQ ISZERO JUMPDEST ISZERO PUSH2 0x17CC JUMPI PUSH2 0x17CB DUP8 DUP7 DUP13 DUP8 PUSH2 0x31C6 JUMP JUMPDEST JUMPDEST DUP5 DUP1 PUSH2 0x17D7 SWAP1 PUSH2 0x4D85 JUMP JUMPDEST SWAP6 POP POP PUSH2 0x1735 JUMP JUMPDEST PUSH2 0x1894 JUMP JUMPDEST PUSH1 0x0 SWAP5 POP JUMPDEST DUP3 DUP6 LT ISZERO PUSH2 0x1893 JUMPI PUSH1 0x0 DUP11 PUSH1 0x0 ADD MLOAD DUP7 PUSH2 0x100 DUP2 LT PUSH2 0x180B JUMPI PUSH2 0x180A PUSH2 0x4D56 JUMP JUMPDEST JUMPDEST PUSH1 0x20 MUL ADD MLOAD DUP6 PUSH1 0xFF AND PUSH1 0x2 DUP2 LT PUSH2 0x1825 JUMPI PUSH2 0x1824 PUSH2 0x4D56 JUMP JUMPDEST JUMPDEST PUSH1 0x20 MUL ADD MLOAD EQ ISZERO DUP1 PUSH2 0x186E JUMPI POP PUSH1 0x0 DUP11 PUSH1 0x20 ADD MLOAD DUP7 PUSH2 0x100 DUP2 LT PUSH2 0x184C JUMPI PUSH2 0x184B PUSH2 0x4D56 JUMP JUMPDEST JUMPDEST PUSH1 0x20 MUL ADD MLOAD DUP6 PUSH1 0xFF AND PUSH1 0x2 DUP2 LT PUSH2 0x1866 JUMPI PUSH2 0x1865 PUSH2 0x4D56 JUMP JUMPDEST JUMPDEST PUSH1 0x20 MUL ADD MLOAD EQ ISZERO JUMPDEST ISZERO PUSH2 0x1880 JUMPI PUSH2 0x187F DUP8 DUP7 DUP13 DUP8 PUSH2 0x32F2 JUMP JUMPDEST JUMPDEST DUP5 DUP1 PUSH2 0x188B SWAP1 PUSH2 0x4D85 JUMP JUMPDEST SWAP6 POP POP PUSH2 0x17E9 JUMP JUMPDEST JUMPDEST POP PUSH2 0x2387 JUMP JUMPDEST PUSH32 0x4E00000000000000000000000000000000000000000000000000000000000000 PUSH31 0xFFFFFFFFFFFFFFFFFFFFFFFFFFFFFFFFFFFFFFFFFFFFFFFFFFFFFFFFFFFFFF NOT AND DUP11 DUP7 DUP2 MLOAD DUP2 LT PUSH2 0x18F0 JUMPI PUSH2 0x18EF PUSH2 0x4D56 JUMP JUMPDEST JUMPDEST PUSH1 0x20 MUL PUSH1 0x20 ADD ADD MLOAD PUSH31 0xFFFFFFFFFFFFFFFFFFFFFFFFFFFFFFFFFFFFFFFFFFFFFFFFFFFFFFFFFFFFFF NOT AND SUB PUSH2 0x1AB0 JUMPI PUSH1 0x0 PUSH1 0x1 SWAP1 POP PUSH1 0x1 DUP13 PUSH2 0x1932 SWAP2 SWAP1 PUSH2 0x4F4E JUMP JUMPDEST PUSH1 0xFF AND DUP2 SWAP1 SHL SWAP1 POP PUSH1 0x0 DUP1 SWAP6 POP JUMPDEST DUP13 PUSH1 0xFF AND DUP7 LT ISZERO PUSH2 0x19F9 JUMPI PUSH32 0x4300000000000000000000000000000000000000000000000000000000000000 PUSH31 0xFFFFFFFFFFFFFFFFFFFFFFFFFFFFFFFFFFFFFFFFFFFFFFFFFFFFFFFFFFFFFF NOT AND DUP13 DUP8 DUP2 MLOAD DUP2 LT PUSH2 0x19A1 JUMPI PUSH2 0x19A0 PUSH2 0x4D56 JUMP JUMPDEST JUMPDEST PUSH1 0x20 MUL PUSH1 0x20 ADD ADD MLOAD PUSH31 0xFFFFFFFFFFFFFFFFFFFFFFFFFFFFFFFFFFFFFFFFFFFFFFFFFFFFFFFFFFFFFF NOT AND SUB PUSH2 0x19DF JUMPI DUP2 DUP2 PUSH2 0x19DC SWAP2 SWAP1 PUSH2 0x4DCD JUMP JUMPDEST SWAP1 POP JUMPDEST PUSH1 0x1 DUP3 SWAP1 SHR SWAP2 POP DUP6 DUP1 PUSH2 0x19F1 SWAP1 PUSH2 0x4D85 JUMP JUMPDEST SWAP7 POP POP PUSH2 0x1940 JUMP JUMPDEST PUSH1 0x0 SWAP6 POP JUMPDEST DUP4 DUP7 LT ISZERO PUSH2 0x1AA9 JUMPI PUSH1 0x0 DUP12 PUSH1 0x0 ADD MLOAD DUP8 PUSH2 0x100 DUP2 LT PUSH2 0x1A20 JUMPI PUSH2 0x1A1F PUSH2 0x4D56 JUMP JUMPDEST JUMPDEST PUSH1 0x20 MUL ADD MLOAD DUP7 PUSH1 0xFF AND PUSH1 0x2 DUP2 LT PUSH2 0x1A3A JUMPI PUSH2 0x1A39 PUSH2 0x4D56 JUMP JUMPDEST JUMPDEST PUSH1 0x20 MUL ADD MLOAD EQ ISZERO DUP1 PUSH2 0x1A83 JUMPI POP PUSH1 0x0 DUP12 PUSH1 0x20 ADD MLOAD DUP8 PUSH2 0x100 DUP2 LT PUSH2 0x1A61 JUMPI PUSH2 0x1A60 PUSH2 0x4D56 JUMP JUMPDEST JUMPDEST PUSH1 0x20 MUL ADD MLOAD DUP7 PUSH1 0xFF AND PUSH1 0x2 DUP2 LT PUSH2 0x1A7B JUMPI PUSH2 0x1A7A PUSH2 0x4D56 JUMP JUMPDEST JUMPDEST PUSH1 0x20 MUL ADD MLOAD EQ ISZERO JUMPDEST ISZERO PUSH2 0x1A96 JUMPI PUSH2 0x1A95 DUP2 DUP10 DUP9 DUP15 DUP10 PUSH2 0x341D JUMP JUMPDEST JUMPDEST DUP6 DUP1 PUSH2 0x1AA1 SWAP1 PUSH2 0x4D85 JUMP JUMPDEST SWAP7 POP POP PUSH2 0x19FE JUMP JUMPDEST POP POP PUSH2 0x2386 JUMP JUMPDEST PUSH32 0x5000000000000000000000000000000000000000000000000000000000000000 PUSH31 0xFFFFFFFFFFFFFFFFFFFFFFFFFFFFFFFFFFFFFFFFFFFFFFFFFFFFFFFFFFFFFF NOT AND DUP11 DUP7 DUP2 MLOAD DUP2 LT PUSH2 0x1B06 JUMPI PUSH2 0x1B05 PUSH2 0x4D56 JUMP JUMPDEST JUMPDEST PUSH1 0x20 MUL PUSH1 0x20 ADD ADD MLOAD PUSH31 0xFFFFFFFFFFFFFFFFFFFFFFFFFFFFFFFFFFFFFFFFFFFFFFFFFFFFFFFFFFFFFF NOT AND EQ DUP1 PUSH2 0x1BB9 JUMPI POP PUSH32 0x7000000000000000000000000000000000000000000000000000000000000000 PUSH31 0xFFFFFFFFFFFFFFFFFFFFFFFFFFFFFFFFFFFFFFFFFFFFFFFFFFFFFFFFFFFFFF NOT AND DUP11 DUP7 DUP2 MLOAD DUP2 LT PUSH2 0x1B8D JUMPI PUSH2 0x1B8C PUSH2 0x4D56 JUMP JUMPDEST JUMPDEST PUSH1 0x20 MUL PUSH1 0x20 ADD ADD MLOAD PUSH31 0xFFFFFFFFFFFFFFFFFFFFFFFFFFFFFFFFFFFFFFFFFFFFFFFFFFFFFFFFFFFFFF NOT AND EQ JUMPDEST ISZERO PUSH2 0x1DE7 JUMPI PUSH1 0x0 PUSH1 0x1 SWAP1 POP PUSH1 0x1 DUP13 PUSH2 0x1BD1 SWAP2 SWAP1 PUSH2 0x4F4E JUMP JUMPDEST PUSH1 0xFF AND DUP2 SWAP1 SHL SWAP1 POP PUSH1 0x0 DUP1 SWAP6 POP JUMPDEST DUP13 PUSH1 0xFF AND DUP7 LT ISZERO PUSH2 0x1C98 JUMPI PUSH32 0x4300000000000000000000000000000000000000000000000000000000000000 PUSH31 0xFFFFFFFFFFFFFFFFFFFFFFFFFFFFFFFFFFFFFFFFFFFFFFFFFFFFFFFFFFFFFF NOT AND DUP13 DUP8 DUP2 MLOAD DUP2 LT PUSH2 0x1C40 JUMPI PUSH2 0x1C3F PUSH2 0x4D56 JUMP JUMPDEST JUMPDEST PUSH1 0x20 MUL PUSH1 0x20 ADD ADD MLOAD PUSH31 0xFFFFFFFFFFFFFFFFFFFFFFFFFFFFFFFFFFFFFFFFFFFFFFFFFFFFFFFFFFFFFF NOT AND SUB PUSH2 0x1C7E JUMPI DUP2 DUP2 PUSH2 0x1C7B SWAP2 SWAP1 PUSH2 0x4DCD JUMP JUMPDEST SWAP1 POP JUMPDEST PUSH1 0x1 DUP3 SWAP1 SHR SWAP2 POP DUP6 DUP1 PUSH2 0x1C90 SWAP1 PUSH2 0x4D85 JUMP JUMPDEST SWAP7 POP POP PUSH2 0x1BDF JUMP JUMPDEST PUSH1 0x0 SWAP6 POP JUMPDEST DUP4 DUP7 LT ISZERO PUSH2 0x1DE0 JUMPI PUSH1 0x0 DUP12 PUSH1 0x0 ADD MLOAD DUP8 PUSH2 0x100 DUP2 LT PUSH2 0x1CBF JUMPI PUSH2 0x1CBE PUSH2 0x4D56 JUMP JUMPDEST JUMPDEST PUSH1 0x20 MUL ADD MLOAD DUP7 PUSH1 0xFF AND PUSH1 0x2 DUP2 LT PUSH2 0x1CD9 JUMPI PUSH2 0x1CD8 PUSH2 0x4D56 JUMP JUMPDEST JUMPDEST PUSH1 0x20 MUL ADD MLOAD EQ ISZERO DUP1 PUSH2 0x1D22 JUMPI POP PUSH1 0x0 DUP12 PUSH1 0x20 ADD MLOAD DUP8 PUSH2 0x100 DUP2 LT PUSH2 0x1D00 JUMPI PUSH2 0x1CFF PUSH2 0x4D56 JUMP JUMPDEST JUMPDEST PUSH1 0x20 MUL ADD MLOAD DUP7 PUSH1 0xFF AND PUSH1 0x2 DUP2 LT PUSH2 0x1D1A JUMPI PUSH2 0x1D19 PUSH2 0x4D56 JUMP JUMPDEST JUMPDEST PUSH1 0x20 MUL ADD MLOAD EQ ISZERO JUMPDEST ISZERO PUSH2 0x1DCD JUMPI PUSH32 0x5000000000000000000000000000000000000000000000000000000000000000 PUSH31 0xFFFFFFFFFFFFFFFFFFFFFFFFFFFFFFFFFFFFFFFFFFFFFFFFFFFFFFFFFFFFFF NOT AND DUP13 DUP9 DUP2 MLOAD DUP2 LT PUSH2 0x1D7D JUMPI PUSH2 0x1D7C PUSH2 0x4D56 JUMP JUMPDEST JUMPDEST PUSH1 0x20 MUL PUSH1 0x20 ADD ADD MLOAD PUSH31 0xFFFFFFFFFFFFFFFFFFFFFFFFFFFFFFFFFFFFFFFFFFFFFFFFFFFFFFFFFFFFFF NOT AND SUB PUSH2 0x1DBE JUMPI PUSH2 0x1DB9 DUP2 DUP10 DUP9 DUP15 DUP10 PUSH2 0x379C JUMP JUMPDEST PUSH2 0x1DCC JUMP JUMPDEST PUSH2 0x1DCB DUP2 DUP10 DUP9 DUP15 DUP10 PUSH2 0x3AED JUMP JUMPDEST JUMPDEST JUMPDEST DUP6 DUP1 PUSH2 0x1DD8 SWAP1 PUSH2 0x4D85 JUMP JUMPDEST SWAP7 POP POP PUSH2 0x1C9D JUMP JUMPDEST POP POP PUSH2 0x2385 JUMP JUMPDEST PUSH32 0x5400000000000000000000000000000000000000000000000000000000000000 PUSH31 0xFFFFFFFFFFFFFFFFFFFFFFFFFFFFFFFFFFFFFFFFFFFFFFFFFFFFFFFFFFFFFF NOT AND DUP11 DUP7 DUP2 MLOAD DUP2 LT PUSH2 0x1E3D JUMPI PUSH2 0x1E3C PUSH2 0x4D56 JUMP JUMPDEST JUMPDEST PUSH1 0x20 MUL PUSH1 0x20 ADD ADD MLOAD PUSH31 0xFFFFFFFFFFFFFFFFFFFFFFFFFFFFFFFFFFFFFFFFFFFFFFFFFFFFFFFFFFFFFF NOT AND EQ DUP1 PUSH2 0x1EF0 JUMPI POP PUSH32 0x7400000000000000000000000000000000000000000000000000000000000000 PUSH31 0xFFFFFFFFFFFFFFFFFFFFFFFFFFFFFFFFFFFFFFFFFFFFFFFFFFFFFFFFFFFFFF NOT AND DUP11 DUP7 DUP2 MLOAD DUP2 LT PUSH2 0x1EC4 JUMPI PUSH2 0x1EC3 PUSH2 0x4D56 JUMP JUMPDEST JUMPDEST PUSH1 0x20 MUL PUSH1 0x20 ADD ADD MLOAD PUSH31 0xFFFFFFFFFFFFFFFFFFFFFFFFFFFFFFFFFFFFFFFFFFFFFFFFFFFFFFFFFFFFFF NOT AND EQ JUMPDEST ISZERO PUSH2 0x2349 JUMPI PUSH1 0x0 PUSH1 0x1 SWAP1 POP PUSH1 0x1 DUP13 PUSH2 0x1F08 SWAP2 SWAP1 PUSH2 0x4F4E JUMP JUMPDEST PUSH1 0xFF AND DUP2 SWAP1 SHL SWAP1 POP PUSH1 0x0 PUSH2 0x1F1A PUSH2 0x461A JUMP JUMPDEST PUSH1 0x0 SWAP7 POP JUMPDEST DUP14 PUSH1 0xFF AND DUP8 LT ISZERO PUSH2 0x1FD8 JUMPI PUSH32 0x4300000000000000000000000000000000000000000000000000000000000000 PUSH31 0xFFFFFFFFFFFFFFFFFFFFFFFFFFFFFFFFFFFFFFFFFFFFFFFFFFFFFFFFFFFFFF NOT AND DUP14 DUP9 DUP2 MLOAD DUP2 LT PUSH2 0x1F80 JUMPI PUSH2 0x1F7F PUSH2 0x4D56 JUMP JUMPDEST JUMPDEST PUSH1 0x20 MUL PUSH1 0x20 ADD ADD MLOAD PUSH31 0xFFFFFFFFFFFFFFFFFFFFFFFFFFFFFFFFFFFFFFFFFFFFFFFFFFFFFFFFFFFFFF NOT AND SUB PUSH2 0x1FBE JUMPI DUP3 DUP3 PUSH2 0x1FBB SWAP2 SWAP1 PUSH2 0x4DCD JUMP JUMPDEST SWAP2 POP JUMPDEST PUSH1 0x1 DUP4 SWAP1 SHR SWAP3 POP DUP7 DUP1 PUSH2 0x1FD0 SWAP1 PUSH2 0x4D85 JUMP JUMPDEST SWAP8 POP POP PUSH2 0x1F1F JUMP JUMPDEST PUSH1 0x0 SWAP3 POP PUSH1 0x0 SWAP7 POP JUMPDEST DUP5 DUP8 LT ISZERO PUSH2 0x21BE JUMPI PUSH1 0x0 DUP2 DUP9 PUSH2 0x100 DUP2 LT PUSH2 0x1FFF JUMPI PUSH2 0x1FFE PUSH2 0x4D56 JUMP JUMPDEST JUMPDEST PUSH1 0x20 MUL ADD SWAP1 PUSH1 0xFF AND SWAP1 DUP2 PUSH1 0xFF AND DUP2 MSTORE POP POP PUSH1 0x0 DUP13 PUSH1 0x0 ADD MLOAD DUP9 PUSH2 0x100 DUP2 LT PUSH2 0x202A JUMPI PUSH2 0x2029 PUSH2 0x4D56 JUMP JUMPDEST JUMPDEST PUSH1 0x20 MUL ADD MLOAD DUP8 PUSH1 0xFF AND PUSH1 0x2 DUP2 LT PUSH2 0x2044 JUMPI PUSH2 0x2043 PUSH2 0x4D56 JUMP JUMPDEST JUMPDEST PUSH1 0x20 MUL ADD MLOAD EQ ISZERO DUP1 PUSH2 0x208D JUMPI POP PUSH1 0x0 DUP13 PUSH1 0x20 ADD MLOAD DUP9 PUSH2 0x100 DUP2 LT PUSH2 0x206B JUMPI PUSH2 0x206A PUSH2 0x4D56 JUMP JUMPDEST JUMPDEST PUSH1 0x20 MUL ADD MLOAD DUP8 PUSH1 0xFF AND PUSH1 0x2 DUP2 LT PUSH2 0x2085 JUMPI PUSH2 0x2084 PUSH2 0x4D56 JUMP JUMPDEST JUMPDEST PUSH1 0x20 MUL ADD MLOAD EQ ISZERO JUMPDEST ISZERO PUSH2 0x21AB JUMPI PUSH32 0x5400000000000000000000000000000000000000000000000000000000000000 PUSH31 0xFFFFFFFFFFFFFFFFFFFFFFFFFFFFFFFFFFFFFFFFFFFFFFFFFFFFFFFFFFFFFF NOT AND DUP14 DUP10 DUP2 MLOAD DUP2 LT PUSH2 0x20E8 JUMPI PUSH2 0x20E7 PUSH2 0x4D56 JUMP JUMPDEST JUMPDEST PUSH1 0x20 MUL PUSH1 0x20 ADD ADD MLOAD PUSH31 0xFFFFFFFFFFFFFFFFFFFFFFFFFFFFFFFFFFFFFFFFFFFFFFFFFFFFFFFFFFFFFF NOT AND SUB PUSH2 0x214E JUMPI PUSH2 0x2124 DUP3 DUP11 DUP10 DUP16 DUP11 PUSH2 0x3E3E JUMP JUMPDEST DUP2 DUP9 PUSH2 0x100 DUP2 LT PUSH2 0x2138 JUMPI PUSH2 0x2137 PUSH2 0x4D56 JUMP JUMPDEST JUMPDEST PUSH1 0x20 MUL ADD SWAP1 PUSH1 0xFF AND SWAP1 DUP2 PUSH1 0xFF AND DUP2 MSTORE POP POP PUSH2 0x2181 JUMP JUMPDEST PUSH2 0x215B DUP3 DUP11 DUP10 DUP16 DUP11 PUSH2 0x4213 JUMP JUMPDEST DUP2 DUP9 PUSH2 0x100 DUP2 LT PUSH2 0x216F JUMPI PUSH2 0x216E PUSH2 0x4D56 JUMP JUMPDEST JUMPDEST PUSH1 0x20 MUL ADD SWAP1 PUSH1 0xFF AND SWAP1 DUP2 PUSH1 0xFF AND DUP2 MSTORE POP POP JUMPDEST PUSH1 0x0 DUP2 DUP9 PUSH2 0x100 DUP2 LT PUSH2 0x2197 JUMPI PUSH2 0x2196 PUSH2 0x4D56 JUMP JUMPDEST JUMPDEST PUSH1 0x20 MUL ADD MLOAD PUSH1 0xFF AND GT ISZERO PUSH2 0x21AA JUMPI PUSH1 0x1 SWAP3 POP JUMPDEST JUMPDEST DUP7 DUP1 PUSH2 0x21B6 SWAP1 PUSH2 0x4D85 JUMP JUMPDEST SWAP8 POP POP PUSH2 0x1FE1 JUMP JUMPDEST PUSH1 0x0 DUP4 GT ISZERO PUSH2 0x2341 JUMPI PUSH1 0x0 SWAP7 POP JUMPDEST DUP5 DUP8 LT ISZERO PUSH2 0x2340 JUMPI PUSH1 0x0 DUP2 DUP9 PUSH2 0x100 DUP2 LT PUSH2 0x21EA JUMPI PUSH2 0x21E9 PUSH2 0x4D56 JUMP JUMPDEST JUMPDEST PUSH1 0x20 MUL ADD MLOAD PUSH1 0xFF AND SUB PUSH2 0x2294 JUMPI PUSH1 0xA DUP13 PUSH1 0x0 ADD MLOAD DUP9 PUSH2 0x100 DUP2 LT PUSH2 0x2211 JUMPI PUSH2 0x2210 PUSH2 0x4D56 JUMP JUMPDEST JUMPDEST PUSH1 0x20 MUL ADD MLOAD DUP6 PUSH1 0xFF AND PUSH1 0x2 DUP2 LT PUSH2 0x222B JUMPI PUSH2 0x222A PUSH2 0x4D56 JUMP JUMPDEST JUMPDEST PUSH1 0x20 MUL ADD DUP2 DUP2 MLOAD PUSH2 0x223C SWAP2 SWAP1 PUSH2 0x4FC7 JUMP JUMPDEST SWAP2 POP DUP2 DUP2 MSTORE POP POP PUSH1 0xA DUP13 PUSH1 0x20 ADD MLOAD DUP9 PUSH2 0x100 DUP2 LT PUSH2 0x225D JUMPI PUSH2 0x225C PUSH2 0x4D56 JUMP JUMPDEST JUMPDEST PUSH1 0x20 MUL ADD MLOAD DUP6 PUSH1 0xFF AND PUSH1 0x2 DUP2 LT PUSH2 0x2277 JUMPI PUSH2 0x2276 PUSH2 0x4D56 JUMP JUMPDEST JUMPDEST PUSH1 0x20 MUL ADD DUP2 DUP2 MLOAD PUSH2 0x2288 SWAP2 SWAP1 PUSH2 0x4FC7 JUMP JUMPDEST SWAP2 POP DUP2 DUP2 MSTORE POP POP PUSH2 0x232D JUMP JUMPDEST PUSH1 0x7 DUP13 PUSH1 0x0 ADD MLOAD DUP9 PUSH2 0x100 DUP2 LT PUSH2 0x22AE JUMPI PUSH2 0x22AD PUSH2 0x4D56 JUMP JUMPDEST JUMPDEST PUSH1 0x20 MUL ADD MLOAD DUP6 PUSH1 0xFF AND PUSH1 0x2 DUP2 LT PUSH2 0x22C8 JUMPI PUSH2 0x22C7 PUSH2 0x4D56 JUMP JUMPDEST JUMPDEST PUSH1 0x20 MUL ADD DUP2 DUP2 MLOAD PUSH2 0x22D9 SWAP2 SWAP1 PUSH2 0x4FC7 JUMP JUMPDEST SWAP2 POP DUP2 DUP2 MSTORE POP POP PUSH1 0x7 DUP13 PUSH1 0x20 ADD MLOAD DUP9 PUSH2 0x100 DUP2 LT PUSH2 0x22FA JUMPI PUSH2 0x22F9 PUSH2 0x4D56 JUMP JUMPDEST JUMPDEST PUSH1 0x20 MUL ADD MLOAD DUP6 PUSH1 0xFF AND PUSH1 0x2 DUP2 LT PUSH2 0x2314 JUMPI PUSH2 0x2313 PUSH2 0x4D56 JUMP JUMPDEST JUMPDEST PUSH1 0x20 MUL ADD DUP2 DUP2 MLOAD PUSH2 0x2325 SWAP2 SWAP1 PUSH2 0x4FC7 JUMP JUMPDEST SWAP2 POP DUP2 DUP2 MSTORE POP POP JUMPDEST DUP7 DUP1 PUSH2 0x2338 SWAP1 PUSH2 0x4D85 JUMP JUMPDEST SWAP8 POP POP PUSH2 0x21CC JUMP JUMPDEST JUMPDEST POP POP POP PUSH2 0x2384 JUMP JUMPDEST PUSH1 0x40 MLOAD PUSH32 0x8C379A000000000000000000000000000000000000000000000000000000000 DUP2 MSTORE PUSH1 0x4 ADD PUSH2 0x237B SWAP1 PUSH2 0x508B JUMP JUMPDEST PUSH1 0x40 MLOAD DUP1 SWAP2 SUB SWAP1 REVERT JUMPDEST JUMPDEST JUMPDEST JUMPDEST JUMPDEST JUMPDEST JUMPDEST JUMPDEST JUMPDEST PUSH1 0x1 DUP7 SWAP1 SHR SWAP6 POP DUP1 SWAP3 POP POP DUP4 DUP1 PUSH2 0x23A2 SWAP1 PUSH2 0x4D85 JUMP JUMPDEST SWAP5 POP POP PUSH2 0xAB5 JUMP JUMPDEST PUSH1 0x1 DUP3 PUSH1 0xFF AND SUB PUSH2 0x24BE JUMPI PUSH1 0x0 SWAP3 POP JUMPDEST DUP10 PUSH1 0x2 PUSH2 0x23C7 SWAP2 SWAP1 PUSH2 0x4D0B JUMP JUMPDEST DUP4 LT ISZERO PUSH2 0x24BD JUMPI DUP8 PUSH1 0x0 ADD MLOAD DUP4 PUSH2 0x100 DUP2 LT PUSH2 0x23E6 JUMPI PUSH2 0x23E5 PUSH2 0x4D56 JUMP JUMPDEST JUMPDEST PUSH1 0x20 MUL ADD MLOAD PUSH1 0x1 PUSH1 0x2 DUP2 LT PUSH2 0x23FE JUMPI PUSH2 0x23FD PUSH2 0x4D56 JUMP JUMPDEST JUMPDEST PUSH1 0x20 MUL ADD MLOAD DUP9 PUSH1 0x0 ADD MLOAD DUP5 PUSH2 0x100 DUP2 LT PUSH2 0x241B JUMPI PUSH2 0x241A PUSH2 0x4D56 JUMP JUMPDEST JUMPDEST PUSH1 0x20 MUL ADD MLOAD PUSH1 0x0 PUSH1 0x2 DUP2 LT PUSH2 0x2433 JUMPI PUSH2 0x2432 PUSH2 0x4D56 JUMP JUMPDEST JUMPDEST PUSH1 0x20 MUL ADD DUP2 DUP2 MSTORE POP POP DUP8 PUSH1 0x20 ADD MLOAD DUP4 PUSH2 0x100 DUP2 LT PUSH2 0x2454 JUMPI PUSH2 0x2453 PUSH2 0x4D56 JUMP JUMPDEST JUMPDEST PUSH1 0x20 MUL ADD MLOAD PUSH1 0x1 PUSH1 0x2 DUP2 LT PUSH2 0x246C JUMPI PUSH2 0x246B PUSH2 0x4D56 JUMP JUMPDEST JUMPDEST PUSH1 0x20 MUL ADD MLOAD DUP9 PUSH1 0x20 ADD MLOAD DUP5 PUSH2 0x100 DUP2 LT PUSH2 0x2489 JUMPI PUSH2 0x2488 PUSH2 0x4D56 JUMP JUMPDEST JUMPDEST PUSH1 0x20 MUL ADD MLOAD PUSH1 0x0 PUSH1 0x2 DUP2 LT PUSH2 0x24A1 JUMPI PUSH2 0x24A0 PUSH2 0x4D56 JUMP JUMPDEST JUMPDEST PUSH1 0x20 MUL ADD DUP2 DUP2 MSTORE POP POP DUP3 DUP1 PUSH2 0x24B5 SWAP1 PUSH2 0x4D85 JUMP JUMPDEST SWAP4 POP POP PUSH2 0x23BA JUMP JUMPDEST JUMPDEST DUP10 SWAP6 POP POP POP POP POP POP SWAP5 SWAP4 POP POP POP POP JUMP JUMPDEST PUSH1 0x0 DUP1 NUMBER TIMESTAMP DUP5 PUSH1 0x40 MLOAD PUSH1 0x20 ADD PUSH2 0x24E6 SWAP4 SWAP3 SWAP2 SWAP1 PUSH2 0x50AB JUMP JUMPDEST PUSH1 0x40 MLOAD PUSH1 0x20 DUP2 DUP4 SUB SUB DUP2 MSTORE SWAP1 PUSH1 0x40 MSTORE DUP1 MLOAD SWAP1 PUSH1 0x20 ADD KECCAK256 PUSH1 0x0 SHR SWAP1 POP DUP4 DUP2 PUSH2 0x250D SWAP2 SWAP1 PUSH2 0x5111 JUMP JUMPDEST SWAP2 POP POP SWAP3 SWAP2 POP POP JUMP JUMPDEST PUSH1 0x0 DUP1 DUP3 PUSH1 0xFF AND EQ PUSH2 0x2529 JUMPI PUSH1 0x0 PUSH2 0x252C JUMP JUMPDEST PUSH1 0x1 JUMPDEST SWAP1 POP PUSH1 0x0 DUP5 DUP7 AND EQ PUSH2 0x2763 JUMPI DUP3 PUSH1 0x0 ADD MLOAD DUP5 PUSH2 0x100 DUP2 LT PUSH2 0x2550 JUMPI PUSH2 0x254F PUSH2 0x4D56 JUMP JUMPDEST JUMPDEST PUSH1 0x20 MUL ADD MLOAD DUP3 PUSH1 0xFF AND PUSH1 0x2 DUP2 LT PUSH2 0x256A JUMPI PUSH2 0x2569 PUSH2 0x4D56 JUMP JUMPDEST JUMPDEST PUSH1 0x20 MUL ADD MLOAD DUP4 PUSH1 0x0 ADD MLOAD DUP7 DUP7 PUSH2 0x2580 SWAP2 SWAP1 PUSH2 0x4E4E JUMP JUMPDEST PUSH2 0x100 DUP2 LT PUSH2 0x2592 JUMPI PUSH2 0x2591 PUSH2 0x4D56 JUMP JUMPDEST JUMPDEST PUSH1 0x20 MUL ADD MLOAD DUP3 PUSH1 0xFF AND PUSH1 0x2 DUP2 LT PUSH2 0x25AC JUMPI PUSH2 0x25AB PUSH2 0x4D56 JUMP JUMPDEST JUMPDEST PUSH1 0x20 MUL ADD DUP2 DUP2 MLOAD PUSH2 0x25BD SWAP2 SWAP1 PUSH2 0x4F83 JUMP JUMPDEST SWAP2 POP DUP2 DUP2 MSTORE POP POP DUP3 PUSH1 0x20 ADD MLOAD DUP5 PUSH2 0x100 DUP2 LT PUSH2 0x25DC JUMPI PUSH2 0x25DB PUSH2 0x4D56 JUMP JUMPDEST JUMPDEST PUSH1 0x20 MUL ADD MLOAD DUP3 PUSH1 0xFF AND PUSH1 0x2 DUP2 LT PUSH2 0x25F6 JUMPI PUSH2 0x25F5 PUSH2 0x4D56 JUMP JUMPDEST JUMPDEST PUSH1 0x20 MUL ADD MLOAD DUP4 PUSH1 0x20 ADD MLOAD DUP7 DUP7 PUSH2 0x260C SWAP2 SWAP1 PUSH2 0x4E4E JUMP JUMPDEST PUSH2 0x100 DUP2 LT PUSH2 0x261E JUMPI PUSH2 0x261D PUSH2 0x4D56 JUMP JUMPDEST JUMPDEST PUSH1 0x20 MUL ADD MLOAD DUP3 PUSH1 0xFF AND PUSH1 0x2 DUP2 LT PUSH2 0x2638 JUMPI PUSH2 0x2637 PUSH2 0x4D56 JUMP JUMPDEST JUMPDEST PUSH1 0x20 MUL ADD DUP2 DUP2 MLOAD PUSH2 0x2649 SWAP2 SWAP1 PUSH2 0x4F83 JUMP JUMPDEST SWAP2 POP DUP2 DUP2 MSTORE POP POP DUP3 PUSH1 0x0 ADD MLOAD DUP5 PUSH2 0x100 DUP2 LT PUSH2 0x2668 JUMPI PUSH2 0x2667 PUSH2 0x4D56 JUMP JUMPDEST JUMPDEST PUSH1 0x20 MUL ADD MLOAD DUP3 PUSH1 0xFF AND PUSH1 0x2 DUP2 LT PUSH2 0x2682 JUMPI PUSH2 0x2681 PUSH2 0x4D56 JUMP JUMPDEST JUMPDEST PUSH1 0x20 MUL ADD MLOAD PUSH1 0x0 PUSH2 0x2693 SWAP2 SWAP1 PUSH2 0x4E0B JUMP JUMPDEST DUP4 PUSH1 0x0 ADD MLOAD DUP6 PUSH2 0x100 DUP2 LT PUSH2 0x26AB JUMPI PUSH2 0x26AA PUSH2 0x4D56 JUMP JUMPDEST JUMPDEST PUSH1 0x20 MUL ADD MLOAD DUP3 PUSH1 0xFF AND PUSH1 0x2 DUP2 LT PUSH2 0x26C5 JUMPI PUSH2 0x26C4 PUSH2 0x4D56 JUMP JUMPDEST JUMPDEST PUSH1 0x20 MUL ADD DUP2 DUP2 MLOAD PUSH2 0x26D6 SWAP2 SWAP1 PUSH2 0x4F83 JUMP JUMPDEST SWAP2 POP DUP2 DUP2 MSTORE POP POP DUP3 PUSH1 0x20 ADD MLOAD DUP5 PUSH2 0x100 DUP2 LT PUSH2 0x26F5 JUMPI PUSH2 0x26F4 PUSH2 0x4D56 JUMP JUMPDEST JUMPDEST PUSH1 0x20 MUL ADD MLOAD DUP3 PUSH1 0xFF AND PUSH1 0x2 DUP2 LT PUSH2 0x270F JUMPI PUSH2 0x270E PUSH2 0x4D56 JUMP JUMPDEST JUMPDEST PUSH1 0x20 MUL ADD MLOAD DUP4 PUSH1 0x20 ADD MLOAD DUP6 PUSH2 0x100 DUP2 LT PUSH2 0x272C JUMPI PUSH2 0x272B PUSH2 0x4D56 JUMP JUMPDEST JUMPDEST PUSH1 0x20 MUL ADD MLOAD DUP3 PUSH1 0xFF AND PUSH1 0x2 DUP2 LT PUSH2 0x2746 JUMPI PUSH2 0x2745 PUSH2 0x4D56 JUMP JUMPDEST JUMPDEST PUSH1 0x20 MUL ADD DUP2 DUP2 MLOAD PUSH2 0x2757 SWAP2 SWAP1 PUSH2 0x4F83 JUMP JUMPDEST SWAP2 POP DUP2 DUP2 MSTORE POP POP PUSH2 0x297E JUMP JUMPDEST DUP3 PUSH1 0x0 ADD MLOAD DUP5 PUSH2 0x100 DUP2 LT PUSH2 0x277B JUMPI PUSH2 0x277A PUSH2 0x4D56 JUMP JUMPDEST JUMPDEST PUSH1 0x20 MUL ADD MLOAD DUP3 PUSH1 0xFF AND PUSH1 0x2 DUP2 LT PUSH2 0x2795 JUMPI PUSH2 0x2794 PUSH2 0x4D56 JUMP JUMPDEST JUMPDEST PUSH1 0x20 MUL ADD MLOAD DUP4 PUSH1 0x0 ADD MLOAD DUP7 DUP7 PUSH2 0x27AB SWAP2 SWAP1 PUSH2 0x4DCD JUMP JUMPDEST PUSH2 0x100 DUP2 LT PUSH2 0x27BD JUMPI PUSH2 0x27BC PUSH2 0x4D56 JUMP JUMPDEST JUMPDEST PUSH1 0x20 MUL ADD MLOAD DUP3 PUSH1 0xFF AND PUSH1 0x2 DUP2 LT PUSH2 0x27D7 JUMPI PUSH2 0x27D6 PUSH2 0x4D56 JUMP JUMPDEST JUMPDEST PUSH1 0x20 MUL ADD DUP2 DUP2 MLOAD PUSH2 0x27E8 SWAP2 SWAP1 PUSH2 0x4F83 JUMP JUMPDEST SWAP2 POP DUP2 DUP2 MSTORE POP POP DUP3 PUSH1 0x20 ADD MLOAD DUP5 PUSH2 0x100 DUP2 LT PUSH2 0x2807 JUMPI PUSH2 0x2806 PUSH2 0x4D56 JUMP JUMPDEST JUMPDEST PUSH1 0x20 MUL ADD MLOAD DUP3 PUSH1 0xFF AND PUSH1 0x2 DUP2 LT PUSH2 0x2821 JUMPI PUSH2 0x2820 PUSH2 0x4D56 JUMP JUMPDEST JUMPDEST PUSH1 0x20 MUL ADD MLOAD DUP4 PUSH1 0x20 ADD MLOAD DUP7 DUP7 PUSH2 0x2837 SWAP2 SWAP1 PUSH2 0x4DCD JUMP JUMPDEST PUSH2 0x100 DUP2 LT PUSH2 0x2849 JUMPI PUSH2 0x2848 PUSH2 0x4D56 JUMP JUMPDEST JUMPDEST PUSH1 0x20 MUL ADD MLOAD DUP3 PUSH1 0xFF AND PUSH1 0x2 DUP2 LT PUSH2 0x2863 JUMPI PUSH2 0x2862 PUSH2 0x4D56 JUMP JUMPDEST JUMPDEST PUSH1 0x20 MUL ADD DUP2 DUP2 MLOAD PUSH2 0x2874 SWAP2 SWAP1 PUSH2 0x4F83 JUMP JUMPDEST SWAP2 POP DUP2 DUP2 MSTORE POP POP DUP3 PUSH1 0x0 ADD MLOAD DUP5 PUSH2 0x100 DUP2 LT PUSH2 0x2893 JUMPI PUSH2 0x2892 PUSH2 0x4D56 JUMP JUMPDEST JUMPDEST PUSH1 0x20 MUL ADD MLOAD DUP3 PUSH1 0xFF AND PUSH1 0x2 DUP2 LT PUSH2 0x28AD JUMPI PUSH2 0x28AC PUSH2 0x4D56 JUMP JUMPDEST JUMPDEST PUSH1 0x20 MUL ADD MLOAD DUP4 PUSH1 0x0 ADD MLOAD DUP6 PUSH2 0x100 DUP2 LT PUSH2 0x28CA JUMPI PUSH2 0x28C9 PUSH2 0x4D56 JUMP JUMPDEST JUMPDEST PUSH1 0x20 MUL ADD MLOAD DUP3 PUSH1 0xFF AND PUSH1 0x2 DUP2 LT PUSH2 0x28E4 JUMPI PUSH2 0x28E3 PUSH2 0x4D56 JUMP JUMPDEST JUMPDEST PUSH1 0x20 MUL ADD DUP2 DUP2 MLOAD PUSH2 0x28F5 SWAP2 SWAP1 PUSH2 0x4F83 JUMP JUMPDEST SWAP2 POP DUP2 DUP2 MSTORE POP POP DUP3 PUSH1 0x20 ADD MLOAD DUP5 PUSH2 0x100 DUP2 LT PUSH2 0x2914 JUMPI PUSH2 0x2913 PUSH2 0x4D56 JUMP JUMPDEST JUMPDEST PUSH1 0x20 MUL ADD MLOAD DUP3 PUSH1 0xFF AND PUSH1 0x2 DUP2 LT PUSH2 0x292E JUMPI PUSH2 0x292D PUSH2 0x4D56 JUMP JUMPDEST JUMPDEST PUSH1 0x20 MUL ADD MLOAD DUP4 PUSH1 0x20 ADD MLOAD DUP6 PUSH2 0x100 DUP2 LT PUSH2 0x294B JUMPI PUSH2 0x294A PUSH2 0x4D56 JUMP JUMPDEST JUMPDEST PUSH1 0x20 MUL ADD MLOAD DUP3 PUSH1 0xFF AND PUSH1 0x2 DUP2 LT PUSH2 0x2965 JUMPI PUSH2 0x2964 PUSH2 0x4D56 JUMP JUMPDEST JUMPDEST PUSH1 0x20 MUL ADD DUP2 DUP2 MLOAD PUSH2 0x2976 SWAP2 SWAP1 PUSH2 0x4F83 JUMP JUMPDEST SWAP2 POP DUP2 DUP2 MSTORE POP POP JUMPDEST POP POP POP POP POP JUMP JUMPDEST PUSH1 0x0 DUP1 DUP3 PUSH1 0xFF AND EQ PUSH2 0x2998 JUMPI PUSH1 0x0 PUSH2 0x299B JUMP JUMPDEST PUSH1 0x1 JUMPDEST SWAP1 POP DUP3 PUSH1 0x0 ADD MLOAD DUP5 PUSH2 0x100 DUP2 LT PUSH2 0x29B5 JUMPI PUSH2 0x29B4 PUSH2 0x4D56 JUMP JUMPDEST JUMPDEST PUSH1 0x20 MUL ADD MLOAD DUP3 PUSH1 0xFF AND PUSH1 0x2 DUP2 LT PUSH2 0x29CF JUMPI PUSH2 0x29CE PUSH2 0x4D56 JUMP JUMPDEST JUMPDEST PUSH1 0x20 MUL ADD MLOAD DUP4 PUSH1 0x0 ADD MLOAD DUP6 PUSH2 0x100 DUP2 LT PUSH2 0x29EC JUMPI PUSH2 0x29EB PUSH2 0x4D56 JUMP JUMPDEST JUMPDEST PUSH1 0x20 MUL ADD MLOAD DUP3 PUSH1 0xFF AND PUSH1 0x2 DUP2 LT PUSH2 0x2A06 JUMPI PUSH2 0x2A05 PUSH2 0x4D56 JUMP JUMPDEST JUMPDEST PUSH1 0x20 MUL ADD DUP2 DUP2 MLOAD PUSH2 0x2A17 SWAP2 SWAP1 PUSH2 0x4F83 JUMP JUMPDEST SWAP2 POP DUP2 DUP2 MSTORE POP POP DUP3 PUSH1 0x20 ADD MLOAD DUP5 PUSH2 0x100 DUP2 LT PUSH2 0x2A36 JUMPI PUSH2 0x2A35 PUSH2 0x4D56 JUMP JUMPDEST JUMPDEST PUSH1 0x20 MUL ADD MLOAD DUP3 PUSH1 0xFF AND PUSH1 0x2 DUP2 LT PUSH2 0x2A50 JUMPI PUSH2 0x2A4F PUSH2 0x4D56 JUMP JUMPDEST JUMPDEST PUSH1 0x20 MUL ADD MLOAD DUP4 PUSH1 0x20 ADD MLOAD DUP6 PUSH2 0x100 DUP2 LT PUSH2 0x2A6D JUMPI PUSH2 0x2A6C PUSH2 0x4D56 JUMP JUMPDEST JUMPDEST PUSH1 0x20 MUL ADD MLOAD DUP3 PUSH1 0xFF AND PUSH1 0x2 DUP2 LT PUSH2 0x2A87 JUMPI PUSH2 0x2A86 PUSH2 0x4D56 JUMP JUMPDEST JUMPDEST PUSH1 0x20 MUL ADD DUP2 DUP2 MLOAD PUSH2 0x2A98 SWAP2 SWAP1 PUSH2 0x4F83 JUMP JUMPDEST SWAP2 POP DUP2 DUP2 MSTORE POP POP POP POP POP POP JUMP JUMPDEST PUSH1 0x0 DUP1 DUP3 PUSH1 0xFF AND EQ PUSH2 0x2AB8 JUMPI PUSH1 0x0 PUSH2 0x2ABB JUMP JUMPDEST PUSH1 0x1 JUMPDEST SWAP1 POP PUSH1 0x0 DUP5 DUP7 AND EQ PUSH2 0x2BE4 JUMPI DUP3 PUSH1 0x0 ADD MLOAD DUP5 PUSH2 0x100 DUP2 LT PUSH2 0x2ADF JUMPI PUSH2 0x2ADE PUSH2 0x4D56 JUMP JUMPDEST JUMPDEST PUSH1 0x20 MUL ADD MLOAD DUP3 PUSH1 0xFF AND PUSH1 0x2 DUP2 LT PUSH2 0x2AF9 JUMPI PUSH2 0x2AF8 PUSH2 0x4D56 JUMP JUMPDEST JUMPDEST PUSH1 0x20 MUL ADD MLOAD DUP4 PUSH1 0x0 ADD MLOAD DUP7 DUP7 PUSH2 0x2B0F SWAP2 SWAP1 PUSH2 0x4E4E JUMP JUMPDEST PUSH2 0x100 DUP2 LT PUSH2 0x2B21 JUMPI PUSH2 0x2B20 PUSH2 0x4D56 JUMP JUMPDEST JUMPDEST PUSH1 0x20 MUL ADD MLOAD DUP3 PUSH1 0xFF AND PUSH1 0x2 DUP2 LT PUSH2 0x2B3B JUMPI PUSH2 0x2B3A PUSH2 0x4D56 JUMP JUMPDEST JUMPDEST PUSH1 0x20 MUL ADD DUP2 DUP2 MLOAD PUSH2 0x2B4C SWAP2 SWAP1 PUSH2 0x4F83 JUMP JUMPDEST SWAP2 POP DUP2 DUP2 MSTORE POP POP DUP3 PUSH1 0x20 ADD MLOAD DUP5 PUSH2 0x100 DUP2 LT PUSH2 0x2B6B JUMPI PUSH2 0x2B6A PUSH2 0x4D56 JUMP JUMPDEST JUMPDEST PUSH1 0x20 MUL ADD MLOAD DUP3 PUSH1 0xFF AND PUSH1 0x2 DUP2 LT PUSH2 0x2B85 JUMPI PUSH2 0x2B84 PUSH2 0x4D56 JUMP JUMPDEST JUMPDEST PUSH1 0x20 MUL ADD MLOAD DUP4 PUSH1 0x20 ADD MLOAD DUP7 DUP7 PUSH2 0x2B9B SWAP2 SWAP1 PUSH2 0x4E4E JUMP JUMPDEST PUSH2 0x100 DUP2 LT PUSH2 0x2BAD JUMPI PUSH2 0x2BAC PUSH2 0x4D56 JUMP JUMPDEST JUMPDEST PUSH1 0x20 MUL ADD MLOAD DUP3 PUSH1 0xFF AND PUSH1 0x2 DUP2 LT PUSH2 0x2BC7 JUMPI PUSH2 0x2BC6 PUSH2 0x4D56 JUMP JUMPDEST JUMPDEST PUSH1 0x20 MUL ADD DUP2 DUP2 MLOAD PUSH2 0x2BD8 SWAP2 SWAP1 PUSH2 0x4F83 JUMP JUMPDEST SWAP2 POP DUP2 DUP2 MSTORE POP POP PUSH2 0x2CFD JUMP JUMPDEST DUP3 PUSH1 0x0 ADD MLOAD DUP5 PUSH2 0x100 DUP2 LT PUSH2 0x2BFC JUMPI PUSH2 0x2BFB PUSH2 0x4D56 JUMP JUMPDEST JUMPDEST PUSH1 0x20 MUL ADD MLOAD DUP3 PUSH1 0xFF AND PUSH1 0x2 DUP2 LT PUSH2 0x2C16 JUMPI PUSH2 0x2C15 PUSH2 0x4D56 JUMP JUMPDEST JUMPDEST PUSH1 0x20 MUL ADD MLOAD DUP4 PUSH1 0x0 ADD MLOAD DUP7 DUP7 PUSH2 0x2C2C SWAP2 SWAP1 PUSH2 0x4DCD JUMP JUMPDEST PUSH2 0x100 DUP2 LT PUSH2 0x2C3E JUMPI PUSH2 0x2C3D PUSH2 0x4D56 JUMP JUMPDEST JUMPDEST PUSH1 0x20 MUL ADD MLOAD DUP3 PUSH1 0xFF AND PUSH1 0x2 DUP2 LT PUSH2 0x2C58 JUMPI PUSH2 0x2C57 PUSH2 0x4D56 JUMP JUMPDEST JUMPDEST PUSH1 0x20 MUL ADD DUP2 DUP2 MLOAD PUSH2 0x2C69 SWAP2 SWAP1 PUSH2 0x4F83 JUMP JUMPDEST SWAP2 POP DUP2 DUP2 MSTORE POP POP DUP3 PUSH1 0x20 ADD MLOAD DUP5 PUSH2 0x100 DUP2 LT PUSH2 0x2C88 JUMPI PUSH2 0x2C87 PUSH2 0x4D56 JUMP JUMPDEST JUMPDEST PUSH1 0x20 MUL ADD MLOAD DUP3 PUSH1 0xFF AND PUSH1 0x2 DUP2 LT PUSH2 0x2CA2 JUMPI PUSH2 0x2CA1 PUSH2 0x4D56 JUMP JUMPDEST JUMPDEST PUSH1 0x20 MUL ADD MLOAD DUP4 PUSH1 0x20 ADD MLOAD DUP7 DUP7 PUSH2 0x2CB8 SWAP2 SWAP1 PUSH2 0x4DCD JUMP JUMPDEST PUSH2 0x100 DUP2 LT PUSH2 0x2CCA JUMPI PUSH2 0x2CC9 PUSH2 0x4D56 JUMP JUMPDEST JUMPDEST PUSH1 0x20 MUL ADD MLOAD DUP3 PUSH1 0xFF AND PUSH1 0x2 DUP2 LT PUSH2 0x2CE4 JUMPI PUSH2 0x2CE3 PUSH2 0x4D56 JUMP JUMPDEST JUMPDEST PUSH1 0x20 MUL ADD DUP2 DUP2 MLOAD PUSH2 0x2CF5 SWAP2 SWAP1 PUSH2 0x4F83 JUMP JUMPDEST SWAP2 POP DUP2 DUP2 MSTORE POP POP JUMPDEST POP POP POP POP POP JUMP JUMPDEST PUSH1 0x0 DUP1 DUP3 PUSH1 0xFF AND EQ PUSH2 0x2D17 JUMPI PUSH1 0x0 PUSH2 0x2D1A JUMP JUMPDEST PUSH1 0x1 JUMPDEST SWAP1 POP PUSH1 0x0 DUP5 DUP7 AND EQ PUSH2 0x2E4F JUMPI DUP3 PUSH1 0x20 ADD MLOAD DUP5 PUSH2 0x100 DUP2 LT PUSH2 0x2D3E JUMPI PUSH2 0x2D3D PUSH2 0x4D56 JUMP JUMPDEST JUMPDEST PUSH1 0x20 MUL ADD MLOAD DUP3 PUSH1 0xFF AND PUSH1 0x2 DUP2 LT PUSH2 0x2D58 JUMPI PUSH2 0x2D57 PUSH2 0x4D56 JUMP JUMPDEST JUMPDEST PUSH1 0x20 MUL ADD MLOAD PUSH1 0x0 PUSH2 0x2D69 SWAP2 SWAP1 PUSH2 0x4E0B JUMP JUMPDEST DUP4 PUSH1 0x0 ADD MLOAD DUP7 DUP7 PUSH2 0x2D7A SWAP2 SWAP1 PUSH2 0x4DCD JUMP JUMPDEST PUSH2 0x100 DUP2 LT PUSH2 0x2D8C JUMPI PUSH2 0x2D8B PUSH2 0x4D56 JUMP JUMPDEST JUMPDEST PUSH1 0x20 MUL ADD MLOAD DUP3 PUSH1 0xFF AND PUSH1 0x2 DUP2 LT PUSH2 0x2DA6 JUMPI PUSH2 0x2DA5 PUSH2 0x4D56 JUMP JUMPDEST JUMPDEST PUSH1 0x20 MUL ADD DUP2 DUP2 MLOAD PUSH2 0x2DB7 SWAP2 SWAP1 PUSH2 0x4F83 JUMP JUMPDEST SWAP2 POP DUP2 DUP2 MSTORE POP POP DUP3 PUSH1 0x0 ADD MLOAD DUP5 PUSH2 0x100 DUP2 LT PUSH2 0x2DD6 JUMPI PUSH2 0x2DD5 PUSH2 0x4D56 JUMP JUMPDEST JUMPDEST PUSH1 0x20 MUL ADD MLOAD DUP3 PUSH1 0xFF AND PUSH1 0x2 DUP2 LT PUSH2 0x2DF0 JUMPI PUSH2 0x2DEF PUSH2 0x4D56 JUMP JUMPDEST JUMPDEST PUSH1 0x20 MUL ADD MLOAD DUP4 PUSH1 0x20 ADD MLOAD DUP7 DUP7 PUSH2 0x2E06 SWAP2 SWAP1 PUSH2 0x4DCD JUMP JUMPDEST PUSH2 0x100 DUP2 LT PUSH2 0x2E18 JUMPI PUSH2 0x2E17 PUSH2 0x4D56 JUMP JUMPDEST JUMPDEST PUSH1 0x20 MUL ADD MLOAD DUP3 PUSH1 0xFF AND PUSH1 0x2 DUP2 LT PUSH2 0x2E32 JUMPI PUSH2 0x2E31 PUSH2 0x4D56 JUMP JUMPDEST JUMPDEST PUSH1 0x20 MUL ADD DUP2 DUP2 MLOAD PUSH2 0x2E43 SWAP2 SWAP1 PUSH2 0x4F83 JUMP JUMPDEST SWAP2 POP DUP2 DUP2 MSTORE POP POP PUSH2 0x2F74 JUMP JUMPDEST DUP3 PUSH1 0x20 ADD MLOAD DUP5 PUSH2 0x100 DUP2 LT PUSH2 0x2E67 JUMPI PUSH2 0x2E66 PUSH2 0x4D56 JUMP JUMPDEST JUMPDEST PUSH1 0x20 MUL ADD MLOAD DUP3 PUSH1 0xFF AND PUSH1 0x2 DUP2 LT PUSH2 0x2E81 JUMPI PUSH2 0x2E80 PUSH2 0x4D56 JUMP JUMPDEST JUMPDEST PUSH1 0x20 MUL ADD MLOAD DUP4 PUSH1 0x0 ADD MLOAD DUP7 DUP7 PUSH2 0x2E97 SWAP2 SWAP1 PUSH2 0x4E4E JUMP JUMPDEST PUSH2 0x100 DUP2 LT PUSH2 0x2EA9 JUMPI PUSH2 0x2EA8 PUSH2 0x4D56 JUMP JUMPDEST JUMPDEST PUSH1 0x20 MUL ADD MLOAD DUP3 PUSH1 0xFF AND PUSH1 0x2 DUP2 LT PUSH2 0x2EC3 JUMPI PUSH2 0x2EC2 PUSH2 0x4D56 JUMP JUMPDEST JUMPDEST PUSH1 0x20 MUL ADD DUP2 DUP2 MLOAD PUSH2 0x2ED4 SWAP2 SWAP1 PUSH2 0x4F83 JUMP JUMPDEST SWAP2 POP DUP2 DUP2 MSTORE POP POP DUP3 PUSH1 0x0 ADD MLOAD DUP5 PUSH2 0x100 DUP2 LT PUSH2 0x2EF3 JUMPI PUSH2 0x2EF2 PUSH2 0x4D56 JUMP JUMPDEST JUMPDEST PUSH1 0x20 MUL ADD MLOAD DUP3 PUSH1 0xFF AND PUSH1 0x2 DUP2 LT PUSH2 0x2F0D JUMPI PUSH2 0x2F0C PUSH2 0x4D56 JUMP JUMPDEST JUMPDEST PUSH1 0x20 MUL ADD MLOAD PUSH1 0x0 PUSH2 0x2F1E SWAP2 SWAP1 PUSH2 0x4E0B JUMP JUMPDEST DUP4 PUSH1 0x20 ADD MLOAD DUP7 DUP7 PUSH2 0x2F2F SWAP2 SWAP1 PUSH2 0x4E4E JUMP JUMPDEST PUSH2 0x100 DUP2 LT PUSH2 0x2F41 JUMPI PUSH2 0x2F40 PUSH2 0x4D56 JUMP JUMPDEST JUMPDEST PUSH1 0x20 MUL ADD MLOAD DUP3 PUSH1 0xFF AND PUSH1 0x2 DUP2 LT PUSH2 0x2F5B JUMPI PUSH2 0x2F5A PUSH2 0x4D56 JUMP JUMPDEST JUMPDEST PUSH1 0x20 MUL ADD DUP2 DUP2 MLOAD PUSH2 0x2F6C SWAP2 SWAP1 PUSH2 0x4F83 JUMP JUMPDEST SWAP2 POP DUP2 DUP2 MSTORE POP POP JUMPDEST POP POP POP POP POP JUMP JUMPDEST PUSH1 0x0 DUP1 DUP3 PUSH1 0xFF AND EQ PUSH2 0x2F8E JUMPI PUSH1 0x0 PUSH2 0x2F91 JUMP JUMPDEST PUSH1 0x1 JUMPDEST SWAP1 POP PUSH1 0x0 DUP5 DUP7 AND EQ PUSH2 0x30BC JUMPI DUP3 PUSH1 0x0 ADD MLOAD DUP5 PUSH2 0x100 DUP2 LT PUSH2 0x2FB5 JUMPI PUSH2 0x2FB4 PUSH2 0x4D56 JUMP JUMPDEST JUMPDEST PUSH1 0x20 MUL ADD MLOAD DUP3 PUSH1 0xFF AND PUSH1 0x2 DUP2 LT PUSH2 0x2FCF JUMPI PUSH2 0x2FCE PUSH2 0x4D56 JUMP JUMPDEST JUMPDEST PUSH1 0x20 MUL ADD MLOAD PUSH1 0x0 PUSH2 0x2FE0 SWAP2 SWAP1 PUSH2 0x4E0B JUMP JUMPDEST DUP4 PUSH1 0x0 ADD MLOAD DUP6 PUSH2 0x100 DUP2 LT PUSH2 0x2FF8 JUMPI PUSH2 0x2FF7 PUSH2 0x4D56 JUMP JUMPDEST JUMPDEST PUSH1 0x20 MUL ADD MLOAD DUP3 PUSH1 0xFF AND PUSH1 0x2 DUP2 LT PUSH2 0x3012 JUMPI PUSH2 0x3011 PUSH2 0x4D56 JUMP JUMPDEST JUMPDEST PUSH1 0x20 MUL ADD DUP2 DUP2 MLOAD PUSH2 0x3023 SWAP2 SWAP1 PUSH2 0x4F83 JUMP JUMPDEST SWAP2 POP DUP2 DUP2 MSTORE POP POP DUP3 PUSH1 0x20 ADD MLOAD DUP5 PUSH2 0x100 DUP2 LT PUSH2 0x3042 JUMPI PUSH2 0x3041 PUSH2 0x4D56 JUMP JUMPDEST JUMPDEST PUSH1 0x20 MUL ADD MLOAD DUP3 PUSH1 0xFF AND PUSH1 0x2 DUP2 LT PUSH2 0x305C JUMPI PUSH2 0x305B PUSH2 0x4D56 JUMP JUMPDEST JUMPDEST PUSH1 0x20 MUL ADD MLOAD PUSH1 0x0 PUSH2 0x306D SWAP2 SWAP1 PUSH2 0x4E0B JUMP JUMPDEST DUP4 PUSH1 0x20 ADD MLOAD DUP6 PUSH2 0x100 DUP2 LT PUSH2 0x3085 JUMPI PUSH2 0x3084 PUSH2 0x4D56 JUMP JUMPDEST JUMPDEST PUSH1 0x20 MUL ADD MLOAD DUP3 PUSH1 0xFF AND PUSH1 0x2 DUP2 LT PUSH2 0x309F JUMPI PUSH2 0x309E PUSH2 0x4D56 JUMP JUMPDEST JUMPDEST PUSH1 0x20 MUL ADD DUP2 DUP2 MLOAD PUSH2 0x30B0 SWAP2 SWAP1 PUSH2 0x4F83 JUMP JUMPDEST SWAP2 POP DUP2 DUP2 MSTORE POP POP PUSH2 0x31BF JUMP JUMPDEST DUP3 PUSH1 0x0 ADD MLOAD DUP5 PUSH2 0x100 DUP2 LT PUSH2 0x30D4 JUMPI PUSH2 0x30D3 PUSH2 0x4D56 JUMP JUMPDEST JUMPDEST PUSH1 0x20 MUL ADD MLOAD DUP3 PUSH1 0xFF AND PUSH1 0x2 DUP2 LT PUSH2 0x30EE JUMPI PUSH2 0x30ED PUSH2 0x4D56 JUMP JUMPDEST JUMPDEST PUSH1 0x20 MUL ADD MLOAD DUP4 PUSH1 0x0 ADD MLOAD DUP6 PUSH2 0x100 DUP2 LT PUSH2 0x310B JUMPI PUSH2 0x310A PUSH2 0x4D56 JUMP JUMPDEST JUMPDEST PUSH1 0x20 MUL ADD MLOAD DUP3 PUSH1 0xFF AND PUSH1 0x2 DUP2 LT PUSH2 0x3125 JUMPI PUSH2 0x3124 PUSH2 0x4D56 JUMP JUMPDEST JUMPDEST PUSH1 0x20 MUL ADD DUP2 DUP2 MLOAD PUSH2 0x3136 SWAP2 SWAP1 PUSH2 0x4F83 JUMP JUMPDEST SWAP2 POP DUP2 DUP2 MSTORE POP POP DUP3 PUSH1 0x20 ADD MLOAD DUP5 PUSH2 0x100 DUP2 LT PUSH2 0x3155 JUMPI PUSH2 0x3154 PUSH2 0x4D56 JUMP JUMPDEST JUMPDEST PUSH1 0x20 MUL ADD MLOAD DUP3 PUSH1 0xFF AND PUSH1 0x2 DUP2 LT PUSH2 0x316F JUMPI PUSH2 0x316E PUSH2 0x4D56 JUMP JUMPDEST JUMPDEST PUSH1 0x20 MUL ADD MLOAD DUP4 PUSH1 0x20 ADD MLOAD DUP6 PUSH2 0x100 DUP2 LT PUSH2 0x318C JUMPI PUSH2 0x318B PUSH2 0x4D56 JUMP JUMPDEST JUMPDEST PUSH1 0x20 MUL ADD MLOAD DUP3 PUSH1 0xFF AND PUSH1 0x2 DUP2 LT PUSH2 0x31A6 JUMPI PUSH2 0x31A5 PUSH2 0x4D56 JUMP JUMPDEST JUMPDEST PUSH1 0x20 MUL ADD DUP2 DUP2 MLOAD PUSH2 0x31B7 SWAP2 SWAP1 PUSH2 0x4F83 JUMP JUMPDEST SWAP2 POP DUP2 DUP2 MSTORE POP POP JUMPDEST POP POP POP POP POP JUMP JUMPDEST PUSH1 0x0 DUP1 DUP3 PUSH1 0xFF AND EQ PUSH2 0x31D9 JUMPI PUSH1 0x0 PUSH2 0x31DC JUMP JUMPDEST PUSH1 0x1 JUMPDEST SWAP1 POP PUSH1 0x0 DUP5 DUP7 AND SUB PUSH2 0x32EB JUMPI DUP3 PUSH1 0x0 ADD MLOAD DUP5 PUSH2 0x100 DUP2 LT PUSH2 0x3200 JUMPI PUSH2 0x31FF PUSH2 0x4D56 JUMP JUMPDEST JUMPDEST PUSH1 0x20 MUL ADD MLOAD DUP3 PUSH1 0xFF AND PUSH1 0x2 DUP2 LT PUSH2 0x321A JUMPI PUSH2 0x3219 PUSH2 0x4D56 JUMP JUMPDEST JUMPDEST PUSH1 0x20 MUL ADD MLOAD DUP4 PUSH1 0x0 ADD MLOAD DUP6 PUSH2 0x100 DUP2 LT PUSH2 0x3237 JUMPI PUSH2 0x3236 PUSH2 0x4D56 JUMP JUMPDEST JUMPDEST PUSH1 0x20 MUL ADD MLOAD DUP3 PUSH1 0xFF AND PUSH1 0x2 DUP2 LT PUSH2 0x3251 JUMPI PUSH2 0x3250 PUSH2 0x4D56 JUMP JUMPDEST JUMPDEST PUSH1 0x20 MUL ADD DUP2 DUP2 MLOAD PUSH2 0x3262 SWAP2 SWAP1 PUSH2 0x4F83 JUMP JUMPDEST SWAP2 POP DUP2 DUP2 MSTORE POP POP DUP3 PUSH1 0x20 ADD MLOAD DUP5 PUSH2 0x100 DUP2 LT PUSH2 0x3281 JUMPI PUSH2 0x3280 PUSH2 0x4D56 JUMP JUMPDEST JUMPDEST PUSH1 0x20 MUL ADD MLOAD DUP3 PUSH1 0xFF AND PUSH1 0x2 DUP2 LT PUSH2 0x329B JUMPI PUSH2 0x329A PUSH2 0x4D56 JUMP JUMPDEST JUMPDEST PUSH1 0x20 MUL ADD MLOAD DUP4 PUSH1 0x20 ADD MLOAD DUP6 PUSH2 0x100 DUP2 LT PUSH2 0x32B8 JUMPI PUSH2 0x32B7 PUSH2 0x4D56 JUMP JUMPDEST JUMPDEST PUSH1 0x20 MUL ADD MLOAD DUP3 PUSH1 0xFF AND PUSH1 0x2 DUP2 LT PUSH2 0x32D2 JUMPI PUSH2 0x32D1 PUSH2 0x4D56 JUMP JUMPDEST JUMPDEST PUSH1 0x20 MUL ADD DUP2 DUP2 MLOAD PUSH2 0x32E3 SWAP2 SWAP1 PUSH2 0x4F83 JUMP JUMPDEST SWAP2 POP DUP2 DUP2 MSTORE POP POP JUMPDEST POP POP POP POP POP JUMP JUMPDEST PUSH1 0x0 DUP1 DUP3 PUSH1 0xFF AND EQ PUSH2 0x3305 JUMPI PUSH1 0x0 PUSH2 0x3308 JUMP JUMPDEST PUSH1 0x1 JUMPDEST SWAP1 POP DUP5 DUP5 DUP7 AND SUB PUSH2 0x3416 JUMPI DUP3 PUSH1 0x0 ADD MLOAD DUP5 PUSH2 0x100 DUP2 LT PUSH2 0x332B JUMPI PUSH2 0x332A PUSH2 0x4D56 JUMP JUMPDEST JUMPDEST PUSH1 0x20 MUL ADD MLOAD DUP3 PUSH1 0xFF AND PUSH1 0x2 DUP2 LT PUSH2 0x3345 JUMPI PUSH2 0x3344 PUSH2 0x4D56 JUMP JUMPDEST JUMPDEST PUSH1 0x20 MUL ADD MLOAD DUP4 PUSH1 0x0 ADD MLOAD DUP6 PUSH2 0x100 DUP2 LT PUSH2 0x3362 JUMPI PUSH2 0x3361 PUSH2 0x4D56 JUMP JUMPDEST JUMPDEST PUSH1 0x20 MUL ADD MLOAD DUP3 PUSH1 0xFF AND PUSH1 0x2 DUP2 LT PUSH2 0x337C JUMPI PUSH2 0x337B PUSH2 0x4D56 JUMP JUMPDEST JUMPDEST PUSH1 0x20 MUL ADD DUP2 DUP2 MLOAD PUSH2 0x338D SWAP2 SWAP1 PUSH2 0x4F83 JUMP JUMPDEST SWAP2 POP DUP2 DUP2 MSTORE POP POP DUP3 PUSH1 0x20 ADD MLOAD DUP5 PUSH2 0x100 DUP2 LT PUSH2 0x33AC JUMPI PUSH2 0x33AB PUSH2 0x4D56 JUMP JUMPDEST JUMPDEST PUSH1 0x20 MUL ADD MLOAD DUP3 PUSH1 0xFF AND PUSH1 0x2 DUP2 LT PUSH2 0x33C6 JUMPI PUSH2 0x33C5 PUSH2 0x4D56 JUMP JUMPDEST JUMPDEST PUSH1 0x20 MUL ADD MLOAD DUP4 PUSH1 0x20 ADD MLOAD DUP6 PUSH2 0x100 DUP2 LT PUSH2 0x33E3 JUMPI PUSH2 0x33E2 PUSH2 0x4D56 JUMP JUMPDEST JUMPDEST PUSH1 0x20 MUL ADD MLOAD DUP3 PUSH1 0xFF AND PUSH1 0x2 DUP2 LT PUSH2 0x33FD JUMPI PUSH2 0x33FC PUSH2 0x4D56 JUMP JUMPDEST JUMPDEST PUSH1 0x20 MUL ADD DUP2 DUP2 MLOAD PUSH2 0x340E SWAP2 SWAP1 PUSH2 0x4F83 JUMP JUMPDEST SWAP2 POP DUP2 DUP2 MSTORE POP POP JUMPDEST POP POP POP POP POP JUMP JUMPDEST PUSH1 0x0 DUP1 DUP3 PUSH1 0xFF AND EQ PUSH2 0x3430 JUMPI PUSH1 0x0 PUSH2 0x3433 JUMP JUMPDEST PUSH1 0x1 JUMPDEST SWAP1 POP DUP6 DUP5 DUP8 AND EQ DUP1 ISZERO PUSH2 0x3447 JUMPI POP PUSH1 0x0 DUP7 EQ ISZERO JUMPDEST ISZERO PUSH2 0x3691 JUMPI PUSH1 0x0 DUP5 DUP7 AND EQ PUSH2 0x3573 JUMPI DUP3 PUSH1 0x0 ADD MLOAD DUP5 PUSH2 0x100 DUP2 LT PUSH2 0x346E JUMPI PUSH2 0x346D PUSH2 0x4D56 JUMP JUMPDEST JUMPDEST PUSH1 0x20 MUL ADD MLOAD DUP3 PUSH1 0xFF AND PUSH1 0x2 DUP2 LT PUSH2 0x3488 JUMPI PUSH2 0x3487 PUSH2 0x4D56 JUMP JUMPDEST JUMPDEST PUSH1 0x20 MUL ADD MLOAD DUP4 PUSH1 0x0 ADD MLOAD DUP7 DUP7 PUSH2 0x349E SWAP2 SWAP1 PUSH2 0x4E4E JUMP JUMPDEST PUSH2 0x100 DUP2 LT PUSH2 0x34B0 JUMPI PUSH2 0x34AF PUSH2 0x4D56 JUMP JUMPDEST JUMPDEST PUSH1 0x20 MUL ADD MLOAD DUP3 PUSH1 0xFF AND PUSH1 0x2 DUP2 LT PUSH2 0x34CA JUMPI PUSH2 0x34C9 PUSH2 0x4D56 JUMP JUMPDEST JUMPDEST PUSH1 0x20 MUL ADD DUP2 DUP2 MLOAD PUSH2 0x34DB SWAP2 SWAP1 PUSH2 0x4F83 JUMP JUMPDEST SWAP2 POP DUP2 DUP2 MSTORE POP POP DUP3 PUSH1 0x20 ADD MLOAD DUP5 PUSH2 0x100 DUP2 LT PUSH2 0x34FA JUMPI PUSH2 0x34F9 PUSH2 0x4D56 JUMP JUMPDEST JUMPDEST PUSH1 0x20 MUL ADD MLOAD DUP3 PUSH1 0xFF AND PUSH1 0x2 DUP2 LT PUSH2 0x3514 JUMPI PUSH2 0x3513 PUSH2 0x4D56 JUMP JUMPDEST JUMPDEST PUSH1 0x20 MUL ADD MLOAD DUP4 PUSH1 0x20 ADD MLOAD DUP7 DUP7 PUSH2 0x352A SWAP2 SWAP1 PUSH2 0x4E4E JUMP JUMPDEST PUSH2 0x100 DUP2 LT PUSH2 0x353C JUMPI PUSH2 0x353B PUSH2 0x4D56 JUMP JUMPDEST JUMPDEST PUSH1 0x20 MUL ADD MLOAD DUP3 PUSH1 0xFF AND PUSH1 0x2 DUP2 LT PUSH2 0x3556 JUMPI PUSH2 0x3555 PUSH2 0x4D56 JUMP JUMPDEST JUMPDEST PUSH1 0x20 MUL ADD DUP2 DUP2 MLOAD PUSH2 0x3567 SWAP2 SWAP1 PUSH2 0x4F83 JUMP JUMPDEST SWAP2 POP DUP2 DUP2 MSTORE POP POP PUSH2 0x368C JUMP JUMPDEST DUP3 PUSH1 0x0 ADD MLOAD DUP5 PUSH2 0x100 DUP2 LT PUSH2 0x358B JUMPI PUSH2 0x358A PUSH2 0x4D56 JUMP JUMPDEST JUMPDEST PUSH1 0x20 MUL ADD MLOAD DUP3 PUSH1 0xFF AND PUSH1 0x2 DUP2 LT PUSH2 0x35A5 JUMPI PUSH2 0x35A4 PUSH2 0x4D56 JUMP JUMPDEST JUMPDEST PUSH1 0x20 MUL ADD MLOAD DUP4 PUSH1 0x0 ADD MLOAD DUP7 DUP7 PUSH2 0x35BB SWAP2 SWAP1 PUSH2 0x4DCD JUMP JUMPDEST PUSH2 0x100 DUP2 LT PUSH2 0x35CD JUMPI PUSH2 0x35CC PUSH2 0x4D56 JUMP JUMPDEST JUMPDEST PUSH1 0x20 MUL ADD MLOAD DUP3 PUSH1 0xFF AND PUSH1 0x2 DUP2 LT PUSH2 0x35E7 JUMPI PUSH2 0x35E6 PUSH2 0x4D56 JUMP JUMPDEST JUMPDEST PUSH1 0x20 MUL ADD DUP2 DUP2 MLOAD PUSH2 0x35F8 SWAP2 SWAP1 PUSH2 0x4F83 JUMP JUMPDEST SWAP2 POP DUP2 DUP2 MSTORE POP POP DUP3 PUSH1 0x20 ADD MLOAD DUP5 PUSH2 0x100 DUP2 LT PUSH2 0x3617 JUMPI PUSH2 0x3616 PUSH2 0x4D56 JUMP JUMPDEST JUMPDEST PUSH1 0x20 MUL ADD MLOAD DUP3 PUSH1 0xFF AND PUSH1 0x2 DUP2 LT PUSH2 0x3631 JUMPI PUSH2 0x3630 PUSH2 0x4D56 JUMP JUMPDEST JUMPDEST PUSH1 0x20 MUL ADD MLOAD DUP4 PUSH1 0x20 ADD MLOAD DUP7 DUP7 PUSH2 0x3647 SWAP2 SWAP1 PUSH2 0x4DCD JUMP JUMPDEST PUSH2 0x100 DUP2 LT PUSH2 0x3659 JUMPI PUSH2 0x3658 PUSH2 0x4D56 JUMP JUMPDEST JUMPDEST PUSH1 0x20 MUL ADD MLOAD DUP3 PUSH1 0xFF AND PUSH1 0x2 DUP2 LT PUSH2 0x3673 JUMPI PUSH2 0x3672 PUSH2 0x4D56 JUMP JUMPDEST JUMPDEST PUSH1 0x20 MUL ADD DUP2 DUP2 MLOAD PUSH2 0x3684 SWAP2 SWAP1 PUSH2 0x4F83 JUMP JUMPDEST SWAP2 POP DUP2 DUP2 MSTORE POP POP JUMPDEST PUSH2 0x3794 JUMP JUMPDEST DUP3 PUSH1 0x0 ADD MLOAD DUP5 PUSH2 0x100 DUP2 LT PUSH2 0x36A9 JUMPI PUSH2 0x36A8 PUSH2 0x4D56 JUMP JUMPDEST JUMPDEST PUSH1 0x20 MUL ADD MLOAD DUP3 PUSH1 0xFF AND PUSH1 0x2 DUP2 LT PUSH2 0x36C3 JUMPI PUSH2 0x36C2 PUSH2 0x4D56 JUMP JUMPDEST JUMPDEST PUSH1 0x20 MUL ADD MLOAD DUP4 PUSH1 0x0 ADD MLOAD DUP6 PUSH2 0x100 DUP2 LT PUSH2 0x36E0 JUMPI PUSH2 0x36DF PUSH2 0x4D56 JUMP JUMPDEST JUMPDEST PUSH1 0x20 MUL ADD MLOAD DUP3 PUSH1 0xFF AND PUSH1 0x2 DUP2 LT PUSH2 0x36FA JUMPI PUSH2 0x36F9 PUSH2 0x4D56 JUMP JUMPDEST JUMPDEST PUSH1 0x20 MUL ADD DUP2 DUP2 MLOAD PUSH2 0x370B SWAP2 SWAP1 PUSH2 0x4F83 JUMP JUMPDEST SWAP2 POP DUP2 DUP2 MSTORE POP POP DUP3 PUSH1 0x20 ADD MLOAD DUP5 PUSH2 0x100 DUP2 LT PUSH2 0x372A JUMPI PUSH2 0x3729 PUSH2 0x4D56 JUMP JUMPDEST JUMPDEST PUSH1 0x20 MUL ADD MLOAD DUP3 PUSH1 0xFF AND PUSH1 0x2 DUP2 LT PUSH2 0x3744 JUMPI PUSH2 0x3743 PUSH2 0x4D56 JUMP JUMPDEST JUMPDEST PUSH1 0x20 MUL ADD MLOAD DUP4 PUSH1 0x20 ADD MLOAD DUP6 PUSH2 0x100 DUP2 LT PUSH2 0x3761 JUMPI PUSH2 0x3760 PUSH2 0x4D56 JUMP JUMPDEST JUMPDEST PUSH1 0x20 MUL ADD MLOAD DUP3 PUSH1 0xFF AND PUSH1 0x2 DUP2 LT PUSH2 0x377B JUMPI PUSH2 0x377A PUSH2 0x4D56 JUMP JUMPDEST JUMPDEST PUSH1 0x20 MUL ADD DUP2 DUP2 MLOAD PUSH2 0x378C SWAP2 SWAP1 PUSH2 0x4F83 JUMP JUMPDEST SWAP2 POP DUP2 DUP2 MSTORE POP POP JUMPDEST POP POP POP POP POP POP JUMP JUMPDEST PUSH1 0x0 DUP1 DUP3 PUSH1 0xFF AND EQ PUSH2 0x37AF JUMPI PUSH1 0x0 PUSH2 0x37B2 JUMP JUMPDEST PUSH1 0x1 JUMPDEST SWAP1 POP DUP6 DUP5 DUP8 AND SUB PUSH2 0x39E2 JUMPI PUSH1 0x0 DUP5 DUP7 AND EQ PUSH2 0x38DA JUMPI DUP3 PUSH1 0x20 ADD MLOAD DUP5 PUSH2 0x100 DUP2 LT PUSH2 0x37DF JUMPI PUSH2 0x37DE PUSH2 0x4D56 JUMP JUMPDEST JUMPDEST PUSH1 0x20 MUL ADD MLOAD DUP3 PUSH1 0xFF AND PUSH1 0x2 DUP2 LT PUSH2 0x37F9 JUMPI PUSH2 0x37F8 PUSH2 0x4D56 JUMP JUMPDEST JUMPDEST PUSH1 0x20 MUL ADD MLOAD PUSH1 0x0 PUSH2 0x380A SWAP2 SWAP1 PUSH2 0x4E0B JUMP JUMPDEST DUP4 PUSH1 0x0 ADD MLOAD DUP6 PUSH2 0x100 DUP2 LT PUSH2 0x3822 JUMPI PUSH2 0x3821 PUSH2 0x4D56 JUMP JUMPDEST JUMPDEST PUSH1 0x20 MUL ADD MLOAD DUP3 PUSH1 0xFF AND PUSH1 0x2 DUP2 LT PUSH2 0x383C JUMPI PUSH2 0x383B PUSH2 0x4D56 JUMP JUMPDEST JUMPDEST PUSH1 0x20 MUL ADD DUP2 DUP2 MLOAD PUSH2 0x384D SWAP2 SWAP1 PUSH2 0x4F83 JUMP JUMPDEST SWAP2 POP DUP2 DUP2 MSTORE POP POP DUP3 PUSH1 0x0 ADD MLOAD DUP5 PUSH2 0x100 DUP2 LT PUSH2 0x386C JUMPI PUSH2 0x386B PUSH2 0x4D56 JUMP JUMPDEST JUMPDEST PUSH1 0x20 MUL ADD MLOAD DUP3 PUSH1 0xFF AND PUSH1 0x2 DUP2 LT PUSH2 0x3886 JUMPI PUSH2 0x3885 PUSH2 0x4D56 JUMP JUMPDEST JUMPDEST PUSH1 0x20 MUL ADD MLOAD DUP4 PUSH1 0x20 ADD MLOAD DUP6 PUSH2 0x100 DUP2 LT PUSH2 0x38A3 JUMPI PUSH2 0x38A2 PUSH2 0x4D56 JUMP JUMPDEST JUMPDEST PUSH1 0x20 MUL ADD MLOAD DUP3 PUSH1 0xFF AND PUSH1 0x2 DUP2 LT PUSH2 0x38BD JUMPI PUSH2 0x38BC PUSH2 0x4D56 JUMP JUMPDEST JUMPDEST PUSH1 0x20 MUL ADD DUP2 DUP2 MLOAD PUSH2 0x38CE SWAP2 SWAP1 PUSH2 0x4F83 JUMP JUMPDEST SWAP2 POP DUP2 DUP2 MSTORE POP POP PUSH2 0x39DD JUMP JUMPDEST DUP3 PUSH1 0x0 ADD MLOAD DUP5 PUSH2 0x100 DUP2 LT PUSH2 0x38F2 JUMPI PUSH2 0x38F1 PUSH2 0x4D56 JUMP JUMPDEST JUMPDEST PUSH1 0x20 MUL ADD MLOAD DUP3 PUSH1 0xFF AND PUSH1 0x2 DUP2 LT PUSH2 0x390C JUMPI PUSH2 0x390B PUSH2 0x4D56 JUMP JUMPDEST JUMPDEST PUSH1 0x20 MUL ADD MLOAD DUP4 PUSH1 0x0 ADD MLOAD DUP6 PUSH2 0x100 DUP2 LT PUSH2 0x3929 JUMPI PUSH2 0x3928 PUSH2 0x4D56 JUMP JUMPDEST JUMPDEST PUSH1 0x20 MUL ADD MLOAD DUP3 PUSH1 0xFF AND PUSH1 0x2 DUP2 LT PUSH2 0x3943 JUMPI PUSH2 0x3942 PUSH2 0x4D56 JUMP JUMPDEST JUMPDEST PUSH1 0x20 MUL ADD DUP2 DUP2 MLOAD PUSH2 0x3954 SWAP2 SWAP1 PUSH2 0x4F83 JUMP JUMPDEST SWAP2 POP DUP2 DUP2 MSTORE POP POP DUP3 PUSH1 0x20 ADD MLOAD DUP5 PUSH2 0x100 DUP2 LT PUSH2 0x3973 JUMPI PUSH2 0x3972 PUSH2 0x4D56 JUMP JUMPDEST JUMPDEST PUSH1 0x20 MUL ADD MLOAD DUP3 PUSH1 0xFF AND PUSH1 0x2 DUP2 LT PUSH2 0x398D JUMPI PUSH2 0x398C PUSH2 0x4D56 JUMP JUMPDEST JUMPDEST PUSH1 0x20 MUL ADD MLOAD DUP4 PUSH1 0x20 ADD MLOAD DUP6 PUSH2 0x100 DUP2 LT PUSH2 0x39AA JUMPI PUSH2 0x39A9 PUSH2 0x4D56 JUMP JUMPDEST JUMPDEST PUSH1 0x20 MUL ADD MLOAD DUP3 PUSH1 0xFF AND PUSH1 0x2 DUP2 LT PUSH2 0x39C4 JUMPI PUSH2 0x39C3 PUSH2 0x4D56 JUMP JUMPDEST JUMPDEST PUSH1 0x20 MUL ADD DUP2 DUP2 MLOAD PUSH2 0x39D5 SWAP2 SWAP1 PUSH2 0x4F83 JUMP JUMPDEST SWAP2 POP DUP2 DUP2 MSTORE POP POP JUMPDEST PUSH2 0x3AE5 JUMP JUMPDEST DUP3 PUSH1 0x0 ADD MLOAD DUP5 PUSH2 0x100 DUP2 LT PUSH2 0x39FA JUMPI PUSH2 0x39F9 PUSH2 0x4D56 JUMP JUMPDEST JUMPDEST PUSH1 0x20 MUL ADD MLOAD DUP3 PUSH1 0xFF AND PUSH1 0x2 DUP2 LT PUSH2 0x3A14 JUMPI PUSH2 0x3A13 PUSH2 0x4D56 JUMP JUMPDEST JUMPDEST PUSH1 0x20 MUL ADD MLOAD DUP4 PUSH1 0x0 ADD MLOAD DUP6 PUSH2 0x100 DUP2 LT PUSH2 0x3A31 JUMPI PUSH2 0x3A30 PUSH2 0x4D56 JUMP JUMPDEST JUMPDEST PUSH1 0x20 MUL ADD MLOAD DUP3 PUSH1 0xFF AND PUSH1 0x2 DUP2 LT PUSH2 0x3A4B JUMPI PUSH2 0x3A4A PUSH2 0x4D56 JUMP JUMPDEST JUMPDEST PUSH1 0x20 MUL ADD DUP2 DUP2 MLOAD PUSH2 0x3A5C SWAP2 SWAP1 PUSH2 0x4F83 JUMP JUMPDEST SWAP2 POP DUP2 DUP2 MSTORE POP POP DUP3 PUSH1 0x20 ADD MLOAD DUP5 PUSH2 0x100 DUP2 LT PUSH2 0x3A7B JUMPI PUSH2 0x3A7A PUSH2 0x4D56 JUMP JUMPDEST JUMPDEST PUSH1 0x20 MUL ADD MLOAD DUP3 PUSH1 0xFF AND PUSH1 0x2 DUP2 LT PUSH2 0x3A95 JUMPI PUSH2 0x3A94 PUSH2 0x4D56 JUMP JUMPDEST JUMPDEST PUSH1 0x20 MUL ADD MLOAD DUP4 PUSH1 0x20 ADD MLOAD DUP6 PUSH2 0x100 DUP2 LT PUSH2 0x3AB2 JUMPI PUSH2 0x3AB1 PUSH2 0x4D56 JUMP JUMPDEST JUMPDEST PUSH1 0x20 MUL ADD MLOAD DUP3 PUSH1 0xFF AND PUSH1 0x2 DUP2 LT PUSH2 0x3ACC JUMPI PUSH2 0x3ACB PUSH2 0x4D56 JUMP JUMPDEST JUMPDEST PUSH1 0x20 MUL ADD DUP2 DUP2 MLOAD PUSH2 0x3ADD SWAP2 SWAP1 PUSH2 0x4F83 JUMP JUMPDEST SWAP2 POP DUP2 DUP2 MSTORE POP POP JUMPDEST POP POP POP POP POP POP JUMP JUMPDEST PUSH1 0x0 DUP1 DUP3 PUSH1 0xFF AND EQ PUSH2 0x3B00 JUMPI PUSH1 0x0 PUSH2 0x3B03 JUMP JUMPDEST PUSH1 0x1 JUMPDEST SWAP1 POP DUP6 DUP5 DUP8 AND SUB PUSH2 0x3D33 JUMPI PUSH1 0x0 DUP5 DUP7 AND EQ PUSH2 0x3C2B JUMPI DUP3 PUSH1 0x20 ADD MLOAD DUP5 PUSH2 0x100 DUP2 LT PUSH2 0x3B30 JUMPI PUSH2 0x3B2F PUSH2 0x4D56 JUMP JUMPDEST JUMPDEST PUSH1 0x20 MUL ADD MLOAD DUP3 PUSH1 0xFF AND PUSH1 0x2 DUP2 LT PUSH2 0x3B4A JUMPI PUSH2 0x3B49 PUSH2 0x4D56 JUMP JUMPDEST JUMPDEST PUSH1 0x20 MUL ADD MLOAD DUP4 PUSH1 0x0 ADD MLOAD DUP6 PUSH2 0x100 DUP2 LT PUSH2 0x3B67 JUMPI PUSH2 0x3B66 PUSH2 0x4D56 JUMP JUMPDEST JUMPDEST PUSH1 0x20 MUL ADD MLOAD DUP3 PUSH1 0xFF AND PUSH1 0x2 DUP2 LT PUSH2 0x3B81 JUMPI PUSH2 0x3B80 PUSH2 0x4D56 JUMP JUMPDEST JUMPDEST PUSH1 0x20 MUL ADD DUP2 DUP2 MLOAD PUSH2 0x3B92 SWAP2 SWAP1 PUSH2 0x4F83 JUMP JUMPDEST SWAP2 POP DUP2 DUP2 MSTORE POP POP DUP3 PUSH1 0x0 ADD MLOAD DUP5 PUSH2 0x100 DUP2 LT PUSH2 0x3BB1 JUMPI PUSH2 0x3BB0 PUSH2 0x4D56 JUMP JUMPDEST JUMPDEST PUSH1 0x20 MUL ADD MLOAD DUP3 PUSH1 0xFF AND PUSH1 0x2 DUP2 LT PUSH2 0x3BCB JUMPI PUSH2 0x3BCA PUSH2 0x4D56 JUMP JUMPDEST JUMPDEST PUSH1 0x20 MUL ADD MLOAD PUSH1 0x0 PUSH2 0x3BDC SWAP2 SWAP1 PUSH2 0x4E0B JUMP JUMPDEST DUP4 PUSH1 0x20 ADD MLOAD DUP6 PUSH2 0x100 DUP2 LT PUSH2 0x3BF4 JUMPI PUSH2 0x3BF3 PUSH2 0x4D56 JUMP JUMPDEST JUMPDEST PUSH1 0x20 MUL ADD MLOAD DUP3 PUSH1 0xFF AND PUSH1 0x2 DUP2 LT PUSH2 0x3C0E JUMPI PUSH2 0x3C0D PUSH2 0x4D56 JUMP JUMPDEST JUMPDEST PUSH1 0x20 MUL ADD DUP2 DUP2 MLOAD PUSH2 0x3C1F SWAP2 SWAP1 PUSH2 0x4F83 JUMP JUMPDEST SWAP2 POP DUP2 DUP2 MSTORE POP POP PUSH2 0x3D2E JUMP JUMPDEST DUP3 PUSH1 0x0 ADD MLOAD DUP5 PUSH2 0x100 DUP2 LT PUSH2 0x3C43 JUMPI PUSH2 0x3C42 PUSH2 0x4D56 JUMP JUMPDEST JUMPDEST PUSH1 0x20 MUL ADD MLOAD DUP3 PUSH1 0xFF AND PUSH1 0x2 DUP2 LT PUSH2 0x3C5D JUMPI PUSH2 0x3C5C PUSH2 0x4D56 JUMP JUMPDEST JUMPDEST PUSH1 0x20 MUL ADD MLOAD DUP4 PUSH1 0x0 ADD MLOAD DUP6 PUSH2 0x100 DUP2 LT PUSH2 0x3C7A JUMPI PUSH2 0x3C79 PUSH2 0x4D56 JUMP JUMPDEST JUMPDEST PUSH1 0x20 MUL ADD MLOAD DUP3 PUSH1 0xFF AND PUSH1 0x2 DUP2 LT PUSH2 0x3C94 JUMPI PUSH2 0x3C93 PUSH2 0x4D56 JUMP JUMPDEST JUMPDEST PUSH1 0x20 MUL ADD DUP2 DUP2 MLOAD PUSH2 0x3CA5 SWAP2 SWAP1 PUSH2 0x4F83 JUMP JUMPDEST SWAP2 POP DUP2 DUP2 MSTORE POP POP DUP3 PUSH1 0x20 ADD MLOAD DUP5 PUSH2 0x100 DUP2 LT PUSH2 0x3CC4 JUMPI PUSH2 0x3CC3 PUSH2 0x4D56 JUMP JUMPDEST JUMPDEST PUSH1 0x20 MUL ADD MLOAD DUP3 PUSH1 0xFF AND PUSH1 0x2 DUP2 LT PUSH2 0x3CDE JUMPI PUSH2 0x3CDD PUSH2 0x4D56 JUMP JUMPDEST JUMPDEST PUSH1 0x20 MUL ADD MLOAD DUP4 PUSH1 0x20 ADD MLOAD DUP6 PUSH2 0x100 DUP2 LT PUSH2 0x3CFB JUMPI PUSH2 0x3CFA PUSH2 0x4D56 JUMP JUMPDEST JUMPDEST PUSH1 0x20 MUL ADD MLOAD DUP3 PUSH1 0xFF AND PUSH1 0x2 DUP2 LT PUSH2 0x3D15 JUMPI PUSH2 0x3D14 PUSH2 0x4D56 JUMP JUMPDEST JUMPDEST PUSH1 0x20 MUL ADD DUP2 DUP2 MLOAD PUSH2 0x3D26 SWAP2 SWAP1 PUSH2 0x4F83 JUMP JUMPDEST SWAP2 POP DUP2 DUP2 MSTORE POP POP JUMPDEST PUSH2 0x3E36 JUMP JUMPDEST DUP3 PUSH1 0x0 ADD MLOAD DUP5 PUSH2 0x100 DUP2 LT PUSH2 0x3D4B JUMPI PUSH2 0x3D4A PUSH2 0x4D56 JUMP JUMPDEST JUMPDEST PUSH1 0x20 MUL ADD MLOAD DUP3 PUSH1 0xFF AND PUSH1 0x2 DUP2 LT PUSH2 0x3D65 JUMPI PUSH2 0x3D64 PUSH2 0x4D56 JUMP JUMPDEST JUMPDEST PUSH1 0x20 MUL ADD MLOAD DUP4 PUSH1 0x0 ADD MLOAD DUP6 PUSH2 0x100 DUP2 LT PUSH2 0x3D82 JUMPI PUSH2 0x3D81 PUSH2 0x4D56 JUMP JUMPDEST JUMPDEST PUSH1 0x20 MUL ADD MLOAD DUP3 PUSH1 0xFF AND PUSH1 0x2 DUP2 LT PUSH2 0x3D9C JUMPI PUSH2 0x3D9B PUSH2 0x4D56 JUMP JUMPDEST JUMPDEST PUSH1 0x20 MUL ADD DUP2 DUP2 MLOAD PUSH2 0x3DAD SWAP2 SWAP1 PUSH2 0x4F83 JUMP JUMPDEST SWAP2 POP DUP2 DUP2 MSTORE POP POP DUP3 PUSH1 0x20 ADD MLOAD DUP5 PUSH2 0x100 DUP2 LT PUSH2 0x3DCC JUMPI PUSH2 0x3DCB PUSH2 0x4D56 JUMP JUMPDEST JUMPDEST PUSH1 0x20 MUL ADD MLOAD DUP3 PUSH1 0xFF AND PUSH1 0x2 DUP2 LT PUSH2 0x3DE6 JUMPI PUSH2 0x3DE5 PUSH2 0x4D56 JUMP JUMPDEST JUMPDEST PUSH1 0x20 MUL ADD MLOAD DUP4 PUSH1 0x20 ADD MLOAD DUP6 PUSH2 0x100 DUP2 LT PUSH2 0x3E03 JUMPI PUSH2 0x3E02 PUSH2 0x4D56 JUMP JUMPDEST JUMPDEST PUSH1 0x20 MUL ADD MLOAD DUP3 PUSH1 0xFF AND PUSH1 0x2 DUP2 LT PUSH2 0x3E1D JUMPI PUSH2 0x3E1C PUSH2 0x4D56 JUMP JUMPDEST JUMPDEST PUSH1 0x20 MUL ADD DUP2 DUP2 MLOAD PUSH2 0x3E2E SWAP2 SWAP1 PUSH2 0x4F83 JUMP JUMPDEST SWAP2 POP DUP2 DUP2 MSTORE POP POP JUMPDEST POP POP POP POP POP POP JUMP JUMPDEST PUSH1 0x0 DUP1 PUSH1 0x0 DUP4 PUSH1 0xFF AND EQ PUSH2 0x3E53 JUMPI PUSH1 0x0 PUSH2 0x3E56 JUMP JUMPDEST PUSH1 0x1 JUMPDEST SWAP1 POP PUSH1 0x0 DUP8 DUP7 DUP10 AND SUB PUSH2 0x4102 JUMPI PUSH1 0x0 DUP7 DUP9 AND EQ PUSH2 0x3FFA JUMPI DUP5 PUSH1 0x20 ADD MLOAD DUP7 PUSH2 0x100 DUP2 LT PUSH2 0x3E85 JUMPI PUSH2 0x3E84 PUSH2 0x4D56 JUMP JUMPDEST JUMPDEST PUSH1 0x20 MUL ADD MLOAD DUP5 PUSH1 0xFF AND PUSH1 0x2 DUP2 LT PUSH2 0x3E9F JUMPI PUSH2 0x3E9E PUSH2 0x4D56 JUMP JUMPDEST JUMPDEST PUSH1 0x20 MUL ADD MLOAD DUP6 PUSH1 0x0 ADD MLOAD DUP8 PUSH2 0x100 DUP2 LT PUSH2 0x3EBC JUMPI PUSH2 0x3EBB PUSH2 0x4D56 JUMP JUMPDEST JUMPDEST PUSH1 0x20 MUL ADD MLOAD DUP6 PUSH1 0xFF AND PUSH1 0x2 DUP2 LT PUSH2 0x3ED6 JUMPI PUSH2 0x3ED5 PUSH2 0x4D56 JUMP JUMPDEST JUMPDEST PUSH1 0x20 MUL ADD MLOAD PUSH2 0x3EE5 SWAP2 SWAP1 PUSH2 0x4E0B JUMP JUMPDEST DUP6 PUSH1 0x0 ADD MLOAD DUP8 PUSH2 0x100 DUP2 LT PUSH2 0x3EFD JUMPI PUSH2 0x3EFC PUSH2 0x4D56 JUMP JUMPDEST JUMPDEST PUSH1 0x20 MUL ADD MLOAD DUP4 PUSH1 0xFF AND PUSH1 0x2 DUP2 LT PUSH2 0x3F17 JUMPI PUSH2 0x3F16 PUSH2 0x4D56 JUMP JUMPDEST JUMPDEST PUSH1 0x20 MUL ADD DUP2 DUP2 MLOAD PUSH2 0x3F28 SWAP2 SWAP1 PUSH2 0x4F83 JUMP JUMPDEST SWAP2 POP DUP2 DUP2 MSTORE POP POP DUP5 PUSH1 0x20 ADD MLOAD DUP7 PUSH2 0x100 DUP2 LT PUSH2 0x3F47 JUMPI PUSH2 0x3F46 PUSH2 0x4D56 JUMP JUMPDEST JUMPDEST PUSH1 0x20 MUL ADD MLOAD DUP5 PUSH1 0xFF AND PUSH1 0x2 DUP2 LT PUSH2 0x3F61 JUMPI PUSH2 0x3F60 PUSH2 0x4D56 JUMP JUMPDEST JUMPDEST PUSH1 0x20 MUL ADD MLOAD DUP6 PUSH1 0x0 ADD MLOAD DUP8 PUSH2 0x100 DUP2 LT PUSH2 0x3F7E JUMPI PUSH2 0x3F7D PUSH2 0x4D56 JUMP JUMPDEST JUMPDEST PUSH1 0x20 MUL ADD MLOAD DUP6 PUSH1 0xFF AND PUSH1 0x2 DUP2 LT PUSH2 0x3F98 JUMPI PUSH2 0x3F97 PUSH2 0x4D56 JUMP JUMPDEST JUMPDEST PUSH1 0x20 MUL ADD MLOAD PUSH2 0x3FA7 SWAP2 SWAP1 PUSH2 0x4F83 JUMP JUMPDEST DUP6 PUSH1 0x20 ADD MLOAD DUP8 PUSH2 0x100 DUP2 LT PUSH2 0x3FBF JUMPI PUSH2 0x3FBE PUSH2 0x4D56 JUMP JUMPDEST JUMPDEST PUSH1 0x20 MUL ADD MLOAD DUP4 PUSH1 0xFF AND PUSH1 0x2 DUP2 LT PUSH2 0x3FD9 JUMPI PUSH2 0x3FD8 PUSH2 0x4D56 JUMP JUMPDEST JUMPDEST PUSH1 0x20 MUL ADD DUP2 DUP2 MLOAD PUSH2 0x3FEA SWAP2 SWAP1 PUSH2 0x4F83 JUMP JUMPDEST SWAP2 POP DUP2 DUP2 MSTORE POP POP PUSH1 0x1 SWAP1 POP PUSH2 0x40FD JUMP JUMPDEST DUP5 PUSH1 0x0 ADD MLOAD DUP7 PUSH2 0x100 DUP2 LT PUSH2 0x4012 JUMPI PUSH2 0x4011 PUSH2 0x4D56 JUMP JUMPDEST JUMPDEST PUSH1 0x20 MUL ADD MLOAD DUP5 PUSH1 0xFF AND PUSH1 0x2 DUP2 LT PUSH2 0x402C JUMPI PUSH2 0x402B PUSH2 0x4D56 JUMP JUMPDEST JUMPDEST PUSH1 0x20 MUL ADD MLOAD DUP6 PUSH1 0x0 ADD MLOAD DUP8 PUSH2 0x100 DUP2 LT PUSH2 0x4049 JUMPI PUSH2 0x4048 PUSH2 0x4D56 JUMP JUMPDEST JUMPDEST PUSH1 0x20 MUL ADD MLOAD DUP4 PUSH1 0xFF AND PUSH1 0x2 DUP2 LT PUSH2 0x4063 JUMPI PUSH2 0x4062 PUSH2 0x4D56 JUMP JUMPDEST JUMPDEST PUSH1 0x20 MUL ADD DUP2 DUP2 MLOAD PUSH2 0x4074 SWAP2 SWAP1 PUSH2 0x4F83 JUMP JUMPDEST SWAP2 POP DUP2 DUP2 MSTORE POP POP DUP5 PUSH1 0x20 ADD MLOAD DUP7 PUSH2 0x100 DUP2 LT PUSH2 0x4093 JUMPI PUSH2 0x4092 PUSH2 0x4D56 JUMP JUMPDEST JUMPDEST PUSH1 0x20 MUL ADD MLOAD DUP5 PUSH1 0xFF AND PUSH1 0x2 DUP2 LT PUSH2 0x40AD JUMPI PUSH2 0x40AC PUSH2 0x4D56 JUMP JUMPDEST JUMPDEST PUSH1 0x20 MUL ADD MLOAD DUP6 PUSH1 0x20 ADD MLOAD DUP8 PUSH2 0x100 DUP2 LT PUSH2 0x40CA JUMPI PUSH2 0x40C9 PUSH2 0x4D56 JUMP JUMPDEST JUMPDEST PUSH1 0x20 MUL ADD MLOAD DUP4 PUSH1 0xFF AND PUSH1 0x2 DUP2 LT PUSH2 0x40E4 JUMPI PUSH2 0x40E3 PUSH2 0x4D56 JUMP JUMPDEST JUMPDEST PUSH1 0x20 MUL ADD DUP2 DUP2 MLOAD PUSH2 0x40F5 SWAP2 SWAP1 PUSH2 0x4F83 JUMP JUMPDEST SWAP2 POP DUP2 DUP2 MSTORE POP POP JUMPDEST PUSH2 0x4205 JUMP JUMPDEST DUP5 PUSH1 0x0 ADD MLOAD DUP7 PUSH2 0x100 DUP2 LT PUSH2 0x411A JUMPI PUSH2 0x4119 PUSH2 0x4D56 JUMP JUMPDEST JUMPDEST PUSH1 0x20 MUL ADD MLOAD DUP5 PUSH1 0xFF AND PUSH1 0x2 DUP2 LT PUSH2 0x4134 JUMPI PUSH2 0x4133 PUSH2 0x4D56 JUMP JUMPDEST JUMPDEST PUSH1 0x20 MUL ADD MLOAD DUP6 PUSH1 0x0 ADD MLOAD DUP8 PUSH2 0x100 DUP2 LT PUSH2 0x4151 JUMPI PUSH2 0x4150 PUSH2 0x4D56 JUMP JUMPDEST JUMPDEST PUSH1 0x20 MUL ADD MLOAD DUP4 PUSH1 0xFF AND PUSH1 0x2 DUP2 LT PUSH2 0x416B JUMPI PUSH2 0x416A PUSH2 0x4D56 JUMP JUMPDEST JUMPDEST PUSH1 0x20 MUL ADD DUP2 DUP2 MLOAD PUSH2 0x417C SWAP2 SWAP1 PUSH2 0x4F83 JUMP JUMPDEST SWAP2 POP DUP2 DUP2 MSTORE POP POP DUP5 PUSH1 0x20 ADD MLOAD DUP7 PUSH2 0x100 DUP2 LT PUSH2 0x419B JUMPI PUSH2 0x419A PUSH2 0x4D56 JUMP JUMPDEST JUMPDEST PUSH1 0x20 MUL ADD MLOAD DUP5 PUSH1 0xFF AND PUSH1 0x2 DUP2 LT PUSH2 0x41B5 JUMPI PUSH2 0x41B4 PUSH2 0x4D56 JUMP JUMPDEST JUMPDEST PUSH1 0x20 MUL ADD MLOAD DUP6 PUSH1 0x20 ADD MLOAD DUP8 PUSH2 0x100 DUP2 LT PUSH2 0x41D2 JUMPI PUSH2 0x41D1 PUSH2 0x4D56 JUMP JUMPDEST JUMPDEST PUSH1 0x20 MUL ADD MLOAD DUP4 PUSH1 0xFF AND PUSH1 0x2 DUP2 LT PUSH2 0x41EC JUMPI PUSH2 0x41EB PUSH2 0x4D56 JUMP JUMPDEST JUMPDEST PUSH1 0x20 MUL ADD DUP2 DUP2 MLOAD PUSH2 0x41FD SWAP2 SWAP1 PUSH2 0x4F83 JUMP JUMPDEST SWAP2 POP DUP2 DUP2 MSTORE POP POP JUMPDEST DUP1 SWAP3 POP POP POP SWAP6 SWAP5 POP POP POP POP POP JUMP JUMPDEST PUSH1 0x0 DUP1 PUSH1 0x0 DUP4 PUSH1 0xFF AND EQ PUSH2 0x4228 JUMPI PUSH1 0x0 PUSH2 0x422B JUMP JUMPDEST PUSH1 0x1 JUMPDEST SWAP1 POP PUSH1 0x0 DUP8 DUP7 DUP10 AND SUB PUSH2 0x44E3 JUMPI PUSH1 0x0 DUP7 DUP9 AND EQ PUSH2 0x43DB JUMPI DUP5 PUSH1 0x20 ADD MLOAD DUP7 PUSH2 0x100 DUP2 LT PUSH2 0x425A JUMPI PUSH2 0x4259 PUSH2 0x4D56 JUMP JUMPDEST JUMPDEST PUSH1 0x20 MUL ADD MLOAD DUP5 PUSH1 0xFF AND PUSH1 0x2 DUP2 LT PUSH2 0x4274 JUMPI PUSH2 0x4273 PUSH2 0x4D56 JUMP JUMPDEST JUMPDEST PUSH1 0x20 MUL ADD MLOAD DUP6 PUSH1 0x0 ADD MLOAD DUP8 PUSH2 0x100 DUP2 LT PUSH2 0x4291 JUMPI PUSH2 0x4290 PUSH2 0x4D56 JUMP JUMPDEST JUMPDEST PUSH1 0x20 MUL ADD MLOAD DUP6 PUSH1 0xFF AND PUSH1 0x2 DUP2 LT PUSH2 0x42AB JUMPI PUSH2 0x42AA PUSH2 0x4D56 JUMP JUMPDEST JUMPDEST PUSH1 0x20 MUL ADD MLOAD PUSH2 0x42BA SWAP2 SWAP1 PUSH2 0x4F83 JUMP JUMPDEST DUP6 PUSH1 0x0 ADD MLOAD DUP8 PUSH2 0x100 DUP2 LT PUSH2 0x42D2 JUMPI PUSH2 0x42D1 PUSH2 0x4D56 JUMP JUMPDEST JUMPDEST PUSH1 0x20 MUL ADD MLOAD DUP4 PUSH1 0xFF AND PUSH1 0x2 DUP2 LT PUSH2 0x42EC JUMPI PUSH2 0x42EB PUSH2 0x4D56 JUMP JUMPDEST JUMPDEST PUSH1 0x20 MUL ADD DUP2 DUP2 MLOAD PUSH2 0x42FD SWAP2 SWAP1 PUSH2 0x4F83 JUMP JUMPDEST SWAP2 POP DUP2 DUP2 MSTORE POP POP DUP5 PUSH1 0x20 ADD MLOAD DUP7 PUSH2 0x100 DUP2 LT PUSH2 0x431C JUMPI PUSH2 0x431B PUSH2 0x4D56 JUMP JUMPDEST JUMPDEST PUSH1 0x20 MUL ADD MLOAD DUP5 PUSH1 0xFF AND PUSH1 0x2 DUP2 LT PUSH2 0x4336 JUMPI PUSH2 0x4335 PUSH2 0x4D56 JUMP JUMPDEST JUMPDEST PUSH1 0x20 MUL ADD MLOAD DUP6 PUSH1 0x0 ADD MLOAD DUP8 PUSH2 0x100 DUP2 LT PUSH2 0x4353 JUMPI PUSH2 0x4352 PUSH2 0x4D56 JUMP JUMPDEST JUMPDEST PUSH1 0x20 MUL ADD MLOAD DUP6 PUSH1 0xFF AND PUSH1 0x2 DUP2 LT PUSH2 0x436D JUMPI PUSH2 0x436C PUSH2 0x4D56 JUMP JUMPDEST JUMPDEST PUSH1 0x20 MUL ADD MLOAD PUSH1 0x0 PUSH2 0x437E SWAP2 SWAP1 PUSH2 0x4E0B JUMP JUMPDEST PUSH2 0x4388 SWAP2 SWAP1 PUSH2 0x4F83 JUMP JUMPDEST DUP6 PUSH1 0x20 ADD MLOAD DUP8 PUSH2 0x100 DUP2 LT PUSH2 0x43A0 JUMPI PUSH2 0x439F PUSH2 0x4D56 JUMP JUMPDEST JUMPDEST PUSH1 0x20 MUL ADD MLOAD DUP4 PUSH1 0xFF AND PUSH1 0x2 DUP2 LT PUSH2 0x43BA JUMPI PUSH2 0x43B9 PUSH2 0x4D56 JUMP JUMPDEST JUMPDEST PUSH1 0x20 MUL ADD DUP2 DUP2 MLOAD PUSH2 0x43CB SWAP2 SWAP1 PUSH2 0x4F83 JUMP JUMPDEST SWAP2 POP DUP2 DUP2 MSTORE POP POP PUSH1 0x1 SWAP1 POP PUSH2 0x44DE JUMP JUMPDEST DUP5 PUSH1 0x0 ADD MLOAD DUP7 PUSH2 0x100 DUP2 LT PUSH2 0x43F3 JUMPI PUSH2 0x43F2 PUSH2 0x4D56 JUMP JUMPDEST JUMPDEST PUSH1 0x20 MUL ADD MLOAD DUP5 PUSH1 0xFF AND PUSH1 0x2 DUP2 LT PUSH2 0x440D JUMPI PUSH2 0x440C PUSH2 0x4D56 JUMP JUMPDEST JUMPDEST PUSH1 0x20 MUL ADD MLOAD DUP6 PUSH1 0x0 ADD MLOAD DUP8 PUSH2 0x100 DUP2 LT PUSH2 0x442A JUMPI PUSH2 0x4429 PUSH2 0x4D56 JUMP JUMPDEST JUMPDEST PUSH1 0x20 MUL ADD MLOAD DUP4 PUSH1 0xFF AND PUSH1 0x2 DUP2 LT PUSH2 0x4444 JUMPI PUSH2 0x4443 PUSH2 0x4D56 JUMP JUMPDEST JUMPDEST PUSH1 0x20 MUL ADD DUP2 DUP2 MLOAD PUSH2 0x4455 SWAP2 SWAP1 PUSH2 0x4F83 JUMP JUMPDEST SWAP2 POP DUP2 DUP2 MSTORE POP POP DUP5 PUSH1 0x20 ADD MLOAD DUP7 PUSH2 0x100 DUP2 LT PUSH2 0x4474 JUMPI PUSH2 0x4473 PUSH2 0x4D56 JUMP JUMPDEST JUMPDEST PUSH1 0x20 MUL ADD MLOAD DUP5 PUSH1 0xFF AND PUSH1 0x2 DUP2 LT PUSH2 0x448E JUMPI PUSH2 0x448D PUSH2 0x4D56 JUMP JUMPDEST JUMPDEST PUSH1 0x20 MUL ADD MLOAD DUP6 PUSH1 0x20 ADD MLOAD DUP8 PUSH2 0x100 DUP2 LT PUSH2 0x44AB JUMPI PUSH2 0x44AA PUSH2 0x4D56 JUMP JUMPDEST JUMPDEST PUSH1 0x20 MUL ADD MLOAD DUP4 PUSH1 0xFF AND PUSH1 0x2 DUP2 LT PUSH2 0x44C5 JUMPI PUSH2 0x44C4 PUSH2 0x4D56 JUMP JUMPDEST JUMPDEST PUSH1 0x20 MUL ADD DUP2 DUP2 MLOAD PUSH2 0x44D6 SWAP2 SWAP1 PUSH2 0x4F83 JUMP JUMPDEST SWAP2 POP DUP2 DUP2 MSTORE POP POP JUMPDEST PUSH2 0x45E6 JUMP JUMPDEST DUP5 PUSH1 0x0 ADD MLOAD DUP7 PUSH2 0x100 DUP2 LT PUSH2 0x44FB JUMPI PUSH2 0x44FA PUSH2 0x4D56 JUMP JUMPDEST JUMPDEST PUSH1 0x20 MUL ADD MLOAD DUP5 PUSH1 0xFF AND PUSH1 0x2 DUP2 LT PUSH2 0x4515 JUMPI PUSH2 0x4514 PUSH2 0x4D56 JUMP JUMPDEST JUMPDEST PUSH1 0x20 MUL ADD MLOAD DUP6 PUSH1 0x0 ADD MLOAD DUP8 PUSH2 0x100 DUP2 LT PUSH2 0x4532 JUMPI PUSH2 0x4531 PUSH2 0x4D56 JUMP JUMPDEST JUMPDEST PUSH1 0x20 MUL ADD MLOAD DUP4 PUSH1 0xFF AND PUSH1 0x2 DUP2 LT PUSH2 0x454C JUMPI PUSH2 0x454B PUSH2 0x4D56 JUMP JUMPDEST JUMPDEST PUSH1 0x20 MUL ADD DUP2 DUP2 MLOAD PUSH2 0x455D SWAP2 SWAP1 PUSH2 0x4F83 JUMP JUMPDEST SWAP2 POP DUP2 DUP2 MSTORE POP POP DUP5 PUSH1 0x20 ADD MLOAD DUP7 PUSH2 0x100 DUP2 LT PUSH2 0x457C JUMPI PUSH2 0x457B PUSH2 0x4D56 JUMP JUMPDEST JUMPDEST PUSH1 0x20 MUL ADD MLOAD DUP5 PUSH1 0xFF AND PUSH1 0x2 DUP2 LT PUSH2 0x4596 JUMPI PUSH2 0x4595 PUSH2 0x4D56 JUMP JUMPDEST JUMPDEST PUSH1 0x20 MUL ADD MLOAD DUP6 PUSH1 0x20 ADD MLOAD DUP8 PUSH2 0x100 DUP2 LT PUSH2 0x45B3 JUMPI PUSH2 0x45B2 PUSH2 0x4D56 JUMP JUMPDEST JUMPDEST PUSH1 0x20 MUL ADD MLOAD DUP4 PUSH1 0xFF AND PUSH1 0x2 DUP2 LT PUSH2 0x45CD JUMPI PUSH2 0x45CC PUSH2 0x4D56 JUMP JUMPDEST JUMPDEST PUSH1 0x20 MUL ADD DUP2 DUP2 MLOAD PUSH2 0x45DE SWAP2 SWAP1 PUSH2 0x4F83 JUMP JUMPDEST SWAP2 POP DUP2 DUP2 MSTORE POP POP JUMPDEST DUP1 SWAP3 POP POP POP SWAP6 SWAP5 POP POP POP POP POP JUMP JUMPDEST PUSH1 0x40 MLOAD DUP1 PUSH1 0x40 ADD PUSH1 0x40 MSTORE DUP1 PUSH2 0x4607 PUSH2 0x463E JUMP JUMPDEST DUP2 MSTORE PUSH1 0x20 ADD PUSH2 0x4614 PUSH2 0x463E JUMP JUMPDEST DUP2 MSTORE POP SWAP1 JUMP JUMPDEST PUSH1 0x40 MLOAD DUP1 PUSH2 0x2000 ADD PUSH1 0x40 MSTORE DUP1 PUSH2 0x100 SWAP1 PUSH1 0x20 DUP3 MUL DUP1 CALLDATASIZE DUP4 CALLDATACOPY DUP1 DUP3 ADD SWAP2 POP POP SWAP1 POP POP SWAP1 JUMP JUMPDEST PUSH1 0x40 MLOAD DUP1 PUSH2 0x2000 ADD PUSH1 0x40 MSTORE DUP1 PUSH2 0x100 SWAP1 JUMPDEST PUSH2 0x4657 PUSH2 0x466D JUMP JUMPDEST DUP2 MSTORE PUSH1 0x20 ADD SWAP1 PUSH1 0x1 SWAP1 SUB SWAP1 DUP2 PUSH2 0x464F JUMPI SWAP1 POP POP SWAP1 JUMP JUMPDEST PUSH1 0x40 MLOAD DUP1 PUSH1 0x40 ADD PUSH1 0x40 MSTORE DUP1 PUSH1 0x2 SWAP1 PUSH1 0x20 DUP3 MUL DUP1 CALLDATASIZE DUP4 CALLDATACOPY DUP1 DUP3 ADD SWAP2 POP POP SWAP1 POP POP SWAP1 JUMP JUMPDEST PUSH1 0x0 PUSH1 0x40 MLOAD SWAP1 POP SWAP1 JUMP JUMPDEST PUSH1 0x0 DUP1 REVERT JUMPDEST PUSH1 0x0 DUP1 REVERT JUMPDEST PUSH1 0x0 PUSH1 0xFF DUP3 AND SWAP1 POP SWAP2 SWAP1 POP JUMP JUMPDEST PUSH2 0x46B9 DUP2 PUSH2 0x46A3 JUMP JUMPDEST DUP2 EQ PUSH2 0x46C4 JUMPI PUSH1 0x0 DUP1 REVERT JUMPDEST POP JUMP JUMPDEST PUSH1 0x0 DUP2 CALLDATALOAD SWAP1 POP PUSH2 0x46D6 DUP2 PUSH2 0x46B0 JUMP JUMPDEST SWAP3 SWAP2 POP POP JUMP JUMPDEST PUSH1 0x0 DUP1 REVERT JUMPDEST PUSH1 0x0 DUP1 REVERT JUMPDEST PUSH1 0x0 PUSH1 0x1F NOT PUSH1 0x1F DUP4 ADD AND SWAP1 POP SWAP2 SWAP1 POP JUMP JUMPDEST PUSH32 0x4E487B7100000000000000000000000000000000000000000000000000000000 PUSH1 0x0 MSTORE PUSH1 0x41 PUSH1 0x4 MSTORE PUSH1 0x24 PUSH1 0x0 REVERT JUMPDEST PUSH2 0x472F DUP3 PUSH2 0x46E6 JUMP JUMPDEST DUP2 ADD DUP2 DUP2 LT PUSH8 0xFFFFFFFFFFFFFFFF DUP3 GT OR ISZERO PUSH2 0x474E JUMPI PUSH2 0x474D PUSH2 0x46F7 JUMP JUMPDEST JUMPDEST DUP1 PUSH1 0x40 MSTORE POP POP POP JUMP JUMPDEST PUSH1 0x0 PUSH2 0x4761 PUSH2 0x468F JUMP JUMPDEST SWAP1 POP PUSH2 0x476D DUP3 DUP3 PUSH2 0x4726 JUMP JUMPDEST SWAP2 SWAP1 POP JUMP JUMPDEST PUSH1 0x0 PUSH8 0xFFFFFFFFFFFFFFFF DUP3 GT ISZERO PUSH2 0x478D JUMPI PUSH2 0x478C PUSH2 0x46F7 JUMP JUMPDEST JUMPDEST PUSH2 0x4796 DUP3 PUSH2 0x46E6 JUMP JUMPDEST SWAP1 POP PUSH1 0x20 DUP2 ADD SWAP1 POP SWAP2 SWAP1 POP JUMP JUMPDEST DUP3 DUP2 DUP4 CALLDATACOPY PUSH1 0x0 DUP4 DUP4 ADD MSTORE POP POP POP JUMP JUMPDEST PUSH1 0x0 PUSH2 0x47C5 PUSH2 0x47C0 DUP5 PUSH2 0x4772 JUMP JUMPDEST PUSH2 0x4757 JUMP JUMPDEST SWAP1 POP DUP3 DUP2 MSTORE PUSH1 0x20 DUP2 ADD DUP5 DUP5 DUP5 ADD GT ISZERO PUSH2 0x47E1 JUMPI PUSH2 0x47E0 PUSH2 0x46E1 JUMP JUMPDEST JUMPDEST PUSH2 0x47EC DUP5 DUP3 DUP6 PUSH2 0x47A3 JUMP JUMPDEST POP SWAP4 SWAP3 POP POP POP JUMP JUMPDEST PUSH1 0x0 DUP3 PUSH1 0x1F DUP4 ADD SLT PUSH2 0x4809 JUMPI PUSH2 0x4808 PUSH2 0x46DC JUMP JUMPDEST JUMPDEST DUP2 CALLDATALOAD PUSH2 0x4819 DUP5 DUP3 PUSH1 0x20 DUP7 ADD PUSH2 0x47B2 JUMP JUMPDEST SWAP2 POP POP SWAP3 SWAP2 POP POP JUMP JUMPDEST PUSH1 0x0 DUP2 SWAP1 POP SWAP2 SWAP1 POP JUMP JUMPDEST PUSH2 0x4835 DUP2 PUSH2 0x4822 JUMP JUMPDEST DUP2 EQ PUSH2 0x4840 JUMPI PUSH1 0x0 DUP1 REVERT JUMPDEST POP JUMP JUMPDEST PUSH1 0x0 DUP2 CALLDATALOAD SWAP1 POP PUSH2 0x4852 DUP2 PUSH2 0x482C JUMP JUMPDEST SWAP3 SWAP2 POP POP JUMP JUMPDEST PUSH1 0x0 DUP1 PUSH1 0x0 PUSH1 0x60 DUP5 DUP7 SUB SLT ISZERO PUSH2 0x4871 JUMPI PUSH2 0x4870 PUSH2 0x4699 JUMP JUMPDEST JUMPDEST PUSH1 0x0 PUSH2 0x487F DUP7 DUP3 DUP8 ADD PUSH2 0x46C7 JUMP JUMPDEST SWAP4 POP POP PUSH1 0x20 DUP5 ADD CALLDATALOAD PUSH8 0xFFFFFFFFFFFFFFFF DUP2 GT ISZERO PUSH2 0x48A0 JUMPI PUSH2 0x489F PUSH2 0x469E JUMP JUMPDEST JUMPDEST PUSH2 0x48AC DUP7 DUP3 DUP8 ADD PUSH2 0x47F4 JUMP JUMPDEST SWAP3 POP POP PUSH1 0x40 PUSH2 0x48BD DUP7 DUP3 DUP8 ADD PUSH2 0x4843 JUMP JUMPDEST SWAP2 POP POP SWAP3 POP SWAP3 POP SWAP3 JUMP JUMPDEST PUSH2 0x48D0 DUP2 PUSH2 0x4822 JUMP JUMPDEST DUP3 MSTORE POP POP JUMP JUMPDEST PUSH1 0x0 PUSH1 0x20 DUP3 ADD SWAP1 POP PUSH2 0x48EB PUSH1 0x0 DUP4 ADD DUP5 PUSH2 0x48C7 JUMP JUMPDEST SWAP3 SWAP2 POP POP JUMP JUMPDEST PUSH1 0x0 DUP2 MLOAD SWAP1 POP SWAP2 SWAP1 POP JUMP JUMPDEST PUSH1 0x0 DUP3 DUP3 MSTORE PUSH1 0x20 DUP3 ADD SWAP1 POP SWAP3 SWAP2 POP POP JUMP JUMPDEST PUSH1 0x0 DUP2 SWAP1 POP PUSH1 0x20 DUP3 ADD SWAP1 POP SWAP2 SWAP1 POP JUMP JUMPDEST PUSH1 0x0 DUP2 MLOAD SWAP1 POP SWAP2 SWAP1 POP JUMP JUMPDEST PUSH1 0x0 DUP3 DUP3 MSTORE PUSH1 0x20 DUP3 ADD SWAP1 POP SWAP3 SWAP2 POP POP JUMP JUMPDEST PUSH1 0x0 JUMPDEST DUP4 DUP2 LT ISZERO PUSH2 0x4957 JUMPI DUP1 DUP3 ADD MLOAD DUP2 DUP5 ADD MSTORE PUSH1 0x20 DUP2 ADD SWAP1 POP PUSH2 0x493C JUMP JUMPDEST PUSH1 0x0 DUP5 DUP5 ADD MSTORE POP POP POP POP JUMP JUMPDEST PUSH1 0x0 PUSH2 0x496E DUP3 PUSH2 0x491D JUMP JUMPDEST PUSH2 0x4978 DUP2 DUP6 PUSH2 0x4928 JUMP JUMPDEST SWAP4 POP PUSH2 0x4988 DUP2 DUP6 PUSH1 0x20 DUP7 ADD PUSH2 0x4939 JUMP JUMPDEST PUSH2 0x4991 DUP2 PUSH2 0x46E6 JUMP JUMPDEST DUP5 ADD SWAP2 POP POP SWAP3 SWAP2 POP POP JUMP JUMPDEST PUSH1 0x0 PUSH2 0x49A8 DUP4 DUP4 PUSH2 0x4963 JUMP JUMPDEST SWAP1 POP SWAP3 SWAP2 POP POP JUMP JUMPDEST PUSH1 0x0 PUSH1 0x20 DUP3 ADD SWAP1 POP SWAP2 SWAP1 POP JUMP JUMPDEST PUSH1 0x0 PUSH2 0x49C8 DUP3 PUSH2 0x48F1 JUMP JUMPDEST PUSH2 0x49D2 DUP2 DUP6 PUSH2 0x48FC JUMP JUMPDEST SWAP4 POP DUP4 PUSH1 0x20 DUP3 MUL DUP6 ADD PUSH2 0x49E4 DUP6 PUSH2 0x490D JUMP JUMPDEST DUP1 PUSH1 0x0 JUMPDEST DUP6 DUP2 LT ISZERO PUSH2 0x4A20 JUMPI DUP5 DUP5 SUB DUP10 MSTORE DUP2 MLOAD PUSH2 0x4A01 DUP6 DUP3 PUSH2 0x499C JUMP JUMPDEST SWAP5 POP PUSH2 0x4A0C DUP4 PUSH2 0x49B0 JUMP JUMPDEST SWAP3 POP PUSH1 0x20 DUP11 ADD SWAP10 POP POP PUSH1 0x1 DUP2 ADD SWAP1 POP PUSH2 0x49E8 JUMP JUMPDEST POP DUP3 SWAP8 POP DUP8 SWAP6 POP POP POP POP POP POP SWAP3 SWAP2 POP POP JUMP JUMPDEST PUSH1 0x0 PUSH1 0x20 DUP3 ADD SWAP1 POP DUP2 DUP2 SUB PUSH1 0x0 DUP4 ADD MSTORE PUSH2 0x4A4C DUP2 DUP5 PUSH2 0x49BD JUMP JUMPDEST SWAP1 POP SWAP3 SWAP2 POP POP JUMP JUMPDEST PUSH1 0x0 DUP3 DUP3 MSTORE PUSH1 0x20 DUP3 ADD SWAP1 POP SWAP3 SWAP2 POP POP JUMP JUMPDEST PUSH1 0x0 PUSH2 0x4A70 DUP3 PUSH2 0x491D JUMP JUMPDEST PUSH2 0x4A7A DUP2 DUP6 PUSH2 0x4A54 JUMP JUMPDEST SWAP4 POP PUSH2 0x4A8A DUP2 DUP6 PUSH1 0x20 DUP7 ADD PUSH2 0x4939 JUMP JUMPDEST PUSH2 0x4A93 DUP2 PUSH2 0x46E6 JUMP JUMPDEST DUP5 ADD SWAP2 POP POP SWAP3 SWAP2 POP POP JUMP JUMPDEST PUSH1 0x0 PUSH1 0x20 DUP3 ADD SWAP1 POP DUP2 DUP2 SUB PUSH1 0x0 DUP4 ADD MSTORE PUSH2 0x4AB8 DUP2 DUP5 PUSH2 0x4A65 JUMP JUMPDEST SWAP1 POP SWAP3 SWAP2 POP POP JUMP JUMPDEST PUSH1 0x0 PUSH1 0x20 DUP3 DUP5 SUB SLT ISZERO PUSH2 0x4AD6 JUMPI PUSH2 0x4AD5 PUSH2 0x4699 JUMP JUMPDEST JUMPDEST PUSH1 0x0 PUSH2 0x4AE4 DUP5 DUP3 DUP6 ADD PUSH2 0x4843 JUMP JUMPDEST SWAP2 POP POP SWAP3 SWAP2 POP POP JUMP JUMPDEST PUSH2 0x4AF6 DUP2 PUSH2 0x46A3 JUMP JUMPDEST DUP3 MSTORE POP POP JUMP JUMPDEST PUSH1 0x0 PUSH1 0x20 DUP3 ADD SWAP1 POP PUSH2 0x4B11 PUSH1 0x0 DUP4 ADD DUP5 PUSH2 0x4AED JUMP JUMPDEST SWAP3 SWAP2 POP POP JUMP JUMPDEST PUSH1 0x0 DUP2 ISZERO ISZERO SWAP1 POP SWAP2 SWAP1 POP JUMP JUMPDEST PUSH2 0x4B2C DUP2 PUSH2 0x4B17 JUMP JUMPDEST DUP3 MSTORE POP POP JUMP JUMPDEST PUSH1 0x0 PUSH1 0x20 DUP3 ADD SWAP1 POP PUSH2 0x4B47 PUSH1 0x0 DUP4 ADD DUP5 PUSH2 0x4B23 JUMP JUMPDEST SWAP3 SWAP2 POP POP JUMP JUMPDEST PUSH1 0x0 PUSH20 0xFFFFFFFFFFFFFFFFFFFFFFFFFFFFFFFFFFFFFFFF DUP3 AND SWAP1 POP SWAP2 SWAP1 POP JUMP JUMPDEST PUSH1 0x0 PUSH2 0x4B78 DUP3 PUSH2 0x4B4D JUMP JUMPDEST SWAP1 POP SWAP2 SWAP1 POP JUMP JUMPDEST PUSH2 0x4B88 DUP2 PUSH2 0x4B6D JUMP JUMPDEST DUP3 MSTORE POP POP JUMP JUMPDEST PUSH1 0x0 PUSH1 0x20 DUP3 ADD SWAP1 POP PUSH2 0x4BA3 PUSH1 0x0 DUP4 ADD DUP5 PUSH2 0x4B7F JUMP JUMPDEST SWAP3 SWAP2 POP POP JUMP JUMPDEST PUSH32 0x4E487B7100000000000000000000000000000000000000000000000000000000 PUSH1 0x0 MSTORE PUSH1 0x11 PUSH1 0x4 MSTORE PUSH1 0x24 PUSH1 0x0 REVERT JUMPDEST PUSH1 0x0 DUP2 PUSH1 0x1 SHR SWAP1 POP SWAP2 SWAP1 POP JUMP JUMPDEST PUSH1 0x0 DUP1 DUP3 SWAP2 POP DUP4 SWAP1 POP JUMPDEST PUSH1 0x1 DUP6 GT ISZERO PUSH2 0x4C2F JUMPI DUP1 DUP7 DIV DUP2 GT ISZERO PUSH2 0x4C0B JUMPI PUSH2 0x4C0A PUSH2 0x4BA9 JUMP JUMPDEST JUMPDEST PUSH1 0x1 DUP6 AND ISZERO PUSH2 0x4C1A JUMPI DUP1 DUP3 MUL SWAP2 POP JUMPDEST DUP1 DUP2 MUL SWAP1 POP PUSH2 0x4C28 DUP6 PUSH2 0x4BD8 JUMP JUMPDEST SWAP5 POP PUSH2 0x4BEF JUMP JUMPDEST SWAP5 POP SWAP5 SWAP3 POP POP POP JUMP JUMPDEST PUSH1 0x0 DUP3 PUSH2 0x4C48 JUMPI PUSH1 0x1 SWAP1 POP PUSH2 0x4D04 JUMP JUMPDEST DUP2 PUSH2 0x4C56 JUMPI PUSH1 0x0 SWAP1 POP PUSH2 0x4D04 JUMP JUMPDEST DUP2 PUSH1 0x1 DUP2 EQ PUSH2 0x4C6C JUMPI PUSH1 0x2 DUP2 EQ PUSH2 0x4C76 JUMPI PUSH2 0x4CA5 JUMP JUMPDEST PUSH1 0x1 SWAP2 POP POP PUSH2 0x4D04 JUMP JUMPDEST PUSH1 0xFF DUP5 GT ISZERO PUSH2 0x4C88 JUMPI PUSH2 0x4C87 PUSH2 0x4BA9 JUMP JUMPDEST JUMPDEST DUP4 PUSH1 0x2 EXP SWAP2 POP DUP5 DUP3 GT ISZERO PUSH2 0x4C9F JUMPI PUSH2 0x4C9E PUSH2 0x4BA9 JUMP JUMPDEST JUMPDEST POP PUSH2 0x4D04 JUMP JUMPDEST POP PUSH1 0x20 DUP4 LT PUSH2 0x133 DUP4 LT AND PUSH1 0x4E DUP5 LT PUSH1 0xB DUP5 LT AND OR ISZERO PUSH2 0x4CDA JUMPI DUP3 DUP3 EXP SWAP1 POP DUP4 DUP2 GT ISZERO PUSH2 0x4CD5 JUMPI PUSH2 0x4CD4 PUSH2 0x4BA9 JUMP JUMPDEST JUMPDEST PUSH2 0x4D04 JUMP JUMPDEST PUSH2 0x4CE7 DUP5 DUP5 DUP5 PUSH1 0x1 PUSH2 0x4BE5 JUMP JUMPDEST SWAP3 POP SWAP1 POP DUP2 DUP5 DIV DUP2 GT ISZERO PUSH2 0x4CFE JUMPI PUSH2 0x4CFD PUSH2 0x4BA9 JUMP JUMPDEST JUMPDEST DUP2 DUP2 MUL SWAP1 POP JUMPDEST SWAP4 SWAP3 POP POP POP JUMP JUMPDEST PUSH1 0x0 PUSH2 0x4D16 DUP3 PUSH2 0x4822 JUMP JUMPDEST SWAP2 POP PUSH2 0x4D21 DUP4 PUSH2 0x46A3 JUMP JUMPDEST SWAP3 POP PUSH2 0x4D4E PUSH32 0xFFFFFFFFFFFFFFFFFFFFFFFFFFFFFFFFFFFFFFFFFFFFFFFFFFFFFFFFFFFFFFFF DUP5 DUP5 PUSH2 0x4C38 JUMP JUMPDEST SWAP1 POP SWAP3 SWAP2 POP POP JUMP JUMPDEST PUSH32 0x4E487B7100000000000000000000000000000000000000000000000000000000 PUSH1 0x0 MSTORE PUSH1 0x32 PUSH1 0x4 MSTORE PUSH1 0x24 PUSH1 0x0 REVERT JUMPDEST PUSH1 0x0 PUSH2 0x4D90 DUP3 PUSH2 0x4822 JUMP JUMPDEST SWAP2 POP PUSH32 0xFFFFFFFFFFFFFFFFFFFFFFFFFFFFFFFFFFFFFFFFFFFFFFFFFFFFFFFFFFFFFFFF DUP3 SUB PUSH2 0x4DC2 JUMPI PUSH2 0x4DC1 PUSH2 0x4BA9 JUMP JUMPDEST JUMPDEST PUSH1 0x1 DUP3 ADD SWAP1 POP SWAP2 SWAP1 POP JUMP JUMPDEST PUSH1 0x0 PUSH2 0x4DD8 DUP3 PUSH2 0x4822 JUMP JUMPDEST SWAP2 POP PUSH2 0x4DE3 DUP4 PUSH2 0x4822 JUMP JUMPDEST SWAP3 POP DUP3 DUP3 ADD SWAP1 POP DUP1 DUP3 GT ISZERO PUSH2 0x4DFB JUMPI PUSH2 0x4DFA PUSH2 0x4BA9 JUMP JUMPDEST JUMPDEST SWAP3 SWAP2 POP POP JUMP JUMPDEST PUSH1 0x0 DUP2 SWAP1 POP SWAP2 SWAP1 POP JUMP JUMPDEST PUSH1 0x0 PUSH2 0x4E16 DUP3 PUSH2 0x4E01 JUMP JUMPDEST SWAP2 POP PUSH2 0x4E21 DUP4 PUSH2 0x4E01 JUMP JUMPDEST SWAP3 POP DUP3 DUP3 SUB SWAP1 POP DUP2 DUP2 SLT PUSH1 0x0 DUP5 SLT AND DUP3 DUP3 SGT PUSH1 0x0 DUP6 SLT ISZERO AND OR ISZERO PUSH2 0x4E48 JUMPI PUSH2 0x4E47 PUSH2 0x4BA9 JUMP JUMPDEST JUMPDEST SWAP3 SWAP2 POP POP JUMP JUMPDEST PUSH1 0x0 PUSH2 0x4E59 DUP3 PUSH2 0x4822 JUMP JUMPDEST SWAP2 POP PUSH2 0x4E64 DUP4 PUSH2 0x4822 JUMP JUMPDEST SWAP3 POP DUP3 DUP3 SUB SWAP1 POP DUP2 DUP2 GT ISZERO PUSH2 0x4E7C JUMPI PUSH2 0x4E7B PUSH2 0x4BA9 JUMP JUMPDEST JUMPDEST SWAP3 SWAP2 POP POP JUMP JUMPDEST PUSH32 0x4E487B7100000000000000000000000000000000000000000000000000000000 PUSH1 0x0 MSTORE PUSH1 0x22 PUSH1 0x4 MSTORE PUSH1 0x24 PUSH1 0x0 REVERT JUMPDEST PUSH1 0x0 PUSH1 0x2 DUP3 DIV SWAP1 POP PUSH1 0x1 DUP3 AND DUP1 PUSH2 0x4EC9 JUMPI PUSH1 0x7F DUP3 AND SWAP2 POP JUMPDEST PUSH1 0x20 DUP3 LT DUP2 SUB PUSH2 0x4EDC JUMPI PUSH2 0x4EDB PUSH2 0x4E82 JUMP JUMPDEST JUMPDEST POP SWAP2 SWAP1 POP JUMP JUMPDEST PUSH32 0x436865636B20737562736372697074696F6E0000000000000000000000000000 PUSH1 0x0 DUP3 ADD MSTORE POP JUMP JUMPDEST PUSH1 0x0 PUSH2 0x4F18 PUSH1 0x12 DUP4 PUSH2 0x4A54 JUMP JUMPDEST SWAP2 POP PUSH2 0x4F23 DUP3 PUSH2 0x4EE2 JUMP JUMPDEST PUSH1 0x20 DUP3 ADD SWAP1 POP SWAP2 SWAP1 POP JUMP JUMPDEST PUSH1 0x0 PUSH1 0x20 DUP3 ADD SWAP1 POP DUP2 DUP2 SUB PUSH1 0x0 DUP4 ADD MSTORE PUSH2 0x4F47 DUP2 PUSH2 0x4F0B JUMP JUMPDEST SWAP1 POP SWAP2 SWAP1 POP JUMP JUMPDEST PUSH1 0x0 PUSH2 0x4F59 DUP3 PUSH2 0x46A3 JUMP JUMPDEST SWAP2 POP PUSH2 0x4F64 DUP4 PUSH2 0x46A3 JUMP JUMPDEST SWAP3 POP DUP3 DUP3 SUB SWAP1 POP PUSH1 0xFF DUP2 GT ISZERO PUSH2 0x4F7D JUMPI PUSH2 0x4F7C PUSH2 0x4BA9 JUMP JUMPDEST JUMPDEST SWAP3 SWAP2 POP POP JUMP JUMPDEST PUSH1 0x0 PUSH2 0x4F8E DUP3 PUSH2 0x4E01 JUMP JUMPDEST SWAP2 POP PUSH2 0x4F99 DUP4 PUSH2 0x4E01 JUMP JUMPDEST SWAP3 POP DUP3 DUP3 ADD SWAP1 POP DUP3 DUP2 SLT ISZERO PUSH1 0x0 DUP4 SLT AND DUP4 DUP3 SLT PUSH1 0x0 DUP5 SLT ISZERO AND OR ISZERO PUSH2 0x4FC1 JUMPI PUSH2 0x4FC0 PUSH2 0x4BA9 JUMP JUMPDEST JUMPDEST SWAP3 SWAP2 POP POP JUMP JUMPDEST PUSH1 0x0 PUSH2 0x4FD2 DUP3 PUSH2 0x4E01 JUMP JUMPDEST SWAP2 POP PUSH2 0x4FDD DUP4 PUSH2 0x4E01 JUMP JUMPDEST SWAP3 POP DUP3 DUP3 MUL PUSH2 0x4FEB DUP2 PUSH2 0x4E01 JUMP JUMPDEST SWAP2 POP PUSH32 0x8000000000000000000000000000000000000000000000000000000000000000 DUP5 EQ PUSH1 0x0 DUP5 SLT AND ISZERO PUSH2 0x5023 JUMPI PUSH2 0x5022 PUSH2 0x4BA9 JUMP JUMPDEST JUMPDEST DUP3 DUP3 SDIV DUP5 EQ DUP4 ISZERO OR PUSH2 0x5038 JUMPI PUSH2 0x5037 PUSH2 0x4BA9 JUMP JUMPDEST JUMPDEST POP SWAP3 SWAP2 POP POP JUMP JUMPDEST PUSH32 0x556E6B6E6F776E206F7220756E737570706F7274656420676174650000000000 PUSH1 0x0 DUP3 ADD MSTORE POP JUMP JUMPDEST PUSH1 0x0 PUSH2 0x5075 PUSH1 0x1B DUP4 PUSH2 0x4A54 JUMP JUMPDEST SWAP2 POP PUSH2 0x5080 DUP3 PUSH2 0x503F JUMP JUMPDEST PUSH1 0x20 DUP3 ADD SWAP1 POP SWAP2 SWAP1 POP JUMP JUMPDEST PUSH1 0x0 PUSH1 0x20 DUP3 ADD SWAP1 POP DUP2 DUP2 SUB PUSH1 0x0 DUP4 ADD MSTORE PUSH2 0x50A4 DUP2 PUSH2 0x5068 JUMP JUMPDEST SWAP1 POP SWAP2 SWAP1 POP JUMP JUMPDEST PUSH1 0x0 PUSH1 0x60 DUP3 ADD SWAP1 POP PUSH2 0x50C0 PUSH1 0x0 DUP4 ADD DUP7 PUSH2 0x48C7 JUMP JUMPDEST PUSH2 0x50CD PUSH1 0x20 DUP4 ADD DUP6 PUSH2 0x48C7 JUMP JUMPDEST PUSH2 0x50DA PUSH1 0x40 DUP4 ADD DUP5 PUSH2 0x48C7 JUMP JUMPDEST SWAP5 SWAP4 POP POP POP POP JUMP JUMPDEST PUSH32 0x4E487B7100000000000000000000000000000000000000000000000000000000 PUSH1 0x0 MSTORE PUSH1 0x12 PUSH1 0x4 MSTORE PUSH1 0x24 PUSH1 0x0 REVERT JUMPDEST PUSH1 0x0 PUSH2 0x511C DUP3 PUSH2 0x4822 JUMP JUMPDEST SWAP2 POP PUSH2 0x5127 DUP4 PUSH2 0x4822 JUMP JUMPDEST SWAP3 POP DUP3 PUSH2 0x5137 JUMPI PUSH2 0x5136 PUSH2 0x50E2 JUMP JUMPDEST JUMPDEST DUP3 DUP3 MOD SWAP1 POP SWAP3 SWAP2 POP POP JUMP INVALID LOG2 PUSH5 0x6970667358 0x22 SLT KECCAK256 SWAP14 0xA9 0xB6 0xB0 PUSH21 0xCF7FFC006B869092821D7BBB20AB1966F044A1E26D MLOAD 0xCE DUP3 PUSH27 0xB4B64736F6C634300081100330000000000000000000000000000 "},"methodIdentifiers":{"gatesNames(uint256)":"48e20f0b","getGatesNames()":"17d2a5f2","getName()":"17d7de7c","getNumberOfQubits()":"4b50623c","isQPU()":"61c0fae8","isSimulator()":"55c1e953","owner()":"8da5cb5b","runQScript(uint8,string,uint256)":"16a832bf"}}}}}