{
  "_format": "hh-sol-artifact-1",
  "contractName": "QuantumBackendContract",
  "sourceName": "contracts/QuantumBackendContract.sol",
  "abi": [
    {
      "inputs": [],
      "stateMutability": "nonpayable",
      "type": "constructor"
    },
    {
      "inputs": [
        {
          "internalType": "uint256",
          "name": "",
          "type": "uint256"
        }
      ],
      "name": "gatesNames",
      "outputs": [
        {
          "internalType": "string",
          "name": "",
          "type": "string"
        }
      ],
      "stateMutability": "view",
      "type": "function"
    },
    {
      "inputs": [],
      "name": "getGatesNames",
      "outputs": [
        {
          "internalType": "string[]",
          "name": "",
          "type": "string[]"
        }
      ],
      "stateMutability": "view",
      "type": "function"
    },
    {
      "inputs": [],
      "name": "getName",
      "outputs": [
        {
          "internalType": "string",
          "name": "",
          "type": "string"
        }
      ],
      "stateMutability": "pure",
      "type": "function"
    },
    {
      "inputs": [],
      "name": "getNumberOfQubits",
      "outputs": [
        {
          "internalType": "uint8",
          "name": "",
          "type": "uint8"
        }
      ],
      "stateMutability": "pure",
      "type": "function"
    },
    {
      "inputs": [],
      "name": "isQPU",
      "outputs": [
        {
          "internalType": "bool",
          "name": "",
          "type": "bool"
        }
      ],
      "stateMutability": "pure",
      "type": "function"
    },
    {
      "inputs": [],
      "name": "isSimulator",
      "outputs": [
        {
          "internalType": "bool",
          "name": "",
          "type": "bool"
        }
      ],
      "stateMutability": "pure",
      "type": "function"
    },
    {
      "inputs": [],
      "name": "owner",
      "outputs": [
        {
          "internalType": "address",
          "name": "",
          "type": "address"
        }
      ],
      "stateMutability": "view",
      "type": "function"
    },
    {
      "inputs": [
        {
          "internalType": "uint8",
          "name": "numQubits",
          "type": "uint8"
        },
        {
          "internalType": "string",
          "name": "s",
          "type": "string"
        },
        {
          "internalType": "uint256",
          "name": "randomSeed",
          "type": "uint256"
        }
      ],
      "name": "runQScript",
      "outputs": [
        {
          "internalType": "uint256",
          "name": "",
          "type": "uint256"
        }
      ],
      "stateMutability": "view",
      "type": "function"
    }
  ],
  "bytecode": "0x60806040526040518061020001604052806040518060400160405280600181526020017f480000000000000000000000000000000000000000000000000000000000000081525081526020016040518060400160405280600181526020017f490000000000000000000000000000000000000000000000000000000000000081525081526020016040518060400160405280600281526020017f434e00000000000000000000000000000000000000000000000000000000000081525081526020016040518060400160405280600381526020017f43434e000000000000000000000000000000000000000000000000000000000081525081526020016040518060400160405280600181526020017f580000000000000000000000000000000000000000000000000000000000000081525081526020016040518060400160405280600181526020017f590000000000000000000000000000000000000000000000000000000000000081525081526020016040518060400160405280600181526020017f5a0000000000000000000000000000000000000000000000000000000000000081525081526020016040518060400160405280600381526020017f503435000000000000000000000000000000000000000000000000000000000081525081526020016040518060400160405280600381526020017f703435000000000000000000000000000000000000000000000000000000000081525081526020016040518060400160405280600181526020017f540000000000000000000000000000000000000000000000000000000000000081525081526020016040518060400160405280600181526020017f740000000000000000000000000000000000000000000000000000000000000081525081526020016040518060400160405280600481526020017f435034350000000000000000000000000000000000000000000000000000000081525081526020016040518060400160405280600481526020017f437034350000000000000000000000000000000000000000000000000000000081525081526020016040518060400160405280600281526020017f435400000000000000000000000000000000000000000000000000000000000081525081526020016040518060400160405280600281526020017f437400000000000000000000000000000000000000000000000000000000000081525081526020016040518060400160405280600181526020017f6d000000000000000000000000000000000000000000000000000000000000008152508152506001906010620003d092919062000425565b50348015620003de57600080fd5b50336000806101000a81548173ffffffffffffffffffffffffffffffffffffffff021916908373ffffffffffffffffffffffffffffffffffffffff16021790555062000873565b82805482825590600052602060002090810192821562000472579160200282015b82811115620004715782518290816200046091906200078c565b509160200191906001019062000446565b5b50905062000481919062000485565b5090565b5b80821115620004a957600081816200049f9190620004ad565b5060010162000486565b5090565b508054620004bb906200057b565b6000825580601f10620004cf5750620004f0565b601f016020900490600052602060002090810190620004ef9190620004f3565b5b50565b5b808211156200050e576000816000905550600101620004f4565b5090565b600081519050919050565b7f4e487b7100000000000000000000000000000000000000000000000000000000600052604160045260246000fd5b7f4e487b7100000000000000000000000000000000000000000000000000000000600052602260045260246000fd5b600060028204905060018216806200059457607f821691505b602082108103620005aa57620005a96200054c565b5b50919050565b60008190508160005260206000209050919050565b60006020601f8301049050919050565b600082821b905092915050565b600060088302620006147fffffffffffffffffffffffffffffffffffffffffffffffffffffffffffffffff82620005d5565b620006208683620005d5565b95508019841693508086168417925050509392505050565b6000819050919050565b6000819050919050565b60006200066d62000667620006618462000638565b62000642565b62000638565b9050919050565b6000819050919050565b62000689836200064c565b620006a1620006988262000674565b848454620005e2565b825550505050565b600090565b620006b8620006a9565b620006c58184846200067e565b505050565b5b81811015620006ed57620006e1600082620006ae565b600181019050620006cb565b5050565b601f8211156200073c576200070681620005b0565b6200071184620005c5565b8101602085101562000721578190505b620007396200073085620005c5565b830182620006ca565b50505b505050565b600082821c905092915050565b6000620007616000198460080262000741565b1980831691505092915050565b60006200077c83836200074e565b9150826002028217905092915050565b620007978262000512565b67ffffffffffffffff811115620007b357620007b26200051d565b5b620007bf82546200057b565b620007cc828285620006f1565b600060209050601f831160018114620008045760008415620007ef578287015190505b620007fb85826200076e565b8655506200086b565b601f1984166200081486620005b0565b60005b828110156200083e5784890151825560018201915060208501945060208101905062000817565b868310156200085e57848901516200085a601f8916826200074e565b8355505b6001600288020188555050505b505050505050565b61513d80620008836000396000f3fe608060405234801561001057600080fd5b50600436106100885760003560e01c80634b50623c1161005b5780634b50623c1461012957806355c1e9531461014757806361c0fae8146101655780638da5cb5b1461018357610088565b806316a832bf1461008d57806317d2a5f2146100bd57806317d7de7c146100db57806348e20f0b146100f9575b600080fd5b6100a760048036038101906100a2919061481d565b6101a1565b6040516100b4919061489b565b60405180910390f35b6100c56107f2565b6040516100d291906149f7565b60405180910390f35b6100e36108cb565b6040516100f09190614a63565b60405180910390f35b610113600480360381019061010e9190614a85565b610908565b6040516101209190614a63565b60405180910390f35b6101316109b4565b60405161013e9190614ac1565b60405180910390f35b61014f6109bd565b60405161015c9190614af7565b60405180910390f35b61016d6109c6565b60405161017a9190614af7565b60405180910390f35b61018b6109cb565b6040516101989190614b53565b60405180910390f35b60006101ab6145b9565b606060008060008080895190506101c18b6109ef565b50600092505b8a60026101d49190614cd0565b8310156102d157600087602001518461010081106101f5576101f4614d1b565b5b602002015160016002811061020d5761020c614d1b565b5b6020020181815250876020015184610100811061022d5761022c614d1b565b5b602002015160006002811061024557610244614d1b565b5b6020020181815250876000015184610100811061026557610264614d1b565b5b602002015160016002811061027d5761027c614d1b565b5b6020020181815250876000015184610100811061029d5761029c614d1b565b5b60200201516000600281106102b5576102b4614d1b565b5b60200201818152505082806102c990614d4a565b9350506101c7565b60018760000151600061010081106102ec576102eb614d1b565b5b602002015160006002811061030457610303614d1b565b5b6020020181815250508a60ff1667ffffffffffffffff81111561032a576103296146bc565b5b6040519080825280602002602001820160405280156103585781602001602082028036833780820191505090505b509550600092505b8361058e57808b60ff16846103759190614d92565b1115610416577f2e000000000000000000000000000000000000000000000000000000000000007effffffffffffffffffffffffffffffffffffffffffffffffffffffffffffff19168a84815181106103d1576103d0614d1b565b5b602001015160f81c60f81b7effffffffffffffffffffffffffffffffffffffffffffffffffffffffffffff19160361040c5760019350610411565b600193505b610589565b600091505b8a60ff168210156104c85789838061043290614d4a565b94508151811061044557610444614d1b565b5b602001015160f81c60f81b86838151811061046357610462614d1b565b5b60200260200101907effffffffffffffffffffffffffffffffffffffffffffffffffffffffffffff191690817effffffffffffffffffffffffffffffffffffffffffffffffffffffffffffff19168152505081806104c090614d4a565b92505061041b565b6104d48b87898c610a44565b9a5080831015610583577f2e000000000000000000000000000000000000000000000000000000000000007effffffffffffffffffffffffffffffffffffffffffffffffffffffffffffff19168a848151811061053457610533614d1b565b5b602001015160f81c60f81b7effffffffffffffffffffffffffffffffffffffffffffffffffffffffffffff19160361056f576001935061057e565b828061057a90614d4a565b9350505b610588565b600193505b5b610360565b60009250600091505b8a60026105a49190614cd0565b8210156107355786602001518261010081106105c3576105c2614d1b565b5b60200201516000600281106105db576105da614d1b565b5b602002015187600001518361010081106105f8576105f7614d1b565b5b60200201516000600281106106105761060f614d1b565b5b602002018181516106219190614dd0565b915081815250506000876000015183610100811061064257610641614d1b565b5b602002015160006002811061065a57610659614d1b565b5b602002015112156106e057866000015182610100811061067d5761067c614d1b565b5b602002015160006002811061069557610694614d1b565b5b602002015160006106a69190614e14565b87600001518361010081106106be576106bd614d1b565b5b60200201516000600281106106d6576106d5614d1b565b5b6020020181815250505b86600001518261010081106106f8576106f7614d1b565b5b60200201516000600281106107105761070f614d1b565b5b6020020151836107209190614d92565b9250818061072d90614d4a565b925050610597565b6001610741848b612493565b61074b9190614d92565b9150600094505b866000015185610100811061076a57610769614d1b565b5b602002015160006002811061078257610781614d1b565b5b60200201518211156107e1578660000151858061079e90614d4a565b965061010081106107b2576107b1614d1b565b5b60200201516000600281106107ca576107c9614d1b565b5b6020020151826107da9190614e57565b9150610752565b849750505050505050509392505050565b60606001805480602002602001604051908101604052809291908181526020016000905b828210156108c257838290600052602060002001805461083590614eba565b80601f016020809104026020016040519081016040528092919081815260200182805461086190614eba565b80156108ae5780601f10610883576101008083540402835291602001916108ae565b820191906000526020600020905b81548152906001019060200180831161089157829003601f168201915b505050505081526020019060010190610816565b50505050905090565b60606040518060400160405280600f81526020017f70716365655f73696d756c61746f720000000000000000000000000000000000815250905090565b6001818154811061091857600080fd5b90600052602060002001600091509050805461093390614eba565b80601f016020809104026020016040519081016040528092919081815260200182805461095f90614eba565b80156109ac5780601f10610981576101008083540402835291602001916109ac565b820191906000526020600020905b81548152906001019060200180831161098f57829003601f168201915b505050505081565b60006008905090565b60006001905090565b600090565b60008054906101000a900473ffffffffffffffffffffffffffffffffffffffff1681565b6000600860ff168260ff161115610a3b576040517f08c379a0000000000000000000000000000000000000000000000000000000008152600401610a3290614f37565b60405180910390fd5b60009050919050565b600080600080600080896002610a5a9190614cd0565b90506001945060018a610a6d9190614f57565b60ff1685901b9450600093505b8960ff1684101561236f576000808360ff1614610a98576000610a9b565b60015b9050600093505b81841015610b345760008960200151856101008110610ac457610ac3614d1b565b5b60200201518260ff1660028110610ade57610add614d1b565b5b60200201818152508960000151856101008110610afe57610afd614d1b565b5b60200201518260ff1660028110610b1857610b17614d1b565b5b6020020181815250508380610b2c90614d4a565b945050610aa2565b7f48000000000000000000000000000000000000000000000000000000000000007effffffffffffffffffffffffffffffffffffffffffffffffffffffffffffff19168a8681518110610b8a57610b89614d1b565b5b60200260200101517effffffffffffffffffffffffffffffffffffffffffffffffffffffffffffff191603610c6d57600093505b81841015610c685760008960000151856101008110610be057610bdf614d1b565b5b60200201518460ff1660028110610bfa57610bf9614d1b565b5b6020020151141580610c43575060008960200151856101008110610c2157610c20614d1b565b5b60200201518460ff1660028110610c3b57610c3a614d1b565b5b602002015114155b15610c5557610c5486858b866124db565b5b8380610c6090614d4a565b945050610bbe565b612351565b7f49000000000000000000000000000000000000000000000000000000000000007effffffffffffffffffffffffffffffffffffffffffffffffffffffffffffff19168a8681518110610cc357610cc2614d1b565b5b60200260200101517effffffffffffffffffffffffffffffffffffffffffffffffffffffffffffff19161480610d7657507f43000000000000000000000000000000000000000000000000000000000000007effffffffffffffffffffffffffffffffffffffffffffffffffffffffffffff19168a8681518110610d4a57610d49614d1b565b5b60200260200101517effffffffffffffffffffffffffffffffffffffffffffffffffffffffffffff1916145b15610e2e57600093505b81841015610e295760008960000151856101008110610da257610da1614d1b565b5b60200201518460ff1660028110610dbc57610dbb614d1b565b5b6020020151141580610e05575060008960200151856101008110610de357610de2614d1b565b5b60200201518460ff1660028110610dfd57610dfc614d1b565b5b602002015114155b15610e1657610e15848a8561294a565b5b8380610e2190614d4a565b945050610d80565b612350565b7f58000000000000000000000000000000000000000000000000000000000000007effffffffffffffffffffffffffffffffffffffffffffffffffffffffffffff19168a8681518110610e8457610e83614d1b565b5b60200260200101517effffffffffffffffffffffffffffffffffffffffffffffffffffffffffffff191603610f6757600093505b81841015610f625760008960000151856101008110610eda57610ed9614d1b565b5b60200201518460ff1660028110610ef457610ef3614d1b565b5b6020020151141580610f3d575060008960200151856101008110610f1b57610f1a614d1b565b5b60200201518460ff1660028110610f3557610f34614d1b565b5b602002015114155b15610f4f57610f4e86858b86612a6a565b5b8380610f5a90614d4a565b945050610eb8565b61234f565b7f59000000000000000000000000000000000000000000000000000000000000007effffffffffffffffffffffffffffffffffffffffffffffffffffffffffffff19168a8681518110610fbd57610fbc614d1b565b5b60200260200101517effffffffffffffffffffffffffffffffffffffffffffffffffffffffffffff1916036110a057600093505b8184101561109b576000896000015185610100811061101357611012614d1b565b5b60200201518460ff166002811061102d5761102c614d1b565b5b602002015114158061107657506000896020015185610100811061105457611053614d1b565b5b60200201518460ff166002811061106e5761106d614d1b565b5b602002015114155b156110885761108786858b86612cc9565b5b838061109390614d4a565b945050610ff1565b61234e565b7f5a000000000000000000000000000000000000000000000000000000000000007effffffffffffffffffffffffffffffffffffffffffffffffffffffffffffff19168a86815181106110f6576110f5614d1b565b5b60200260200101517effffffffffffffffffffffffffffffffffffffffffffffffffffffffffffff1916036111d957600093505b818410156111d4576000896000015185610100811061114c5761114b614d1b565b5b60200201518460ff166002811061116657611165614d1b565b5b60200201511415806111af57506000896020015185610100811061118d5761118c614d1b565b5b60200201518460ff16600281106111a7576111a6614d1b565b5b602002015114155b156111c1576111c086858b86612f40565b5b83806111cc90614d4a565b94505061112a565b61234d565b7f6d000000000000000000000000000000000000000000000000000000000000007effffffffffffffffffffffffffffffffffffffffffffffffffffffffffffff19168a868151811061122f5761122e614d1b565b5b60200260200101517effffffffffffffffffffffffffffffffffffffffffffffffffffffffffffff19160361185f5760008094505b828510156115a457896000015185610100811061128457611283614d1b565b5b60200201518460ff166002811061129e5761129d614d1b565b5b60200201518a600001518661010081106112bb576112ba614d1b565b5b60200201518360ff16600281106112d5576112d4614d1b565b5b60200201818152505060008a600001518661010081106112f8576112f7614d1b565b5b60200201518360ff166002811061131257611311614d1b565b5b6020020151121561139c57896000015185610100811061133557611334614d1b565b5b60200201518260ff166002811061134f5761134e614d1b565b5b602002015160006113609190614e14565b8a6000015186610100811061137857611377614d1b565b5b60200201518360ff166002811061139257611391614d1b565b5b6020020181815250505b89602001518561010081106113b4576113b3614d1b565b5b60200201518460ff16600281106113ce576113cd614d1b565b5b60200201518a602001518661010081106113eb576113ea614d1b565b5b60200201518360ff166002811061140557611404614d1b565b5b60200201818152505060008a6020015186610100811061142857611427614d1b565b5b60200201518360ff166002811061144257611441614d1b565b5b602002015112156114cc57896020015185610100811061146557611464614d1b565b5b60200201518260ff166002811061147f5761147e614d1b565b5b602002015160006114909190614e14565b8a602001518661010081106114a8576114a7614d1b565b5b60200201518360ff16600281106114c2576114c1614d1b565b5b6020020181815250505b89602001518561010081106114e4576114e3614d1b565b5b60200201518260ff16600281106114fe576114fd614d1b565b5b60200201518a6000015186610100811061151b5761151a614d1b565b5b60200201518360ff166002811061153557611534614d1b565b5b602002018181516115469190614dd0565b91508181525050896000015185610100811061156557611564614d1b565b5b60200201518260ff166002811061157f5761157e614d1b565b5b60200201518161158f9190614d92565b9050848061159c90614d4a565b955050611264565b60016115b0828b612493565b6115ba9190614d92565b9450600090505b89600001518161010081106115d9576115d8614d1b565b5b60200201518260ff16600281106115f3576115f2614d1b565b5b6020020151851115611654578960000151818061160f90614d4a565b9250610100811061162357611622614d1b565b5b60200201518260ff166002811061163d5761163c614d1b565b5b60200201518561164d9190614e57565b94506115c1565b600094505b828510156116eb5760008a6020015186610100811061167b5761167a614d1b565b5b60200201518360ff166002811061169557611694614d1b565b5b60200201818152508a600001518661010081106116b5576116b4614d1b565b5b60200201518360ff16600281106116cf576116ce614d1b565b5b60200201818152505084806116e390614d4a565b955050611659565b6000878216036117a957600094505b828510156117a45760008a6000015186610100811061171c5761171b614d1b565b5b60200201518560ff166002811061173657611735614d1b565b5b602002015114158061177f575060008a6020015186610100811061175d5761175c614d1b565b5b60200201518560ff166002811061177757611776614d1b565b5b602002015114155b156117915761179087868c8761318b565b5b848061179c90614d4a565b9550506116fa565b611859565b600094505b828510156118585760008a600001518661010081106117d0576117cf614d1b565b5b60200201518560ff16600281106117ea576117e9614d1b565b5b6020020151141580611833575060008a6020015186610100811061181157611810614d1b565b5b60200201518560ff166002811061182b5761182a614d1b565b5b602002015114155b156118455761184487868c876132b7565b5b848061185090614d4a565b9550506117ae565b5b5061234c565b7f4e000000000000000000000000000000000000000000000000000000000000007effffffffffffffffffffffffffffffffffffffffffffffffffffffffffffff19168a86815181106118b5576118b4614d1b565b5b60200260200101517effffffffffffffffffffffffffffffffffffffffffffffffffffffffffffff191603611a755760006001905060018c6118f79190614f57565b60ff1681901b905060008095505b8c60ff168610156119be577f43000000000000000000000000000000000000000000000000000000000000007effffffffffffffffffffffffffffffffffffffffffffffffffffffffffffff19168c878151811061196657611965614d1b565b5b60200260200101517effffffffffffffffffffffffffffffffffffffffffffffffffffffffffffff1916036119a45781816119a19190614d92565b90505b600182901c915085806119b690614d4a565b965050611905565b600095505b83861015611a6e5760008b600001518761010081106119e5576119e4614d1b565b5b60200201518660ff16600281106119ff576119fe614d1b565b5b6020020151141580611a48575060008b60200151876101008110611a2657611a25614d1b565b5b60200201518660ff1660028110611a4057611a3f614d1b565b5b602002015114155b15611a5b57611a5a8189888e896133e2565b5b8580611a6690614d4a565b9650506119c3565b505061234b565b7f50000000000000000000000000000000000000000000000000000000000000007effffffffffffffffffffffffffffffffffffffffffffffffffffffffffffff19168a8681518110611acb57611aca614d1b565b5b60200260200101517effffffffffffffffffffffffffffffffffffffffffffffffffffffffffffff19161480611b7e57507f70000000000000000000000000000000000000000000000000000000000000007effffffffffffffffffffffffffffffffffffffffffffffffffffffffffffff19168a8681518110611b5257611b51614d1b565b5b60200260200101517effffffffffffffffffffffffffffffffffffffffffffffffffffffffffffff1916145b15611dac5760006001905060018c611b969190614f57565b60ff1681901b905060008095505b8c60ff16861015611c5d577f43000000000000000000000000000000000000000000000000000000000000007effffffffffffffffffffffffffffffffffffffffffffffffffffffffffffff19168c8781518110611c0557611c04614d1b565b5b60200260200101517effffffffffffffffffffffffffffffffffffffffffffffffffffffffffffff191603611c43578181611c409190614d92565b90505b600182901c91508580611c5590614d4a565b965050611ba4565b600095505b83861015611da55760008b60000151876101008110611c8457611c83614d1b565b5b60200201518660ff1660028110611c9e57611c9d614d1b565b5b6020020151141580611ce7575060008b60200151876101008110611cc557611cc4614d1b565b5b60200201518660ff1660028110611cdf57611cde614d1b565b5b602002015114155b15611d92577f50000000000000000000000000000000000000000000000000000000000000007effffffffffffffffffffffffffffffffffffffffffffffffffffffffffffff19168c8881518110611d4257611d41614d1b565b5b60200260200101517effffffffffffffffffffffffffffffffffffffffffffffffffffffffffffff191603611d8357611d7e8189888e89613761565b611d91565b611d908189888e89613ab2565b5b5b8580611d9d90614d4a565b965050611c62565b505061234a565b7f54000000000000000000000000000000000000000000000000000000000000007effffffffffffffffffffffffffffffffffffffffffffffffffffffffffffff19168a8681518110611e0257611e01614d1b565b5b60200260200101517effffffffffffffffffffffffffffffffffffffffffffffffffffffffffffff19161480611eb557507f74000000000000000000000000000000000000000000000000000000000000007effffffffffffffffffffffffffffffffffffffffffffffffffffffffffffff19168a8681518110611e8957611e88614d1b565b5b60200260200101517effffffffffffffffffffffffffffffffffffffffffffffffffffffffffffff1916145b1561230e5760006001905060018c611ecd9190614f57565b60ff1681901b90506000611edf6145df565b600096505b8d60ff16871015611f9d577f43000000000000000000000000000000000000000000000000000000000000007effffffffffffffffffffffffffffffffffffffffffffffffffffffffffffff19168d8881518110611f4557611f44614d1b565b5b60200260200101517effffffffffffffffffffffffffffffffffffffffffffffffffffffffffffff191603611f83578282611f809190614d92565b91505b600183901c92508680611f9590614d4a565b975050611ee4565b60009250600096505b8487101561218357600081886101008110611fc457611fc3614d1b565b5b602002019060ff16908160ff168152505060008c60000151886101008110611fef57611fee614d1b565b5b60200201518760ff166002811061200957612008614d1b565b5b6020020151141580612052575060008c602001518861010081106120305761202f614d1b565b5b60200201518760ff166002811061204a57612049614d1b565b5b602002015114155b15612170577f54000000000000000000000000000000000000000000000000000000000000007effffffffffffffffffffffffffffffffffffffffffffffffffffffffffffff19168d89815181106120ad576120ac614d1b565b5b60200260200101517effffffffffffffffffffffffffffffffffffffffffffffffffffffffffffff191603612113576120e9828a898f8a613e03565b818861010081106120fd576120fc614d1b565b5b602002019060ff16908160ff1681525050612146565b612120828a898f8a6141d8565b8188610100811061213457612133614d1b565b5b602002019060ff16908160ff16815250505b60008188610100811061215c5761215b614d1b565b5b602002015160ff16111561216f57600192505b5b868061217b90614d4a565b975050611fa6565b600083111561230657600096505b84871015612305576000818861010081106121af576121ae614d1b565b5b602002015160ff160361225957600a8c600001518861010081106121d6576121d5614d1b565b5b60200201518560ff16600281106121f0576121ef614d1b565b5b602002018181516122019190614f8c565b91508181525050600a8c6020015188610100811061222257612221614d1b565b5b60200201518560ff166002811061223c5761223b614d1b565b5b6020020181815161224d9190614f8c565b915081815250506122f2565b60078c6000015188610100811061227357612272614d1b565b5b60200201518560ff166002811061228d5761228c614d1b565b5b6020020181815161229e9190614f8c565b9150818152505060078c602001518861010081106122bf576122be614d1b565b5b60200201518560ff16600281106122d9576122d8614d1b565b5b602002018181516122ea9190614f8c565b915081815250505b86806122fd90614d4a565b975050612191565b5b505050612349565b6040517f08c379a000000000000000000000000000000000000000000000000000000000815260040161234090615050565b60405180910390fd5b5b5b5b5b5b5b5b5b600186901c955080925050838061236790614d4a565b945050610a7a565b60018260ff160361248357600092505b89600261238c9190614cd0565b8310156124825787600001518361010081106123ab576123aa614d1b565b5b60200201516001600281106123c3576123c2614d1b565b5b602002015188600001518461010081106123e0576123df614d1b565b5b60200201516000600281106123f8576123f7614d1b565b5b602002018181525050876020015183610100811061241957612418614d1b565b5b602002015160016002811061243157612430614d1b565b5b6020020151886020015184610100811061244e5761244d614d1b565b5b602002015160006002811061246657612465614d1b565b5b602002018181525050828061247a90614d4a565b93505061237f565b5b8995505050505050949350505050565b6000804342846040516020016124ab93929190615070565b6040516020818303038152906040528051906020012060001c905083816124d291906150d6565b91505092915050565b6000808260ff16146124ee5760006124f1565b60015b905060008486161461272857826000015184610100811061251557612514614d1b565b5b60200201518260ff166002811061252f5761252e614d1b565b5b6020020151836000015186866125459190614e57565b610100811061255757612556614d1b565b5b60200201518260ff166002811061257157612570614d1b565b5b602002018181516125829190614dd0565b9150818152505082602001518461010081106125a1576125a0614d1b565b5b60200201518260ff16600281106125bb576125ba614d1b565b5b6020020151836020015186866125d19190614e57565b61010081106125e3576125e2614d1b565b5b60200201518260ff16600281106125fd576125fc614d1b565b5b6020020181815161260e9190614dd0565b91508181525050826000015184610100811061262d5761262c614d1b565b5b60200201518260ff166002811061264757612646614d1b565b5b602002015160006126589190614e14565b83600001518561010081106126705761266f614d1b565b5b60200201518260ff166002811061268a57612689614d1b565b5b6020020181815161269b9190614dd0565b9150818152505082602001518461010081106126ba576126b9614d1b565b5b60200201518260ff16600281106126d4576126d3614d1b565b5b602002015183602001518561010081106126f1576126f0614d1b565b5b60200201518260ff166002811061270b5761270a614d1b565b5b6020020181815161271c9190614dd0565b91508181525050612943565b82600001518461010081106127405761273f614d1b565b5b60200201518260ff166002811061275a57612759614d1b565b5b6020020151836000015186866127709190614d92565b610100811061278257612781614d1b565b5b60200201518260ff166002811061279c5761279b614d1b565b5b602002018181516127ad9190614dd0565b9150818152505082602001518461010081106127cc576127cb614d1b565b5b60200201518260ff16600281106127e6576127e5614d1b565b5b6020020151836020015186866127fc9190614d92565b610100811061280e5761280d614d1b565b5b60200201518260ff166002811061282857612827614d1b565b5b602002018181516128399190614dd0565b91508181525050826000015184610100811061285857612857614d1b565b5b60200201518260ff166002811061287257612871614d1b565b5b6020020151836000015185610100811061288f5761288e614d1b565b5b60200201518260ff16600281106128a9576128a8614d1b565b5b602002018181516128ba9190614dd0565b9150818152505082602001518461010081106128d9576128d8614d1b565b5b60200201518260ff16600281106128f3576128f2614d1b565b5b602002015183602001518561010081106129105761290f614d1b565b5b60200201518260ff166002811061292a57612929614d1b565b5b6020020181815161293b9190614dd0565b915081815250505b5050505050565b6000808260ff161461295d576000612960565b60015b9050826000015184610100811061297a57612979614d1b565b5b60200201518260ff166002811061299457612993614d1b565b5b602002015183600001518561010081106129b1576129b0614d1b565b5b60200201518260ff16600281106129cb576129ca614d1b565b5b602002018181516129dc9190614dd0565b9150818152505082602001518461010081106129fb576129fa614d1b565b5b60200201518260ff1660028110612a1557612a14614d1b565b5b60200201518360200151856101008110612a3257612a31614d1b565b5b60200201518260ff1660028110612a4c57612a4b614d1b565b5b60200201818151612a5d9190614dd0565b9150818152505050505050565b6000808260ff1614612a7d576000612a80565b60015b9050600084861614612ba9578260000151846101008110612aa457612aa3614d1b565b5b60200201518260ff1660028110612abe57612abd614d1b565b5b602002015183600001518686612ad49190614e57565b6101008110612ae657612ae5614d1b565b5b60200201518260ff1660028110612b0057612aff614d1b565b5b60200201818151612b119190614dd0565b915081815250508260200151846101008110612b3057612b2f614d1b565b5b60200201518260ff1660028110612b4a57612b49614d1b565b5b602002015183602001518686612b609190614e57565b6101008110612b7257612b71614d1b565b5b60200201518260ff1660028110612b8c57612b8b614d1b565b5b60200201818151612b9d9190614dd0565b91508181525050612cc2565b8260000151846101008110612bc157612bc0614d1b565b5b60200201518260ff1660028110612bdb57612bda614d1b565b5b602002015183600001518686612bf19190614d92565b6101008110612c0357612c02614d1b565b5b60200201518260ff1660028110612c1d57612c1c614d1b565b5b60200201818151612c2e9190614dd0565b915081815250508260200151846101008110612c4d57612c4c614d1b565b5b60200201518260ff1660028110612c6757612c66614d1b565b5b602002015183602001518686612c7d9190614d92565b6101008110612c8f57612c8e614d1b565b5b60200201518260ff1660028110612ca957612ca8614d1b565b5b60200201818151612cba9190614dd0565b915081815250505b5050505050565b6000808260ff1614612cdc576000612cdf565b60015b9050600084861614612e14578260200151846101008110612d0357612d02614d1b565b5b60200201518260ff1660028110612d1d57612d1c614d1b565b5b602002015183600001518686612d339190614e57565b6101008110612d4557612d44614d1b565b5b60200201518260ff1660028110612d5f57612d5e614d1b565b5b60200201818151612d709190614dd0565b915081815250508260000151846101008110612d8f57612d8e614d1b565b5b60200201518260ff1660028110612da957612da8614d1b565b5b60200201516000612dba9190614e14565b83602001518686612dcb9190614e57565b6101008110612ddd57612ddc614d1b565b5b60200201518260ff1660028110612df757612df6614d1b565b5b60200201818151612e089190614dd0565b91508181525050612f39565b8260200151846101008110612e2c57612e2b614d1b565b5b60200201518260ff1660028110612e4657612e45614d1b565b5b60200201516000612e579190614e14565b83600001518686612e689190614d92565b6101008110612e7a57612e79614d1b565b5b60200201518260ff1660028110612e9457612e93614d1b565b5b60200201818151612ea59190614dd0565b915081815250508260000151846101008110612ec457612ec3614d1b565b5b60200201518260ff1660028110612ede57612edd614d1b565b5b602002015183602001518686612ef49190614d92565b6101008110612f0657612f05614d1b565b5b60200201518260ff1660028110612f2057612f1f614d1b565b5b60200201818151612f319190614dd0565b915081815250505b5050505050565b6000808260ff1614612f53576000612f56565b60015b9050600084861614613081578260000151846101008110612f7a57612f79614d1b565b5b60200201518260ff1660028110612f9457612f93614d1b565b5b60200201516000612fa59190614e14565b8360000151856101008110612fbd57612fbc614d1b565b5b60200201518260ff1660028110612fd757612fd6614d1b565b5b60200201818151612fe89190614dd0565b91508181525050826020015184610100811061300757613006614d1b565b5b60200201518260ff166002811061302157613020614d1b565b5b602002015160006130329190614e14565b836020015185610100811061304a57613049614d1b565b5b60200201518260ff166002811061306457613063614d1b565b5b602002018181516130759190614dd0565b91508181525050613184565b826000015184610100811061309957613098614d1b565b5b60200201518260ff16600281106130b3576130b2614d1b565b5b602002015183600001518561010081106130d0576130cf614d1b565b5b60200201518260ff16600281106130ea576130e9614d1b565b5b602002018181516130fb9190614dd0565b91508181525050826020015184610100811061311a57613119614d1b565b5b60200201518260ff166002811061313457613133614d1b565b5b6020020151836020015185610100811061315157613150614d1b565b5b60200201518260ff166002811061316b5761316a614d1b565b5b6020020181815161317c9190614dd0565b915081815250505b5050505050565b6000808260ff161461319e5760006131a1565b60015b90506000848616036132b05782600001518461010081106131c5576131c4614d1b565b5b60200201518260ff16600281106131df576131de614d1b565b5b602002015183600001518561010081106131fc576131fb614d1b565b5b60200201518260ff166002811061321657613215614d1b565b5b602002018181516132279190614dd0565b91508181525050826020015184610100811061324657613245614d1b565b5b60200201518260ff16600281106132605761325f614d1b565b5b6020020151836020015185610100811061327d5761327c614d1b565b5b60200201518260ff166002811061329757613296614d1b565b5b602002018181516132a89190614dd0565b915081815250505b5050505050565b6000808260ff16146132ca5760006132cd565b60015b905084848616036133db5782600001518461010081106132f0576132ef614d1b565b5b60200201518260ff166002811061330a57613309614d1b565b5b6020020151836000015185610100811061332757613326614d1b565b5b60200201518260ff166002811061334157613340614d1b565b5b602002018181516133529190614dd0565b91508181525050826020015184610100811061337157613370614d1b565b5b60200201518260ff166002811061338b5761338a614d1b565b5b602002015183602001518561010081106133a8576133a7614d1b565b5b60200201518260ff16600281106133c2576133c1614d1b565b5b602002018181516133d39190614dd0565b915081815250505b5050505050565b6000808260ff16146133f55760006133f8565b60015b90508584871614801561340c575060008614155b156136565760008486161461353857826000015184610100811061343357613432614d1b565b5b60200201518260ff166002811061344d5761344c614d1b565b5b6020020151836000015186866134639190614e57565b610100811061347557613474614d1b565b5b60200201518260ff166002811061348f5761348e614d1b565b5b602002018181516134a09190614dd0565b9150818152505082602001518461010081106134bf576134be614d1b565b5b60200201518260ff16600281106134d9576134d8614d1b565b5b6020020151836020015186866134ef9190614e57565b610100811061350157613500614d1b565b5b60200201518260ff166002811061351b5761351a614d1b565b5b6020020181815161352c9190614dd0565b91508181525050613651565b82600001518461010081106135505761354f614d1b565b5b60200201518260ff166002811061356a57613569614d1b565b5b6020020151836000015186866135809190614d92565b610100811061359257613591614d1b565b5b60200201518260ff16600281106135ac576135ab614d1b565b5b602002018181516135bd9190614dd0565b9150818152505082602001518461010081106135dc576135db614d1b565b5b60200201518260ff16600281106135f6576135f5614d1b565b5b60200201518360200151868661360c9190614d92565b610100811061361e5761361d614d1b565b5b60200201518260ff166002811061363857613637614d1b565b5b602002018181516136499190614dd0565b915081815250505b613759565b826000015184610100811061366e5761366d614d1b565b5b60200201518260ff166002811061368857613687614d1b565b5b602002015183600001518561010081106136a5576136a4614d1b565b5b60200201518260ff16600281106136bf576136be614d1b565b5b602002018181516136d09190614dd0565b9150818152505082602001518461010081106136ef576136ee614d1b565b5b60200201518260ff166002811061370957613708614d1b565b5b6020020151836020015185610100811061372657613725614d1b565b5b60200201518260ff16600281106137405761373f614d1b565b5b602002018181516137519190614dd0565b915081815250505b505050505050565b6000808260ff1614613774576000613777565b60015b905085848716036139a75760008486161461389f5782602001518461010081106137a4576137a3614d1b565b5b60200201518260ff16600281106137be576137bd614d1b565b5b602002015160006137cf9190614e14565b83600001518561010081106137e7576137e6614d1b565b5b60200201518260ff166002811061380157613800614d1b565b5b602002018181516138129190614dd0565b91508181525050826000015184610100811061383157613830614d1b565b5b60200201518260ff166002811061384b5761384a614d1b565b5b6020020151836020015185610100811061386857613867614d1b565b5b60200201518260ff166002811061388257613881614d1b565b5b602002018181516138939190614dd0565b915081815250506139a2565b82600001518461010081106138b7576138b6614d1b565b5b60200201518260ff16600281106138d1576138d0614d1b565b5b602002015183600001518561010081106138ee576138ed614d1b565b5b60200201518260ff166002811061390857613907614d1b565b5b602002018181516139199190614dd0565b91508181525050826020015184610100811061393857613937614d1b565b5b60200201518260ff166002811061395257613951614d1b565b5b6020020151836020015185610100811061396f5761396e614d1b565b5b60200201518260ff166002811061398957613988614d1b565b5b6020020181815161399a9190614dd0565b915081815250505b613aaa565b82600001518461010081106139bf576139be614d1b565b5b60200201518260ff16600281106139d9576139d8614d1b565b5b602002015183600001518561010081106139f6576139f5614d1b565b5b60200201518260ff1660028110613a1057613a0f614d1b565b5b60200201818151613a219190614dd0565b915081815250508260200151846101008110613a4057613a3f614d1b565b5b60200201518260ff1660028110613a5a57613a59614d1b565b5b60200201518360200151856101008110613a7757613a76614d1b565b5b60200201518260ff1660028110613a9157613a90614d1b565b5b60200201818151613aa29190614dd0565b915081815250505b505050505050565b6000808260ff1614613ac5576000613ac8565b60015b90508584871603613cf857600084861614613bf0578260200151846101008110613af557613af4614d1b565b5b60200201518260ff1660028110613b0f57613b0e614d1b565b5b60200201518360000151856101008110613b2c57613b2b614d1b565b5b60200201518260ff1660028110613b4657613b45614d1b565b5b60200201818151613b579190614dd0565b915081815250508260000151846101008110613b7657613b75614d1b565b5b60200201518260ff1660028110613b9057613b8f614d1b565b5b60200201516000613ba19190614e14565b8360200151856101008110613bb957613bb8614d1b565b5b60200201518260ff1660028110613bd357613bd2614d1b565b5b60200201818151613be49190614dd0565b91508181525050613cf3565b8260000151846101008110613c0857613c07614d1b565b5b60200201518260ff1660028110613c2257613c21614d1b565b5b60200201518360000151856101008110613c3f57613c3e614d1b565b5b60200201518260ff1660028110613c5957613c58614d1b565b5b60200201818151613c6a9190614dd0565b915081815250508260200151846101008110613c8957613c88614d1b565b5b60200201518260ff1660028110613ca357613ca2614d1b565b5b60200201518360200151856101008110613cc057613cbf614d1b565b5b60200201518260ff1660028110613cda57613cd9614d1b565b5b60200201818151613ceb9190614dd0565b915081815250505b613dfb565b8260000151846101008110613d1057613d0f614d1b565b5b60200201518260ff1660028110613d2a57613d29614d1b565b5b60200201518360000151856101008110613d4757613d46614d1b565b5b60200201518260ff1660028110613d6157613d60614d1b565b5b60200201818151613d729190614dd0565b915081815250508260200151846101008110613d9157613d90614d1b565b5b60200201518260ff1660028110613dab57613daa614d1b565b5b60200201518360200151856101008110613dc857613dc7614d1b565b5b60200201518260ff1660028110613de257613de1614d1b565b5b60200201818151613df39190614dd0565b915081815250505b505050505050565b60008060008360ff1614613e18576000613e1b565b60015b9050600087868916036140c757600086881614613fbf578460200151866101008110613e4a57613e49614d1b565b5b60200201518460ff1660028110613e6457613e63614d1b565b5b60200201518560000151876101008110613e8157613e80614d1b565b5b60200201518560ff1660028110613e9b57613e9a614d1b565b5b6020020151613eaa9190614e14565b8560000151876101008110613ec257613ec1614d1b565b5b60200201518360ff1660028110613edc57613edb614d1b565b5b60200201818151613eed9190614dd0565b915081815250508460200151866101008110613f0c57613f0b614d1b565b5b60200201518460ff1660028110613f2657613f25614d1b565b5b60200201518560000151876101008110613f4357613f42614d1b565b5b60200201518560ff1660028110613f5d57613f5c614d1b565b5b6020020151613f6c9190614dd0565b8560200151876101008110613f8457613f83614d1b565b5b60200201518360ff1660028110613f9e57613f9d614d1b565b5b60200201818151613faf9190614dd0565b91508181525050600190506140c2565b8460000151866101008110613fd757613fd6614d1b565b5b60200201518460ff1660028110613ff157613ff0614d1b565b5b6020020151856000015187610100811061400e5761400d614d1b565b5b60200201518360ff166002811061402857614027614d1b565b5b602002018181516140399190614dd0565b91508181525050846020015186610100811061405857614057614d1b565b5b60200201518460ff166002811061407257614071614d1b565b5b6020020151856020015187610100811061408f5761408e614d1b565b5b60200201518360ff16600281106140a9576140a8614d1b565b5b602002018181516140ba9190614dd0565b915081815250505b6141ca565b84600001518661010081106140df576140de614d1b565b5b60200201518460ff16600281106140f9576140f8614d1b565b5b6020020151856000015187610100811061411657614115614d1b565b5b60200201518360ff16600281106141305761412f614d1b565b5b602002018181516141419190614dd0565b9150818152505084602001518661010081106141605761415f614d1b565b5b60200201518460ff166002811061417a57614179614d1b565b5b6020020151856020015187610100811061419757614196614d1b565b5b60200201518360ff16600281106141b1576141b0614d1b565b5b602002018181516141c29190614dd0565b915081815250505b809250505095945050505050565b60008060008360ff16146141ed5760006141f0565b60015b9050600087868916036144a8576000868816146143a057846020015186610100811061421f5761421e614d1b565b5b60200201518460ff166002811061423957614238614d1b565b5b6020020151856000015187610100811061425657614255614d1b565b5b60200201518560ff16600281106142705761426f614d1b565b5b602002015161427f9190614dd0565b856000015187610100811061429757614296614d1b565b5b60200201518360ff16600281106142b1576142b0614d1b565b5b602002018181516142c29190614dd0565b9150818152505084602001518661010081106142e1576142e0614d1b565b5b60200201518460ff16600281106142fb576142fa614d1b565b5b6020020151856000015187610100811061431857614317614d1b565b5b60200201518560ff166002811061433257614331614d1b565b5b602002015160006143439190614e14565b61434d9190614dd0565b856020015187610100811061436557614364614d1b565b5b60200201518360ff166002811061437f5761437e614d1b565b5b602002018181516143909190614dd0565b91508181525050600190506144a3565b84600001518661010081106143b8576143b7614d1b565b5b60200201518460ff16600281106143d2576143d1614d1b565b5b602002015185600001518761010081106143ef576143ee614d1b565b5b60200201518360ff166002811061440957614408614d1b565b5b6020020181815161441a9190614dd0565b91508181525050846020015186610100811061443957614438614d1b565b5b60200201518460ff166002811061445357614452614d1b565b5b602002015185602001518761010081106144705761446f614d1b565b5b60200201518360ff166002811061448a57614489614d1b565b5b6020020181815161449b9190614dd0565b915081815250505b6145ab565b84600001518661010081106144c0576144bf614d1b565b5b60200201518460ff16600281106144da576144d9614d1b565b5b602002015185600001518761010081106144f7576144f6614d1b565b5b60200201518360ff166002811061451157614510614d1b565b5b602002018181516145229190614dd0565b91508181525050846020015186610100811061454157614540614d1b565b5b60200201518460ff166002811061455b5761455a614d1b565b5b6020020151856020015187610100811061457857614577614d1b565b5b60200201518360ff166002811061459257614591614d1b565b5b602002018181516145a39190614dd0565b915081815250505b809250505095945050505050565b60405180604001604052806145cc614603565b81526020016145d9614603565b81525090565b60405180612000016040528061010090602082028036833780820191505090505090565b604051806120000160405280610100905b61461c614632565b8152602001906001900390816146145790505090565b6040518060400160405280600290602082028036833780820191505090505090565b6000604051905090565b600080fd5b600080fd5b600060ff82169050919050565b61467e81614668565b811461468957600080fd5b50565b60008135905061469b81614675565b92915050565b600080fd5b600080fd5b6000601f19601f8301169050919050565b7f4e487b7100000000000000000000000000000000000000000000000000000000600052604160045260246000fd5b6146f4826146ab565b810181811067ffffffffffffffff82111715614713576147126146bc565b5b80604052505050565b6000614726614654565b905061473282826146eb565b919050565b600067ffffffffffffffff821115614752576147516146bc565b5b61475b826146ab565b9050602081019050919050565b82818337600083830152505050565b600061478a61478584614737565b61471c565b9050828152602081018484840111156147a6576147a56146a6565b5b6147b1848285614768565b509392505050565b600082601f8301126147ce576147cd6146a1565b5b81356147de848260208601614777565b91505092915050565b6000819050919050565b6147fa816147e7565b811461480557600080fd5b50565b600081359050614817816147f1565b92915050565b6000806000606084860312156148365761483561465e565b5b60006148448682870161468c565b935050602084013567ffffffffffffffff81111561486557614864614663565b5b614871868287016147b9565b925050604061488286828701614808565b9150509250925092565b614895816147e7565b82525050565b60006020820190506148b0600083018461488c565b92915050565b600081519050919050565b600082825260208201905092915050565b6000819050602082019050919050565b600081519050919050565b600082825260208201905092915050565b60005b8381101561491c578082015181840152602081019050614901565b60008484015250505050565b6000614933826148e2565b61493d81856148ed565b935061494d8185602086016148fe565b614956816146ab565b840191505092915050565b600061496d8383614928565b905092915050565b6000602082019050919050565b600061498d826148b6565b61499781856148c1565b9350836020820285016149a9856148d2565b8060005b858110156149e557848403895281516149c68582614961565b94506149d183614975565b925060208a019950506001810190506149ad565b50829750879550505050505092915050565b60006020820190508181036000830152614a118184614982565b905092915050565b600082825260208201905092915050565b6000614a35826148e2565b614a3f8185614a19565b9350614a4f8185602086016148fe565b614a58816146ab565b840191505092915050565b60006020820190508181036000830152614a7d8184614a2a565b905092915050565b600060208284031215614a9b57614a9a61465e565b5b6000614aa984828501614808565b91505092915050565b614abb81614668565b82525050565b6000602082019050614ad66000830184614ab2565b92915050565b60008115159050919050565b614af181614adc565b82525050565b6000602082019050614b0c6000830184614ae8565b92915050565b600073ffffffffffffffffffffffffffffffffffffffff82169050919050565b6000614b3d82614b12565b9050919050565b614b4d81614b32565b82525050565b6000602082019050614b686000830184614b44565b92915050565b7f4e487b7100000000000000000000000000000000000000000000000000000000600052601160045260246000fd5b60008160011c9050919050565b6000808291508390505b6001851115614bf457808604811115614bd057614bcf614b6e565b5b6001851615614bdf5780820291505b8081029050614bed85614b9d565b9450614bb4565b94509492505050565b600082614c0d5760019050614cc9565b81614c1b5760009050614cc9565b8160018114614c315760028114614c3b57614c6a565b6001915050614cc9565b60ff841115614c4d57614c4c614b6e565b5b8360020a915084821115614c6457614c63614b6e565b5b50614cc9565b5060208310610133831016604e8410600b8410161715614c9f5782820a905083811115614c9a57614c99614b6e565b5b614cc9565b614cac8484846001614baa565b92509050818404811115614cc357614cc2614b6e565b5b81810290505b9392505050565b6000614cdb826147e7565b9150614ce683614668565b9250614d137fffffffffffffffffffffffffffffffffffffffffffffffffffffffffffffffff8484614bfd565b905092915050565b7f4e487b7100000000000000000000000000000000000000000000000000000000600052603260045260246000fd5b6000614d55826147e7565b91507fffffffffffffffffffffffffffffffffffffffffffffffffffffffffffffffff8203614d8757614d86614b6e565b5b600182019050919050565b6000614d9d826147e7565b9150614da8836147e7565b9250828201905080821115614dc057614dbf614b6e565b5b92915050565b6000819050919050565b6000614ddb82614dc6565b9150614de683614dc6565b925082820190508281121560008312168382126000841215161715614e0e57614e0d614b6e565b5b92915050565b6000614e1f82614dc6565b9150614e2a83614dc6565b9250828203905081811260008412168282136000851215161715614e5157614e50614b6e565b5b92915050565b6000614e62826147e7565b9150614e6d836147e7565b9250828203905081811115614e8557614e84614b6e565b5b92915050565b7f4e487b7100000000000000000000000000000000000000000000000000000000600052602260045260246000fd5b60006002820490506001821680614ed257607f821691505b602082108103614ee557614ee4614e8b565b5b50919050565b7f436865636b20737562736372697074696f6e0000000000000000000000000000600082015250565b6000614f21601283614a19565b9150614f2c82614eeb565b602082019050919050565b60006020820190508181036000830152614f5081614f14565b9050919050565b6000614f6282614668565b9150614f6d83614668565b9250828203905060ff811115614f8657614f85614b6e565b5b92915050565b6000614f9782614dc6565b9150614fa283614dc6565b9250828202614fb081614dc6565b91507f80000000000000000000000000000000000000000000000000000000000000008414600084121615614fe857614fe7614b6e565b5b8282058414831517614ffd57614ffc614b6e565b5b5092915050565b7f556e6b6e6f776e206f7220756e737570706f7274656420676174650000000000600082015250565b600061503a601b83614a19565b915061504582615004565b602082019050919050565b600060208201905081810360008301526150698161502d565b9050919050565b6000606082019050615085600083018661488c565b615092602083018561488c565b61509f604083018461488c565b949350505050565b7f4e487b7100000000000000000000000000000000000000000000000000000000600052601260045260246000fd5b60006150e1826147e7565b91506150ec836147e7565b9250826150fc576150fb6150a7565b5b82820690509291505056fea2646970667358221220104f99d498870bc7e2551f9ec2c9352a84c2388dfc7c6910f2ea707a2f3c989864736f6c63430008110033",
  "linkReferences": {},
  "deployedLinkReferences": {}
}